{
	"contracts/ArtemisZkVoting.sol": {
		"ArtemisDAOVoting": {
			"abi": [
				{
					"inputs": [
						{
							"internalType": "address",
							"name": "initialOwner",
							"type": "address"
						}
					],
					"stateMutability": "nonpayable",
					"type": "constructor"
				},
				{
					"inputs": [],
					"name": "AlreadyVoted",
					"type": "error"
				},
				{
					"inputs": [],
					"name": "EnforcedPause",
					"type": "error"
				},
				{
					"inputs": [],
					"name": "ExpectedPause",
					"type": "error"
				},
				{
					"inputs": [],
					"name": "InvalidMerkleProof",
					"type": "error"
				},
				{
					"inputs": [],
					"name": "InvalidProposal",
					"type": "error"
				},
				{
					"inputs": [],
					"name": "InvalidVote",
					"type": "error"
				},
				{
					"inputs": [],
					"name": "InvalidZkSnarkProof",
					"type": "error"
				},
				{
					"inputs": [],
					"name": "NotYetStarted",
					"type": "error"
				},
				{
					"inputs": [
						{
							"internalType": "address",
							"name": "owner",
							"type": "address"
						}
					],
					"name": "OwnableInvalidOwner",
					"type": "error"
				},
				{
					"inputs": [
						{
							"internalType": "address",
							"name": "account",
							"type": "address"
						}
					],
					"name": "OwnableUnauthorizedAccount",
					"type": "error"
				},
				{
					"inputs": [],
					"name": "VotingEnded",
					"type": "error"
				},
				{
					"anonymous": false,
					"inputs": [
						{
							"indexed": true,
							"internalType": "address",
							"name": "previousOwner",
							"type": "address"
						},
						{
							"indexed": true,
							"internalType": "address",
							"name": "newOwner",
							"type": "address"
						}
					],
					"name": "OwnershipTransferred",
					"type": "event"
				},
				{
					"anonymous": false,
					"inputs": [
						{
							"indexed": false,
							"internalType": "address",
							"name": "account",
							"type": "address"
						}
					],
					"name": "Paused",
					"type": "event"
				},
				{
					"anonymous": false,
					"inputs": [
						{
							"indexed": false,
							"internalType": "uint256",
							"name": "proposalId",
							"type": "uint256"
						},
						{
							"indexed": false,
							"internalType": "string",
							"name": "description",
							"type": "string"
						}
					],
					"name": "ProposalAdded",
					"type": "event"
				},
				{
					"anonymous": false,
					"inputs": [
						{
							"indexed": false,
							"internalType": "uint256",
							"name": "proposalId",
							"type": "uint256"
						},
						{
							"indexed": false,
							"internalType": "bool",
							"name": "achievedQuorum",
							"type": "bool"
						},
						{
							"indexed": false,
							"internalType": "bool",
							"name": "supported",
							"type": "bool"
						}
					],
					"name": "ProposalEnded",
					"type": "event"
				},
				{
					"anonymous": false,
					"inputs": [
						{
							"indexed": false,
							"internalType": "address",
							"name": "account",
							"type": "address"
						}
					],
					"name": "Unpaused",
					"type": "event"
				},
				{
					"anonymous": false,
					"inputs": [
						{
							"indexed": false,
							"internalType": "uint256",
							"name": "proposalId",
							"type": "uint256"
						},
						{
							"indexed": false,
							"internalType": "bool",
							"name": "support",
							"type": "bool"
						}
					],
					"name": "VoteReceived",
					"type": "event"
				},
				{
					"inputs": [
						{
							"internalType": "string",
							"name": "description",
							"type": "string"
						},
						{
							"internalType": "bytes32",
							"name": "_merkleRoot",
							"type": "bytes32"
						},
						{
							"internalType": "uint256",
							"name": "duration",
							"type": "uint256"
						},
						{
							"internalType": "uint256",
							"name": "_quorum",
							"type": "uint256"
						},
						{
							"internalType": "uint256",
							"name": "passcodeHash",
							"type": "uint256"
						}
					],
					"name": "addProposal",
					"outputs": [],
					"stateMutability": "nonpayable",
					"type": "function"
				},
				{
					"inputs": [
						{
							"internalType": "uint256",
							"name": "proposalId",
							"type": "uint256"
						}
					],
					"name": "endVoting",
					"outputs": [],
					"stateMutability": "nonpayable",
					"type": "function"
				},
				{
					"inputs": [
						{
							"internalType": "uint256",
							"name": "proposalId",
							"type": "uint256"
						}
					],
					"name": "getProposal",
					"outputs": [
						{
							"internalType": "bytes32",
							"name": "merkleRoot",
							"type": "bytes32"
						},
						{
							"internalType": "string",
							"name": "proposalDescription",
							"type": "string"
						},
						{
							"internalType": "uint256",
							"name": "startTime",
							"type": "uint256"
						},
						{
							"internalType": "uint256",
							"name": "endTime",
							"type": "uint256"
						},
						{
							"internalType": "uint256",
							"name": "quorum",
							"type": "uint256"
						},
						{
							"internalType": "uint256",
							"name": "passcodeHash",
							"type": "uint256"
						},
						{
							"internalType": "bool",
							"name": "hasEnded",
							"type": "bool"
						}
					],
					"stateMutability": "view",
					"type": "function"
				},
				{
					"inputs": [],
					"name": "owner",
					"outputs": [
						{
							"internalType": "address",
							"name": "",
							"type": "address"
						}
					],
					"stateMutability": "view",
					"type": "function"
				},
				{
					"inputs": [],
					"name": "pauseVoting",
					"outputs": [],
					"stateMutability": "nonpayable",
					"type": "function"
				},
				{
					"inputs": [],
					"name": "paused",
					"outputs": [
						{
							"internalType": "bool",
							"name": "",
							"type": "bool"
						}
					],
					"stateMutability": "view",
					"type": "function"
				},
				{
					"inputs": [],
					"name": "proposalCount",
					"outputs": [
						{
							"internalType": "uint256",
							"name": "",
							"type": "uint256"
						}
					],
					"stateMutability": "view",
					"type": "function"
				},
				{
					"inputs": [
						{
							"internalType": "uint256",
							"name": "",
							"type": "uint256"
						}
					],
					"name": "proposals",
					"outputs": [
						{
							"internalType": "bytes32",
							"name": "merkleRoot",
							"type": "bytes32"
						},
						{
							"internalType": "string",
							"name": "proposalDescription",
							"type": "string"
						},
						{
							"internalType": "uint256",
							"name": "startTime",
							"type": "uint256"
						},
						{
							"internalType": "uint256",
							"name": "endTime",
							"type": "uint256"
						},
						{
							"internalType": "uint256",
							"name": "quorum",
							"type": "uint256"
						},
						{
							"internalType": "bool",
							"name": "hasEnded",
							"type": "bool"
						},
						{
							"internalType": "uint256",
							"name": "passcodeHash",
							"type": "uint256"
						}
					],
					"stateMutability": "view",
					"type": "function"
				},
				{
					"inputs": [],
					"name": "renounceOwnership",
					"outputs": [],
					"stateMutability": "nonpayable",
					"type": "function"
				},
				{
					"inputs": [],
					"name": "resumeVoting",
					"outputs": [],
					"stateMutability": "nonpayable",
					"type": "function"
				},
				{
					"inputs": [
						{
							"internalType": "address",
							"name": "newOwner",
							"type": "address"
						}
					],
					"name": "transferContractOwnership",
					"outputs": [],
					"stateMutability": "nonpayable",
					"type": "function"
				},
				{
					"inputs": [
						{
							"internalType": "address",
							"name": "newOwner",
							"type": "address"
						}
					],
					"name": "transferOwnership",
					"outputs": [],
					"stateMutability": "nonpayable",
					"type": "function"
				},
				{
					"inputs": [],
					"name": "verifier",
					"outputs": [
						{
							"internalType": "contract Groth16Verifier",
							"name": "",
							"type": "address"
						}
					],
					"stateMutability": "view",
					"type": "function"
				},
				{
					"inputs": [
						{
							"internalType": "uint256[2]",
							"name": "_pA",
							"type": "uint256[2]"
						},
						{
							"internalType": "uint256[2][2]",
							"name": "_pB",
							"type": "uint256[2][2]"
						},
						{
							"internalType": "uint256[2]",
							"name": "_pC",
							"type": "uint256[2]"
						},
						{
							"internalType": "uint256[2]",
							"name": "_pubSignals",
							"type": "uint256[2]"
						}
					],
					"name": "verifyProof",
					"outputs": [
						{
							"internalType": "bool",
							"name": "",
							"type": "bool"
						}
					],
					"stateMutability": "view",
					"type": "function"
				},
				{
					"inputs": [
						{
							"internalType": "uint256",
							"name": "proposalId",
							"type": "uint256"
						},
						{
							"internalType": "bool",
							"name": "support",
							"type": "bool"
						},
						{
							"internalType": "bytes32[]",
							"name": "merkleProof",
							"type": "bytes32[]"
						},
						{
							"internalType": "bytes32",
							"name": "leaf",
							"type": "bytes32"
						},
						{
							"internalType": "uint256[]",
							"name": "proof",
							"type": "uint256[]"
						}
					],
					"name": "voteForProposal",
					"outputs": [],
					"stateMutability": "nonpayable",
					"type": "function"
				}
			],
			"devdoc": {
				"errors": {
					"EnforcedPause()": [
						{
							"details": "The operation failed because the contract is paused."
						}
					],
					"ExpectedPause()": [
						{
							"details": "The operation failed because the contract is not paused."
						}
					],
					"OwnableInvalidOwner(address)": [
						{
							"details": "The owner is not a valid owner account. (eg. `address(0)`)"
						}
					],
					"OwnableUnauthorizedAccount(address)": [
						{
							"details": "The caller account is not authorized to perform an operation."
						}
					]
				},
				"events": {
					"Paused(address)": {
						"details": "Emitted when the pause is triggered by `account`."
					},
					"Unpaused(address)": {
						"details": "Emitted when the pause is lifted by `account`."
					}
				},
				"kind": "dev",
				"methods": {
					"owner()": {
						"details": "Returns the address of the current owner."
					},
					"paused()": {
						"details": "Returns true if the contract is paused, and false otherwise."
					},
					"renounceOwnership()": {
						"details": "Leaves the contract without owner. It will not be possible to call `onlyOwner` functions. Can only be called by the current owner. NOTE: Renouncing ownership will leave the contract without an owner, thereby disabling any functionality that is only available to the owner."
					},
					"transferOwnership(address)": {
						"details": "Transfers ownership of the contract to a new account (`newOwner`). Can only be called by the current owner."
					}
				},
				"version": 1
			},
			"evm": {
				"assembly": "    /* \"contracts/ArtemisZkVoting.sol\":263:5663  contract ArtemisDAOVoting is Ownable, Groth16Verifier, Pausable {... */\n  mstore(0x40, 0x80)\n    /* \"contracts/ArtemisZkVoting.sol\":1308:1366  constructor(address initialOwner) Ownable(initialOwner) {} */\n  callvalue\n  dup1\n  iszero\n  tag_1\n  jumpi\n  0x00\n  dup1\n  revert\ntag_1:\n  pop\n  mload(0x40)\n  sub(codesize, bytecodeSize)\n  dup1\n  bytecodeSize\n  dup4\n  codecopy\n  dup2\n  dup2\n  add\n  0x40\n  mstore\n  dup2\n  add\n  swap1\n  tag_2\n  swap2\n  swap1\n  tag_3\n  jump\t// in\ntag_2:\n    /* \"contracts/ArtemisZkVoting.sol\":1350:1362  initialOwner */\n  dup1\n    /* \"@openzeppelin/contracts/access/Ownable.sol\":1297:1298  0 */\n  0x00\n    /* \"@openzeppelin/contracts/access/Ownable.sol\":1273:1299  initialOwner == address(0) */\n  0xffffffffffffffffffffffffffffffffffffffff\n  and\n    /* \"@openzeppelin/contracts/access/Ownable.sol\":1273:1285  initialOwner */\n  dup2\n    /* \"@openzeppelin/contracts/access/Ownable.sol\":1273:1299  initialOwner == address(0) */\n  0xffffffffffffffffffffffffffffffffffffffff\n  and\n  sub\n    /* \"@openzeppelin/contracts/access/Ownable.sol\":1269:1364  if (initialOwner == address(0)) {... */\n  tag_8\n  jumpi\n    /* \"@openzeppelin/contracts/access/Ownable.sol\":1350:1351  0 */\n  0x00\n    /* \"@openzeppelin/contracts/access/Ownable.sol\":1322:1353  OwnableInvalidOwner(address(0)) */\n  mload(0x40)\n  0x1e4fbdf700000000000000000000000000000000000000000000000000000000\n  dup2\n  mstore\n  0x04\n  add\n  tag_9\n  swap2\n  swap1\n  tag_10\n  jump\t// in\ntag_9:\n  mload(0x40)\n  dup1\n  swap2\n  sub\n  swap1\n  revert\n    /* \"@openzeppelin/contracts/access/Ownable.sol\":1269:1364  if (initialOwner == address(0)) {... */\ntag_8:\n    /* \"@openzeppelin/contracts/access/Ownable.sol\":1373:1405  _transferOwnership(initialOwner) */\n  tag_11\n    /* \"@openzeppelin/contracts/access/Ownable.sol\":1392:1404  initialOwner */\n  dup2\n    /* \"@openzeppelin/contracts/access/Ownable.sol\":1373:1391  _transferOwnership */\n  shl(0x20, tag_12)\n    /* \"@openzeppelin/contracts/access/Ownable.sol\":1373:1405  _transferOwnership(initialOwner) */\n  0x20\n  shr\n  jump\t// in\ntag_11:\n    /* \"@openzeppelin/contracts/access/Ownable.sol\":1225:1412  constructor(address initialOwner) {... */\n  pop\n    /* \"@openzeppelin/contracts/utils/Pausable.sol\":1241:1246  false */\n  0x00\n    /* \"@openzeppelin/contracts/utils/Pausable.sol\":1231:1238  _paused */\n  dup1\n  0x14\n    /* \"@openzeppelin/contracts/utils/Pausable.sol\":1231:1246  _paused = false */\n  0x0100\n  exp\n  dup2\n  sload\n  dup2\n  0xff\n  mul\n  not\n  and\n  swap1\n  dup4\n  iszero\n  iszero\n  mul\n  or\n  swap1\n  sstore\n  pop\n    /* \"contracts/ArtemisZkVoting.sol\":1308:1366  constructor(address initialOwner) Ownable(initialOwner) {} */\n  pop\n    /* \"contracts/ArtemisZkVoting.sol\":263:5663  contract ArtemisDAOVoting is Ownable, Groth16Verifier, Pausable {... */\n  jump(tag_15)\n    /* \"@openzeppelin/contracts/access/Ownable.sol\":2912:3099  function _transferOwnership(address newOwner) internal virtual {... */\ntag_12:\n    /* \"@openzeppelin/contracts/access/Ownable.sol\":2985:3001  address oldOwner */\n  0x00\n    /* \"@openzeppelin/contracts/access/Ownable.sol\":3004:3010  _owner */\n  dup1\n  0x00\n  swap1\n  sload\n  swap1\n  0x0100\n  exp\n  swap1\n  div\n  0xffffffffffffffffffffffffffffffffffffffff\n  and\n    /* \"@openzeppelin/contracts/access/Ownable.sol\":2985:3010  address oldOwner = _owner */\n  swap1\n  pop\n    /* \"@openzeppelin/contracts/access/Ownable.sol\":3029:3037  newOwner */\n  dup2\n    /* \"@openzeppelin/contracts/access/Ownable.sol\":3020:3026  _owner */\n  0x00\n  dup1\n    /* \"@openzeppelin/contracts/access/Ownable.sol\":3020:3037  _owner = newOwner */\n  0x0100\n  exp\n  dup2\n  sload\n  dup2\n  0xffffffffffffffffffffffffffffffffffffffff\n  mul\n  not\n  and\n  swap1\n  dup4\n  0xffffffffffffffffffffffffffffffffffffffff\n  and\n  mul\n  or\n  swap1\n  sstore\n  pop\n    /* \"@openzeppelin/contracts/access/Ownable.sol\":3083:3091  newOwner */\n  dup2\n    /* \"@openzeppelin/contracts/access/Ownable.sol\":3052:3092  OwnershipTransferred(oldOwner, newOwner) */\n  0xffffffffffffffffffffffffffffffffffffffff\n  and\n    /* \"@openzeppelin/contracts/access/Ownable.sol\":3073:3081  oldOwner */\n  dup2\n    /* \"@openzeppelin/contracts/access/Ownable.sol\":3052:3092  OwnershipTransferred(oldOwner, newOwner) */\n  0xffffffffffffffffffffffffffffffffffffffff\n  and\n  0x8be0079c531659141344cd1fd0a4f28419497f9722a3daafe3b4186f6b6457e0\n  mload(0x40)\n  mload(0x40)\n  dup1\n  swap2\n  sub\n  swap1\n  log3\n    /* \"@openzeppelin/contracts/access/Ownable.sol\":2975:3099  {... */\n  pop\n    /* \"@openzeppelin/contracts/access/Ownable.sol\":2912:3099  function _transferOwnership(address newOwner) internal virtual {... */\n  pop\n  jump\t// out\n    /* \"#utility.yul\":88:205   */\ntag_18:\n    /* \"#utility.yul\":197:198   */\n  0x00\n    /* \"#utility.yul\":194:195   */\n  dup1\n    /* \"#utility.yul\":187:199   */\n  revert\n    /* \"#utility.yul\":334:460   */\ntag_20:\n    /* \"#utility.yul\":371:378   */\n  0x00\n    /* \"#utility.yul\":411:453   */\n  0xffffffffffffffffffffffffffffffffffffffff\n    /* \"#utility.yul\":404:409   */\n  dup3\n    /* \"#utility.yul\":400:454   */\n  and\n    /* \"#utility.yul\":389:454   */\n  swap1\n  pop\n    /* \"#utility.yul\":334:460   */\n  swap2\n  swap1\n  pop\n  jump\t// out\n    /* \"#utility.yul\":466:562   */\ntag_21:\n    /* \"#utility.yul\":503:510   */\n  0x00\n    /* \"#utility.yul\":532:556   */\n  tag_31\n    /* \"#utility.yul\":550:555   */\n  dup3\n    /* \"#utility.yul\":532:556   */\n  tag_20\n  jump\t// in\ntag_31:\n    /* \"#utility.yul\":521:556   */\n  swap1\n  pop\n    /* \"#utility.yul\":466:562   */\n  swap2\n  swap1\n  pop\n  jump\t// out\n    /* \"#utility.yul\":568:690   */\ntag_22:\n    /* \"#utility.yul\":641:665   */\n  tag_33\n    /* \"#utility.yul\":659:664   */\n  dup2\n    /* \"#utility.yul\":641:665   */\n  tag_21\n  jump\t// in\ntag_33:\n    /* \"#utility.yul\":634:639   */\n  dup2\n    /* \"#utility.yul\":631:666   */\n  eq\n    /* \"#utility.yul\":621:684   */\n  tag_34\n  jumpi\n    /* \"#utility.yul\":680:681   */\n  0x00\n    /* \"#utility.yul\":677:678   */\n  dup1\n    /* \"#utility.yul\":670:682   */\n  revert\n    /* \"#utility.yul\":621:684   */\ntag_34:\n    /* \"#utility.yul\":568:690   */\n  pop\n  jump\t// out\n    /* \"#utility.yul\":696:839   */\ntag_23:\n    /* \"#utility.yul\":753:758   */\n  0x00\n    /* \"#utility.yul\":784:790   */\n  dup2\n    /* \"#utility.yul\":778:791   */\n  mload\n    /* \"#utility.yul\":769:791   */\n  swap1\n  pop\n    /* \"#utility.yul\":800:833   */\n  tag_36\n    /* \"#utility.yul\":827:832   */\n  dup2\n    /* \"#utility.yul\":800:833   */\n  tag_22\n  jump\t// in\ntag_36:\n    /* \"#utility.yul\":696:839   */\n  swap3\n  swap2\n  pop\n  pop\n  jump\t// out\n    /* \"#utility.yul\":845:1196   */\ntag_3:\n    /* \"#utility.yul\":915:921   */\n  0x00\n    /* \"#utility.yul\":964:966   */\n  0x20\n    /* \"#utility.yul\":952:961   */\n  dup3\n    /* \"#utility.yul\":943:950   */\n  dup5\n    /* \"#utility.yul\":939:962   */\n  sub\n    /* \"#utility.yul\":935:967   */\n  slt\n    /* \"#utility.yul\":932:1051   */\n  iszero\n  tag_38\n  jumpi\n    /* \"#utility.yul\":970:1049   */\n  tag_39\n  tag_18\n  jump\t// in\ntag_39:\n    /* \"#utility.yul\":932:1051   */\ntag_38:\n    /* \"#utility.yul\":1090:1091   */\n  0x00\n    /* \"#utility.yul\":1115:1179   */\n  tag_40\n    /* \"#utility.yul\":1171:1178   */\n  dup5\n    /* \"#utility.yul\":1162:1168   */\n  dup3\n    /* \"#utility.yul\":1151:1160   */\n  dup6\n    /* \"#utility.yul\":1147:1169   */\n  add\n    /* \"#utility.yul\":1115:1179   */\n  tag_23\n  jump\t// in\ntag_40:\n    /* \"#utility.yul\":1105:1179   */\n  swap2\n  pop\n    /* \"#utility.yul\":1061:1189   */\n  pop\n    /* \"#utility.yul\":845:1196   */\n  swap3\n  swap2\n  pop\n  pop\n  jump\t// out\n    /* \"#utility.yul\":1202:1320   */\ntag_24:\n    /* \"#utility.yul\":1289:1313   */\n  tag_42\n    /* \"#utility.yul\":1307:1312   */\n  dup2\n    /* \"#utility.yul\":1289:1313   */\n  tag_21\n  jump\t// in\ntag_42:\n    /* \"#utility.yul\":1284:1287   */\n  dup3\n    /* \"#utility.yul\":1277:1314   */\n  mstore\n    /* \"#utility.yul\":1202:1320   */\n  pop\n  pop\n  jump\t// out\n    /* \"#utility.yul\":1326:1548   */\ntag_10:\n    /* \"#utility.yul\":1419:1423   */\n  0x00\n    /* \"#utility.yul\":1457:1459   */\n  0x20\n    /* \"#utility.yul\":1446:1455   */\n  dup3\n    /* \"#utility.yul\":1442:1460   */\n  add\n    /* \"#utility.yul\":1434:1460   */\n  swap1\n  pop\n    /* \"#utility.yul\":1470:1541   */\n  tag_44\n    /* \"#utility.yul\":1538:1539   */\n  0x00\n    /* \"#utility.yul\":1527:1536   */\n  dup4\n    /* \"#utility.yul\":1523:1540   */\n  add\n    /* \"#utility.yul\":1514:1520   */\n  dup5\n    /* \"#utility.yul\":1470:1541   */\n  tag_24\n  jump\t// in\ntag_44:\n    /* \"#utility.yul\":1326:1548   */\n  swap3\n  swap2\n  pop\n  pop\n  jump\t// out\n    /* \"contracts/ArtemisZkVoting.sol\":263:5663  contract ArtemisDAOVoting is Ownable, Groth16Verifier, Pausable {... */\ntag_15:\n  dataSize(sub_0)\n  dup1\n  dataOffset(sub_0)\n  0x00\n  codecopy\n  0x00\n  return\nstop\n\nsub_0: assembly {\n        /* \"contracts/ArtemisZkVoting.sol\":263:5663  contract ArtemisDAOVoting is Ownable, Groth16Verifier, Pausable {... */\n      mstore(0x40, 0x80)\n      callvalue\n      dup1\n      iszero\n      tag_1\n      jumpi\n      0x00\n      dup1\n      revert\n    tag_1:\n      pop\n      jumpi(tag_2, lt(calldatasize, 0x04))\n      shr(0xe0, calldataload(0x00))\n      dup1\n      0x8da5cb5b\n      gt\n      tag_18\n      jumpi\n      dup1\n      0xda35c664\n      gt\n      tag_19\n      jumpi\n      dup1\n      0xda35c664\n      eq\n      tag_14\n      jumpi\n      dup1\n      0xf2fde38b\n      eq\n      tag_15\n      jumpi\n      dup1\n      0xf3cdcd1e\n      eq\n      tag_16\n      jumpi\n      dup1\n      0xf5c9d69e\n      eq\n      tag_17\n      jumpi\n      jump(tag_2)\n    tag_19:\n      dup1\n      0x8da5cb5b\n      eq\n      tag_10\n      jumpi\n      dup1\n      0xa843c51f\n      eq\n      tag_11\n      jumpi\n      dup1\n      0xc7f758a8\n      eq\n      tag_12\n      jumpi\n      dup1\n      0xd7e82e2e\n      eq\n      tag_13\n      jumpi\n      jump(tag_2)\n    tag_18:\n      dup1\n      0x649f89a5\n      gt\n      tag_20\n      jumpi\n      dup1\n      0x649f89a5\n      eq\n      tag_6\n      jumpi\n      dup1\n      0x715018a6\n      eq\n      tag_7\n      jumpi\n      dup1\n      0x7afdf93e\n      eq\n      tag_8\n      jumpi\n      dup1\n      0x8c7d69e4\n      eq\n      tag_9\n      jumpi\n      jump(tag_2)\n    tag_20:\n      dup1\n      0x013cf08b\n      eq\n      tag_3\n      jumpi\n      dup1\n      0x2b7ac3f3\n      eq\n      tag_4\n      jumpi\n      dup1\n      0x5c975abb\n      eq\n      tag_5\n      jumpi\n    tag_2:\n      0x00\n      dup1\n      revert\n        /* \"contracts/ArtemisZkVoting.sol\":753:798  mapping(uint256 => Proposal) public proposals */\n    tag_3:\n      tag_21\n      0x04\n      dup1\n      calldatasize\n      sub\n      dup2\n      add\n      swap1\n      tag_22\n      swap2\n      swap1\n      tag_23\n      jump\t// in\n    tag_22:\n      tag_24\n      jump\t// in\n    tag_21:\n      mload(0x40)\n      tag_25\n      swap8\n      swap7\n      swap6\n      swap5\n      swap4\n      swap3\n      swap2\n      swap1\n      tag_26\n      jump\t// in\n    tag_25:\n      mload(0x40)\n      dup1\n      swap2\n      sub\n      swap1\n      return\n        /* \"contracts/ArtemisZkVoting.sol\":333:364  Groth16Verifier public verifier */\n    tag_4:\n      tag_27\n      tag_28\n      jump\t// in\n    tag_27:\n      mload(0x40)\n      tag_29\n      swap2\n      swap1\n      tag_30\n      jump\t// in\n    tag_29:\n      mload(0x40)\n      dup1\n      swap2\n      sub\n      swap1\n      return\n        /* \"@openzeppelin/contracts/utils/Pausable.sol\":1850:1934  function paused() public view virtual returns (bool) {... */\n    tag_5:\n      tag_31\n      tag_32\n      jump\t// in\n    tag_31:\n      mload(0x40)\n      tag_33\n      swap2\n      swap1\n      tag_34\n      jump\t// in\n    tag_33:\n      mload(0x40)\n      dup1\n      swap2\n      sub\n      swap1\n      return\n        /* \"contracts/ArtemisZkVoting.sol\":4242:5157  function endVoting(uint256 proposalId) external {... */\n    tag_6:\n      tag_35\n      0x04\n      dup1\n      calldatasize\n      sub\n      dup2\n      add\n      swap1\n      tag_36\n      swap2\n      swap1\n      tag_23\n      jump\t// in\n    tag_36:\n      tag_37\n      jump\t// in\n    tag_35:\n      stop\n        /* \"@openzeppelin/contracts/access/Ownable.sol\":2293:2394  function renounceOwnership() public virtual onlyOwner {... */\n    tag_7:\n      tag_38\n      tag_39\n      jump\t// in\n    tag_38:\n      stop\n        /* \"contracts/ArtemisZkVoting.sol\":5469:5539  function resumeVoting() external onlyOwner {... */\n    tag_8:\n      tag_40\n      tag_41\n      jump\t// in\n    tag_40:\n      stop\n        /* \"contracts/ArtemisZkVoting.sol\":2902:4236  function voteForProposal(... */\n    tag_9:\n      tag_42\n      0x04\n      dup1\n      calldatasize\n      sub\n      dup2\n      add\n      swap1\n      tag_43\n      swap2\n      swap1\n      tag_44\n      jump\t// in\n    tag_43:\n      tag_45\n      jump\t// in\n    tag_42:\n      stop\n        /* \"@openzeppelin/contracts/access/Ownable.sol\":1638:1723  function owner() public view virtual returns (address) {... */\n    tag_10:\n      tag_46\n      tag_47\n      jump\t// in\n    tag_46:\n      mload(0x40)\n      tag_48\n      swap2\n      swap1\n      tag_49\n      jump\t// in\n    tag_48:\n      mload(0x40)\n      dup1\n      swap2\n      sub\n      swap1\n      return\n        /* \"contracts/ArtemisZkVoting.sol\":5545:5661  function transferContractOwnership(address newOwner) external onlyOwner {... */\n    tag_11:\n      tag_50\n      0x04\n      dup1\n      calldatasize\n      sub\n      dup2\n      add\n      swap1\n      tag_51\n      swap2\n      swap1\n      tag_52\n      jump\t// in\n    tag_51:\n      tag_53\n      jump\t// in\n    tag_50:\n      stop\n        /* \"contracts/ArtemisZkVoting.sol\":2227:2896  function getProposal(... */\n    tag_12:\n      tag_54\n      0x04\n      dup1\n      calldatasize\n      sub\n      dup2\n      add\n      swap1\n      tag_55\n      swap2\n      swap1\n      tag_23\n      jump\t// in\n    tag_55:\n      tag_56\n      jump\t// in\n    tag_54:\n      mload(0x40)\n      tag_57\n      swap8\n      swap7\n      swap6\n      swap5\n      swap4\n      swap3\n      swap2\n      swap1\n      tag_58\n      jump\t// in\n    tag_57:\n      mload(0x40)\n      dup1\n      swap2\n      sub\n      swap1\n      return\n        /* \"contracts/ArtemisZkVoting.sol\":1372:2221  function addProposal(... */\n    tag_13:\n      tag_59\n      0x04\n      dup1\n      calldatasize\n      sub\n      dup2\n      add\n      swap1\n      tag_60\n      swap2\n      swap1\n      tag_61\n      jump\t// in\n    tag_60:\n      tag_62\n      jump\t// in\n    tag_59:\n      stop\n        /* \"contracts/ArtemisZkVoting.sol\":804:832  uint256 public proposalCount */\n    tag_14:\n      tag_63\n      tag_64\n      jump\t// in\n    tag_63:\n      mload(0x40)\n      tag_65\n      swap2\n      swap1\n      tag_66\n      jump\t// in\n    tag_65:\n      mload(0x40)\n      dup1\n      swap2\n      sub\n      swap1\n      return\n        /* \"@openzeppelin/contracts/access/Ownable.sol\":2543:2758  function transferOwnership(address newOwner) public virtual onlyOwner {... */\n    tag_15:\n      tag_67\n      0x04\n      dup1\n      calldatasize\n      sub\n      dup2\n      add\n      swap1\n      tag_68\n      swap2\n      swap1\n      tag_52\n      jump\t// in\n    tag_68:\n      tag_69\n      jump\t// in\n    tag_67:\n      stop\n        /* \"contracts/ArtemisZkVoting.sol\":5396:5463  function pauseVoting() external onlyOwner {... */\n    tag_16:\n      tag_70\n      tag_71\n      jump\t// in\n    tag_70:\n      stop\n        /* \"contracts/Verifier.sol\":3470:7520  function verifyProof(uint[2] calldata _pA, uint[2][2] calldata _pB, uint[2] calldata _pC, uint[2] calldata _pubSignals) public view returns (bool) {... */\n    tag_17:\n      tag_72\n      0x04\n      dup1\n      calldatasize\n      sub\n      dup2\n      add\n      swap1\n      tag_73\n      swap2\n      swap1\n      tag_74\n      jump\t// in\n    tag_73:\n      tag_75\n      jump\t// in\n    tag_72:\n      mload(0x40)\n      tag_76\n      swap2\n      swap1\n      tag_34\n      jump\t// in\n    tag_76:\n      mload(0x40)\n      dup1\n      swap2\n      sub\n      swap1\n      return\n        /* \"contracts/ArtemisZkVoting.sol\":753:798  mapping(uint256 => Proposal) public proposals */\n    tag_24:\n      mstore(0x20, 0x02)\n      dup1\n      0x00\n      mstore\n      keccak256(0x00, 0x40)\n      0x00\n      swap2\n      pop\n      swap1\n      pop\n      dup1\n      0x00\n      add\n      sload\n      swap1\n      dup1\n      0x01\n      add\n      dup1\n      sload\n      tag_77\n      swap1\n      tag_78\n      jump\t// in\n    tag_77:\n      dup1\n      0x1f\n      add\n      0x20\n      dup1\n      swap2\n      div\n      mul\n      0x20\n      add\n      mload(0x40)\n      swap1\n      dup2\n      add\n      0x40\n      mstore\n      dup1\n      swap3\n      swap2\n      swap1\n      dup2\n      dup2\n      mstore\n      0x20\n      add\n      dup3\n      dup1\n      sload\n      tag_79\n      swap1\n      tag_78\n      jump\t// in\n    tag_79:\n      dup1\n      iszero\n      tag_80\n      jumpi\n      dup1\n      0x1f\n      lt\n      tag_81\n      jumpi\n      0x0100\n      dup1\n      dup4\n      sload\n      div\n      mul\n      dup4\n      mstore\n      swap2\n      0x20\n      add\n      swap2\n      jump(tag_80)\n    tag_81:\n      dup3\n      add\n      swap2\n      swap1\n      0x00\n      mstore\n      keccak256(0x00, 0x20)\n      swap1\n    tag_82:\n      dup2\n      sload\n      dup2\n      mstore\n      swap1\n      0x01\n      add\n      swap1\n      0x20\n      add\n      dup1\n      dup4\n      gt\n      tag_82\n      jumpi\n      dup3\n      swap1\n      sub\n      0x1f\n      and\n      dup3\n      add\n      swap2\n    tag_80:\n      pop\n      pop\n      pop\n      pop\n      pop\n      swap1\n      dup1\n      0x04\n      add\n      sload\n      swap1\n      dup1\n      0x05\n      add\n      sload\n      swap1\n      dup1\n      0x06\n      add\n      sload\n      swap1\n      dup1\n      0x07\n      add\n      0x00\n      swap1\n      sload\n      swap1\n      0x0100\n      exp\n      swap1\n      div\n      0xff\n      and\n      swap1\n      dup1\n      0x08\n      add\n      sload\n      swap1\n      pop\n      dup8\n      jump\t// out\n        /* \"contracts/ArtemisZkVoting.sol\":333:364  Groth16Verifier public verifier */\n    tag_28:\n      0x01\n      0x00\n      swap1\n      sload\n      swap1\n      0x0100\n      exp\n      swap1\n      div\n      0xffffffffffffffffffffffffffffffffffffffff\n      and\n      dup2\n      jump\t// out\n        /* \"@openzeppelin/contracts/utils/Pausable.sol\":1850:1934  function paused() public view virtual returns (bool) {... */\n    tag_32:\n        /* \"@openzeppelin/contracts/utils/Pausable.sol\":1897:1901  bool */\n      0x00\n        /* \"@openzeppelin/contracts/utils/Pausable.sol\":1920:1927  _paused */\n      dup1\n      0x14\n      swap1\n      sload\n      swap1\n      0x0100\n      exp\n      swap1\n      div\n      0xff\n      and\n        /* \"@openzeppelin/contracts/utils/Pausable.sol\":1913:1927  return _paused */\n      swap1\n      pop\n        /* \"@openzeppelin/contracts/utils/Pausable.sol\":1850:1934  function paused() public view virtual returns (bool) {... */\n      swap1\n      jump\t// out\n        /* \"contracts/ArtemisZkVoting.sol\":4242:5157  function endVoting(uint256 proposalId) external {... */\n    tag_37:\n        /* \"contracts/ArtemisZkVoting.sol\":4300:4325  Proposal storage proposal */\n      0x00\n        /* \"contracts/ArtemisZkVoting.sol\":4328:4337  proposals */\n      0x02\n        /* \"contracts/ArtemisZkVoting.sol\":4328:4349  proposals[proposalId] */\n      0x00\n        /* \"contracts/ArtemisZkVoting.sol\":4338:4348  proposalId */\n      dup4\n        /* \"contracts/ArtemisZkVoting.sol\":4328:4349  proposals[proposalId] */\n      dup2\n      mstore\n      0x20\n      add\n      swap1\n      dup2\n      mstore\n      0x20\n      add\n      0x00\n      keccak256\n        /* \"contracts/ArtemisZkVoting.sol\":4300:4349  Proposal storage proposal = proposals[proposalId] */\n      swap1\n      pop\n        /* \"contracts/ArtemisZkVoting.sol\":4398:4406  proposal */\n      dup1\n        /* \"contracts/ArtemisZkVoting.sol\":4398:4414  proposal.endTime */\n      0x05\n      add\n      sload\n        /* \"contracts/ArtemisZkVoting.sol\":4380:4395  block.timestamp */\n      timestamp\n        /* \"contracts/ArtemisZkVoting.sol\":4380:4414  block.timestamp > proposal.endTime */\n      gt\n        /* \"contracts/ArtemisZkVoting.sol\":4359:4470  require(... */\n      tag_85\n      jumpi\n      mload(0x40)\n      0x08c379a000000000000000000000000000000000000000000000000000000000\n      dup2\n      mstore\n      0x04\n      add\n      tag_86\n      swap1\n      tag_87\n      jump\t// in\n    tag_86:\n      mload(0x40)\n      dup1\n      swap2\n      sub\n      swap1\n      revert\n    tag_85:\n        /* \"contracts/ArtemisZkVoting.sol\":4502:4510  proposal */\n      dup1\n        /* \"contracts/ArtemisZkVoting.sol\":4502:4519  proposal.hasEnded */\n      0x07\n      add\n      0x00\n      swap1\n      sload\n      swap1\n      0x0100\n      exp\n      swap1\n      div\n      0xff\n      and\n        /* \"contracts/ArtemisZkVoting.sol\":4501:4519  !proposal.hasEnded */\n      iszero\n        /* \"contracts/ArtemisZkVoting.sol\":4480:4588  require(... */\n      tag_88\n      jumpi\n      mload(0x40)\n      0x08c379a000000000000000000000000000000000000000000000000000000000\n      dup2\n      mstore\n      0x04\n      add\n      tag_89\n      swap1\n      tag_90\n      jump\t// in\n    tag_89:\n      mload(0x40)\n      dup1\n      swap2\n      sub\n      swap1\n      revert\n    tag_88:\n        /* \"contracts/ArtemisZkVoting.sol\":4619:4623  true */\n      0x01\n        /* \"contracts/ArtemisZkVoting.sol\":4599:4607  proposal */\n      dup2\n        /* \"contracts/ArtemisZkVoting.sol\":4599:4616  proposal.hasEnded */\n      0x07\n      add\n      0x00\n        /* \"contracts/ArtemisZkVoting.sol\":4599:4623  proposal.hasEnded = true */\n      0x0100\n      exp\n      dup2\n      sload\n      dup2\n      0xff\n      mul\n      not\n      and\n      swap1\n      dup4\n      iszero\n      iszero\n      mul\n      or\n      swap1\n      sstore\n      pop\n        /* \"contracts/ArtemisZkVoting.sol\":4634:4652  uint256 totalVotes */\n      0x00\n        /* \"contracts/ArtemisZkVoting.sol\":4678:4686  proposal */\n      dup2\n        /* \"contracts/ArtemisZkVoting.sol\":4678:4692  proposal.votes */\n      0x02\n      add\n        /* \"contracts/ArtemisZkVoting.sol\":4678:4699  proposal.votes[false] */\n      0x00\n        /* \"contracts/ArtemisZkVoting.sol\":4693:4698  false */\n      dup1\n        /* \"contracts/ArtemisZkVoting.sol\":4678:4699  proposal.votes[false] */\n      iszero\n      iszero\n      iszero\n      iszero\n      dup2\n      mstore\n      0x20\n      add\n      swap1\n      dup2\n      mstore\n      0x20\n      add\n      0x00\n      keccak256\n      sload\n        /* \"contracts/ArtemisZkVoting.sol\":4655:4663  proposal */\n      dup3\n        /* \"contracts/ArtemisZkVoting.sol\":4655:4669  proposal.votes */\n      0x02\n      add\n        /* \"contracts/ArtemisZkVoting.sol\":4655:4675  proposal.votes[true] */\n      0x00\n        /* \"contracts/ArtemisZkVoting.sol\":4670:4674  true */\n      0x01\n        /* \"contracts/ArtemisZkVoting.sol\":4655:4675  proposal.votes[true] */\n      iszero\n      iszero\n      iszero\n      iszero\n      dup2\n      mstore\n      0x20\n      add\n      swap1\n      dup2\n      mstore\n      0x20\n      add\n      0x00\n      keccak256\n      sload\n        /* \"contracts/ArtemisZkVoting.sol\":4655:4699  proposal.votes[true] + proposal.votes[false] */\n      tag_91\n      swap2\n      swap1\n      tag_92\n      jump\t// in\n    tag_91:\n        /* \"contracts/ArtemisZkVoting.sol\":4634:4699  uint256 totalVotes = proposal.votes[true] + proposal.votes[false] */\n      swap1\n      pop\n        /* \"contracts/ArtemisZkVoting.sol\":4709:4728  bool achievedQuorum */\n      0x00\n        /* \"contracts/ArtemisZkVoting.sol\":4763:4764  0 */\n      dup1\n        /* \"contracts/ArtemisZkVoting.sol\":4750:4760  totalVotes */\n      dup3\n        /* \"contracts/ArtemisZkVoting.sol\":4750:4764  totalVotes > 0 */\n      gt\n        /* \"contracts/ArtemisZkVoting.sol\":4746:5007  if (totalVotes > 0) {... */\n      iszero\n      tag_93\n      jumpi\n        /* \"contracts/ArtemisZkVoting.sol\":4981:4989  proposal */\n      dup3\n        /* \"contracts/ArtemisZkVoting.sol\":4981:4996  proposal.quorum */\n      0x06\n      add\n      sload\n        /* \"contracts/ArtemisZkVoting.sol\":4950:4960  totalVotes */\n      dup3\n        /* \"contracts/ArtemisZkVoting.sol\":4902:4910  proposal */\n      dup5\n        /* \"contracts/ArtemisZkVoting.sol\":4902:4916  proposal.votes */\n      0x02\n      add\n        /* \"contracts/ArtemisZkVoting.sol\":4902:4923  proposal.votes[false] */\n      0x00\n        /* \"contracts/ArtemisZkVoting.sol\":4917:4922  false */\n      dup1\n        /* \"contracts/ArtemisZkVoting.sol\":4902:4923  proposal.votes[false] */\n      iszero\n      iszero\n      iszero\n      iszero\n      dup2\n      mstore\n      0x20\n      add\n      swap1\n      dup2\n      mstore\n      0x20\n      add\n      0x00\n      keccak256\n      sload\n        /* \"contracts/ArtemisZkVoting.sol\":4855:4863  proposal */\n      dup6\n        /* \"contracts/ArtemisZkVoting.sol\":4855:4869  proposal.votes */\n      0x02\n      add\n        /* \"contracts/ArtemisZkVoting.sol\":4855:4875  proposal.votes[true] */\n      0x00\n        /* \"contracts/ArtemisZkVoting.sol\":4870:4874  true */\n      0x01\n        /* \"contracts/ArtemisZkVoting.sol\":4855:4875  proposal.votes[true] */\n      iszero\n      iszero\n      iszero\n      iszero\n      dup2\n      mstore\n      0x20\n      add\n      swap1\n      dup2\n      mstore\n      0x20\n      add\n      0x00\n      keccak256\n      sload\n        /* \"contracts/ArtemisZkVoting.sol\":4855:4923  proposal.votes[true] +... */\n      tag_94\n      swap2\n      swap1\n      tag_92\n      jump\t// in\n    tag_94:\n        /* \"contracts/ArtemisZkVoting.sol\":4855:4960  proposal.votes[true] +... */\n      tag_95\n      swap2\n      swap1\n      tag_92\n      jump\t// in\n    tag_95:\n        /* \"contracts/ArtemisZkVoting.sol\":4827:4830  100 */\n      0x64\n        /* \"contracts/ArtemisZkVoting.sol\":4814:4824  totalVotes */\n      dup5\n        /* \"contracts/ArtemisZkVoting.sol\":4814:4830  totalVotes * 100 */\n      tag_96\n      swap2\n      swap1\n      tag_97\n      jump\t// in\n    tag_96:\n        /* \"contracts/ArtemisZkVoting.sol\":4813:4961  (totalVotes * 100) /... */\n      tag_98\n      swap2\n      swap1\n      tag_99\n      jump\t// in\n    tag_98:\n        /* \"contracts/ArtemisZkVoting.sol\":4813:4996  (totalVotes * 100) /... */\n      lt\n      iszero\n        /* \"contracts/ArtemisZkVoting.sol\":4780:4996  achievedQuorum =... */\n      swap1\n      pop\n        /* \"contracts/ArtemisZkVoting.sol\":4746:5007  if (totalVotes > 0) {... */\n    tag_93:\n        /* \"contracts/ArtemisZkVoting.sol\":5017:5033  bool isSupported */\n      0x00\n        /* \"contracts/ArtemisZkVoting.sol\":5059:5067  proposal */\n      dup4\n        /* \"contracts/ArtemisZkVoting.sol\":5059:5073  proposal.votes */\n      0x02\n      add\n        /* \"contracts/ArtemisZkVoting.sol\":5059:5080  proposal.votes[false] */\n      0x00\n        /* \"contracts/ArtemisZkVoting.sol\":5074:5079  false */\n      dup1\n        /* \"contracts/ArtemisZkVoting.sol\":5059:5080  proposal.votes[false] */\n      iszero\n      iszero\n      iszero\n      iszero\n      dup2\n      mstore\n      0x20\n      add\n      swap1\n      dup2\n      mstore\n      0x20\n      add\n      0x00\n      keccak256\n      sload\n        /* \"contracts/ArtemisZkVoting.sol\":5036:5044  proposal */\n      dup5\n        /* \"contracts/ArtemisZkVoting.sol\":5036:5050  proposal.votes */\n      0x02\n      add\n        /* \"contracts/ArtemisZkVoting.sol\":5036:5056  proposal.votes[true] */\n      0x00\n        /* \"contracts/ArtemisZkVoting.sol\":5051:5055  true */\n      0x01\n        /* \"contracts/ArtemisZkVoting.sol\":5036:5056  proposal.votes[true] */\n      iszero\n      iszero\n      iszero\n      iszero\n      dup2\n      mstore\n      0x20\n      add\n      swap1\n      dup2\n      mstore\n      0x20\n      add\n      0x00\n      keccak256\n      sload\n        /* \"contracts/ArtemisZkVoting.sol\":5036:5080  proposal.votes[true] > proposal.votes[false] */\n      gt\n        /* \"contracts/ArtemisZkVoting.sol\":5017:5080  bool isSupported = proposal.votes[true] > proposal.votes[false] */\n      swap1\n      pop\n        /* \"contracts/ArtemisZkVoting.sol\":5096:5150  ProposalEnded(proposalId, achievedQuorum, isSupported) */\n      0x367048e102ba4927ccde851f5a4b4a5c93996244e9535a4eaa35b93994f2c5b6\n        /* \"contracts/ArtemisZkVoting.sol\":5110:5120  proposalId */\n      dup6\n        /* \"contracts/ArtemisZkVoting.sol\":5122:5136  achievedQuorum */\n      dup4\n        /* \"contracts/ArtemisZkVoting.sol\":5138:5149  isSupported */\n      dup4\n        /* \"contracts/ArtemisZkVoting.sol\":5096:5150  ProposalEnded(proposalId, achievedQuorum, isSupported) */\n      mload(0x40)\n      tag_100\n      swap4\n      swap3\n      swap2\n      swap1\n      tag_101\n      jump\t// in\n    tag_100:\n      mload(0x40)\n      dup1\n      swap2\n      sub\n      swap1\n      log1\n        /* \"contracts/ArtemisZkVoting.sol\":4290:5157  {... */\n      pop\n      pop\n      pop\n      pop\n        /* \"contracts/ArtemisZkVoting.sol\":4242:5157  function endVoting(uint256 proposalId) external {... */\n      pop\n      jump\t// out\n        /* \"@openzeppelin/contracts/access/Ownable.sol\":2293:2394  function renounceOwnership() public virtual onlyOwner {... */\n    tag_39:\n        /* \"@openzeppelin/contracts/access/Ownable.sol\":1531:1544  _checkOwner() */\n      tag_103\n        /* \"@openzeppelin/contracts/access/Ownable.sol\":1531:1542  _checkOwner */\n      tag_104\n        /* \"@openzeppelin/contracts/access/Ownable.sol\":1531:1544  _checkOwner() */\n      jump\t// in\n    tag_103:\n        /* \"@openzeppelin/contracts/access/Ownable.sol\":2357:2387  _transferOwnership(address(0)) */\n      tag_106\n        /* \"@openzeppelin/contracts/access/Ownable.sol\":2384:2385  0 */\n      0x00\n        /* \"@openzeppelin/contracts/access/Ownable.sol\":2357:2375  _transferOwnership */\n      tag_107\n        /* \"@openzeppelin/contracts/access/Ownable.sol\":2357:2387  _transferOwnership(address(0)) */\n      jump\t// in\n    tag_106:\n        /* \"@openzeppelin/contracts/access/Ownable.sol\":2293:2394  function renounceOwnership() public virtual onlyOwner {... */\n      jump\t// out\n        /* \"contracts/ArtemisZkVoting.sol\":5469:5539  function resumeVoting() external onlyOwner {... */\n    tag_41:\n        /* \"@openzeppelin/contracts/access/Ownable.sol\":1531:1544  _checkOwner() */\n      tag_109\n        /* \"@openzeppelin/contracts/access/Ownable.sol\":1531:1542  _checkOwner */\n      tag_104\n        /* \"@openzeppelin/contracts/access/Ownable.sol\":1531:1544  _checkOwner() */\n      jump\t// in\n    tag_109:\n        /* \"contracts/ArtemisZkVoting.sol\":5522:5532  _unpause() */\n      tag_111\n        /* \"contracts/ArtemisZkVoting.sol\":5522:5530  _unpause */\n      tag_112\n        /* \"contracts/ArtemisZkVoting.sol\":5522:5532  _unpause() */\n      jump\t// in\n    tag_111:\n        /* \"contracts/ArtemisZkVoting.sol\":5469:5539  function resumeVoting() external onlyOwner {... */\n      jump\t// out\n        /* \"contracts/ArtemisZkVoting.sol\":2902:4236  function voteForProposal(... */\n    tag_45:\n        /* \"@openzeppelin/contracts/utils/Pausable.sol\":1474:1493  _requireNotPaused() */\n      tag_114\n        /* \"@openzeppelin/contracts/utils/Pausable.sol\":1474:1491  _requireNotPaused */\n      tag_115\n        /* \"@openzeppelin/contracts/utils/Pausable.sol\":1474:1493  _requireNotPaused() */\n      jump\t// in\n    tag_114:\n        /* \"contracts/ArtemisZkVoting.sol\":3110:3135  Proposal storage proposal */\n      0x00\n        /* \"contracts/ArtemisZkVoting.sol\":3138:3147  proposals */\n      0x02\n        /* \"contracts/ArtemisZkVoting.sol\":3138:3159  proposals[proposalId] */\n      0x00\n        /* \"contracts/ArtemisZkVoting.sol\":3148:3158  proposalId */\n      dup9\n        /* \"contracts/ArtemisZkVoting.sol\":3138:3159  proposals[proposalId] */\n      dup2\n      mstore\n      0x20\n      add\n      swap1\n      dup2\n      mstore\n      0x20\n      add\n      0x00\n      keccak256\n        /* \"contracts/ArtemisZkVoting.sol\":3110:3159  Proposal storage proposal = proposals[proposalId] */\n      swap1\n      pop\n        /* \"contracts/ArtemisZkVoting.sol\":3200:3201  0 */\n      0x00\n        /* \"contracts/ArtemisZkVoting.sol\":3177:3201  proposal.merkleRoot != 0 */\n      dup1\n      shl\n        /* \"contracts/ArtemisZkVoting.sol\":3177:3185  proposal */\n      dup2\n        /* \"contracts/ArtemisZkVoting.sol\":3177:3196  proposal.merkleRoot */\n      0x00\n      add\n      sload\n        /* \"contracts/ArtemisZkVoting.sol\":3177:3201  proposal.merkleRoot != 0 */\n      sub\n        /* \"contracts/ArtemisZkVoting.sol\":3169:3223  require(proposal.merkleRoot != 0, \"Invalid proposal.\") */\n      tag_117\n      jumpi\n      mload(0x40)\n      0x08c379a000000000000000000000000000000000000000000000000000000000\n      dup2\n      mstore\n      0x04\n      add\n      tag_118\n      swap1\n      tag_119\n      jump\t// in\n    tag_118:\n      mload(0x40)\n      dup1\n      swap2\n      sub\n      swap1\n      revert\n    tag_117:\n        /* \"contracts/ArtemisZkVoting.sol\":3242:3250  proposal */\n      dup1\n        /* \"contracts/ArtemisZkVoting.sol\":3242:3259  proposal.hasEnded */\n      0x07\n      add\n      0x00\n      swap1\n      sload\n      swap1\n      0x0100\n      exp\n      swap1\n      div\n      0xff\n      and\n        /* \"contracts/ArtemisZkVoting.sol\":3241:3259  !proposal.hasEnded */\n      iszero\n        /* \"contracts/ArtemisZkVoting.sol\":3233:3299  require(!proposal.hasEnded, \"Voting has ended for this proposal.\") */\n      tag_120\n      jumpi\n      mload(0x40)\n      0x08c379a000000000000000000000000000000000000000000000000000000000\n      dup2\n      mstore\n      0x04\n      add\n      tag_121\n      swap1\n      tag_122\n      jump\t// in\n    tag_121:\n      mload(0x40)\n      dup1\n      swap2\n      sub\n      swap1\n      revert\n    tag_120:\n        /* \"contracts/ArtemisZkVoting.sol\":3349:3357  proposal */\n      dup1\n        /* \"contracts/ArtemisZkVoting.sol\":3349:3367  proposal.startTime */\n      0x04\n      add\n      sload\n        /* \"contracts/ArtemisZkVoting.sol\":3330:3345  block.timestamp */\n      timestamp\n        /* \"contracts/ArtemisZkVoting.sol\":3330:3367  block.timestamp >= proposal.startTime */\n      lt\n      iszero\n        /* \"contracts/ArtemisZkVoting.sol\":3309:3416  require(... */\n      tag_123\n      jumpi\n      mload(0x40)\n      0x08c379a000000000000000000000000000000000000000000000000000000000\n      dup2\n      mstore\n      0x04\n      add\n      tag_124\n      swap1\n      tag_125\n      jump\t// in\n    tag_124:\n      mload(0x40)\n      dup1\n      swap2\n      sub\n      swap1\n      revert\n    tag_123:\n        /* \"contracts/ArtemisZkVoting.sol\":3453:3461  proposal */\n      dup1\n        /* \"contracts/ArtemisZkVoting.sol\":3453:3469  proposal.endTime */\n      0x05\n      add\n      sload\n        /* \"contracts/ArtemisZkVoting.sol\":3434:3449  block.timestamp */\n      timestamp\n        /* \"contracts/ArtemisZkVoting.sol\":3434:3469  block.timestamp <= proposal.endTime */\n      gt\n      iszero\n        /* \"contracts/ArtemisZkVoting.sol\":3426:3496  require(block.timestamp <= proposal.endTime, \"Voting time has ended.\") */\n      tag_126\n      jumpi\n      mload(0x40)\n      0x08c379a000000000000000000000000000000000000000000000000000000000\n      dup2\n      mstore\n      0x04\n      add\n      tag_127\n      swap1\n      tag_128\n      jump\t// in\n    tag_127:\n      mload(0x40)\n      dup1\n      swap2\n      sub\n      swap1\n      revert\n    tag_126:\n        /* \"contracts/ArtemisZkVoting.sol\":3515:3523  proposal */\n      dup1\n        /* \"contracts/ArtemisZkVoting.sol\":3515:3529  proposal.voted */\n      0x03\n      add\n        /* \"contracts/ArtemisZkVoting.sol\":3515:3535  proposal.voted[leaf] */\n      0x00\n        /* \"contracts/ArtemisZkVoting.sol\":3530:3534  leaf */\n      dup5\n        /* \"contracts/ArtemisZkVoting.sol\":3515:3535  proposal.voted[leaf] */\n      dup2\n      mstore\n      0x20\n      add\n      swap1\n      dup2\n      mstore\n      0x20\n      add\n      0x00\n      keccak256\n      0x00\n      swap1\n      sload\n      swap1\n      0x0100\n      exp\n      swap1\n      div\n      0xff\n      and\n        /* \"contracts/ArtemisZkVoting.sol\":3514:3535  !proposal.voted[leaf] */\n      iszero\n        /* \"contracts/ArtemisZkVoting.sol\":3506:3554  require(!proposal.voted[leaf], \"Already voted.\") */\n      tag_129\n      jumpi\n      mload(0x40)\n      0x08c379a000000000000000000000000000000000000000000000000000000000\n      dup2\n      mstore\n      0x04\n      add\n      tag_130\n      swap1\n      tag_131\n      jump\t// in\n    tag_130:\n      mload(0x40)\n      dup1\n      swap2\n      sub\n      swap1\n      revert\n    tag_129:\n        /* \"contracts/ArtemisZkVoting.sol\":3570:3616  verifyMerkleProof(proposal, merkleProof, leaf) */\n      tag_132\n        /* \"contracts/ArtemisZkVoting.sol\":3588:3596  proposal */\n      dup2\n        /* \"contracts/ArtemisZkVoting.sol\":3598:3609  merkleProof */\n      dup7\n      dup7\n        /* \"contracts/ArtemisZkVoting.sol\":3570:3616  verifyMerkleProof(proposal, merkleProof, leaf) */\n      dup1\n      dup1\n      0x20\n      mul\n      0x20\n      add\n      mload(0x40)\n      swap1\n      dup2\n      add\n      0x40\n      mstore\n      dup1\n      swap4\n      swap3\n      swap2\n      swap1\n      dup2\n      dup2\n      mstore\n      0x20\n      add\n      dup4\n      dup4\n      0x20\n      mul\n      dup1\n      dup3\n      dup5\n      calldatacopy\n      0x00\n      dup2\n      dup5\n      add\n      mstore\n      not(0x1f)\n      0x1f\n      dup3\n      add\n      and\n      swap1\n      pop\n      dup1\n      dup4\n      add\n      swap3\n      pop\n      pop\n      pop\n      pop\n      pop\n      pop\n      pop\n        /* \"contracts/ArtemisZkVoting.sol\":3611:3615  leaf */\n      dup6\n        /* \"contracts/ArtemisZkVoting.sol\":3570:3587  verifyMerkleProof */\n      tag_133\n        /* \"contracts/ArtemisZkVoting.sol\":3570:3616  verifyMerkleProof(proposal, merkleProof, leaf) */\n      jump\t// in\n    tag_132:\n        /* \"contracts/ArtemisZkVoting.sol\":3565:3670  if (!verifyMerkleProof(proposal, merkleProof, leaf)) {... */\n      tag_134\n      jumpi\n        /* \"contracts/ArtemisZkVoting.sol\":3639:3659  InvalidMerkleProof() */\n      mload(0x40)\n      0xb05e92fa00000000000000000000000000000000000000000000000000000000\n      dup2\n      mstore\n      0x04\n      add\n      mload(0x40)\n      dup1\n      swap2\n      sub\n      swap1\n      revert\n        /* \"contracts/ArtemisZkVoting.sol\":3565:3670  if (!verifyMerkleProof(proposal, merkleProof, leaf)) {... */\n    tag_134:\n        /* \"contracts/ArtemisZkVoting.sol\":3703:3704  8 */\n      0x08\n        /* \"contracts/ArtemisZkVoting.sol\":3687:3692  proof */\n      dup3\n        /* \"contracts/ArtemisZkVoting.sol\":3687:3699  proof.length */\n      mload\n        /* \"contracts/ArtemisZkVoting.sol\":3687:3704  proof.length == 8 */\n      eq\n        /* \"contracts/ArtemisZkVoting.sol\":3679:3722  require(proof.length == 8, \"Invalid proof\") */\n      tag_135\n      jumpi\n      mload(0x40)\n      0x08c379a000000000000000000000000000000000000000000000000000000000\n      dup2\n      mstore\n      0x04\n      add\n      tag_136\n      swap1\n      tag_137\n      jump\t// in\n    tag_136:\n      mload(0x40)\n      dup1\n      swap2\n      sub\n      swap1\n      revert\n    tag_135:\n        /* \"contracts/ArtemisZkVoting.sol\":3732:3751  uint256[2] memory a */\n      0x00\n        /* \"contracts/ArtemisZkVoting.sol\":3732:3774  uint256[2] memory a = [proof[0], proof[1]] */\n      mload(0x40)\n      dup1\n      0x40\n      add\n      0x40\n      mstore\n      dup1\n        /* \"contracts/ArtemisZkVoting.sol\":3755:3760  proof */\n      dup5\n        /* \"contracts/ArtemisZkVoting.sol\":3761:3762  0 */\n      0x00\n        /* \"contracts/ArtemisZkVoting.sol\":3755:3763  proof[0] */\n      dup2\n      mload\n      dup2\n      lt\n      tag_138\n      jumpi\n      tag_139\n      tag_140\n      jump\t// in\n    tag_139:\n    tag_138:\n      0x20\n      mul\n      0x20\n      add\n      add\n      mload\n        /* \"contracts/ArtemisZkVoting.sol\":3732:3774  uint256[2] memory a = [proof[0], proof[1]] */\n      dup2\n      mstore\n      0x20\n      add\n        /* \"contracts/ArtemisZkVoting.sol\":3765:3770  proof */\n      dup5\n        /* \"contracts/ArtemisZkVoting.sol\":3771:3772  1 */\n      0x01\n        /* \"contracts/ArtemisZkVoting.sol\":3765:3773  proof[1] */\n      dup2\n      mload\n      dup2\n      lt\n      tag_141\n      jumpi\n      tag_142\n      tag_140\n      jump\t// in\n    tag_142:\n    tag_141:\n      0x20\n      mul\n      0x20\n      add\n      add\n      mload\n        /* \"contracts/ArtemisZkVoting.sol\":3732:3774  uint256[2] memory a = [proof[0], proof[1]] */\n      dup2\n      mstore\n      pop\n      swap1\n      pop\n        /* \"contracts/ArtemisZkVoting.sol\":3784:3806  uint256[2][2] memory b */\n      0x00\n        /* \"contracts/ArtemisZkVoting.sol\":3784:3853  uint256[2][2] memory b = [[proof[2], proof[3]], [proof[4], proof[5]]] */\n      mload(0x40)\n      dup1\n      0x40\n      add\n      0x40\n      mstore\n      dup1\n      mload(0x40)\n      dup1\n      0x40\n      add\n      0x40\n      mstore\n      dup1\n        /* \"contracts/ArtemisZkVoting.sol\":3811:3816  proof */\n      dup8\n        /* \"contracts/ArtemisZkVoting.sol\":3817:3818  2 */\n      0x02\n        /* \"contracts/ArtemisZkVoting.sol\":3811:3819  proof[2] */\n      dup2\n      mload\n      dup2\n      lt\n      tag_143\n      jumpi\n      tag_144\n      tag_140\n      jump\t// in\n    tag_144:\n    tag_143:\n      0x20\n      mul\n      0x20\n      add\n      add\n      mload\n        /* \"contracts/ArtemisZkVoting.sol\":3784:3853  uint256[2][2] memory b = [[proof[2], proof[3]], [proof[4], proof[5]]] */\n      dup2\n      mstore\n      0x20\n      add\n        /* \"contracts/ArtemisZkVoting.sol\":3821:3826  proof */\n      dup8\n        /* \"contracts/ArtemisZkVoting.sol\":3827:3828  3 */\n      0x03\n        /* \"contracts/ArtemisZkVoting.sol\":3821:3829  proof[3] */\n      dup2\n      mload\n      dup2\n      lt\n      tag_145\n      jumpi\n      tag_146\n      tag_140\n      jump\t// in\n    tag_146:\n    tag_145:\n      0x20\n      mul\n      0x20\n      add\n      add\n      mload\n        /* \"contracts/ArtemisZkVoting.sol\":3784:3853  uint256[2][2] memory b = [[proof[2], proof[3]], [proof[4], proof[5]]] */\n      dup2\n      mstore\n      pop\n      dup2\n      mstore\n      0x20\n      add\n      mload(0x40)\n      dup1\n      0x40\n      add\n      0x40\n      mstore\n      dup1\n        /* \"contracts/ArtemisZkVoting.sol\":3833:3838  proof */\n      dup8\n        /* \"contracts/ArtemisZkVoting.sol\":3839:3840  4 */\n      0x04\n        /* \"contracts/ArtemisZkVoting.sol\":3833:3841  proof[4] */\n      dup2\n      mload\n      dup2\n      lt\n      tag_147\n      jumpi\n      tag_148\n      tag_140\n      jump\t// in\n    tag_148:\n    tag_147:\n      0x20\n      mul\n      0x20\n      add\n      add\n      mload\n        /* \"contracts/ArtemisZkVoting.sol\":3784:3853  uint256[2][2] memory b = [[proof[2], proof[3]], [proof[4], proof[5]]] */\n      dup2\n      mstore\n      0x20\n      add\n        /* \"contracts/ArtemisZkVoting.sol\":3843:3848  proof */\n      dup8\n        /* \"contracts/ArtemisZkVoting.sol\":3849:3850  5 */\n      0x05\n        /* \"contracts/ArtemisZkVoting.sol\":3843:3851  proof[5] */\n      dup2\n      mload\n      dup2\n      lt\n      tag_149\n      jumpi\n      tag_150\n      tag_140\n      jump\t// in\n    tag_150:\n    tag_149:\n      0x20\n      mul\n      0x20\n      add\n      add\n      mload\n        /* \"contracts/ArtemisZkVoting.sol\":3784:3853  uint256[2][2] memory b = [[proof[2], proof[3]], [proof[4], proof[5]]] */\n      dup2\n      mstore\n      pop\n      dup2\n      mstore\n      pop\n      swap1\n      pop\n        /* \"contracts/ArtemisZkVoting.sol\":3863:3882  uint256[2] memory c */\n      0x00\n        /* \"contracts/ArtemisZkVoting.sol\":3863:3905  uint256[2] memory c = [proof[6], proof[7]] */\n      mload(0x40)\n      dup1\n      0x40\n      add\n      0x40\n      mstore\n      dup1\n        /* \"contracts/ArtemisZkVoting.sol\":3886:3891  proof */\n      dup7\n        /* \"contracts/ArtemisZkVoting.sol\":3892:3893  6 */\n      0x06\n        /* \"contracts/ArtemisZkVoting.sol\":3886:3894  proof[6] */\n      dup2\n      mload\n      dup2\n      lt\n      tag_151\n      jumpi\n      tag_152\n      tag_140\n      jump\t// in\n    tag_152:\n    tag_151:\n      0x20\n      mul\n      0x20\n      add\n      add\n      mload\n        /* \"contracts/ArtemisZkVoting.sol\":3863:3905  uint256[2] memory c = [proof[6], proof[7]] */\n      dup2\n      mstore\n      0x20\n      add\n        /* \"contracts/ArtemisZkVoting.sol\":3896:3901  proof */\n      dup7\n        /* \"contracts/ArtemisZkVoting.sol\":3902:3903  7 */\n      0x07\n        /* \"contracts/ArtemisZkVoting.sol\":3896:3904  proof[7] */\n      dup2\n      mload\n      dup2\n      lt\n      tag_153\n      jumpi\n      tag_154\n      tag_140\n      jump\t// in\n    tag_154:\n    tag_153:\n      0x20\n      mul\n      0x20\n      add\n      add\n      mload\n        /* \"contracts/ArtemisZkVoting.sol\":3863:3905  uint256[2] memory c = [proof[6], proof[7]] */\n      dup2\n      mstore\n      pop\n      swap1\n      pop\n        /* \"contracts/ArtemisZkVoting.sol\":3915:3938  uint256[2] memory input */\n      0x00\n        /* \"contracts/ArtemisZkVoting.sol\":3915:4028  uint256[2] memory input = [... */\n      mload(0x40)\n      dup1\n      0x40\n      add\n      0x40\n      mstore\n      dup1\n        /* \"contracts/ArtemisZkVoting.sol\":3955:3963  proposal */\n      dup7\n        /* \"contracts/ArtemisZkVoting.sol\":3955:3976  proposal.passcodeHash */\n      0x08\n      add\n      sload\n        /* \"contracts/ArtemisZkVoting.sol\":3915:4028  uint256[2] memory input = [... */\n      dup2\n      mstore\n      0x20\n      add\n        /* \"contracts/ArtemisZkVoting.sol\":4006:4016  msg.sender */\n      caller\n        /* \"contracts/ArtemisZkVoting.sol\":3990:4018  uint256(uint160(msg.sender)) */\n      0xffffffffffffffffffffffffffffffffffffffff\n      and\n        /* \"contracts/ArtemisZkVoting.sol\":3915:4028  uint256[2] memory input = [... */\n      dup2\n      mstore\n      pop\n      swap1\n      pop\n        /* \"contracts/ArtemisZkVoting.sol\":4046:4054  verifier */\n      0x01\n      0x00\n      swap1\n      sload\n      swap1\n      0x0100\n      exp\n      swap1\n      div\n      0xffffffffffffffffffffffffffffffffffffffff\n      and\n        /* \"contracts/ArtemisZkVoting.sol\":4046:4066  verifier.verifyProof */\n      0xffffffffffffffffffffffffffffffffffffffff\n      and\n      0xf5c9d69e\n        /* \"contracts/ArtemisZkVoting.sol\":4067:4068  a */\n      dup6\n        /* \"contracts/ArtemisZkVoting.sol\":4070:4071  b */\n      dup6\n        /* \"contracts/ArtemisZkVoting.sol\":4073:4074  c */\n      dup6\n        /* \"contracts/ArtemisZkVoting.sol\":4076:4081  input */\n      dup6\n        /* \"contracts/ArtemisZkVoting.sol\":4046:4082  verifier.verifyProof(a, b, c, input) */\n      mload(0x40)\n      dup6\n      0xffffffff\n      and\n      0xe0\n      shl\n      dup2\n      mstore\n      0x04\n      add\n      tag_155\n      swap5\n      swap4\n      swap3\n      swap2\n      swap1\n      tag_156\n      jump\t// in\n    tag_155:\n      0x20\n      mload(0x40)\n      dup1\n      dup4\n      sub\n      dup2\n      dup7\n      gas\n      staticcall\n      iszero\n      dup1\n      iszero\n      tag_158\n      jumpi\n      returndatasize\n      0x00\n      dup1\n      returndatacopy\n      revert(0x00, returndatasize)\n    tag_158:\n      pop\n      pop\n      pop\n      pop\n      mload(0x40)\n      returndatasize\n      not(0x1f)\n      0x1f\n      dup3\n      add\n      and\n      dup3\n      add\n      dup1\n      0x40\n      mstore\n      pop\n      dup2\n      add\n      swap1\n      tag_159\n      swap2\n      swap1\n      tag_160\n      jump\t// in\n    tag_159:\n        /* \"contracts/ArtemisZkVoting.sol\":4038:4106  require(verifier.verifyProof(a, b, c, input), \"Failed verify proof\") */\n      tag_161\n      jumpi\n      mload(0x40)\n      0x08c379a000000000000000000000000000000000000000000000000000000000\n      dup2\n      mstore\n      0x04\n      add\n      tag_162\n      swap1\n      tag_163\n      jump\t// in\n    tag_162:\n      mload(0x40)\n      dup1\n      swap2\n      sub\n      swap1\n      revert\n    tag_161:\n        /* \"contracts/ArtemisZkVoting.sol\":4143:4144  1 */\n      0x01\n        /* \"contracts/ArtemisZkVoting.sol\":4116:4124  proposal */\n      dup6\n        /* \"contracts/ArtemisZkVoting.sol\":4116:4130  proposal.votes */\n      0x02\n      add\n        /* \"contracts/ArtemisZkVoting.sol\":4116:4139  proposal.votes[support] */\n      0x00\n        /* \"contracts/ArtemisZkVoting.sol\":4131:4138  support */\n      dup13\n        /* \"contracts/ArtemisZkVoting.sol\":4116:4139  proposal.votes[support] */\n      iszero\n      iszero\n      iszero\n      iszero\n      dup2\n      mstore\n      0x20\n      add\n      swap1\n      dup2\n      mstore\n      0x20\n      add\n      0x00\n      keccak256\n      0x00\n        /* \"contracts/ArtemisZkVoting.sol\":4116:4144  proposal.votes[support] += 1 */\n      dup3\n      dup3\n      sload\n      tag_164\n      swap2\n      swap1\n      tag_92\n      jump\t// in\n    tag_164:\n      swap3\n      pop\n      pop\n      dup2\n      swap1\n      sstore\n      pop\n        /* \"contracts/ArtemisZkVoting.sol\":4177:4181  true */\n      0x01\n        /* \"contracts/ArtemisZkVoting.sol\":4154:4162  proposal */\n      dup6\n        /* \"contracts/ArtemisZkVoting.sol\":4154:4168  proposal.voted */\n      0x03\n      add\n        /* \"contracts/ArtemisZkVoting.sol\":4154:4174  proposal.voted[leaf] */\n      0x00\n        /* \"contracts/ArtemisZkVoting.sol\":4169:4173  leaf */\n      dup10\n        /* \"contracts/ArtemisZkVoting.sol\":4154:4174  proposal.voted[leaf] */\n      dup2\n      mstore\n      0x20\n      add\n      swap1\n      dup2\n      mstore\n      0x20\n      add\n      0x00\n      keccak256\n      0x00\n        /* \"contracts/ArtemisZkVoting.sol\":4154:4181  proposal.voted[leaf] = true */\n      0x0100\n      exp\n      dup2\n      sload\n      dup2\n      0xff\n      mul\n      not\n      and\n      swap1\n      dup4\n      iszero\n      iszero\n      mul\n      or\n      swap1\n      sstore\n      pop\n        /* \"contracts/ArtemisZkVoting.sol\":4196:4229  VoteReceived(proposalId, support) */\n      0x25375b46ce887ef9d462ae9772ab4270f5c3eb503d1194f5af15c0c7ccae0dc0\n        /* \"contracts/ArtemisZkVoting.sol\":4209:4219  proposalId */\n      dup12\n        /* \"contracts/ArtemisZkVoting.sol\":4221:4228  support */\n      dup12\n        /* \"contracts/ArtemisZkVoting.sol\":4196:4229  VoteReceived(proposalId, support) */\n      mload(0x40)\n      tag_165\n      swap3\n      swap2\n      swap1\n      tag_166\n      jump\t// in\n    tag_165:\n      mload(0x40)\n      dup1\n      swap2\n      sub\n      swap1\n      log1\n        /* \"contracts/ArtemisZkVoting.sol\":3100:4236  {... */\n      pop\n      pop\n      pop\n      pop\n      pop\n        /* \"contracts/ArtemisZkVoting.sol\":2902:4236  function voteForProposal(... */\n      pop\n      pop\n      pop\n      pop\n      pop\n      pop\n      jump\t// out\n        /* \"@openzeppelin/contracts/access/Ownable.sol\":1638:1723  function owner() public view virtual returns (address) {... */\n    tag_47:\n        /* \"@openzeppelin/contracts/access/Ownable.sol\":1684:1691  address */\n      0x00\n        /* \"@openzeppelin/contracts/access/Ownable.sol\":1710:1716  _owner */\n      dup1\n      0x00\n      swap1\n      sload\n      swap1\n      0x0100\n      exp\n      swap1\n      div\n      0xffffffffffffffffffffffffffffffffffffffff\n      and\n        /* \"@openzeppelin/contracts/access/Ownable.sol\":1703:1716  return _owner */\n      swap1\n      pop\n        /* \"@openzeppelin/contracts/access/Ownable.sol\":1638:1723  function owner() public view virtual returns (address) {... */\n      swap1\n      jump\t// out\n        /* \"contracts/ArtemisZkVoting.sol\":5545:5661  function transferContractOwnership(address newOwner) external onlyOwner {... */\n    tag_53:\n        /* \"@openzeppelin/contracts/access/Ownable.sol\":1531:1544  _checkOwner() */\n      tag_169\n        /* \"@openzeppelin/contracts/access/Ownable.sol\":1531:1542  _checkOwner */\n      tag_104\n        /* \"@openzeppelin/contracts/access/Ownable.sol\":1531:1544  _checkOwner() */\n      jump\t// in\n    tag_169:\n        /* \"contracts/ArtemisZkVoting.sol\":5627:5654  transferOwnership(newOwner) */\n      tag_171\n        /* \"contracts/ArtemisZkVoting.sol\":5645:5653  newOwner */\n      dup2\n        /* \"contracts/ArtemisZkVoting.sol\":5627:5644  transferOwnership */\n      tag_69\n        /* \"contracts/ArtemisZkVoting.sol\":5627:5654  transferOwnership(newOwner) */\n      jump\t// in\n    tag_171:\n        /* \"contracts/ArtemisZkVoting.sol\":5545:5661  function transferContractOwnership(address newOwner) external onlyOwner {... */\n      pop\n      jump\t// out\n        /* \"contracts/ArtemisZkVoting.sol\":2227:2896  function getProposal(... */\n    tag_56:\n        /* \"contracts/ArtemisZkVoting.sol\":2342:2360  bytes32 merkleRoot */\n      0x00\n        /* \"contracts/ArtemisZkVoting.sol\":2374:2407  string memory proposalDescription */\n      0x60\n        /* \"contracts/ArtemisZkVoting.sol\":2421:2438  uint256 startTime */\n      0x00\n        /* \"contracts/ArtemisZkVoting.sol\":2452:2467  uint256 endTime */\n      dup1\n        /* \"contracts/ArtemisZkVoting.sol\":2481:2495  uint256 quorum */\n      0x00\n        /* \"contracts/ArtemisZkVoting.sol\":2509:2529  uint256 passcodeHash */\n      dup1\n        /* \"contracts/ArtemisZkVoting.sol\":2543:2556  bool hasEnded */\n      0x00\n        /* \"contracts/ArtemisZkVoting.sol\":2581:2606  Proposal storage proposal */\n      dup1\n        /* \"contracts/ArtemisZkVoting.sol\":2609:2618  proposals */\n      0x02\n        /* \"contracts/ArtemisZkVoting.sol\":2609:2630  proposals[proposalId] */\n      0x00\n        /* \"contracts/ArtemisZkVoting.sol\":2619:2629  proposalId */\n      dup11\n        /* \"contracts/ArtemisZkVoting.sol\":2609:2630  proposals[proposalId] */\n      dup2\n      mstore\n      0x20\n      add\n      swap1\n      dup2\n      mstore\n      0x20\n      add\n      0x00\n      keccak256\n        /* \"contracts/ArtemisZkVoting.sol\":2581:2630  Proposal storage proposal = proposals[proposalId] */\n      swap1\n      pop\n        /* \"contracts/ArtemisZkVoting.sol\":2661:2669  proposal */\n      dup1\n        /* \"contracts/ArtemisZkVoting.sol\":2661:2680  proposal.merkleRoot */\n      0x00\n      add\n      sload\n        /* \"contracts/ArtemisZkVoting.sol\":2694:2702  proposal */\n      dup2\n        /* \"contracts/ArtemisZkVoting.sol\":2694:2722  proposal.proposalDescription */\n      0x01\n      add\n        /* \"contracts/ArtemisZkVoting.sol\":2736:2744  proposal */\n      dup3\n        /* \"contracts/ArtemisZkVoting.sol\":2736:2754  proposal.startTime */\n      0x04\n      add\n      sload\n        /* \"contracts/ArtemisZkVoting.sol\":2768:2776  proposal */\n      dup4\n        /* \"contracts/ArtemisZkVoting.sol\":2768:2784  proposal.endTime */\n      0x05\n      add\n      sload\n        /* \"contracts/ArtemisZkVoting.sol\":2798:2806  proposal */\n      dup5\n        /* \"contracts/ArtemisZkVoting.sol\":2798:2813  proposal.quorum */\n      0x06\n      add\n      sload\n        /* \"contracts/ArtemisZkVoting.sol\":2827:2835  proposal */\n      dup6\n        /* \"contracts/ArtemisZkVoting.sol\":2827:2848  proposal.passcodeHash */\n      0x08\n      add\n      sload\n        /* \"contracts/ArtemisZkVoting.sol\":2862:2870  proposal */\n      dup7\n        /* \"contracts/ArtemisZkVoting.sol\":2862:2879  proposal.hasEnded */\n      0x07\n      add\n      0x00\n      swap1\n      sload\n      swap1\n      0x0100\n      exp\n      swap1\n      div\n      0xff\n      and\n        /* \"contracts/ArtemisZkVoting.sol\":2640:2889  return (... */\n      dup6\n      dup1\n      sload\n      tag_173\n      swap1\n      tag_78\n      jump\t// in\n    tag_173:\n      dup1\n      0x1f\n      add\n      0x20\n      dup1\n      swap2\n      div\n      mul\n      0x20\n      add\n      mload(0x40)\n      swap1\n      dup2\n      add\n      0x40\n      mstore\n      dup1\n      swap3\n      swap2\n      swap1\n      dup2\n      dup2\n      mstore\n      0x20\n      add\n      dup3\n      dup1\n      sload\n      tag_174\n      swap1\n      tag_78\n      jump\t// in\n    tag_174:\n      dup1\n      iszero\n      tag_175\n      jumpi\n      dup1\n      0x1f\n      lt\n      tag_176\n      jumpi\n      0x0100\n      dup1\n      dup4\n      sload\n      div\n      mul\n      dup4\n      mstore\n      swap2\n      0x20\n      add\n      swap2\n      jump(tag_175)\n    tag_176:\n      dup3\n      add\n      swap2\n      swap1\n      0x00\n      mstore\n      keccak256(0x00, 0x20)\n      swap1\n    tag_177:\n      dup2\n      sload\n      dup2\n      mstore\n      swap1\n      0x01\n      add\n      swap1\n      0x20\n      add\n      dup1\n      dup4\n      gt\n      tag_177\n      jumpi\n      dup3\n      swap1\n      sub\n      0x1f\n      and\n      dup3\n      add\n      swap2\n    tag_175:\n      pop\n      pop\n      pop\n      pop\n      pop\n      swap6\n      pop\n      swap8\n      pop\n      swap8\n      pop\n      swap8\n      pop\n      swap8\n      pop\n      swap8\n      pop\n      swap8\n      pop\n      swap8\n      pop\n      pop\n        /* \"contracts/ArtemisZkVoting.sol\":2227:2896  function getProposal(... */\n      swap2\n      swap4\n      swap6\n      swap8\n      swap1\n      swap3\n      swap5\n      swap7\n      pop\n      jump\t// out\n        /* \"contracts/ArtemisZkVoting.sol\":1372:2221  function addProposal(... */\n    tag_62:\n        /* \"@openzeppelin/contracts/access/Ownable.sol\":1531:1544  _checkOwner() */\n      tag_179\n        /* \"@openzeppelin/contracts/access/Ownable.sol\":1531:1542  _checkOwner */\n      tag_104\n        /* \"@openzeppelin/contracts/access/Ownable.sol\":1531:1544  _checkOwner() */\n      jump\t// in\n    tag_179:\n        /* \"contracts/ArtemisZkVoting.sol\":1592:1593  0 */\n      0x00\n        /* \"contracts/ArtemisZkVoting.sol\":1581:1589  duration */\n      dup4\n        /* \"contracts/ArtemisZkVoting.sol\":1581:1593  duration > 0 */\n      gt\n        /* \"contracts/ArtemisZkVoting.sol\":1573:1634  require(duration > 0, \"Duration should be greater than zero\") */\n      tag_181\n      jumpi\n      mload(0x40)\n      0x08c379a000000000000000000000000000000000000000000000000000000000\n      dup2\n      mstore\n      0x04\n      add\n      tag_182\n      swap1\n      tag_183\n      jump\t// in\n    tag_182:\n      mload(0x40)\n      dup1\n      swap2\n      sub\n      swap1\n      revert\n    tag_181:\n        /* \"contracts/ArtemisZkVoting.sol\":1677:1678  0 */\n      0x00\n        /* \"contracts/ArtemisZkVoting.sol\":1666:1673  _quorum */\n      dup3\n        /* \"contracts/ArtemisZkVoting.sol\":1666:1678  _quorum >= 0 */\n      lt\n      iszero\n        /* \"contracts/ArtemisZkVoting.sol\":1666:1696  _quorum >= 0 && _quorum <= 100 */\n      dup1\n      iszero\n      tag_184\n      jumpi\n      pop\n        /* \"contracts/ArtemisZkVoting.sol\":1693:1696  100 */\n      0x64\n        /* \"contracts/ArtemisZkVoting.sol\":1682:1689  _quorum */\n      dup3\n        /* \"contracts/ArtemisZkVoting.sol\":1682:1696  _quorum <= 100 */\n      gt\n      iszero\n        /* \"contracts/ArtemisZkVoting.sol\":1666:1696  _quorum >= 0 && _quorum <= 100 */\n    tag_184:\n        /* \"contracts/ArtemisZkVoting.sol\":1645:1756  require(... */\n      tag_185\n      jumpi\n      mload(0x40)\n      0x08c379a000000000000000000000000000000000000000000000000000000000\n      dup2\n      mstore\n      0x04\n      add\n      tag_186\n      swap1\n      tag_187\n      jump\t// in\n    tag_186:\n      mload(0x40)\n      dup1\n      swap2\n      sub\n      swap1\n      revert\n    tag_185:\n        /* \"contracts/ArtemisZkVoting.sol\":1784:1785  1 */\n      0x01\n        /* \"contracts/ArtemisZkVoting.sol\":1767:1780  proposalCount */\n      0x03\n      0x00\n        /* \"contracts/ArtemisZkVoting.sol\":1767:1785  proposalCount += 1 */\n      dup3\n      dup3\n      sload\n      tag_188\n      swap2\n      swap1\n      tag_92\n      jump\t// in\n    tag_188:\n      swap3\n      pop\n      pop\n      dup2\n      swap1\n      sstore\n      pop\n        /* \"contracts/ArtemisZkVoting.sol\":1833:1844  _merkleRoot */\n      dup4\n        /* \"contracts/ArtemisZkVoting.sol\":1795:1804  proposals */\n      0x02\n        /* \"contracts/ArtemisZkVoting.sol\":1795:1819  proposals[proposalCount] */\n      0x00\n        /* \"contracts/ArtemisZkVoting.sol\":1805:1818  proposalCount */\n      sload(0x03)\n        /* \"contracts/ArtemisZkVoting.sol\":1795:1819  proposals[proposalCount] */\n      dup2\n      mstore\n      0x20\n      add\n      swap1\n      dup2\n      mstore\n      0x20\n      add\n      0x00\n      keccak256\n        /* \"contracts/ArtemisZkVoting.sol\":1795:1830  proposals[proposalCount].merkleRoot */\n      0x00\n      add\n        /* \"contracts/ArtemisZkVoting.sol\":1795:1844  proposals[proposalCount].merkleRoot = _merkleRoot */\n      dup2\n      swap1\n      sstore\n      pop\n        /* \"contracts/ArtemisZkVoting.sol\":1901:1912  description */\n      dup5\n        /* \"contracts/ArtemisZkVoting.sol\":1854:1863  proposals */\n      0x02\n        /* \"contracts/ArtemisZkVoting.sol\":1854:1878  proposals[proposalCount] */\n      0x00\n        /* \"contracts/ArtemisZkVoting.sol\":1864:1877  proposalCount */\n      sload(0x03)\n        /* \"contracts/ArtemisZkVoting.sol\":1854:1878  proposals[proposalCount] */\n      dup2\n      mstore\n      0x20\n      add\n      swap1\n      dup2\n      mstore\n      0x20\n      add\n      0x00\n      keccak256\n        /* \"contracts/ArtemisZkVoting.sol\":1854:1898  proposals[proposalCount].proposalDescription */\n      0x01\n      add\n        /* \"contracts/ArtemisZkVoting.sol\":1854:1912  proposals[proposalCount].proposalDescription = description */\n      swap1\n      dup2\n      tag_189\n      swap2\n      swap1\n      tag_190\n      jump\t// in\n    tag_189:\n      pop\n        /* \"contracts/ArtemisZkVoting.sol\":1959:1974  block.timestamp */\n      timestamp\n        /* \"contracts/ArtemisZkVoting.sol\":1922:1931  proposals */\n      0x02\n        /* \"contracts/ArtemisZkVoting.sol\":1922:1946  proposals[proposalCount] */\n      0x00\n        /* \"contracts/ArtemisZkVoting.sol\":1932:1945  proposalCount */\n      sload(0x03)\n        /* \"contracts/ArtemisZkVoting.sol\":1922:1946  proposals[proposalCount] */\n      dup2\n      mstore\n      0x20\n      add\n      swap1\n      dup2\n      mstore\n      0x20\n      add\n      0x00\n      keccak256\n        /* \"contracts/ArtemisZkVoting.sol\":1922:1956  proposals[proposalCount].startTime */\n      0x04\n      add\n        /* \"contracts/ArtemisZkVoting.sol\":1922:1974  proposals[proposalCount].startTime = block.timestamp */\n      dup2\n      swap1\n      sstore\n      pop\n        /* \"contracts/ArtemisZkVoting.sol\":2037:2045  duration */\n      dup3\n        /* \"contracts/ArtemisZkVoting.sol\":2019:2034  block.timestamp */\n      timestamp\n        /* \"contracts/ArtemisZkVoting.sol\":2019:2045  block.timestamp + duration */\n      tag_191\n      swap2\n      swap1\n      tag_92\n      jump\t// in\n    tag_191:\n        /* \"contracts/ArtemisZkVoting.sol\":1984:1993  proposals */\n      0x02\n        /* \"contracts/ArtemisZkVoting.sol\":1984:2008  proposals[proposalCount] */\n      0x00\n        /* \"contracts/ArtemisZkVoting.sol\":1994:2007  proposalCount */\n      sload(0x03)\n        /* \"contracts/ArtemisZkVoting.sol\":1984:2008  proposals[proposalCount] */\n      dup2\n      mstore\n      0x20\n      add\n      swap1\n      dup2\n      mstore\n      0x20\n      add\n      0x00\n      keccak256\n        /* \"contracts/ArtemisZkVoting.sol\":1984:2016  proposals[proposalCount].endTime */\n      0x05\n      add\n        /* \"contracts/ArtemisZkVoting.sol\":1984:2045  proposals[proposalCount].endTime = block.timestamp + duration */\n      dup2\n      swap1\n      sstore\n      pop\n        /* \"contracts/ArtemisZkVoting.sol\":2089:2096  _quorum */\n      dup2\n        /* \"contracts/ArtemisZkVoting.sol\":2055:2064  proposals */\n      0x02\n        /* \"contracts/ArtemisZkVoting.sol\":2055:2079  proposals[proposalCount] */\n      0x00\n        /* \"contracts/ArtemisZkVoting.sol\":2065:2078  proposalCount */\n      sload(0x03)\n        /* \"contracts/ArtemisZkVoting.sol\":2055:2079  proposals[proposalCount] */\n      dup2\n      mstore\n      0x20\n      add\n      swap1\n      dup2\n      mstore\n      0x20\n      add\n      0x00\n      keccak256\n        /* \"contracts/ArtemisZkVoting.sol\":2055:2086  proposals[proposalCount].quorum */\n      0x06\n      add\n        /* \"contracts/ArtemisZkVoting.sol\":2055:2096  proposals[proposalCount].quorum = _quorum */\n      dup2\n      swap1\n      sstore\n      pop\n        /* \"contracts/ArtemisZkVoting.sol\":2146:2158  passcodeHash */\n      dup1\n        /* \"contracts/ArtemisZkVoting.sol\":2106:2115  proposals */\n      0x02\n        /* \"contracts/ArtemisZkVoting.sol\":2106:2130  proposals[proposalCount] */\n      0x00\n        /* \"contracts/ArtemisZkVoting.sol\":2116:2129  proposalCount */\n      sload(0x03)\n        /* \"contracts/ArtemisZkVoting.sol\":2106:2130  proposals[proposalCount] */\n      dup2\n      mstore\n      0x20\n      add\n      swap1\n      dup2\n      mstore\n      0x20\n      add\n      0x00\n      keccak256\n        /* \"contracts/ArtemisZkVoting.sol\":2106:2143  proposals[proposalCount].passcodeHash */\n      0x08\n      add\n        /* \"contracts/ArtemisZkVoting.sol\":2106:2158  proposals[proposalCount].passcodeHash = passcodeHash */\n      dup2\n      swap1\n      sstore\n      pop\n        /* \"contracts/ArtemisZkVoting.sol\":2173:2214  ProposalAdded(proposalCount, description) */\n      0xf970aa486598017b8116c2beb18c50d4584ecbc3c688817f59b26796725f31bf\n        /* \"contracts/ArtemisZkVoting.sol\":2187:2200  proposalCount */\n      sload(0x03)\n        /* \"contracts/ArtemisZkVoting.sol\":2202:2213  description */\n      dup7\n        /* \"contracts/ArtemisZkVoting.sol\":2173:2214  ProposalAdded(proposalCount, description) */\n      mload(0x40)\n      tag_192\n      swap3\n      swap2\n      swap1\n      tag_193\n      jump\t// in\n    tag_192:\n      mload(0x40)\n      dup1\n      swap2\n      sub\n      swap1\n      log1\n        /* \"contracts/ArtemisZkVoting.sol\":1372:2221  function addProposal(... */\n      pop\n      pop\n      pop\n      pop\n      pop\n      jump\t// out\n        /* \"contracts/ArtemisZkVoting.sol\":804:832  uint256 public proposalCount */\n    tag_64:\n      sload(0x03)\n      dup2\n      jump\t// out\n        /* \"@openzeppelin/contracts/access/Ownable.sol\":2543:2758  function transferOwnership(address newOwner) public virtual onlyOwner {... */\n    tag_69:\n        /* \"@openzeppelin/contracts/access/Ownable.sol\":1531:1544  _checkOwner() */\n      tag_195\n        /* \"@openzeppelin/contracts/access/Ownable.sol\":1531:1542  _checkOwner */\n      tag_104\n        /* \"@openzeppelin/contracts/access/Ownable.sol\":1531:1544  _checkOwner() */\n      jump\t// in\n    tag_195:\n        /* \"@openzeppelin/contracts/access/Ownable.sol\":2647:2648  0 */\n      0x00\n        /* \"@openzeppelin/contracts/access/Ownable.sol\":2627:2649  newOwner == address(0) */\n      0xffffffffffffffffffffffffffffffffffffffff\n      and\n        /* \"@openzeppelin/contracts/access/Ownable.sol\":2627:2635  newOwner */\n      dup2\n        /* \"@openzeppelin/contracts/access/Ownable.sol\":2627:2649  newOwner == address(0) */\n      0xffffffffffffffffffffffffffffffffffffffff\n      and\n      sub\n        /* \"@openzeppelin/contracts/access/Ownable.sol\":2623:2714  if (newOwner == address(0)) {... */\n      tag_197\n      jumpi\n        /* \"@openzeppelin/contracts/access/Ownable.sol\":2700:2701  0 */\n      0x00\n        /* \"@openzeppelin/contracts/access/Ownable.sol\":2672:2703  OwnableInvalidOwner(address(0)) */\n      mload(0x40)\n      0x1e4fbdf700000000000000000000000000000000000000000000000000000000\n      dup2\n      mstore\n      0x04\n      add\n      tag_198\n      swap2\n      swap1\n      tag_49\n      jump\t// in\n    tag_198:\n      mload(0x40)\n      dup1\n      swap2\n      sub\n      swap1\n      revert\n        /* \"@openzeppelin/contracts/access/Ownable.sol\":2623:2714  if (newOwner == address(0)) {... */\n    tag_197:\n        /* \"@openzeppelin/contracts/access/Ownable.sol\":2723:2751  _transferOwnership(newOwner) */\n      tag_199\n        /* \"@openzeppelin/contracts/access/Ownable.sol\":2742:2750  newOwner */\n      dup2\n        /* \"@openzeppelin/contracts/access/Ownable.sol\":2723:2741  _transferOwnership */\n      tag_107\n        /* \"@openzeppelin/contracts/access/Ownable.sol\":2723:2751  _transferOwnership(newOwner) */\n      jump\t// in\n    tag_199:\n        /* \"@openzeppelin/contracts/access/Ownable.sol\":2543:2758  function transferOwnership(address newOwner) public virtual onlyOwner {... */\n      pop\n      jump\t// out\n        /* \"contracts/ArtemisZkVoting.sol\":5396:5463  function pauseVoting() external onlyOwner {... */\n    tag_71:\n        /* \"@openzeppelin/contracts/access/Ownable.sol\":1531:1544  _checkOwner() */\n      tag_201\n        /* \"@openzeppelin/contracts/access/Ownable.sol\":1531:1542  _checkOwner */\n      tag_104\n        /* \"@openzeppelin/contracts/access/Ownable.sol\":1531:1544  _checkOwner() */\n      jump\t// in\n    tag_201:\n        /* \"contracts/ArtemisZkVoting.sol\":5448:5456  _pause() */\n      tag_203\n        /* \"contracts/ArtemisZkVoting.sol\":5448:5454  _pause */\n      tag_204\n        /* \"contracts/ArtemisZkVoting.sol\":5448:5456  _pause() */\n      jump\t// in\n    tag_203:\n        /* \"contracts/ArtemisZkVoting.sol\":5396:5463  function pauseVoting() external onlyOwner {... */\n      jump\t// out\n        /* \"contracts/Verifier.sol\":3470:7520  function verifyProof(uint[2] calldata _pA, uint[2][2] calldata _pB, uint[2] calldata _pC, uint[2] calldata _pubSignals) public view returns (bool) {... */\n    tag_75:\n        /* \"contracts/Verifier.sol\":3611:3615  bool */\n      0x00\n        /* \"contracts/Verifier.sol\":3650:3813  function checkField(v) {... */\n      jump(tag_209)\n    tag_206:\n        /* \"contracts/Verifier.sol\":3707:3708  q */\n      0x30644e72e131a029b85045b68181585d97816a916871ca8d3c208c16d87cfd47\n        /* \"contracts/Verifier.sol\":3704:3705  v */\n      dup2\n        /* \"contracts/Verifier.sol\":3701:3709  lt(v, q) */\n      lt\n        /* \"contracts/Verifier.sol\":3691:3799  if iszero(lt(v, q)) {... */\n      tag_211\n      jumpi\n        /* \"contracts/Verifier.sol\":3743:3744  0 */\n      0x00\n        /* \"contracts/Verifier.sol\":3740:3741  0 */\n      dup1\n        /* \"contracts/Verifier.sol\":3733:3745  mstore(0, 0) */\n      mstore\n        /* \"contracts/Verifier.sol\":3776:3780  0x20 */\n      0x20\n        /* \"contracts/Verifier.sol\":3773:3774  0 */\n      0x00\n        /* \"contracts/Verifier.sol\":3766:3781  return(0, 0x20) */\n      return\n        /* \"contracts/Verifier.sol\":3691:3799  if iszero(lt(v, q)) {... */\n    tag_211:\n        /* \"contracts/Verifier.sol\":3650:3813  function checkField(v) {... */\n      pop\n      jump\t// out\n        /* \"contracts/Verifier.sol\":3917:4655  function g1_mulAccC(pR, x, y, s) {... */\n    tag_207:\n        /* \"contracts/Verifier.sol\":3968:3979  let success */\n      0x00\n        /* \"contracts/Verifier.sol\":4013:4017  0x40 */\n      0x40\n        /* \"contracts/Verifier.sol\":4007:4018  mload(0x40) */\n      mload\n        /* \"contracts/Verifier.sol\":4047:4048  x */\n      dup4\n        /* \"contracts/Verifier.sol\":4042:4045  mIn */\n      dup2\n        /* \"contracts/Verifier.sol\":4035:4049  mstore(mIn, x) */\n      mstore\n        /* \"contracts/Verifier.sol\":4087:4088  y */\n      dup5\n        /* \"contracts/Verifier.sol\":4082:4084  32 */\n      0x20\n        /* \"contracts/Verifier.sol\":4077:4080  mIn */\n      dup3\n        /* \"contracts/Verifier.sol\":4073:4085  add(mIn, 32) */\n      add\n        /* \"contracts/Verifier.sol\":4066:4089  mstore(add(mIn, 32), y) */\n      mstore\n        /* \"contracts/Verifier.sol\":4127:4128  s */\n      dup6\n        /* \"contracts/Verifier.sol\":4122:4124  64 */\n      0x40\n        /* \"contracts/Verifier.sol\":4117:4120  mIn */\n      dup3\n        /* \"contracts/Verifier.sol\":4113:4125  add(mIn, 64) */\n      add\n        /* \"contracts/Verifier.sol\":4106:4129  mstore(add(mIn, 64), s) */\n      mstore\n        /* \"contracts/Verifier.sol\":4204:4206  64 */\n      0x40\n        /* \"contracts/Verifier.sol\":4199:4202  mIn */\n      dup2\n        /* \"contracts/Verifier.sol\":4195:4197  96 */\n      0x60\n        /* \"contracts/Verifier.sol\":4190:4193  mIn */\n      dup4\n        /* \"contracts/Verifier.sol\":4187:4188  7 */\n      0x07\n        /* \"contracts/Verifier.sol\":4180:4184  2000 */\n      0x07d0\n        /* \"contracts/Verifier.sol\":4173:4178  gas() */\n      gas\n        /* \"contracts/Verifier.sol\":4169:4185  sub(gas(), 2000) */\n      sub\n        /* \"contracts/Verifier.sol\":4158:4207  staticcall(sub(gas(), 2000), 7, mIn, 96, mIn, 64) */\n      staticcall\n        /* \"contracts/Verifier.sol\":4147:4207  success := staticcall(sub(gas(), 2000), 7, mIn, 96, mIn, 64) */\n      swap2\n      pop\n        /* \"contracts/Verifier.sol\":4235:4242  success */\n      dup2\n        /* \"contracts/Verifier.sol\":4225:4332  if iszero(success) {... */\n      tag_213\n      jumpi\n        /* \"contracts/Verifier.sol\":4276:4277  0 */\n      0x00\n        /* \"contracts/Verifier.sol\":4273:4274  0 */\n      dup1\n        /* \"contracts/Verifier.sol\":4266:4278  mstore(0, 0) */\n      mstore\n        /* \"contracts/Verifier.sol\":4309:4313  0x20 */\n      0x20\n        /* \"contracts/Verifier.sol\":4306:4307  0 */\n      0x00\n        /* \"contracts/Verifier.sol\":4299:4314  return(0, 0x20) */\n      return\n        /* \"contracts/Verifier.sol\":4225:4332  if iszero(success) {... */\n    tag_213:\n        /* \"contracts/Verifier.sol\":4377:4379  pR */\n      dup3\n        /* \"contracts/Verifier.sol\":4371:4380  mload(pR) */\n      mload\n        /* \"contracts/Verifier.sol\":4366:4368  64 */\n      0x40\n        /* \"contracts/Verifier.sol\":4361:4364  mIn */\n      dup3\n        /* \"contracts/Verifier.sol\":4357:4369  add(mIn, 64) */\n      add\n        /* \"contracts/Verifier.sol\":4350:4381  mstore(add(mIn, 64), mload(pR)) */\n      mstore\n        /* \"contracts/Verifier.sol\":4433:4435  32 */\n      0x20\n        /* \"contracts/Verifier.sol\":4429:4431  pR */\n      dup4\n        /* \"contracts/Verifier.sol\":4425:4436  add(pR, 32) */\n      add\n        /* \"contracts/Verifier.sol\":4419:4437  mload(add(pR, 32)) */\n      mload\n        /* \"contracts/Verifier.sol\":4414:4416  96 */\n      0x60\n        /* \"contracts/Verifier.sol\":4409:4412  mIn */\n      dup3\n        /* \"contracts/Verifier.sol\":4405:4417  add(mIn, 96) */\n      add\n        /* \"contracts/Verifier.sol\":4398:4438  mstore(add(mIn, 96), mload(add(pR, 32))) */\n      mstore\n        /* \"contracts/Verifier.sol\":4513:4515  64 */\n      0x40\n        /* \"contracts/Verifier.sol\":4509:4511  pR */\n      dup4\n        /* \"contracts/Verifier.sol\":4504:4507  128 */\n      0x80\n        /* \"contracts/Verifier.sol\":4499:4502  mIn */\n      dup4\n        /* \"contracts/Verifier.sol\":4496:4497  6 */\n      0x06\n        /* \"contracts/Verifier.sol\":4489:4493  2000 */\n      0x07d0\n        /* \"contracts/Verifier.sol\":4482:4487  gas() */\n      gas\n        /* \"contracts/Verifier.sol\":4478:4494  sub(gas(), 2000) */\n      sub\n        /* \"contracts/Verifier.sol\":4467:4516  staticcall(sub(gas(), 2000), 6, mIn, 128, pR, 64) */\n      staticcall\n        /* \"contracts/Verifier.sol\":4456:4516  success := staticcall(sub(gas(), 2000), 6, mIn, 128, pR, 64) */\n      swap2\n      pop\n        /* \"contracts/Verifier.sol\":4544:4551  success */\n      dup2\n        /* \"contracts/Verifier.sol\":4534:4641  if iszero(success) {... */\n      tag_214\n      jumpi\n        /* \"contracts/Verifier.sol\":4585:4586  0 */\n      0x00\n        /* \"contracts/Verifier.sol\":4582:4583  0 */\n      dup1\n        /* \"contracts/Verifier.sol\":4575:4587  mstore(0, 0) */\n      mstore\n        /* \"contracts/Verifier.sol\":4618:4622  0x20 */\n      0x20\n        /* \"contracts/Verifier.sol\":4615:4616  0 */\n      0x00\n        /* \"contracts/Verifier.sol\":4608:4623  return(0, 0x20) */\n      return\n        /* \"contracts/Verifier.sol\":4534:4641  if iszero(success) {... */\n    tag_214:\n        /* \"contracts/Verifier.sol\":3950:4655  {... */\n      pop\n      pop\n        /* \"contracts/Verifier.sol\":3917:4655  function g1_mulAccC(pR, x, y, s) {... */\n      pop\n      pop\n      pop\n      pop\n      jump\t// out\n        /* \"contracts/Verifier.sol\":4669:6963  function checkPairing(pA, pB, pC, pubSignals, pMem) -> isOk {... */\n    tag_208:\n        /* \"contracts/Verifier.sol\":4724:4728  isOk */\n      0x00\n        /* \"contracts/Verifier.sol\":4774:4782  pPairing */\n      0x80\n        /* \"contracts/Verifier.sol\":4768:4772  pMem */\n      dup7\n        /* \"contracts/Verifier.sol\":4764:4783  add(pMem, pPairing) */\n      add\n        /* \"contracts/Verifier.sol\":4822:4825  pVk */\n      0x00\n        /* \"contracts/Verifier.sol\":4816:4820  pMem */\n      dup8\n        /* \"contracts/Verifier.sol\":4812:4826  add(pMem, pVk) */\n      add\n        /* \"contracts/Verifier.sol\":4857:4861  IC0x */\n      0x1304bf22ef56518f9cc5c488b6c5ae975a5d589ad9db095a096404587de15169\n        /* \"contracts/Verifier.sol\":4851:4855  _pVk */\n      dup2\n        /* \"contracts/Verifier.sol\":4844:4862  mstore(_pVk, IC0x) */\n      mstore\n        /* \"contracts/Verifier.sol\":4901:4905  IC0y */\n      0x28cd6f657b6579272838bc93984217616aa75478216d20ec00bf1337ff825f1c\n        /* \"contracts/Verifier.sol\":4896:4898  32 */\n      0x20\n        /* \"contracts/Verifier.sol\":4890:4894  _pVk */\n      dup3\n        /* \"contracts/Verifier.sol\":4886:4899  add(_pVk, 32) */\n      add\n        /* \"contracts/Verifier.sol\":4879:4906  mstore(add(_pVk, 32), IC0y) */\n      mstore\n        /* \"contracts/Verifier.sol\":4996:5058  g1_mulAccC(_pVk, IC1x, IC1y, calldataload(add(pubSignals, 0))) */\n      tag_216\n        /* \"contracts/Verifier.sol\":5054:5055  0 */\n      0x00\n        /* \"contracts/Verifier.sol\":5042:5052  pubSignals */\n      dup9\n        /* \"contracts/Verifier.sol\":5038:5056  add(pubSignals, 0) */\n      add\n        /* \"contracts/Verifier.sol\":5025:5057  calldataload(add(pubSignals, 0)) */\n      calldataload\n        /* \"contracts/Verifier.sol\":5019:5023  IC1y */\n      0x2a6af62e9bc14c42a4997cee7968eafa94c4407805b8cb276ad1009e64da6945\n        /* \"contracts/Verifier.sol\":5013:5017  IC1x */\n      0x2621b3ff65f7221a3f86d007638cf6dd69d6f50ea4b70ee0a35fefe56045097c\n        /* \"contracts/Verifier.sol\":5007:5011  _pVk */\n      dup5\n        /* \"contracts/Verifier.sol\":4996:5058  g1_mulAccC(_pVk, IC1x, IC1y, calldataload(add(pubSignals, 0))) */\n      tag_207\n      jump\t// in\n    tag_216:\n        /* \"contracts/Verifier.sol\":5092:5155  g1_mulAccC(_pVk, IC2x, IC2y, calldataload(add(pubSignals, 32))) */\n      tag_217\n        /* \"contracts/Verifier.sol\":5150:5152  32 */\n      0x20\n        /* \"contracts/Verifier.sol\":5138:5148  pubSignals */\n      dup9\n        /* \"contracts/Verifier.sol\":5134:5153  add(pubSignals, 32) */\n      add\n        /* \"contracts/Verifier.sol\":5121:5154  calldataload(add(pubSignals, 32)) */\n      calldataload\n        /* \"contracts/Verifier.sol\":5115:5119  IC2y */\n      0x2951e735e80a08a1502af7304af36e7b00b71740133b83401cffb2bb3b2a84b6\n        /* \"contracts/Verifier.sol\":5109:5113  IC2x */\n      0x0e935bd715d989ceb7939e82111a2ce8d69c6e5d6c2a6ff8bd6f13973031755e\n        /* \"contracts/Verifier.sol\":5103:5107  _pVk */\n      dup5\n        /* \"contracts/Verifier.sol\":5092:5155  g1_mulAccC(_pVk, IC2x, IC2y, calldataload(add(pubSignals, 32))) */\n      tag_207\n      jump\t// in\n    tag_217:\n        /* \"contracts/Verifier.sol\":5243:5245  pA */\n      dup4\n        /* \"contracts/Verifier.sol\":5230:5246  calldataload(pA) */\n      calldataload\n        /* \"contracts/Verifier.sol\":5219:5228  _pPairing */\n      dup3\n        /* \"contracts/Verifier.sol\":5212:5247  mstore(_pPairing, calldataload(pA)) */\n      mstore\n        /* \"contracts/Verifier.sol\":5330:5331  q */\n      0x30644e72e131a029b85045b68181585d97816a916871ca8d3c208c16d87cfd47\n        /* \"contracts/Verifier.sol\":5323:5325  32 */\n      0x20\n        /* \"contracts/Verifier.sol\":5319:5321  pA */\n      dup6\n        /* \"contracts/Verifier.sol\":5315:5326  add(pA, 32) */\n      add\n        /* \"contracts/Verifier.sol\":5302:5327  calldataload(add(pA, 32)) */\n      calldataload\n        /* \"contracts/Verifier.sol\":5299:5300  q */\n      0x30644e72e131a029b85045b68181585d97816a916871ca8d3c208c16d87cfd47\n        /* \"contracts/Verifier.sol\":5295:5328  sub(q, calldataload(add(pA, 32))) */\n      sub\n        /* \"contracts/Verifier.sol\":5291:5332  mod(sub(q, calldataload(add(pA, 32))), q) */\n      mod\n        /* \"contracts/Verifier.sol\":5286:5288  32 */\n      0x20\n        /* \"contracts/Verifier.sol\":5275:5284  _pPairing */\n      dup4\n        /* \"contracts/Verifier.sol\":5271:5289  add(_pPairing, 32) */\n      add\n        /* \"contracts/Verifier.sol\":5264:5333  mstore(add(_pPairing, 32), mod(sub(q, calldataload(add(pA, 32))), q)) */\n      mstore\n        /* \"contracts/Verifier.sol\":5412:5414  pB */\n      dup5\n        /* \"contracts/Verifier.sol\":5399:5415  calldataload(pB) */\n      calldataload\n        /* \"contracts/Verifier.sol\":5394:5396  64 */\n      0x40\n        /* \"contracts/Verifier.sol\":5383:5392  _pPairing */\n      dup4\n        /* \"contracts/Verifier.sol\":5379:5397  add(_pPairing, 64) */\n      add\n        /* \"contracts/Verifier.sol\":5372:5416  mstore(add(_pPairing, 64), calldataload(pB)) */\n      mstore\n        /* \"contracts/Verifier.sol\":5481:5483  32 */\n      0x20\n        /* \"contracts/Verifier.sol\":5477:5479  pB */\n      dup6\n        /* \"contracts/Verifier.sol\":5473:5484  add(pB, 32) */\n      add\n        /* \"contracts/Verifier.sol\":5460:5485  calldataload(add(pB, 32)) */\n      calldataload\n        /* \"contracts/Verifier.sol\":5455:5457  96 */\n      0x60\n        /* \"contracts/Verifier.sol\":5444:5453  _pPairing */\n      dup4\n        /* \"contracts/Verifier.sol\":5440:5458  add(_pPairing, 96) */\n      add\n        /* \"contracts/Verifier.sol\":5433:5486  mstore(add(_pPairing, 96), calldataload(add(pB, 32))) */\n      mstore\n        /* \"contracts/Verifier.sol\":5552:5554  64 */\n      0x40\n        /* \"contracts/Verifier.sol\":5548:5550  pB */\n      dup6\n        /* \"contracts/Verifier.sol\":5544:5555  add(pB, 64) */\n      add\n        /* \"contracts/Verifier.sol\":5531:5556  calldataload(add(pB, 64)) */\n      calldataload\n        /* \"contracts/Verifier.sol\":5525:5528  128 */\n      0x80\n        /* \"contracts/Verifier.sol\":5514:5523  _pPairing */\n      dup4\n        /* \"contracts/Verifier.sol\":5510:5529  add(_pPairing, 128) */\n      add\n        /* \"contracts/Verifier.sol\":5503:5557  mstore(add(_pPairing, 128), calldataload(add(pB, 64))) */\n      mstore\n        /* \"contracts/Verifier.sol\":5623:5625  96 */\n      0x60\n        /* \"contracts/Verifier.sol\":5619:5621  pB */\n      dup6\n        /* \"contracts/Verifier.sol\":5615:5626  add(pB, 96) */\n      add\n        /* \"contracts/Verifier.sol\":5602:5627  calldataload(add(pB, 96)) */\n      calldataload\n        /* \"contracts/Verifier.sol\":5596:5599  160 */\n      0xa0\n        /* \"contracts/Verifier.sol\":5585:5594  _pPairing */\n      dup4\n        /* \"contracts/Verifier.sol\":5581:5600  add(_pPairing, 160) */\n      add\n        /* \"contracts/Verifier.sol\":5574:5628  mstore(add(_pPairing, 160), calldataload(add(pB, 96))) */\n      mstore\n        /* \"contracts/Verifier.sol\":5700:5706  alphax */\n      0x23441971e1e09b7ae39945bd8b8fd751de1b3caa93d920c7214c39c6b178b43d\n        /* \"contracts/Verifier.sol\":5694:5697  192 */\n      0xc0\n        /* \"contracts/Verifier.sol\":5683:5692  _pPairing */\n      dup4\n        /* \"contracts/Verifier.sol\":5679:5698  add(_pPairing, 192) */\n      add\n        /* \"contracts/Verifier.sol\":5672:5707  mstore(add(_pPairing, 192), alphax) */\n      mstore\n        /* \"contracts/Verifier.sol\":5752:5758  alphay */\n      0x1f44d4c10c85881e4d99891a828d432d8066ae53a68c982ce2491416341174b0\n        /* \"contracts/Verifier.sol\":5746:5749  224 */\n      0xe0\n        /* \"contracts/Verifier.sol\":5735:5744  _pPairing */\n      dup4\n        /* \"contracts/Verifier.sol\":5731:5750  add(_pPairing, 224) */\n      add\n        /* \"contracts/Verifier.sol\":5724:5759  mstore(add(_pPairing, 224), alphay) */\n      mstore\n        /* \"contracts/Verifier.sol\":5830:5836  betax1 */\n      0x02009be0262b5949ad674fbe43cc4eb6f64ef02e1c89fc3dc507e84087e4e454\n        /* \"contracts/Verifier.sol\":5824:5827  256 */\n      0x0100\n        /* \"contracts/Verifier.sol\":5813:5822  _pPairing */\n      dup4\n        /* \"contracts/Verifier.sol\":5809:5828  add(_pPairing, 256) */\n      add\n        /* \"contracts/Verifier.sol\":5802:5837  mstore(add(_pPairing, 256), betax1) */\n      mstore\n        /* \"contracts/Verifier.sol\":5882:5888  betax2 */\n      0x0ad54a1eba17eab817d3eedf367f834b95814960fcbbb4ffac7e1cafda748afb\n        /* \"contracts/Verifier.sol\":5876:5879  288 */\n      0x0120\n        /* \"contracts/Verifier.sol\":5865:5874  _pPairing */\n      dup4\n        /* \"contracts/Verifier.sol\":5861:5880  add(_pPairing, 288) */\n      add\n        /* \"contracts/Verifier.sol\":5854:5889  mstore(add(_pPairing, 288), betax2) */\n      mstore\n        /* \"contracts/Verifier.sol\":5934:5940  betay1 */\n      0x2afe4315d7d4bc43443ff2f9781b31ecbd94a85c15f38d5e49ecba8fabe11846\n        /* \"contracts/Verifier.sol\":5928:5931  320 */\n      0x0140\n        /* \"contracts/Verifier.sol\":5917:5926  _pPairing */\n      dup4\n        /* \"contracts/Verifier.sol\":5913:5932  add(_pPairing, 320) */\n      add\n        /* \"contracts/Verifier.sol\":5906:5941  mstore(add(_pPairing, 320), betay1) */\n      mstore\n        /* \"contracts/Verifier.sol\":5986:5992  betay2 */\n      0x1fde6c738f466e0d30797d5e68066264f1429c9a1a507cb3a6254bde4efb5f09\n        /* \"contracts/Verifier.sol\":5980:5983  352 */\n      0x0160\n        /* \"contracts/Verifier.sol\":5969:5978  _pPairing */\n      dup4\n        /* \"contracts/Verifier.sol\":5965:5984  add(_pPairing, 352) */\n      add\n        /* \"contracts/Verifier.sol\":5958:5993  mstore(add(_pPairing, 352), betay2) */\n      mstore\n        /* \"contracts/Verifier.sol\":6079:6082  pVk */\n      0x00\n        /* \"contracts/Verifier.sol\":6073:6077  pMem */\n      dup9\n        /* \"contracts/Verifier.sol\":6069:6083  add(pMem, pVk) */\n      add\n        /* \"contracts/Verifier.sol\":6063:6084  mload(add(pMem, pVk)) */\n      mload\n        /* \"contracts/Verifier.sol\":6057:6060  384 */\n      0x0180\n        /* \"contracts/Verifier.sol\":6046:6055  _pPairing */\n      dup4\n        /* \"contracts/Verifier.sol\":6042:6061  add(_pPairing, 384) */\n      add\n        /* \"contracts/Verifier.sol\":6035:6085  mstore(add(_pPairing, 384), mload(add(pMem, pVk))) */\n      mstore\n        /* \"contracts/Verifier.sol\":6155:6157  32 */\n      0x20\n        /* \"contracts/Verifier.sol\":6150:6153  pVk */\n      0x00\n        /* \"contracts/Verifier.sol\":6146:6158  add(pVk, 32) */\n      add\n        /* \"contracts/Verifier.sol\":6140:6144  pMem */\n      dup9\n        /* \"contracts/Verifier.sol\":6136:6159  add(pMem, add(pVk, 32)) */\n      add\n        /* \"contracts/Verifier.sol\":6130:6160  mload(add(pMem, add(pVk, 32))) */\n      mload\n        /* \"contracts/Verifier.sol\":6124:6127  416 */\n      0x01a0\n        /* \"contracts/Verifier.sol\":6113:6122  _pPairing */\n      dup4\n        /* \"contracts/Verifier.sol\":6109:6128  add(_pPairing, 416) */\n      add\n        /* \"contracts/Verifier.sol\":6102:6161  mstore(add(_pPairing, 416), mload(add(pMem, add(pVk, 32)))) */\n      mstore\n        /* \"contracts/Verifier.sol\":6234:6241  gammax1 */\n      0x198e9393920d483a7260bfb731fb5d25f1aa493335a9e71297e485b7aef312c2\n        /* \"contracts/Verifier.sol\":6228:6231  448 */\n      0x01c0\n        /* \"contracts/Verifier.sol\":6217:6226  _pPairing */\n      dup4\n        /* \"contracts/Verifier.sol\":6213:6232  add(_pPairing, 448) */\n      add\n        /* \"contracts/Verifier.sol\":6206:6242  mstore(add(_pPairing, 448), gammax1) */\n      mstore\n        /* \"contracts/Verifier.sol\":6287:6294  gammax2 */\n      0x1800deef121f1e76426a00665e5c4479674322d4f75edadd46debd5cd992f6ed\n        /* \"contracts/Verifier.sol\":6281:6284  480 */\n      0x01e0\n        /* \"contracts/Verifier.sol\":6270:6279  _pPairing */\n      dup4\n        /* \"contracts/Verifier.sol\":6266:6285  add(_pPairing, 480) */\n      add\n        /* \"contracts/Verifier.sol\":6259:6295  mstore(add(_pPairing, 480), gammax2) */\n      mstore\n        /* \"contracts/Verifier.sol\":6340:6347  gammay1 */\n      0x090689d0585ff075ec9e99ad690c3395bc4b313370b38ef355acdadcd122975b\n        /* \"contracts/Verifier.sol\":6334:6337  512 */\n      0x0200\n        /* \"contracts/Verifier.sol\":6323:6332  _pPairing */\n      dup4\n        /* \"contracts/Verifier.sol\":6319:6338  add(_pPairing, 512) */\n      add\n        /* \"contracts/Verifier.sol\":6312:6348  mstore(add(_pPairing, 512), gammay1) */\n      mstore\n        /* \"contracts/Verifier.sol\":6393:6400  gammay2 */\n      0x12c85ea5db8c6deb4aab71808dcb408fe3d1e7690c43d37b4ce6cc0166fa7daa\n        /* \"contracts/Verifier.sol\":6387:6390  544 */\n      0x0220\n        /* \"contracts/Verifier.sol\":6376:6385  _pPairing */\n      dup4\n        /* \"contracts/Verifier.sol\":6372:6391  add(_pPairing, 544) */\n      add\n        /* \"contracts/Verifier.sol\":6365:6401  mstore(add(_pPairing, 544), gammay2) */\n      mstore\n        /* \"contracts/Verifier.sol\":6481:6483  pC */\n      dup6\n        /* \"contracts/Verifier.sol\":6468:6484  calldataload(pC) */\n      calldataload\n        /* \"contracts/Verifier.sol\":6462:6465  576 */\n      0x0240\n        /* \"contracts/Verifier.sol\":6451:6460  _pPairing */\n      dup4\n        /* \"contracts/Verifier.sol\":6447:6466  add(_pPairing, 576) */\n      add\n        /* \"contracts/Verifier.sol\":6440:6485  mstore(add(_pPairing, 576), calldataload(pC)) */\n      mstore\n        /* \"contracts/Verifier.sol\":6551:6553  32 */\n      0x20\n        /* \"contracts/Verifier.sol\":6547:6549  pC */\n      dup7\n        /* \"contracts/Verifier.sol\":6543:6554  add(pC, 32) */\n      add\n        /* \"contracts/Verifier.sol\":6530:6555  calldataload(add(pC, 32)) */\n      calldataload\n        /* \"contracts/Verifier.sol\":6524:6527  608 */\n      0x0260\n        /* \"contracts/Verifier.sol\":6513:6522  _pPairing */\n      dup4\n        /* \"contracts/Verifier.sol\":6509:6528  add(_pPairing, 608) */\n      add\n        /* \"contracts/Verifier.sol\":6502:6556  mstore(add(_pPairing, 608), calldataload(add(pC, 32))) */\n      mstore\n        /* \"contracts/Verifier.sol\":6628:6635  deltax1 */\n      0x0e9c1d942717c6cb9136075c57dae34d309e93e6c5419c52db2e06f8b6faebf9\n        /* \"contracts/Verifier.sol\":6622:6625  640 */\n      0x0280\n        /* \"contracts/Verifier.sol\":6611:6620  _pPairing */\n      dup4\n        /* \"contracts/Verifier.sol\":6607:6626  add(_pPairing, 640) */\n      add\n        /* \"contracts/Verifier.sol\":6600:6636  mstore(add(_pPairing, 640), deltax1) */\n      mstore\n        /* \"contracts/Verifier.sol\":6681:6688  deltax2 */\n      0x09da7c3fdf3cb5b1373af4312efc360f95971044f95d9934ebd057c8517c5e12\n        /* \"contracts/Verifier.sol\":6675:6678  672 */\n      0x02a0\n        /* \"contracts/Verifier.sol\":6664:6673  _pPairing */\n      dup4\n        /* \"contracts/Verifier.sol\":6660:6679  add(_pPairing, 672) */\n      add\n        /* \"contracts/Verifier.sol\":6653:6689  mstore(add(_pPairing, 672), deltax2) */\n      mstore\n        /* \"contracts/Verifier.sol\":6734:6741  deltay1 */\n      0x0a45d3d38b9f90bbf51b9dd1031b049e46fbd4456714fb4a518dd9a42d279d60\n        /* \"contracts/Verifier.sol\":6728:6731  704 */\n      0x02c0\n        /* \"contracts/Verifier.sol\":6717:6726  _pPairing */\n      dup4\n        /* \"contracts/Verifier.sol\":6713:6732  add(_pPairing, 704) */\n      add\n        /* \"contracts/Verifier.sol\":6706:6742  mstore(add(_pPairing, 704), deltay1) */\n      mstore\n        /* \"contracts/Verifier.sol\":6787:6794  deltay2 */\n      0x25473e2f0ef48559fb0457c572fbe5357c723740ee2f1e9483c87a2a2c655801\n        /* \"contracts/Verifier.sol\":6781:6784  736 */\n      0x02e0\n        /* \"contracts/Verifier.sol\":6770:6779  _pPairing */\n      dup4\n        /* \"contracts/Verifier.sol\":6766:6785  add(_pPairing, 736) */\n      add\n        /* \"contracts/Verifier.sol\":6759:6795  mstore(add(_pPairing, 736), deltay2) */\n      mstore\n        /* \"contracts/Verifier.sol\":6888:6892  0x20 */\n      0x20\n        /* \"contracts/Verifier.sol\":6877:6886  _pPairing */\n      dup3\n        /* \"contracts/Verifier.sol\":6872:6875  768 */\n      0x0300\n        /* \"contracts/Verifier.sol\":6861:6870  _pPairing */\n      dup5\n        /* \"contracts/Verifier.sol\":6858:6859  8 */\n      0x08\n        /* \"contracts/Verifier.sol\":6851:6855  2000 */\n      0x07d0\n        /* \"contracts/Verifier.sol\":6844:6849  gas() */\n      gas\n        /* \"contracts/Verifier.sol\":6840:6856  sub(gas(), 2000) */\n      sub\n        /* \"contracts/Verifier.sol\":6829:6893  staticcall(sub(gas(), 2000), 8, _pPairing, 768, _pPairing, 0x20) */\n      staticcall\n        /* \"contracts/Verifier.sol\":6938:6947  _pPairing */\n      dup3\n        /* \"contracts/Verifier.sol\":6932:6948  mload(_pPairing) */\n      mload\n        /* \"contracts/Verifier.sol\":6923:6930  success */\n      dup2\n        /* \"contracts/Verifier.sol\":6919:6949  and(success, mload(_pPairing)) */\n      and\n        /* \"contracts/Verifier.sol\":6911:6949  isOk := and(success, mload(_pPairing)) */\n      swap4\n      pop\n        /* \"contracts/Verifier.sol\":4729:6963  {... */\n      pop\n      pop\n      pop\n        /* \"contracts/Verifier.sol\":4669:6963  function checkPairing(pA, pB, pC, pubSignals, pMem) -> isOk {... */\n      swap6\n      swap5\n      pop\n      pop\n      pop\n      pop\n      pop\n      jump\t// out\n    tag_209:\n        /* \"contracts/Verifier.sol\":6995:6999  0x40 */\n      0x40\n        /* \"contracts/Verifier.sol\":6989:7000  mload(0x40) */\n      mload\n        /* \"contracts/Verifier.sol\":7036:7044  pLastMem */\n      0x0380\n        /* \"contracts/Verifier.sol\":7030:7034  pMem */\n      dup2\n        /* \"contracts/Verifier.sol\":7026:7045  add(pMem, pLastMem) */\n      add\n        /* \"contracts/Verifier.sol\":7020:7024  0x40 */\n      0x40\n        /* \"contracts/Verifier.sol\":7013:7046  mstore(0x40, add(pMem, pLastMem)) */\n      mstore\n        /* \"contracts/Verifier.sol\":7124:7169  checkField(calldataload(add(_pubSignals, 0))) */\n      tag_218\n        /* \"contracts/Verifier.sol\":7165:7166  0 */\n      0x00\n        /* \"contracts/Verifier.sol\":7152:7163  _pubSignals */\n      dup5\n        /* \"contracts/Verifier.sol\":7148:7167  add(_pubSignals, 0) */\n      add\n        /* \"contracts/Verifier.sol\":7135:7168  calldataload(add(_pubSignals, 0)) */\n      calldataload\n        /* \"contracts/Verifier.sol\":7124:7169  checkField(calldataload(add(_pubSignals, 0))) */\n      tag_206\n      jump\t// in\n    tag_218:\n        /* \"contracts/Verifier.sol\":7195:7241  checkField(calldataload(add(_pubSignals, 32))) */\n      tag_219\n        /* \"contracts/Verifier.sol\":7236:7238  32 */\n      0x20\n        /* \"contracts/Verifier.sol\":7223:7234  _pubSignals */\n      dup5\n        /* \"contracts/Verifier.sol\":7219:7239  add(_pubSignals, 32) */\n      add\n        /* \"contracts/Verifier.sol\":7206:7240  calldataload(add(_pubSignals, 32)) */\n      calldataload\n        /* \"contracts/Verifier.sol\":7195:7241  checkField(calldataload(add(_pubSignals, 32))) */\n      tag_206\n      jump\t// in\n    tag_219:\n        /* \"contracts/Verifier.sol\":7267:7313  checkField(calldataload(add(_pubSignals, 64))) */\n      tag_220\n        /* \"contracts/Verifier.sol\":7308:7310  64 */\n      0x40\n        /* \"contracts/Verifier.sol\":7295:7306  _pubSignals */\n      dup5\n        /* \"contracts/Verifier.sol\":7291:7311  add(_pubSignals, 64) */\n      add\n        /* \"contracts/Verifier.sol\":7278:7312  calldataload(add(_pubSignals, 64)) */\n      calldataload\n        /* \"contracts/Verifier.sol\":7267:7313  checkField(calldataload(add(_pubSignals, 64))) */\n      tag_206\n      jump\t// in\n    tag_220:\n        /* \"contracts/Verifier.sol\":7395:7441  checkPairing(_pA, _pB, _pC, _pubSignals, pMem) */\n      tag_221\n        /* \"contracts/Verifier.sol\":7436:7440  pMem */\n      dup2\n        /* \"contracts/Verifier.sol\":7423:7434  _pubSignals */\n      dup5\n        /* \"contracts/Verifier.sol\":7418:7421  _pC */\n      dup7\n        /* \"contracts/Verifier.sol\":7413:7416  _pB */\n      dup9\n        /* \"contracts/Verifier.sol\":7408:7411  _pA */\n      dup11\n        /* \"contracts/Verifier.sol\":7395:7441  checkPairing(_pA, _pB, _pC, _pubSignals, pMem) */\n      tag_208\n      jump\t// in\n    tag_221:\n        /* \"contracts/Verifier.sol\":7465:7472  isValid */\n      dup1\n        /* \"contracts/Verifier.sol\":7462:7463  0 */\n      0x00\n        /* \"contracts/Verifier.sol\":7455:7473  mstore(0, isValid) */\n      mstore\n        /* \"contracts/Verifier.sol\":7497:7501  0x20 */\n      0x20\n        /* \"contracts/Verifier.sol\":7494:7495  0 */\n      0x00\n        /* \"contracts/Verifier.sol\":7487:7502  return(0, 0x20) */\n      return\n        /* \"@openzeppelin/contracts/access/Ownable.sol\":1796:1958  function _checkOwner() internal view virtual {... */\n    tag_104:\n        /* \"@openzeppelin/contracts/access/Ownable.sol\":1866:1878  _msgSender() */\n      tag_223\n        /* \"@openzeppelin/contracts/access/Ownable.sol\":1866:1876  _msgSender */\n      tag_224\n        /* \"@openzeppelin/contracts/access/Ownable.sol\":1866:1878  _msgSender() */\n      jump\t// in\n    tag_223:\n        /* \"@openzeppelin/contracts/access/Ownable.sol\":1855:1878  owner() != _msgSender() */\n      0xffffffffffffffffffffffffffffffffffffffff\n      and\n        /* \"@openzeppelin/contracts/access/Ownable.sol\":1855:1862  owner() */\n      tag_225\n        /* \"@openzeppelin/contracts/access/Ownable.sol\":1855:1860  owner */\n      tag_47\n        /* \"@openzeppelin/contracts/access/Ownable.sol\":1855:1862  owner() */\n      jump\t// in\n    tag_225:\n        /* \"@openzeppelin/contracts/access/Ownable.sol\":1855:1878  owner() != _msgSender() */\n      0xffffffffffffffffffffffffffffffffffffffff\n      and\n      eq\n        /* \"@openzeppelin/contracts/access/Ownable.sol\":1851:1952  if (owner() != _msgSender()) {... */\n      tag_226\n      jumpi\n        /* \"@openzeppelin/contracts/access/Ownable.sol\":1928:1940  _msgSender() */\n      tag_227\n        /* \"@openzeppelin/contracts/access/Ownable.sol\":1928:1938  _msgSender */\n      tag_224\n        /* \"@openzeppelin/contracts/access/Ownable.sol\":1928:1940  _msgSender() */\n      jump\t// in\n    tag_227:\n        /* \"@openzeppelin/contracts/access/Ownable.sol\":1901:1941  OwnableUnauthorizedAccount(_msgSender()) */\n      mload(0x40)\n      0x118cdaa700000000000000000000000000000000000000000000000000000000\n      dup2\n      mstore\n      0x04\n      add\n      tag_228\n      swap2\n      swap1\n      tag_49\n      jump\t// in\n    tag_228:\n      mload(0x40)\n      dup1\n      swap2\n      sub\n      swap1\n      revert\n        /* \"@openzeppelin/contracts/access/Ownable.sol\":1851:1952  if (owner() != _msgSender()) {... */\n    tag_226:\n        /* \"@openzeppelin/contracts/access/Ownable.sol\":1796:1958  function _checkOwner() internal view virtual {... */\n      jump\t// out\n        /* \"@openzeppelin/contracts/access/Ownable.sol\":2912:3099  function _transferOwnership(address newOwner) internal virtual {... */\n    tag_107:\n        /* \"@openzeppelin/contracts/access/Ownable.sol\":2985:3001  address oldOwner */\n      0x00\n        /* \"@openzeppelin/contracts/access/Ownable.sol\":3004:3010  _owner */\n      dup1\n      0x00\n      swap1\n      sload\n      swap1\n      0x0100\n      exp\n      swap1\n      div\n      0xffffffffffffffffffffffffffffffffffffffff\n      and\n        /* \"@openzeppelin/contracts/access/Ownable.sol\":2985:3010  address oldOwner = _owner */\n      swap1\n      pop\n        /* \"@openzeppelin/contracts/access/Ownable.sol\":3029:3037  newOwner */\n      dup2\n        /* \"@openzeppelin/contracts/access/Ownable.sol\":3020:3026  _owner */\n      0x00\n      dup1\n        /* \"@openzeppelin/contracts/access/Ownable.sol\":3020:3037  _owner = newOwner */\n      0x0100\n      exp\n      dup2\n      sload\n      dup2\n      0xffffffffffffffffffffffffffffffffffffffff\n      mul\n      not\n      and\n      swap1\n      dup4\n      0xffffffffffffffffffffffffffffffffffffffff\n      and\n      mul\n      or\n      swap1\n      sstore\n      pop\n        /* \"@openzeppelin/contracts/access/Ownable.sol\":3083:3091  newOwner */\n      dup2\n        /* \"@openzeppelin/contracts/access/Ownable.sol\":3052:3092  OwnershipTransferred(oldOwner, newOwner) */\n      0xffffffffffffffffffffffffffffffffffffffff\n      and\n        /* \"@openzeppelin/contracts/access/Ownable.sol\":3073:3081  oldOwner */\n      dup2\n        /* \"@openzeppelin/contracts/access/Ownable.sol\":3052:3092  OwnershipTransferred(oldOwner, newOwner) */\n      0xffffffffffffffffffffffffffffffffffffffff\n      and\n      0x8be0079c531659141344cd1fd0a4f28419497f9722a3daafe3b4186f6b6457e0\n      mload(0x40)\n      mload(0x40)\n      dup1\n      swap2\n      sub\n      swap1\n      log3\n        /* \"@openzeppelin/contracts/access/Ownable.sol\":2975:3099  {... */\n      pop\n        /* \"@openzeppelin/contracts/access/Ownable.sol\":2912:3099  function _transferOwnership(address newOwner) internal virtual {... */\n      pop\n      jump\t// out\n        /* \"@openzeppelin/contracts/utils/Pausable.sol\":2710:2827  function _unpause() internal virtual whenPaused {... */\n    tag_112:\n        /* \"@openzeppelin/contracts/utils/Pausable.sol\":1721:1737  _requirePaused() */\n      tag_231\n        /* \"@openzeppelin/contracts/utils/Pausable.sol\":1721:1735  _requirePaused */\n      tag_232\n        /* \"@openzeppelin/contracts/utils/Pausable.sol\":1721:1737  _requirePaused() */\n      jump\t// in\n    tag_231:\n        /* \"@openzeppelin/contracts/utils/Pausable.sol\":2778:2783  false */\n      0x00\n        /* \"@openzeppelin/contracts/utils/Pausable.sol\":2768:2775  _paused */\n      dup1\n      0x14\n        /* \"@openzeppelin/contracts/utils/Pausable.sol\":2768:2783  _paused = false */\n      0x0100\n      exp\n      dup2\n      sload\n      dup2\n      0xff\n      mul\n      not\n      and\n      swap1\n      dup4\n      iszero\n      iszero\n      mul\n      or\n      swap1\n      sstore\n      pop\n        /* \"@openzeppelin/contracts/utils/Pausable.sol\":2798:2820  Unpaused(_msgSender()) */\n      0x5db9ee0a495bf2e6ff9c91a7834c1ba4fdd244a5e8aa4e537bd38aeae4b073aa\n        /* \"@openzeppelin/contracts/utils/Pausable.sol\":2807:2819  _msgSender() */\n      tag_234\n        /* \"@openzeppelin/contracts/utils/Pausable.sol\":2807:2817  _msgSender */\n      tag_224\n        /* \"@openzeppelin/contracts/utils/Pausable.sol\":2807:2819  _msgSender() */\n      jump\t// in\n    tag_234:\n        /* \"@openzeppelin/contracts/utils/Pausable.sol\":2798:2820  Unpaused(_msgSender()) */\n      mload(0x40)\n      tag_235\n      swap2\n      swap1\n      tag_49\n      jump\t// in\n    tag_235:\n      mload(0x40)\n      dup1\n      swap2\n      sub\n      swap1\n      log1\n        /* \"@openzeppelin/contracts/utils/Pausable.sol\":2710:2827  function _unpause() internal virtual whenPaused {... */\n      jump\t// out\n        /* \"@openzeppelin/contracts/utils/Pausable.sol\":2002:2130  function _requireNotPaused() internal view virtual {... */\n    tag_115:\n        /* \"@openzeppelin/contracts/utils/Pausable.sol\":2067:2075  paused() */\n      tag_237\n        /* \"@openzeppelin/contracts/utils/Pausable.sol\":2067:2073  paused */\n      tag_32\n        /* \"@openzeppelin/contracts/utils/Pausable.sol\":2067:2075  paused() */\n      jump\t// in\n    tag_237:\n        /* \"@openzeppelin/contracts/utils/Pausable.sol\":2063:2124  if (paused()) {... */\n      iszero\n      tag_238\n      jumpi\n        /* \"@openzeppelin/contracts/utils/Pausable.sol\":2098:2113  EnforcedPause() */\n      mload(0x40)\n      0xd93c066500000000000000000000000000000000000000000000000000000000\n      dup2\n      mstore\n      0x04\n      add\n      mload(0x40)\n      dup1\n      swap2\n      sub\n      swap1\n      revert\n        /* \"@openzeppelin/contracts/utils/Pausable.sol\":2063:2124  if (paused()) {... */\n    tag_238:\n        /* \"@openzeppelin/contracts/utils/Pausable.sol\":2002:2130  function _requireNotPaused() internal view virtual {... */\n      jump\t// out\n        /* \"contracts/ArtemisZkVoting.sol\":5163:5390  function verifyMerkleProof(... */\n    tag_133:\n        /* \"contracts/ArtemisZkVoting.sol\":5308:5312  bool */\n      0x00\n        /* \"contracts/ArtemisZkVoting.sol\":5331:5383  MerkleProof.verify(proof, proposal.merkleRoot, leaf) */\n      tag_240\n        /* \"contracts/ArtemisZkVoting.sol\":5350:5355  proof */\n      dup4\n        /* \"contracts/ArtemisZkVoting.sol\":5357:5365  proposal */\n      dup6\n        /* \"contracts/ArtemisZkVoting.sol\":5357:5376  proposal.merkleRoot */\n      0x00\n      add\n      sload\n        /* \"contracts/ArtemisZkVoting.sol\":5378:5382  leaf */\n      dup5\n        /* \"contracts/ArtemisZkVoting.sol\":5331:5349  MerkleProof.verify */\n      tag_241\n        /* \"contracts/ArtemisZkVoting.sol\":5331:5383  MerkleProof.verify(proof, proposal.merkleRoot, leaf) */\n      jump\t// in\n    tag_240:\n        /* \"contracts/ArtemisZkVoting.sol\":5324:5383  return MerkleProof.verify(proof, proposal.merkleRoot, leaf) */\n      swap1\n      pop\n        /* \"contracts/ArtemisZkVoting.sol\":5163:5390  function verifyMerkleProof(... */\n      swap4\n      swap3\n      pop\n      pop\n      pop\n      jump\t// out\n        /* \"@openzeppelin/contracts/utils/Pausable.sol\":2463:2578  function _pause() internal virtual whenNotPaused {... */\n    tag_204:\n        /* \"@openzeppelin/contracts/utils/Pausable.sol\":1474:1493  _requireNotPaused() */\n      tag_243\n        /* \"@openzeppelin/contracts/utils/Pausable.sol\":1474:1491  _requireNotPaused */\n      tag_115\n        /* \"@openzeppelin/contracts/utils/Pausable.sol\":1474:1493  _requireNotPaused() */\n      jump\t// in\n    tag_243:\n        /* \"@openzeppelin/contracts/utils/Pausable.sol\":2532:2536  true */\n      0x01\n        /* \"@openzeppelin/contracts/utils/Pausable.sol\":2522:2529  _paused */\n      0x00\n      0x14\n        /* \"@openzeppelin/contracts/utils/Pausable.sol\":2522:2536  _paused = true */\n      0x0100\n      exp\n      dup2\n      sload\n      dup2\n      0xff\n      mul\n      not\n      and\n      swap1\n      dup4\n      iszero\n      iszero\n      mul\n      or\n      swap1\n      sstore\n      pop\n        /* \"@openzeppelin/contracts/utils/Pausable.sol\":2551:2571  Paused(_msgSender()) */\n      0x62e78cea01bee320cd4e420270b5ea74000d11b0c9f74754ebdbfc544b05a258\n        /* \"@openzeppelin/contracts/utils/Pausable.sol\":2558:2570  _msgSender() */\n      tag_245\n        /* \"@openzeppelin/contracts/utils/Pausable.sol\":2558:2568  _msgSender */\n      tag_224\n        /* \"@openzeppelin/contracts/utils/Pausable.sol\":2558:2570  _msgSender() */\n      jump\t// in\n    tag_245:\n        /* \"@openzeppelin/contracts/utils/Pausable.sol\":2551:2571  Paused(_msgSender()) */\n      mload(0x40)\n      tag_246\n      swap2\n      swap1\n      tag_49\n      jump\t// in\n    tag_246:\n      mload(0x40)\n      dup1\n      swap2\n      sub\n      swap1\n      log1\n        /* \"@openzeppelin/contracts/utils/Pausable.sol\":2463:2578  function _pause() internal virtual whenNotPaused {... */\n      jump\t// out\n        /* \"@openzeppelin/contracts/utils/Context.sol\":656:752  function _msgSender() internal view virtual returns (address) {... */\n    tag_224:\n        /* \"@openzeppelin/contracts/utils/Context.sol\":709:716  address */\n      0x00\n        /* \"@openzeppelin/contracts/utils/Context.sol\":735:745  msg.sender */\n      caller\n        /* \"@openzeppelin/contracts/utils/Context.sol\":728:745  return msg.sender */\n      swap1\n      pop\n        /* \"@openzeppelin/contracts/utils/Context.sol\":656:752  function _msgSender() internal view virtual returns (address) {... */\n      swap1\n      jump\t// out\n        /* \"@openzeppelin/contracts/utils/Pausable.sol\":2202:2328  function _requirePaused() internal view virtual {... */\n    tag_232:\n        /* \"@openzeppelin/contracts/utils/Pausable.sol\":2265:2273  paused() */\n      tag_249\n        /* \"@openzeppelin/contracts/utils/Pausable.sol\":2265:2271  paused */\n      tag_32\n        /* \"@openzeppelin/contracts/utils/Pausable.sol\":2265:2273  paused() */\n      jump\t// in\n    tag_249:\n        /* \"@openzeppelin/contracts/utils/Pausable.sol\":2260:2322  if (!paused()) {... */\n      tag_250\n      jumpi\n        /* \"@openzeppelin/contracts/utils/Pausable.sol\":2296:2311  ExpectedPause() */\n      mload(0x40)\n      0x8dfc202b00000000000000000000000000000000000000000000000000000000\n      dup2\n      mstore\n      0x04\n      add\n      mload(0x40)\n      dup1\n      swap2\n      sub\n      swap1\n      revert\n        /* \"@openzeppelin/contracts/utils/Pausable.sol\":2260:2322  if (!paused()) {... */\n    tag_250:\n        /* \"@openzeppelin/contracts/utils/Pausable.sol\":2202:2328  function _requirePaused() internal view virtual {... */\n      jump\t// out\n        /* \"@openzeppelin/contracts/utils/cryptography/MerkleProof.sol\":1265:1419  function verify(bytes32[] memory proof, bytes32 root, bytes32 leaf) internal pure returns (bool) {... */\n    tag_241:\n        /* \"@openzeppelin/contracts/utils/cryptography/MerkleProof.sol\":1356:1360  bool */\n      0x00\n        /* \"@openzeppelin/contracts/utils/cryptography/MerkleProof.sol\":1408:1412  root */\n      dup3\n        /* \"@openzeppelin/contracts/utils/cryptography/MerkleProof.sol\":1379:1404  processProof(proof, leaf) */\n      tag_252\n        /* \"@openzeppelin/contracts/utils/cryptography/MerkleProof.sol\":1392:1397  proof */\n      dup6\n        /* \"@openzeppelin/contracts/utils/cryptography/MerkleProof.sol\":1399:1403  leaf */\n      dup5\n        /* \"@openzeppelin/contracts/utils/cryptography/MerkleProof.sol\":1379:1391  processProof */\n      tag_253\n        /* \"@openzeppelin/contracts/utils/cryptography/MerkleProof.sol\":1379:1404  processProof(proof, leaf) */\n      jump\t// in\n    tag_252:\n        /* \"@openzeppelin/contracts/utils/cryptography/MerkleProof.sol\":1379:1412  processProof(proof, leaf) == root */\n      eq\n        /* \"@openzeppelin/contracts/utils/cryptography/MerkleProof.sol\":1372:1412  return processProof(proof, leaf) == root */\n      swap1\n      pop\n        /* \"@openzeppelin/contracts/utils/cryptography/MerkleProof.sol\":1265:1419  function verify(bytes32[] memory proof, bytes32 root, bytes32 leaf) internal pure returns (bool) {... */\n      swap4\n      swap3\n      pop\n      pop\n      pop\n      jump\t// out\n        /* \"@openzeppelin/contracts/utils/cryptography/MerkleProof.sol\":1967:2257  function processProof(bytes32[] memory proof, bytes32 leaf) internal pure returns (bytes32) {... */\n    tag_253:\n        /* \"@openzeppelin/contracts/utils/cryptography/MerkleProof.sol\":2050:2057  bytes32 */\n      0x00\n        /* \"@openzeppelin/contracts/utils/cryptography/MerkleProof.sol\":2069:2089  bytes32 computedHash */\n      dup1\n        /* \"@openzeppelin/contracts/utils/cryptography/MerkleProof.sol\":2092:2096  leaf */\n      dup3\n        /* \"@openzeppelin/contracts/utils/cryptography/MerkleProof.sol\":2069:2096  bytes32 computedHash = leaf */\n      swap1\n      pop\n        /* \"@openzeppelin/contracts/utils/cryptography/MerkleProof.sol\":2111:2120  uint256 i */\n      0x00\n        /* \"@openzeppelin/contracts/utils/cryptography/MerkleProof.sol\":2106:2222  for (uint256 i = 0; i < proof.length; i++) {... */\n    tag_255:\n        /* \"@openzeppelin/contracts/utils/cryptography/MerkleProof.sol\":2130:2135  proof */\n      dup5\n        /* \"@openzeppelin/contracts/utils/cryptography/MerkleProof.sol\":2130:2142  proof.length */\n      mload\n        /* \"@openzeppelin/contracts/utils/cryptography/MerkleProof.sol\":2126:2127  i */\n      dup2\n        /* \"@openzeppelin/contracts/utils/cryptography/MerkleProof.sol\":2126:2142  i < proof.length */\n      lt\n        /* \"@openzeppelin/contracts/utils/cryptography/MerkleProof.sol\":2106:2222  for (uint256 i = 0; i < proof.length; i++) {... */\n      iszero\n      tag_256\n      jumpi\n        /* \"@openzeppelin/contracts/utils/cryptography/MerkleProof.sol\":2178:2211  _hashPair(computedHash, proof[i]) */\n      tag_258\n        /* \"@openzeppelin/contracts/utils/cryptography/MerkleProof.sol\":2188:2200  computedHash */\n      dup3\n        /* \"@openzeppelin/contracts/utils/cryptography/MerkleProof.sol\":2202:2207  proof */\n      dup7\n        /* \"@openzeppelin/contracts/utils/cryptography/MerkleProof.sol\":2208:2209  i */\n      dup4\n        /* \"@openzeppelin/contracts/utils/cryptography/MerkleProof.sol\":2202:2210  proof[i] */\n      dup2\n      mload\n      dup2\n      lt\n      tag_259\n      jumpi\n      tag_260\n      tag_140\n      jump\t// in\n    tag_260:\n    tag_259:\n      0x20\n      mul\n      0x20\n      add\n      add\n      mload\n        /* \"@openzeppelin/contracts/utils/cryptography/MerkleProof.sol\":2178:2187  _hashPair */\n      tag_261\n        /* \"@openzeppelin/contracts/utils/cryptography/MerkleProof.sol\":2178:2211  _hashPair(computedHash, proof[i]) */\n      jump\t// in\n    tag_258:\n        /* \"@openzeppelin/contracts/utils/cryptography/MerkleProof.sol\":2163:2211  computedHash = _hashPair(computedHash, proof[i]) */\n      swap2\n      pop\n        /* \"@openzeppelin/contracts/utils/cryptography/MerkleProof.sol\":2144:2147  i++ */\n      dup1\n      dup1\n      0x01\n      add\n      swap2\n      pop\n      pop\n        /* \"@openzeppelin/contracts/utils/cryptography/MerkleProof.sol\":2106:2222  for (uint256 i = 0; i < proof.length; i++) {... */\n      jump(tag_255)\n    tag_256:\n      pop\n        /* \"@openzeppelin/contracts/utils/cryptography/MerkleProof.sol\":2238:2250  computedHash */\n      dup1\n        /* \"@openzeppelin/contracts/utils/cryptography/MerkleProof.sol\":2231:2250  return computedHash */\n      swap2\n      pop\n      pop\n        /* \"@openzeppelin/contracts/utils/cryptography/MerkleProof.sol\":1967:2257  function processProof(bytes32[] memory proof, bytes32 leaf) internal pure returns (bytes32) {... */\n      swap3\n      swap2\n      pop\n      pop\n      jump\t// out\n        /* \"@openzeppelin/contracts/utils/cryptography/MerkleProof.sol\":9229:9376  function _hashPair(bytes32 a, bytes32 b) private pure returns (bytes32) {... */\n    tag_261:\n        /* \"@openzeppelin/contracts/utils/cryptography/MerkleProof.sol\":9292:9299  bytes32 */\n      0x00\n        /* \"@openzeppelin/contracts/utils/cryptography/MerkleProof.sol\":9322:9323  b */\n      dup2\n        /* \"@openzeppelin/contracts/utils/cryptography/MerkleProof.sol\":9318:9319  a */\n      dup4\n        /* \"@openzeppelin/contracts/utils/cryptography/MerkleProof.sol\":9318:9323  a < b */\n      lt\n        /* \"@openzeppelin/contracts/utils/cryptography/MerkleProof.sol\":9318:9369  a < b ? _efficientHash(a, b) : _efficientHash(b, a) */\n      tag_263\n      jumpi\n        /* \"@openzeppelin/contracts/utils/cryptography/MerkleProof.sol\":9349:9369  _efficientHash(b, a) */\n      tag_264\n        /* \"@openzeppelin/contracts/utils/cryptography/MerkleProof.sol\":9364:9365  b */\n      dup3\n        /* \"@openzeppelin/contracts/utils/cryptography/MerkleProof.sol\":9367:9368  a */\n      dup5\n        /* \"@openzeppelin/contracts/utils/cryptography/MerkleProof.sol\":9349:9363  _efficientHash */\n      tag_265\n        /* \"@openzeppelin/contracts/utils/cryptography/MerkleProof.sol\":9349:9369  _efficientHash(b, a) */\n      jump\t// in\n    tag_264:\n        /* \"@openzeppelin/contracts/utils/cryptography/MerkleProof.sol\":9318:9369  a < b ? _efficientHash(a, b) : _efficientHash(b, a) */\n      jump(tag_266)\n    tag_263:\n        /* \"@openzeppelin/contracts/utils/cryptography/MerkleProof.sol\":9326:9346  _efficientHash(a, b) */\n      tag_267\n        /* \"@openzeppelin/contracts/utils/cryptography/MerkleProof.sol\":9341:9342  a */\n      dup4\n        /* \"@openzeppelin/contracts/utils/cryptography/MerkleProof.sol\":9344:9345  b */\n      dup4\n        /* \"@openzeppelin/contracts/utils/cryptography/MerkleProof.sol\":9326:9340  _efficientHash */\n      tag_265\n        /* \"@openzeppelin/contracts/utils/cryptography/MerkleProof.sol\":9326:9346  _efficientHash(a, b) */\n      jump\t// in\n    tag_267:\n        /* \"@openzeppelin/contracts/utils/cryptography/MerkleProof.sol\":9318:9369  a < b ? _efficientHash(a, b) : _efficientHash(b, a) */\n    tag_266:\n        /* \"@openzeppelin/contracts/utils/cryptography/MerkleProof.sol\":9311:9369  return a < b ? _efficientHash(a, b) : _efficientHash(b, a) */\n      swap1\n      pop\n        /* \"@openzeppelin/contracts/utils/cryptography/MerkleProof.sol\":9229:9376  function _hashPair(bytes32 a, bytes32 b) private pure returns (bytes32) {... */\n      swap3\n      swap2\n      pop\n      pop\n      jump\t// out\n        /* \"@openzeppelin/contracts/utils/cryptography/MerkleProof.sol\":9496:9757  function _efficientHash(bytes32 a, bytes32 b) private pure returns (bytes32 value) {... */\n    tag_265:\n        /* \"@openzeppelin/contracts/utils/cryptography/MerkleProof.sol\":9564:9577  bytes32 value */\n      0x00\n        /* \"@openzeppelin/contracts/utils/cryptography/MerkleProof.sol\":9668:9669  a */\n      dup3\n        /* \"@openzeppelin/contracts/utils/cryptography/MerkleProof.sol\":9662:9666  0x00 */\n      0x00\n        /* \"@openzeppelin/contracts/utils/cryptography/MerkleProof.sol\":9655:9670  mstore(0x00, a) */\n      mstore\n        /* \"@openzeppelin/contracts/utils/cryptography/MerkleProof.sol\":9696:9697  b */\n      dup2\n        /* \"@openzeppelin/contracts/utils/cryptography/MerkleProof.sol\":9690:9694  0x20 */\n      0x20\n        /* \"@openzeppelin/contracts/utils/cryptography/MerkleProof.sol\":9683:9698  mstore(0x20, b) */\n      mstore\n        /* \"@openzeppelin/contracts/utils/cryptography/MerkleProof.sol\":9736:9740  0x40 */\n      0x40\n        /* \"@openzeppelin/contracts/utils/cryptography/MerkleProof.sol\":9730:9734  0x00 */\n      0x00\n        /* \"@openzeppelin/contracts/utils/cryptography/MerkleProof.sol\":9720:9741  keccak256(0x00, 0x40) */\n      keccak256\n        /* \"@openzeppelin/contracts/utils/cryptography/MerkleProof.sol\":9711:9741  value := keccak256(0x00, 0x40) */\n      swap1\n      pop\n        /* \"@openzeppelin/contracts/utils/cryptography/MerkleProof.sol\":9496:9757  function _efficientHash(bytes32 a, bytes32 b) private pure returns (bytes32 value) {... */\n      swap3\n      swap2\n      pop\n      pop\n      jump\t// out\n        /* \"#utility.yul\":7:82   */\n    tag_269:\n        /* \"#utility.yul\":40:46   */\n      0x00\n        /* \"#utility.yul\":73:75   */\n      0x40\n        /* \"#utility.yul\":67:76   */\n      mload\n        /* \"#utility.yul\":57:76   */\n      swap1\n      pop\n        /* \"#utility.yul\":7:82   */\n      swap1\n      jump\t// out\n        /* \"#utility.yul\":88:205   */\n    tag_270:\n        /* \"#utility.yul\":197:198   */\n      0x00\n        /* \"#utility.yul\":194:195   */\n      dup1\n        /* \"#utility.yul\":187:199   */\n      revert\n        /* \"#utility.yul\":211:328   */\n    tag_271:\n        /* \"#utility.yul\":320:321   */\n      0x00\n        /* \"#utility.yul\":317:318   */\n      dup1\n        /* \"#utility.yul\":310:322   */\n      revert\n        /* \"#utility.yul\":334:411   */\n    tag_272:\n        /* \"#utility.yul\":371:378   */\n      0x00\n        /* \"#utility.yul\":400:405   */\n      dup2\n        /* \"#utility.yul\":389:405   */\n      swap1\n      pop\n        /* \"#utility.yul\":334:411   */\n      swap2\n      swap1\n      pop\n      jump\t// out\n        /* \"#utility.yul\":417:539   */\n    tag_273:\n        /* \"#utility.yul\":490:514   */\n      tag_377\n        /* \"#utility.yul\":508:513   */\n      dup2\n        /* \"#utility.yul\":490:514   */\n      tag_272\n      jump\t// in\n    tag_377:\n        /* \"#utility.yul\":483:488   */\n      dup2\n        /* \"#utility.yul\":480:515   */\n      eq\n        /* \"#utility.yul\":470:533   */\n      tag_378\n      jumpi\n        /* \"#utility.yul\":529:530   */\n      0x00\n        /* \"#utility.yul\":526:527   */\n      dup1\n        /* \"#utility.yul\":519:531   */\n      revert\n        /* \"#utility.yul\":470:533   */\n    tag_378:\n        /* \"#utility.yul\":417:539   */\n      pop\n      jump\t// out\n        /* \"#utility.yul\":545:684   */\n    tag_274:\n        /* \"#utility.yul\":591:596   */\n      0x00\n        /* \"#utility.yul\":629:635   */\n      dup2\n        /* \"#utility.yul\":616:636   */\n      calldataload\n        /* \"#utility.yul\":607:636   */\n      swap1\n      pop\n        /* \"#utility.yul\":645:678   */\n      tag_380\n        /* \"#utility.yul\":672:677   */\n      dup2\n        /* \"#utility.yul\":645:678   */\n      tag_273\n      jump\t// in\n    tag_380:\n        /* \"#utility.yul\":545:684   */\n      swap3\n      swap2\n      pop\n      pop\n      jump\t// out\n        /* \"#utility.yul\":690:1019   */\n    tag_23:\n        /* \"#utility.yul\":749:755   */\n      0x00\n        /* \"#utility.yul\":798:800   */\n      0x20\n        /* \"#utility.yul\":786:795   */\n      dup3\n        /* \"#utility.yul\":777:784   */\n      dup5\n        /* \"#utility.yul\":773:796   */\n      sub\n        /* \"#utility.yul\":769:801   */\n      slt\n        /* \"#utility.yul\":766:885   */\n      iszero\n      tag_382\n      jumpi\n        /* \"#utility.yul\":804:883   */\n      tag_383\n      tag_270\n      jump\t// in\n    tag_383:\n        /* \"#utility.yul\":766:885   */\n    tag_382:\n        /* \"#utility.yul\":924:925   */\n      0x00\n        /* \"#utility.yul\":949:1002   */\n      tag_384\n        /* \"#utility.yul\":994:1001   */\n      dup5\n        /* \"#utility.yul\":985:991   */\n      dup3\n        /* \"#utility.yul\":974:983   */\n      dup6\n        /* \"#utility.yul\":970:992   */\n      add\n        /* \"#utility.yul\":949:1002   */\n      tag_274\n      jump\t// in\n    tag_384:\n        /* \"#utility.yul\":939:1002   */\n      swap2\n      pop\n        /* \"#utility.yul\":895:1012   */\n      pop\n        /* \"#utility.yul\":690:1019   */\n      swap3\n      swap2\n      pop\n      pop\n      jump\t// out\n        /* \"#utility.yul\":1025:1102   */\n    tag_275:\n        /* \"#utility.yul\":1062:1069   */\n      0x00\n        /* \"#utility.yul\":1091:1096   */\n      dup2\n        /* \"#utility.yul\":1080:1096   */\n      swap1\n      pop\n        /* \"#utility.yul\":1025:1102   */\n      swap2\n      swap1\n      pop\n      jump\t// out\n        /* \"#utility.yul\":1108:1226   */\n    tag_276:\n        /* \"#utility.yul\":1195:1219   */\n      tag_387\n        /* \"#utility.yul\":1213:1218   */\n      dup2\n        /* \"#utility.yul\":1195:1219   */\n      tag_275\n      jump\t// in\n    tag_387:\n        /* \"#utility.yul\":1190:1193   */\n      dup3\n        /* \"#utility.yul\":1183:1220   */\n      mstore\n        /* \"#utility.yul\":1108:1226   */\n      pop\n      pop\n      jump\t// out\n        /* \"#utility.yul\":1232:1331   */\n    tag_277:\n        /* \"#utility.yul\":1284:1290   */\n      0x00\n        /* \"#utility.yul\":1318:1323   */\n      dup2\n        /* \"#utility.yul\":1312:1324   */\n      mload\n        /* \"#utility.yul\":1302:1324   */\n      swap1\n      pop\n        /* \"#utility.yul\":1232:1331   */\n      swap2\n      swap1\n      pop\n      jump\t// out\n        /* \"#utility.yul\":1337:1506   */\n    tag_278:\n        /* \"#utility.yul\":1421:1432   */\n      0x00\n        /* \"#utility.yul\":1455:1461   */\n      dup3\n        /* \"#utility.yul\":1450:1453   */\n      dup3\n        /* \"#utility.yul\":1443:1462   */\n      mstore\n        /* \"#utility.yul\":1495:1499   */\n      0x20\n        /* \"#utility.yul\":1490:1493   */\n      dup3\n        /* \"#utility.yul\":1486:1500   */\n      add\n        /* \"#utility.yul\":1471:1500   */\n      swap1\n      pop\n        /* \"#utility.yul\":1337:1506   */\n      swap3\n      swap2\n      pop\n      pop\n      jump\t// out\n        /* \"#utility.yul\":1512:1758   */\n    tag_279:\n        /* \"#utility.yul\":1593:1594   */\n      0x00\n        /* \"#utility.yul\":1603:1716   */\n    tag_391:\n        /* \"#utility.yul\":1617:1623   */\n      dup4\n        /* \"#utility.yul\":1614:1615   */\n      dup2\n        /* \"#utility.yul\":1611:1624   */\n      lt\n        /* \"#utility.yul\":1603:1716   */\n      iszero\n      tag_393\n      jumpi\n        /* \"#utility.yul\":1702:1703   */\n      dup1\n        /* \"#utility.yul\":1697:1700   */\n      dup3\n        /* \"#utility.yul\":1693:1704   */\n      add\n        /* \"#utility.yul\":1687:1705   */\n      mload\n        /* \"#utility.yul\":1683:1684   */\n      dup2\n        /* \"#utility.yul\":1678:1681   */\n      dup5\n        /* \"#utility.yul\":1674:1685   */\n      add\n        /* \"#utility.yul\":1667:1706   */\n      mstore\n        /* \"#utility.yul\":1639:1641   */\n      0x20\n        /* \"#utility.yul\":1636:1637   */\n      dup2\n        /* \"#utility.yul\":1632:1642   */\n      add\n        /* \"#utility.yul\":1627:1642   */\n      swap1\n      pop\n        /* \"#utility.yul\":1603:1716   */\n      jump(tag_391)\n    tag_393:\n        /* \"#utility.yul\":1750:1751   */\n      0x00\n        /* \"#utility.yul\":1741:1747   */\n      dup5\n        /* \"#utility.yul\":1736:1739   */\n      dup5\n        /* \"#utility.yul\":1732:1748   */\n      add\n        /* \"#utility.yul\":1725:1752   */\n      mstore\n        /* \"#utility.yul\":1574:1758   */\n      pop\n        /* \"#utility.yul\":1512:1758   */\n      pop\n      pop\n      pop\n      jump\t// out\n        /* \"#utility.yul\":1764:1866   */\n    tag_280:\n        /* \"#utility.yul\":1805:1811   */\n      0x00\n        /* \"#utility.yul\":1856:1858   */\n      0x1f\n        /* \"#utility.yul\":1852:1859   */\n      not\n        /* \"#utility.yul\":1847:1849   */\n      0x1f\n        /* \"#utility.yul\":1840:1845   */\n      dup4\n        /* \"#utility.yul\":1836:1850   */\n      add\n        /* \"#utility.yul\":1832:1860   */\n      and\n        /* \"#utility.yul\":1822:1860   */\n      swap1\n      pop\n        /* \"#utility.yul\":1764:1866   */\n      swap2\n      swap1\n      pop\n      jump\t// out\n        /* \"#utility.yul\":1872:2249   */\n    tag_281:\n        /* \"#utility.yul\":1960:1963   */\n      0x00\n        /* \"#utility.yul\":1988:2027   */\n      tag_396\n        /* \"#utility.yul\":2021:2026   */\n      dup3\n        /* \"#utility.yul\":1988:2027   */\n      tag_277\n      jump\t// in\n    tag_396:\n        /* \"#utility.yul\":2043:2114   */\n      tag_397\n        /* \"#utility.yul\":2107:2113   */\n      dup2\n        /* \"#utility.yul\":2102:2105   */\n      dup6\n        /* \"#utility.yul\":2043:2114   */\n      tag_278\n      jump\t// in\n    tag_397:\n        /* \"#utility.yul\":2036:2114   */\n      swap4\n      pop\n        /* \"#utility.yul\":2123:2188   */\n      tag_398\n        /* \"#utility.yul\":2181:2187   */\n      dup2\n        /* \"#utility.yul\":2176:2179   */\n      dup6\n        /* \"#utility.yul\":2169:2173   */\n      0x20\n        /* \"#utility.yul\":2162:2167   */\n      dup7\n        /* \"#utility.yul\":2158:2174   */\n      add\n        /* \"#utility.yul\":2123:2188   */\n      tag_279\n      jump\t// in\n    tag_398:\n        /* \"#utility.yul\":2213:2242   */\n      tag_399\n        /* \"#utility.yul\":2235:2241   */\n      dup2\n        /* \"#utility.yul\":2213:2242   */\n      tag_280\n      jump\t// in\n    tag_399:\n        /* \"#utility.yul\":2208:2211   */\n      dup5\n        /* \"#utility.yul\":2204:2243   */\n      add\n        /* \"#utility.yul\":2197:2243   */\n      swap2\n      pop\n        /* \"#utility.yul\":1964:2249   */\n      pop\n        /* \"#utility.yul\":1872:2249   */\n      swap3\n      swap2\n      pop\n      pop\n      jump\t// out\n        /* \"#utility.yul\":2255:2373   */\n    tag_282:\n        /* \"#utility.yul\":2342:2366   */\n      tag_401\n        /* \"#utility.yul\":2360:2365   */\n      dup2\n        /* \"#utility.yul\":2342:2366   */\n      tag_272\n      jump\t// in\n    tag_401:\n        /* \"#utility.yul\":2337:2340   */\n      dup3\n        /* \"#utility.yul\":2330:2367   */\n      mstore\n        /* \"#utility.yul\":2255:2373   */\n      pop\n      pop\n      jump\t// out\n        /* \"#utility.yul\":2379:2469   */\n    tag_283:\n        /* \"#utility.yul\":2413:2420   */\n      0x00\n        /* \"#utility.yul\":2456:2461   */\n      dup2\n        /* \"#utility.yul\":2449:2462   */\n      iszero\n        /* \"#utility.yul\":2442:2463   */\n      iszero\n        /* \"#utility.yul\":2431:2463   */\n      swap1\n      pop\n        /* \"#utility.yul\":2379:2469   */\n      swap2\n      swap1\n      pop\n      jump\t// out\n        /* \"#utility.yul\":2475:2584   */\n    tag_284:\n        /* \"#utility.yul\":2556:2577   */\n      tag_404\n        /* \"#utility.yul\":2571:2576   */\n      dup2\n        /* \"#utility.yul\":2556:2577   */\n      tag_283\n      jump\t// in\n    tag_404:\n        /* \"#utility.yul\":2551:2554   */\n      dup3\n        /* \"#utility.yul\":2544:2578   */\n      mstore\n        /* \"#utility.yul\":2475:2584   */\n      pop\n      pop\n      jump\t// out\n        /* \"#utility.yul\":2590:3555   */\n    tag_26:\n        /* \"#utility.yul\":2865:2869   */\n      0x00\n        /* \"#utility.yul\":2903:2906   */\n      0xe0\n        /* \"#utility.yul\":2892:2901   */\n      dup3\n        /* \"#utility.yul\":2888:2907   */\n      add\n        /* \"#utility.yul\":2880:2907   */\n      swap1\n      pop\n        /* \"#utility.yul\":2917:2988   */\n      tag_406\n        /* \"#utility.yul\":2985:2986   */\n      0x00\n        /* \"#utility.yul\":2974:2983   */\n      dup4\n        /* \"#utility.yul\":2970:2987   */\n      add\n        /* \"#utility.yul\":2961:2967   */\n      dup11\n        /* \"#utility.yul\":2917:2988   */\n      tag_276\n      jump\t// in\n    tag_406:\n        /* \"#utility.yul\":3035:3044   */\n      dup2\n        /* \"#utility.yul\":3029:3033   */\n      dup2\n        /* \"#utility.yul\":3025:3045   */\n      sub\n        /* \"#utility.yul\":3020:3022   */\n      0x20\n        /* \"#utility.yul\":3009:3018   */\n      dup4\n        /* \"#utility.yul\":3005:3023   */\n      add\n        /* \"#utility.yul\":2998:3046   */\n      mstore\n        /* \"#utility.yul\":3063:3141   */\n      tag_407\n        /* \"#utility.yul\":3136:3140   */\n      dup2\n        /* \"#utility.yul\":3127:3133   */\n      dup10\n        /* \"#utility.yul\":3063:3141   */\n      tag_281\n      jump\t// in\n    tag_407:\n        /* \"#utility.yul\":3055:3141   */\n      swap1\n      pop\n        /* \"#utility.yul\":3151:3223   */\n      tag_408\n        /* \"#utility.yul\":3219:3221   */\n      0x40\n        /* \"#utility.yul\":3208:3217   */\n      dup4\n        /* \"#utility.yul\":3204:3222   */\n      add\n        /* \"#utility.yul\":3195:3201   */\n      dup9\n        /* \"#utility.yul\":3151:3223   */\n      tag_282\n      jump\t// in\n    tag_408:\n        /* \"#utility.yul\":3233:3305   */\n      tag_409\n        /* \"#utility.yul\":3301:3303   */\n      0x60\n        /* \"#utility.yul\":3290:3299   */\n      dup4\n        /* \"#utility.yul\":3286:3304   */\n      add\n        /* \"#utility.yul\":3277:3283   */\n      dup8\n        /* \"#utility.yul\":3233:3305   */\n      tag_282\n      jump\t// in\n    tag_409:\n        /* \"#utility.yul\":3315:3388   */\n      tag_410\n        /* \"#utility.yul\":3383:3386   */\n      0x80\n        /* \"#utility.yul\":3372:3381   */\n      dup4\n        /* \"#utility.yul\":3368:3387   */\n      add\n        /* \"#utility.yul\":3359:3365   */\n      dup7\n        /* \"#utility.yul\":3315:3388   */\n      tag_282\n      jump\t// in\n    tag_410:\n        /* \"#utility.yul\":3398:3465   */\n      tag_411\n        /* \"#utility.yul\":3460:3463   */\n      0xa0\n        /* \"#utility.yul\":3449:3458   */\n      dup4\n        /* \"#utility.yul\":3445:3464   */\n      add\n        /* \"#utility.yul\":3436:3442   */\n      dup6\n        /* \"#utility.yul\":3398:3465   */\n      tag_284\n      jump\t// in\n    tag_411:\n        /* \"#utility.yul\":3475:3548   */\n      tag_412\n        /* \"#utility.yul\":3543:3546   */\n      0xc0\n        /* \"#utility.yul\":3532:3541   */\n      dup4\n        /* \"#utility.yul\":3528:3547   */\n      add\n        /* \"#utility.yul\":3519:3525   */\n      dup5\n        /* \"#utility.yul\":3475:3548   */\n      tag_282\n      jump\t// in\n    tag_412:\n        /* \"#utility.yul\":2590:3555   */\n      swap9\n      swap8\n      pop\n      pop\n      pop\n      pop\n      pop\n      pop\n      pop\n      pop\n      jump\t// out\n        /* \"#utility.yul\":3561:3687   */\n    tag_285:\n        /* \"#utility.yul\":3598:3605   */\n      0x00\n        /* \"#utility.yul\":3638:3680   */\n      0xffffffffffffffffffffffffffffffffffffffff\n        /* \"#utility.yul\":3631:3636   */\n      dup3\n        /* \"#utility.yul\":3627:3681   */\n      and\n        /* \"#utility.yul\":3616:3681   */\n      swap1\n      pop\n        /* \"#utility.yul\":3561:3687   */\n      swap2\n      swap1\n      pop\n      jump\t// out\n        /* \"#utility.yul\":3693:3753   */\n    tag_286:\n        /* \"#utility.yul\":3721:3724   */\n      0x00\n        /* \"#utility.yul\":3742:3747   */\n      dup2\n        /* \"#utility.yul\":3735:3747   */\n      swap1\n      pop\n        /* \"#utility.yul\":3693:3753   */\n      swap2\n      swap1\n      pop\n      jump\t// out\n        /* \"#utility.yul\":3759:3901   */\n    tag_287:\n        /* \"#utility.yul\":3809:3818   */\n      0x00\n        /* \"#utility.yul\":3842:3895   */\n      tag_416\n        /* \"#utility.yul\":3860:3894   */\n      tag_417\n        /* \"#utility.yul\":3869:3893   */\n      tag_418\n        /* \"#utility.yul\":3887:3892   */\n      dup5\n        /* \"#utility.yul\":3869:3893   */\n      tag_285\n      jump\t// in\n    tag_418:\n        /* \"#utility.yul\":3860:3894   */\n      tag_286\n      jump\t// in\n    tag_417:\n        /* \"#utility.yul\":3842:3895   */\n      tag_285\n      jump\t// in\n    tag_416:\n        /* \"#utility.yul\":3829:3895   */\n      swap1\n      pop\n        /* \"#utility.yul\":3759:3901   */\n      swap2\n      swap1\n      pop\n      jump\t// out\n        /* \"#utility.yul\":3907:4033   */\n    tag_288:\n        /* \"#utility.yul\":3957:3966   */\n      0x00\n        /* \"#utility.yul\":3990:4027   */\n      tag_420\n        /* \"#utility.yul\":4021:4026   */\n      dup3\n        /* \"#utility.yul\":3990:4027   */\n      tag_287\n      jump\t// in\n    tag_420:\n        /* \"#utility.yul\":3977:4027   */\n      swap1\n      pop\n        /* \"#utility.yul\":3907:4033   */\n      swap2\n      swap1\n      pop\n      jump\t// out\n        /* \"#utility.yul\":4039:4189   */\n    tag_289:\n        /* \"#utility.yul\":4113:4122   */\n      0x00\n        /* \"#utility.yul\":4146:4183   */\n      tag_422\n        /* \"#utility.yul\":4177:4182   */\n      dup3\n        /* \"#utility.yul\":4146:4183   */\n      tag_288\n      jump\t// in\n    tag_422:\n        /* \"#utility.yul\":4133:4183   */\n      swap1\n      pop\n        /* \"#utility.yul\":4039:4189   */\n      swap2\n      swap1\n      pop\n      jump\t// out\n        /* \"#utility.yul\":4195:4374   */\n    tag_290:\n        /* \"#utility.yul\":4306:4367   */\n      tag_424\n        /* \"#utility.yul\":4361:4366   */\n      dup2\n        /* \"#utility.yul\":4306:4367   */\n      tag_289\n      jump\t// in\n    tag_424:\n        /* \"#utility.yul\":4301:4304   */\n      dup3\n        /* \"#utility.yul\":4294:4368   */\n      mstore\n        /* \"#utility.yul\":4195:4374   */\n      pop\n      pop\n      jump\t// out\n        /* \"#utility.yul\":4380:4650   */\n    tag_30:\n        /* \"#utility.yul\":4497:4501   */\n      0x00\n        /* \"#utility.yul\":4535:4537   */\n      0x20\n        /* \"#utility.yul\":4524:4533   */\n      dup3\n        /* \"#utility.yul\":4520:4538   */\n      add\n        /* \"#utility.yul\":4512:4538   */\n      swap1\n      pop\n        /* \"#utility.yul\":4548:4643   */\n      tag_426\n        /* \"#utility.yul\":4640:4641   */\n      0x00\n        /* \"#utility.yul\":4629:4638   */\n      dup4\n        /* \"#utility.yul\":4625:4642   */\n      add\n        /* \"#utility.yul\":4616:4622   */\n      dup5\n        /* \"#utility.yul\":4548:4643   */\n      tag_290\n      jump\t// in\n    tag_426:\n        /* \"#utility.yul\":4380:4650   */\n      swap3\n      swap2\n      pop\n      pop\n      jump\t// out\n        /* \"#utility.yul\":4656:4866   */\n    tag_34:\n        /* \"#utility.yul\":4743:4747   */\n      0x00\n        /* \"#utility.yul\":4781:4783   */\n      0x20\n        /* \"#utility.yul\":4770:4779   */\n      dup3\n        /* \"#utility.yul\":4766:4784   */\n      add\n        /* \"#utility.yul\":4758:4784   */\n      swap1\n      pop\n        /* \"#utility.yul\":4794:4859   */\n      tag_428\n        /* \"#utility.yul\":4856:4857   */\n      0x00\n        /* \"#utility.yul\":4845:4854   */\n      dup4\n        /* \"#utility.yul\":4841:4858   */\n      add\n        /* \"#utility.yul\":4832:4838   */\n      dup5\n        /* \"#utility.yul\":4794:4859   */\n      tag_284\n      jump\t// in\n    tag_428:\n        /* \"#utility.yul\":4656:4866   */\n      swap3\n      swap2\n      pop\n      pop\n      jump\t// out\n        /* \"#utility.yul\":4872:4988   */\n    tag_291:\n        /* \"#utility.yul\":4942:4963   */\n      tag_430\n        /* \"#utility.yul\":4957:4962   */\n      dup2\n        /* \"#utility.yul\":4942:4963   */\n      tag_283\n      jump\t// in\n    tag_430:\n        /* \"#utility.yul\":4935:4940   */\n      dup2\n        /* \"#utility.yul\":4932:4964   */\n      eq\n        /* \"#utility.yul\":4922:4982   */\n      tag_431\n      jumpi\n        /* \"#utility.yul\":4978:4979   */\n      0x00\n        /* \"#utility.yul\":4975:4976   */\n      dup1\n        /* \"#utility.yul\":4968:4980   */\n      revert\n        /* \"#utility.yul\":4922:4982   */\n    tag_431:\n        /* \"#utility.yul\":4872:4988   */\n      pop\n      jump\t// out\n        /* \"#utility.yul\":4994:5127   */\n    tag_292:\n        /* \"#utility.yul\":5037:5042   */\n      0x00\n        /* \"#utility.yul\":5075:5081   */\n      dup2\n        /* \"#utility.yul\":5062:5082   */\n      calldataload\n        /* \"#utility.yul\":5053:5082   */\n      swap1\n      pop\n        /* \"#utility.yul\":5091:5121   */\n      tag_433\n        /* \"#utility.yul\":5115:5120   */\n      dup2\n        /* \"#utility.yul\":5091:5121   */\n      tag_291\n      jump\t// in\n    tag_433:\n        /* \"#utility.yul\":4994:5127   */\n      swap3\n      swap2\n      pop\n      pop\n      jump\t// out\n        /* \"#utility.yul\":5133:5250   */\n    tag_293:\n        /* \"#utility.yul\":5242:5243   */\n      0x00\n        /* \"#utility.yul\":5239:5240   */\n      dup1\n        /* \"#utility.yul\":5232:5244   */\n      revert\n        /* \"#utility.yul\":5256:5373   */\n    tag_294:\n        /* \"#utility.yul\":5365:5366   */\n      0x00\n        /* \"#utility.yul\":5362:5363   */\n      dup1\n        /* \"#utility.yul\":5355:5367   */\n      revert\n        /* \"#utility.yul\":5379:5496   */\n    tag_295:\n        /* \"#utility.yul\":5488:5489   */\n      0x00\n        /* \"#utility.yul\":5485:5486   */\n      dup1\n        /* \"#utility.yul\":5478:5490   */\n      revert\n        /* \"#utility.yul\":5519:6087   */\n    tag_296:\n        /* \"#utility.yul\":5592:5600   */\n      0x00\n        /* \"#utility.yul\":5602:5608   */\n      dup1\n        /* \"#utility.yul\":5652:5655   */\n      dup4\n        /* \"#utility.yul\":5645:5649   */\n      0x1f\n        /* \"#utility.yul\":5637:5643   */\n      dup5\n        /* \"#utility.yul\":5633:5650   */\n      add\n        /* \"#utility.yul\":5629:5656   */\n      slt\n        /* \"#utility.yul\":5619:5741   */\n      tag_438\n      jumpi\n        /* \"#utility.yul\":5660:5739   */\n      tag_439\n      tag_293\n      jump\t// in\n    tag_439:\n        /* \"#utility.yul\":5619:5741   */\n    tag_438:\n        /* \"#utility.yul\":5773:5779   */\n      dup3\n        /* \"#utility.yul\":5760:5780   */\n      calldataload\n        /* \"#utility.yul\":5750:5780   */\n      swap1\n      pop\n        /* \"#utility.yul\":5803:5821   */\n      0xffffffffffffffff\n        /* \"#utility.yul\":5795:5801   */\n      dup2\n        /* \"#utility.yul\":5792:5822   */\n      gt\n        /* \"#utility.yul\":5789:5906   */\n      iszero\n      tag_440\n      jumpi\n        /* \"#utility.yul\":5825:5904   */\n      tag_441\n      tag_294\n      jump\t// in\n    tag_441:\n        /* \"#utility.yul\":5789:5906   */\n    tag_440:\n        /* \"#utility.yul\":5939:5943   */\n      0x20\n        /* \"#utility.yul\":5931:5937   */\n      dup4\n        /* \"#utility.yul\":5927:5944   */\n      add\n        /* \"#utility.yul\":5915:5944   */\n      swap2\n      pop\n        /* \"#utility.yul\":5993:5996   */\n      dup4\n        /* \"#utility.yul\":5985:5989   */\n      0x20\n        /* \"#utility.yul\":5977:5983   */\n      dup3\n        /* \"#utility.yul\":5973:5990   */\n      mul\n        /* \"#utility.yul\":5963:5971   */\n      dup4\n        /* \"#utility.yul\":5959:5991   */\n      add\n        /* \"#utility.yul\":5956:5997   */\n      gt\n        /* \"#utility.yul\":5953:6081   */\n      iszero\n      tag_442\n      jumpi\n        /* \"#utility.yul\":6000:6079   */\n      tag_443\n      tag_295\n      jump\t// in\n    tag_443:\n        /* \"#utility.yul\":5953:6081   */\n    tag_442:\n        /* \"#utility.yul\":5519:6087   */\n      swap3\n      pop\n      swap3\n      swap1\n      pop\n      jump\t// out\n        /* \"#utility.yul\":6093:6215   */\n    tag_297:\n        /* \"#utility.yul\":6166:6190   */\n      tag_445\n        /* \"#utility.yul\":6184:6189   */\n      dup2\n        /* \"#utility.yul\":6166:6190   */\n      tag_275\n      jump\t// in\n    tag_445:\n        /* \"#utility.yul\":6159:6164   */\n      dup2\n        /* \"#utility.yul\":6156:6191   */\n      eq\n        /* \"#utility.yul\":6146:6209   */\n      tag_446\n      jumpi\n        /* \"#utility.yul\":6205:6206   */\n      0x00\n        /* \"#utility.yul\":6202:6203   */\n      dup1\n        /* \"#utility.yul\":6195:6207   */\n      revert\n        /* \"#utility.yul\":6146:6209   */\n    tag_446:\n        /* \"#utility.yul\":6093:6215   */\n      pop\n      jump\t// out\n        /* \"#utility.yul\":6221:6360   */\n    tag_298:\n        /* \"#utility.yul\":6267:6272   */\n      0x00\n        /* \"#utility.yul\":6305:6311   */\n      dup2\n        /* \"#utility.yul\":6292:6312   */\n      calldataload\n        /* \"#utility.yul\":6283:6312   */\n      swap1\n      pop\n        /* \"#utility.yul\":6321:6354   */\n      tag_448\n        /* \"#utility.yul\":6348:6353   */\n      dup2\n        /* \"#utility.yul\":6321:6354   */\n      tag_297\n      jump\t// in\n    tag_448:\n        /* \"#utility.yul\":6221:6360   */\n      swap3\n      swap2\n      pop\n      pop\n      jump\t// out\n        /* \"#utility.yul\":6366:6546   */\n    tag_299:\n        /* \"#utility.yul\":6414:6491   */\n      0x4e487b7100000000000000000000000000000000000000000000000000000000\n        /* \"#utility.yul\":6411:6412   */\n      0x00\n        /* \"#utility.yul\":6404:6492   */\n      mstore\n        /* \"#utility.yul\":6511:6515   */\n      0x41\n        /* \"#utility.yul\":6508:6509   */\n      0x04\n        /* \"#utility.yul\":6501:6516   */\n      mstore\n        /* \"#utility.yul\":6535:6539   */\n      0x24\n        /* \"#utility.yul\":6532:6533   */\n      0x00\n        /* \"#utility.yul\":6525:6540   */\n      revert\n        /* \"#utility.yul\":6552:6833   */\n    tag_300:\n        /* \"#utility.yul\":6635:6662   */\n      tag_451\n        /* \"#utility.yul\":6657:6661   */\n      dup3\n        /* \"#utility.yul\":6635:6662   */\n      tag_280\n      jump\t// in\n    tag_451:\n        /* \"#utility.yul\":6627:6633   */\n      dup2\n        /* \"#utility.yul\":6623:6663   */\n      add\n        /* \"#utility.yul\":6765:6771   */\n      dup2\n        /* \"#utility.yul\":6753:6763   */\n      dup2\n        /* \"#utility.yul\":6750:6772   */\n      lt\n        /* \"#utility.yul\":6729:6747   */\n      0xffffffffffffffff\n        /* \"#utility.yul\":6717:6727   */\n      dup3\n        /* \"#utility.yul\":6714:6748   */\n      gt\n        /* \"#utility.yul\":6711:6773   */\n      or\n        /* \"#utility.yul\":6708:6796   */\n      iszero\n      tag_452\n      jumpi\n        /* \"#utility.yul\":6776:6794   */\n      tag_453\n      tag_299\n      jump\t// in\n    tag_453:\n        /* \"#utility.yul\":6708:6796   */\n    tag_452:\n        /* \"#utility.yul\":6816:6826   */\n      dup1\n        /* \"#utility.yul\":6812:6814   */\n      0x40\n        /* \"#utility.yul\":6805:6827   */\n      mstore\n        /* \"#utility.yul\":6595:6833   */\n      pop\n        /* \"#utility.yul\":6552:6833   */\n      pop\n      pop\n      jump\t// out\n        /* \"#utility.yul\":6839:6968   */\n    tag_301:\n        /* \"#utility.yul\":6873:6879   */\n      0x00\n        /* \"#utility.yul\":6900:6920   */\n      tag_455\n      tag_269\n      jump\t// in\n    tag_455:\n        /* \"#utility.yul\":6890:6920   */\n      swap1\n      pop\n        /* \"#utility.yul\":6929:6962   */\n      tag_456\n        /* \"#utility.yul\":6957:6961   */\n      dup3\n        /* \"#utility.yul\":6949:6955   */\n      dup3\n        /* \"#utility.yul\":6929:6962   */\n      tag_300\n      jump\t// in\n    tag_456:\n        /* \"#utility.yul\":6839:6968   */\n      swap2\n      swap1\n      pop\n      jump\t// out\n        /* \"#utility.yul\":6974:7285   */\n    tag_302:\n        /* \"#utility.yul\":7051:7055   */\n      0x00\n        /* \"#utility.yul\":7141:7159   */\n      0xffffffffffffffff\n        /* \"#utility.yul\":7133:7139   */\n      dup3\n        /* \"#utility.yul\":7130:7160   */\n      gt\n        /* \"#utility.yul\":7127:7183   */\n      iszero\n      tag_458\n      jumpi\n        /* \"#utility.yul\":7163:7181   */\n      tag_459\n      tag_299\n      jump\t// in\n    tag_459:\n        /* \"#utility.yul\":7127:7183   */\n    tag_458:\n        /* \"#utility.yul\":7213:7217   */\n      0x20\n        /* \"#utility.yul\":7205:7211   */\n      dup3\n        /* \"#utility.yul\":7201:7218   */\n      mul\n        /* \"#utility.yul\":7193:7218   */\n      swap1\n      pop\n        /* \"#utility.yul\":7273:7277   */\n      0x20\n        /* \"#utility.yul\":7267:7271   */\n      dup2\n        /* \"#utility.yul\":7263:7278   */\n      add\n        /* \"#utility.yul\":7255:7278   */\n      swap1\n      pop\n        /* \"#utility.yul\":6974:7285   */\n      swap2\n      swap1\n      pop\n      jump\t// out\n        /* \"#utility.yul\":7308:8018   */\n    tag_303:\n        /* \"#utility.yul\":7404:7409   */\n      0x00\n        /* \"#utility.yul\":7429:7510   */\n      tag_461\n        /* \"#utility.yul\":7445:7509   */\n      tag_462\n        /* \"#utility.yul\":7502:7508   */\n      dup5\n        /* \"#utility.yul\":7445:7509   */\n      tag_302\n      jump\t// in\n    tag_462:\n        /* \"#utility.yul\":7429:7510   */\n      tag_301\n      jump\t// in\n    tag_461:\n        /* \"#utility.yul\":7420:7510   */\n      swap1\n      pop\n        /* \"#utility.yul\":7530:7535   */\n      dup1\n        /* \"#utility.yul\":7559:7565   */\n      dup4\n        /* \"#utility.yul\":7552:7557   */\n      dup3\n        /* \"#utility.yul\":7545:7566   */\n      mstore\n        /* \"#utility.yul\":7593:7597   */\n      0x20\n        /* \"#utility.yul\":7586:7591   */\n      dup3\n        /* \"#utility.yul\":7582:7598   */\n      add\n        /* \"#utility.yul\":7575:7598   */\n      swap1\n      pop\n        /* \"#utility.yul\":7646:7650   */\n      0x20\n        /* \"#utility.yul\":7638:7644   */\n      dup5\n        /* \"#utility.yul\":7634:7651   */\n      mul\n        /* \"#utility.yul\":7626:7632   */\n      dup4\n        /* \"#utility.yul\":7622:7652   */\n      add\n        /* \"#utility.yul\":7675:7678   */\n      dup6\n        /* \"#utility.yul\":7667:7673   */\n      dup2\n        /* \"#utility.yul\":7664:7679   */\n      gt\n        /* \"#utility.yul\":7661:7783   */\n      iszero\n      tag_463\n      jumpi\n        /* \"#utility.yul\":7694:7773   */\n      tag_464\n      tag_295\n      jump\t// in\n    tag_464:\n        /* \"#utility.yul\":7661:7783   */\n    tag_463:\n        /* \"#utility.yul\":7809:7815   */\n      dup4\n        /* \"#utility.yul\":7792:8012   */\n    tag_465:\n        /* \"#utility.yul\":7826:7832   */\n      dup2\n        /* \"#utility.yul\":7821:7824   */\n      dup2\n        /* \"#utility.yul\":7818:7833   */\n      lt\n        /* \"#utility.yul\":7792:8012   */\n      iszero\n      tag_467\n      jumpi\n        /* \"#utility.yul\":7901:7904   */\n      dup1\n        /* \"#utility.yul\":7930:7967   */\n      tag_468\n        /* \"#utility.yul\":7963:7966   */\n      dup9\n        /* \"#utility.yul\":7951:7961   */\n      dup3\n        /* \"#utility.yul\":7930:7967   */\n      tag_274\n      jump\t// in\n    tag_468:\n        /* \"#utility.yul\":7925:7928   */\n      dup5\n        /* \"#utility.yul\":7918:7968   */\n      mstore\n        /* \"#utility.yul\":7997:8001   */\n      0x20\n        /* \"#utility.yul\":7992:7995   */\n      dup5\n        /* \"#utility.yul\":7988:8002   */\n      add\n        /* \"#utility.yul\":7981:8002   */\n      swap4\n      pop\n        /* \"#utility.yul\":7868:8012   */\n      pop\n        /* \"#utility.yul\":7852:7856   */\n      0x20\n        /* \"#utility.yul\":7847:7850   */\n      dup2\n        /* \"#utility.yul\":7843:7857   */\n      add\n        /* \"#utility.yul\":7836:7857   */\n      swap1\n      pop\n        /* \"#utility.yul\":7792:8012   */\n      jump(tag_465)\n    tag_467:\n        /* \"#utility.yul\":7796:7817   */\n      pop\n        /* \"#utility.yul\":7410:8018   */\n      pop\n      pop\n        /* \"#utility.yul\":7308:8018   */\n      swap4\n      swap3\n      pop\n      pop\n      pop\n      jump\t// out\n        /* \"#utility.yul\":8041:8411   */\n    tag_304:\n        /* \"#utility.yul\":8112:8117   */\n      0x00\n        /* \"#utility.yul\":8161:8164   */\n      dup3\n        /* \"#utility.yul\":8154:8158   */\n      0x1f\n        /* \"#utility.yul\":8146:8152   */\n      dup4\n        /* \"#utility.yul\":8142:8159   */\n      add\n        /* \"#utility.yul\":8138:8165   */\n      slt\n        /* \"#utility.yul\":8128:8250   */\n      tag_470\n      jumpi\n        /* \"#utility.yul\":8169:8248   */\n      tag_471\n      tag_293\n      jump\t// in\n    tag_471:\n        /* \"#utility.yul\":8128:8250   */\n    tag_470:\n        /* \"#utility.yul\":8286:8292   */\n      dup2\n        /* \"#utility.yul\":8273:8293   */\n      calldataload\n        /* \"#utility.yul\":8311:8405   */\n      tag_472\n        /* \"#utility.yul\":8401:8404   */\n      dup5\n        /* \"#utility.yul\":8393:8399   */\n      dup3\n        /* \"#utility.yul\":8386:8390   */\n      0x20\n        /* \"#utility.yul\":8378:8384   */\n      dup7\n        /* \"#utility.yul\":8374:8391   */\n      add\n        /* \"#utility.yul\":8311:8405   */\n      tag_303\n      jump\t// in\n    tag_472:\n        /* \"#utility.yul\":8302:8405   */\n      swap2\n      pop\n        /* \"#utility.yul\":8118:8411   */\n      pop\n        /* \"#utility.yul\":8041:8411   */\n      swap3\n      swap2\n      pop\n      pop\n      jump\t// out\n        /* \"#utility.yul\":8417:9762   */\n    tag_44:\n        /* \"#utility.yul\":8561:8567   */\n      0x00\n        /* \"#utility.yul\":8569:8575   */\n      dup1\n        /* \"#utility.yul\":8577:8583   */\n      0x00\n        /* \"#utility.yul\":8585:8591   */\n      dup1\n        /* \"#utility.yul\":8593:8599   */\n      0x00\n        /* \"#utility.yul\":8601:8607   */\n      dup1\n        /* \"#utility.yul\":8650:8653   */\n      0xa0\n        /* \"#utility.yul\":8638:8647   */\n      dup8\n        /* \"#utility.yul\":8629:8636   */\n      dup10\n        /* \"#utility.yul\":8625:8648   */\n      sub\n        /* \"#utility.yul\":8621:8654   */\n      slt\n        /* \"#utility.yul\":8618:8738   */\n      iszero\n      tag_474\n      jumpi\n        /* \"#utility.yul\":8657:8736   */\n      tag_475\n      tag_270\n      jump\t// in\n    tag_475:\n        /* \"#utility.yul\":8618:8738   */\n    tag_474:\n        /* \"#utility.yul\":8777:8778   */\n      0x00\n        /* \"#utility.yul\":8802:8855   */\n      tag_476\n        /* \"#utility.yul\":8847:8854   */\n      dup10\n        /* \"#utility.yul\":8838:8844   */\n      dup3\n        /* \"#utility.yul\":8827:8836   */\n      dup11\n        /* \"#utility.yul\":8823:8845   */\n      add\n        /* \"#utility.yul\":8802:8855   */\n      tag_274\n      jump\t// in\n    tag_476:\n        /* \"#utility.yul\":8792:8855   */\n      swap7\n      pop\n        /* \"#utility.yul\":8748:8865   */\n      pop\n        /* \"#utility.yul\":8904:8906   */\n      0x20\n        /* \"#utility.yul\":8930:8980   */\n      tag_477\n        /* \"#utility.yul\":8972:8979   */\n      dup10\n        /* \"#utility.yul\":8963:8969   */\n      dup3\n        /* \"#utility.yul\":8952:8961   */\n      dup11\n        /* \"#utility.yul\":8948:8970   */\n      add\n        /* \"#utility.yul\":8930:8980   */\n      tag_292\n      jump\t// in\n    tag_477:\n        /* \"#utility.yul\":8920:8980   */\n      swap6\n      pop\n        /* \"#utility.yul\":8875:8990   */\n      pop\n        /* \"#utility.yul\":9057:9059   */\n      0x40\n        /* \"#utility.yul\":9046:9055   */\n      dup8\n        /* \"#utility.yul\":9042:9060   */\n      add\n        /* \"#utility.yul\":9029:9061   */\n      calldataload\n        /* \"#utility.yul\":9088:9106   */\n      0xffffffffffffffff\n        /* \"#utility.yul\":9080:9086   */\n      dup2\n        /* \"#utility.yul\":9077:9107   */\n      gt\n        /* \"#utility.yul\":9074:9191   */\n      iszero\n      tag_478\n      jumpi\n        /* \"#utility.yul\":9110:9189   */\n      tag_479\n      tag_271\n      jump\t// in\n    tag_479:\n        /* \"#utility.yul\":9074:9191   */\n    tag_478:\n        /* \"#utility.yul\":9223:9303   */\n      tag_480\n        /* \"#utility.yul\":9295:9302   */\n      dup10\n        /* \"#utility.yul\":9286:9292   */\n      dup3\n        /* \"#utility.yul\":9275:9284   */\n      dup11\n        /* \"#utility.yul\":9271:9293   */\n      add\n        /* \"#utility.yul\":9223:9303   */\n      tag_296\n      jump\t// in\n    tag_480:\n        /* \"#utility.yul\":9205:9303   */\n      swap5\n      pop\n      swap5\n      pop\n        /* \"#utility.yul\":9000:9313   */\n      pop\n        /* \"#utility.yul\":9352:9354   */\n      0x60\n        /* \"#utility.yul\":9378:9431   */\n      tag_481\n        /* \"#utility.yul\":9423:9430   */\n      dup10\n        /* \"#utility.yul\":9414:9420   */\n      dup3\n        /* \"#utility.yul\":9403:9412   */\n      dup11\n        /* \"#utility.yul\":9399:9421   */\n      add\n        /* \"#utility.yul\":9378:9431   */\n      tag_298\n      jump\t// in\n    tag_481:\n        /* \"#utility.yul\":9368:9431   */\n      swap3\n      pop\n        /* \"#utility.yul\":9323:9441   */\n      pop\n        /* \"#utility.yul\":9508:9511   */\n      0x80\n        /* \"#utility.yul\":9497:9506   */\n      dup8\n        /* \"#utility.yul\":9493:9512   */\n      add\n        /* \"#utility.yul\":9480:9513   */\n      calldataload\n        /* \"#utility.yul\":9540:9558   */\n      0xffffffffffffffff\n        /* \"#utility.yul\":9532:9538   */\n      dup2\n        /* \"#utility.yul\":9529:9559   */\n      gt\n        /* \"#utility.yul\":9526:9643   */\n      iszero\n      tag_482\n      jumpi\n        /* \"#utility.yul\":9562:9641   */\n      tag_483\n      tag_271\n      jump\t// in\n    tag_483:\n        /* \"#utility.yul\":9526:9643   */\n    tag_482:\n        /* \"#utility.yul\":9667:9745   */\n      tag_484\n        /* \"#utility.yul\":9737:9744   */\n      dup10\n        /* \"#utility.yul\":9728:9734   */\n      dup3\n        /* \"#utility.yul\":9717:9726   */\n      dup11\n        /* \"#utility.yul\":9713:9735   */\n      add\n        /* \"#utility.yul\":9667:9745   */\n      tag_304\n      jump\t// in\n    tag_484:\n        /* \"#utility.yul\":9657:9745   */\n      swap2\n      pop\n        /* \"#utility.yul\":9451:9755   */\n      pop\n        /* \"#utility.yul\":8417:9762   */\n      swap3\n      swap6\n      pop\n      swap3\n      swap6\n      pop\n      swap3\n      swap6\n      jump\t// out\n        /* \"#utility.yul\":9768:9864   */\n    tag_305:\n        /* \"#utility.yul\":9805:9812   */\n      0x00\n        /* \"#utility.yul\":9834:9858   */\n      tag_486\n        /* \"#utility.yul\":9852:9857   */\n      dup3\n        /* \"#utility.yul\":9834:9858   */\n      tag_285\n      jump\t// in\n    tag_486:\n        /* \"#utility.yul\":9823:9858   */\n      swap1\n      pop\n        /* \"#utility.yul\":9768:9864   */\n      swap2\n      swap1\n      pop\n      jump\t// out\n        /* \"#utility.yul\":9870:9988   */\n    tag_306:\n        /* \"#utility.yul\":9957:9981   */\n      tag_488\n        /* \"#utility.yul\":9975:9980   */\n      dup2\n        /* \"#utility.yul\":9957:9981   */\n      tag_305\n      jump\t// in\n    tag_488:\n        /* \"#utility.yul\":9952:9955   */\n      dup3\n        /* \"#utility.yul\":9945:9982   */\n      mstore\n        /* \"#utility.yul\":9870:9988   */\n      pop\n      pop\n      jump\t// out\n        /* \"#utility.yul\":9994:10216   */\n    tag_49:\n        /* \"#utility.yul\":10087:10091   */\n      0x00\n        /* \"#utility.yul\":10125:10127   */\n      0x20\n        /* \"#utility.yul\":10114:10123   */\n      dup3\n        /* \"#utility.yul\":10110:10128   */\n      add\n        /* \"#utility.yul\":10102:10128   */\n      swap1\n      pop\n        /* \"#utility.yul\":10138:10209   */\n      tag_490\n        /* \"#utility.yul\":10206:10207   */\n      0x00\n        /* \"#utility.yul\":10195:10204   */\n      dup4\n        /* \"#utility.yul\":10191:10208   */\n      add\n        /* \"#utility.yul\":10182:10188   */\n      dup5\n        /* \"#utility.yul\":10138:10209   */\n      tag_306\n      jump\t// in\n    tag_490:\n        /* \"#utility.yul\":9994:10216   */\n      swap3\n      swap2\n      pop\n      pop\n      jump\t// out\n        /* \"#utility.yul\":10222:10344   */\n    tag_307:\n        /* \"#utility.yul\":10295:10319   */\n      tag_492\n        /* \"#utility.yul\":10313:10318   */\n      dup2\n        /* \"#utility.yul\":10295:10319   */\n      tag_305\n      jump\t// in\n    tag_492:\n        /* \"#utility.yul\":10288:10293   */\n      dup2\n        /* \"#utility.yul\":10285:10320   */\n      eq\n        /* \"#utility.yul\":10275:10338   */\n      tag_493\n      jumpi\n        /* \"#utility.yul\":10334:10335   */\n      0x00\n        /* \"#utility.yul\":10331:10332   */\n      dup1\n        /* \"#utility.yul\":10324:10336   */\n      revert\n        /* \"#utility.yul\":10275:10338   */\n    tag_493:\n        /* \"#utility.yul\":10222:10344   */\n      pop\n      jump\t// out\n        /* \"#utility.yul\":10350:10489   */\n    tag_308:\n        /* \"#utility.yul\":10396:10401   */\n      0x00\n        /* \"#utility.yul\":10434:10440   */\n      dup2\n        /* \"#utility.yul\":10421:10441   */\n      calldataload\n        /* \"#utility.yul\":10412:10441   */\n      swap1\n      pop\n        /* \"#utility.yul\":10450:10483   */\n      tag_495\n        /* \"#utility.yul\":10477:10482   */\n      dup2\n        /* \"#utility.yul\":10450:10483   */\n      tag_307\n      jump\t// in\n    tag_495:\n        /* \"#utility.yul\":10350:10489   */\n      swap3\n      swap2\n      pop\n      pop\n      jump\t// out\n        /* \"#utility.yul\":10495:10824   */\n    tag_52:\n        /* \"#utility.yul\":10554:10560   */\n      0x00\n        /* \"#utility.yul\":10603:10605   */\n      0x20\n        /* \"#utility.yul\":10591:10600   */\n      dup3\n        /* \"#utility.yul\":10582:10589   */\n      dup5\n        /* \"#utility.yul\":10578:10601   */\n      sub\n        /* \"#utility.yul\":10574:10606   */\n      slt\n        /* \"#utility.yul\":10571:10690   */\n      iszero\n      tag_497\n      jumpi\n        /* \"#utility.yul\":10609:10688   */\n      tag_498\n      tag_270\n      jump\t// in\n    tag_498:\n        /* \"#utility.yul\":10571:10690   */\n    tag_497:\n        /* \"#utility.yul\":10729:10730   */\n      0x00\n        /* \"#utility.yul\":10754:10807   */\n      tag_499\n        /* \"#utility.yul\":10799:10806   */\n      dup5\n        /* \"#utility.yul\":10790:10796   */\n      dup3\n        /* \"#utility.yul\":10779:10788   */\n      dup6\n        /* \"#utility.yul\":10775:10797   */\n      add\n        /* \"#utility.yul\":10754:10807   */\n      tag_308\n      jump\t// in\n    tag_499:\n        /* \"#utility.yul\":10744:10807   */\n      swap2\n      pop\n        /* \"#utility.yul\":10700:10817   */\n      pop\n        /* \"#utility.yul\":10495:10824   */\n      swap3\n      swap2\n      pop\n      pop\n      jump\t// out\n        /* \"#utility.yul\":10830:11795   */\n    tag_58:\n        /* \"#utility.yul\":11105:11109   */\n      0x00\n        /* \"#utility.yul\":11143:11146   */\n      0xe0\n        /* \"#utility.yul\":11132:11141   */\n      dup3\n        /* \"#utility.yul\":11128:11147   */\n      add\n        /* \"#utility.yul\":11120:11147   */\n      swap1\n      pop\n        /* \"#utility.yul\":11157:11228   */\n      tag_501\n        /* \"#utility.yul\":11225:11226   */\n      0x00\n        /* \"#utility.yul\":11214:11223   */\n      dup4\n        /* \"#utility.yul\":11210:11227   */\n      add\n        /* \"#utility.yul\":11201:11207   */\n      dup11\n        /* \"#utility.yul\":11157:11228   */\n      tag_276\n      jump\t// in\n    tag_501:\n        /* \"#utility.yul\":11275:11284   */\n      dup2\n        /* \"#utility.yul\":11269:11273   */\n      dup2\n        /* \"#utility.yul\":11265:11285   */\n      sub\n        /* \"#utility.yul\":11260:11262   */\n      0x20\n        /* \"#utility.yul\":11249:11258   */\n      dup4\n        /* \"#utility.yul\":11245:11263   */\n      add\n        /* \"#utility.yul\":11238:11286   */\n      mstore\n        /* \"#utility.yul\":11303:11381   */\n      tag_502\n        /* \"#utility.yul\":11376:11380   */\n      dup2\n        /* \"#utility.yul\":11367:11373   */\n      dup10\n        /* \"#utility.yul\":11303:11381   */\n      tag_281\n      jump\t// in\n    tag_502:\n        /* \"#utility.yul\":11295:11381   */\n      swap1\n      pop\n        /* \"#utility.yul\":11391:11463   */\n      tag_503\n        /* \"#utility.yul\":11459:11461   */\n      0x40\n        /* \"#utility.yul\":11448:11457   */\n      dup4\n        /* \"#utility.yul\":11444:11462   */\n      add\n        /* \"#utility.yul\":11435:11441   */\n      dup9\n        /* \"#utility.yul\":11391:11463   */\n      tag_282\n      jump\t// in\n    tag_503:\n        /* \"#utility.yul\":11473:11545   */\n      tag_504\n        /* \"#utility.yul\":11541:11543   */\n      0x60\n        /* \"#utility.yul\":11530:11539   */\n      dup4\n        /* \"#utility.yul\":11526:11544   */\n      add\n        /* \"#utility.yul\":11517:11523   */\n      dup8\n        /* \"#utility.yul\":11473:11545   */\n      tag_282\n      jump\t// in\n    tag_504:\n        /* \"#utility.yul\":11555:11628   */\n      tag_505\n        /* \"#utility.yul\":11623:11626   */\n      0x80\n        /* \"#utility.yul\":11612:11621   */\n      dup4\n        /* \"#utility.yul\":11608:11627   */\n      add\n        /* \"#utility.yul\":11599:11605   */\n      dup7\n        /* \"#utility.yul\":11555:11628   */\n      tag_282\n      jump\t// in\n    tag_505:\n        /* \"#utility.yul\":11638:11711   */\n      tag_506\n        /* \"#utility.yul\":11706:11709   */\n      0xa0\n        /* \"#utility.yul\":11695:11704   */\n      dup4\n        /* \"#utility.yul\":11691:11710   */\n      add\n        /* \"#utility.yul\":11682:11688   */\n      dup6\n        /* \"#utility.yul\":11638:11711   */\n      tag_282\n      jump\t// in\n    tag_506:\n        /* \"#utility.yul\":11721:11788   */\n      tag_507\n        /* \"#utility.yul\":11783:11786   */\n      0xc0\n        /* \"#utility.yul\":11772:11781   */\n      dup4\n        /* \"#utility.yul\":11768:11787   */\n      add\n        /* \"#utility.yul\":11759:11765   */\n      dup5\n        /* \"#utility.yul\":11721:11788   */\n      tag_284\n      jump\t// in\n    tag_507:\n        /* \"#utility.yul\":10830:11795   */\n      swap9\n      swap8\n      pop\n      pop\n      pop\n      pop\n      pop\n      pop\n      pop\n      pop\n      jump\t// out\n        /* \"#utility.yul\":11801:11918   */\n    tag_309:\n        /* \"#utility.yul\":11910:11911   */\n      0x00\n        /* \"#utility.yul\":11907:11908   */\n      dup1\n        /* \"#utility.yul\":11900:11912   */\n      revert\n        /* \"#utility.yul\":11924:12232   */\n    tag_310:\n        /* \"#utility.yul\":11986:11990   */\n      0x00\n        /* \"#utility.yul\":12076:12094   */\n      0xffffffffffffffff\n        /* \"#utility.yul\":12068:12074   */\n      dup3\n        /* \"#utility.yul\":12065:12095   */\n      gt\n        /* \"#utility.yul\":12062:12118   */\n      iszero\n      tag_510\n      jumpi\n        /* \"#utility.yul\":12098:12116   */\n      tag_511\n      tag_299\n      jump\t// in\n    tag_511:\n        /* \"#utility.yul\":12062:12118   */\n    tag_510:\n        /* \"#utility.yul\":12136:12165   */\n      tag_512\n        /* \"#utility.yul\":12158:12164   */\n      dup3\n        /* \"#utility.yul\":12136:12165   */\n      tag_280\n      jump\t// in\n    tag_512:\n        /* \"#utility.yul\":12128:12165   */\n      swap1\n      pop\n        /* \"#utility.yul\":12220:12224   */\n      0x20\n        /* \"#utility.yul\":12214:12218   */\n      dup2\n        /* \"#utility.yul\":12210:12225   */\n      add\n        /* \"#utility.yul\":12202:12225   */\n      swap1\n      pop\n        /* \"#utility.yul\":11924:12232   */\n      swap2\n      swap1\n      pop\n      jump\t// out\n        /* \"#utility.yul\":12238:12384   */\n    tag_311:\n        /* \"#utility.yul\":12335:12341   */\n      dup3\n        /* \"#utility.yul\":12330:12333   */\n      dup2\n        /* \"#utility.yul\":12325:12328   */\n      dup4\n        /* \"#utility.yul\":12312:12342   */\n      calldatacopy\n        /* \"#utility.yul\":12376:12377   */\n      0x00\n        /* \"#utility.yul\":12367:12373   */\n      dup4\n        /* \"#utility.yul\":12362:12365   */\n      dup4\n        /* \"#utility.yul\":12358:12374   */\n      add\n        /* \"#utility.yul\":12351:12378   */\n      mstore\n        /* \"#utility.yul\":12238:12384   */\n      pop\n      pop\n      pop\n      jump\t// out\n        /* \"#utility.yul\":12390:12815   */\n    tag_312:\n        /* \"#utility.yul\":12468:12473   */\n      0x00\n        /* \"#utility.yul\":12493:12559   */\n      tag_515\n        /* \"#utility.yul\":12509:12558   */\n      tag_516\n        /* \"#utility.yul\":12551:12557   */\n      dup5\n        /* \"#utility.yul\":12509:12558   */\n      tag_310\n      jump\t// in\n    tag_516:\n        /* \"#utility.yul\":12493:12559   */\n      tag_301\n      jump\t// in\n    tag_515:\n        /* \"#utility.yul\":12484:12559   */\n      swap1\n      pop\n        /* \"#utility.yul\":12582:12588   */\n      dup3\n        /* \"#utility.yul\":12575:12580   */\n      dup2\n        /* \"#utility.yul\":12568:12589   */\n      mstore\n        /* \"#utility.yul\":12620:12624   */\n      0x20\n        /* \"#utility.yul\":12613:12618   */\n      dup2\n        /* \"#utility.yul\":12609:12625   */\n      add\n        /* \"#utility.yul\":12658:12661   */\n      dup5\n        /* \"#utility.yul\":12649:12655   */\n      dup5\n        /* \"#utility.yul\":12644:12647   */\n      dup5\n        /* \"#utility.yul\":12640:12656   */\n      add\n        /* \"#utility.yul\":12637:12662   */\n      gt\n        /* \"#utility.yul\":12634:12746   */\n      iszero\n      tag_517\n      jumpi\n        /* \"#utility.yul\":12665:12744   */\n      tag_518\n      tag_309\n      jump\t// in\n    tag_518:\n        /* \"#utility.yul\":12634:12746   */\n    tag_517:\n        /* \"#utility.yul\":12755:12809   */\n      tag_519\n        /* \"#utility.yul\":12802:12808   */\n      dup5\n        /* \"#utility.yul\":12797:12800   */\n      dup3\n        /* \"#utility.yul\":12792:12795   */\n      dup6\n        /* \"#utility.yul\":12755:12809   */\n      tag_311\n      jump\t// in\n    tag_519:\n        /* \"#utility.yul\":12474:12815   */\n      pop\n        /* \"#utility.yul\":12390:12815   */\n      swap4\n      swap3\n      pop\n      pop\n      pop\n      jump\t// out\n        /* \"#utility.yul\":12835:13175   */\n    tag_313:\n        /* \"#utility.yul\":12891:12896   */\n      0x00\n        /* \"#utility.yul\":12940:12943   */\n      dup3\n        /* \"#utility.yul\":12933:12937   */\n      0x1f\n        /* \"#utility.yul\":12925:12931   */\n      dup4\n        /* \"#utility.yul\":12921:12938   */\n      add\n        /* \"#utility.yul\":12917:12944   */\n      slt\n        /* \"#utility.yul\":12907:13029   */\n      tag_521\n      jumpi\n        /* \"#utility.yul\":12948:13027   */\n      tag_522\n      tag_293\n      jump\t// in\n    tag_522:\n        /* \"#utility.yul\":12907:13029   */\n    tag_521:\n        /* \"#utility.yul\":13065:13071   */\n      dup2\n        /* \"#utility.yul\":13052:13072   */\n      calldataload\n        /* \"#utility.yul\":13090:13169   */\n      tag_523\n        /* \"#utility.yul\":13165:13168   */\n      dup5\n        /* \"#utility.yul\":13157:13163   */\n      dup3\n        /* \"#utility.yul\":13150:13154   */\n      0x20\n        /* \"#utility.yul\":13142:13148   */\n      dup7\n        /* \"#utility.yul\":13138:13155   */\n      add\n        /* \"#utility.yul\":13090:13169   */\n      tag_312\n      jump\t// in\n    tag_523:\n        /* \"#utility.yul\":13081:13169   */\n      swap2\n      pop\n        /* \"#utility.yul\":12897:13175   */\n      pop\n        /* \"#utility.yul\":12835:13175   */\n      swap3\n      swap2\n      pop\n      pop\n      jump\t// out\n        /* \"#utility.yul\":13181:14272   */\n    tag_61:\n        /* \"#utility.yul\":13286:13292   */\n      0x00\n        /* \"#utility.yul\":13294:13300   */\n      dup1\n        /* \"#utility.yul\":13302:13308   */\n      0x00\n        /* \"#utility.yul\":13310:13316   */\n      dup1\n        /* \"#utility.yul\":13318:13324   */\n      0x00\n        /* \"#utility.yul\":13367:13370   */\n      0xa0\n        /* \"#utility.yul\":13355:13364   */\n      dup7\n        /* \"#utility.yul\":13346:13353   */\n      dup9\n        /* \"#utility.yul\":13342:13365   */\n      sub\n        /* \"#utility.yul\":13338:13371   */\n      slt\n        /* \"#utility.yul\":13335:13455   */\n      iszero\n      tag_525\n      jumpi\n        /* \"#utility.yul\":13374:13453   */\n      tag_526\n      tag_270\n      jump\t// in\n    tag_526:\n        /* \"#utility.yul\":13335:13455   */\n    tag_525:\n        /* \"#utility.yul\":13522:13523   */\n      0x00\n        /* \"#utility.yul\":13511:13520   */\n      dup7\n        /* \"#utility.yul\":13507:13524   */\n      add\n        /* \"#utility.yul\":13494:13525   */\n      calldataload\n        /* \"#utility.yul\":13552:13570   */\n      0xffffffffffffffff\n        /* \"#utility.yul\":13544:13550   */\n      dup2\n        /* \"#utility.yul\":13541:13571   */\n      gt\n        /* \"#utility.yul\":13538:13655   */\n      iszero\n      tag_527\n      jumpi\n        /* \"#utility.yul\":13574:13653   */\n      tag_528\n      tag_271\n      jump\t// in\n    tag_528:\n        /* \"#utility.yul\":13538:13655   */\n    tag_527:\n        /* \"#utility.yul\":13679:13742   */\n      tag_529\n        /* \"#utility.yul\":13734:13741   */\n      dup9\n        /* \"#utility.yul\":13725:13731   */\n      dup3\n        /* \"#utility.yul\":13714:13723   */\n      dup10\n        /* \"#utility.yul\":13710:13732   */\n      add\n        /* \"#utility.yul\":13679:13742   */\n      tag_313\n      jump\t// in\n    tag_529:\n        /* \"#utility.yul\":13669:13742   */\n      swap6\n      pop\n        /* \"#utility.yul\":13465:13752   */\n      pop\n        /* \"#utility.yul\":13791:13793   */\n      0x20\n        /* \"#utility.yul\":13817:13870   */\n      tag_530\n        /* \"#utility.yul\":13862:13869   */\n      dup9\n        /* \"#utility.yul\":13853:13859   */\n      dup3\n        /* \"#utility.yul\":13842:13851   */\n      dup10\n        /* \"#utility.yul\":13838:13860   */\n      add\n        /* \"#utility.yul\":13817:13870   */\n      tag_298\n      jump\t// in\n    tag_530:\n        /* \"#utility.yul\":13807:13870   */\n      swap5\n      pop\n        /* \"#utility.yul\":13762:13880   */\n      pop\n        /* \"#utility.yul\":13919:13921   */\n      0x40\n        /* \"#utility.yul\":13945:13998   */\n      tag_531\n        /* \"#utility.yul\":13990:13997   */\n      dup9\n        /* \"#utility.yul\":13981:13987   */\n      dup3\n        /* \"#utility.yul\":13970:13979   */\n      dup10\n        /* \"#utility.yul\":13966:13988   */\n      add\n        /* \"#utility.yul\":13945:13998   */\n      tag_274\n      jump\t// in\n    tag_531:\n        /* \"#utility.yul\":13935:13998   */\n      swap4\n      pop\n        /* \"#utility.yul\":13890:14008   */\n      pop\n        /* \"#utility.yul\":14047:14049   */\n      0x60\n        /* \"#utility.yul\":14073:14126   */\n      tag_532\n        /* \"#utility.yul\":14118:14125   */\n      dup9\n        /* \"#utility.yul\":14109:14115   */\n      dup3\n        /* \"#utility.yul\":14098:14107   */\n      dup10\n        /* \"#utility.yul\":14094:14116   */\n      add\n        /* \"#utility.yul\":14073:14126   */\n      tag_274\n      jump\t// in\n    tag_532:\n        /* \"#utility.yul\":14063:14126   */\n      swap3\n      pop\n        /* \"#utility.yul\":14018:14136   */\n      pop\n        /* \"#utility.yul\":14175:14178   */\n      0x80\n        /* \"#utility.yul\":14202:14255   */\n      tag_533\n        /* \"#utility.yul\":14247:14254   */\n      dup9\n        /* \"#utility.yul\":14238:14244   */\n      dup3\n        /* \"#utility.yul\":14227:14236   */\n      dup10\n        /* \"#utility.yul\":14223:14245   */\n      add\n        /* \"#utility.yul\":14202:14255   */\n      tag_274\n      jump\t// in\n    tag_533:\n        /* \"#utility.yul\":14192:14255   */\n      swap2\n      pop\n        /* \"#utility.yul\":14146:14265   */\n      pop\n        /* \"#utility.yul\":13181:14272   */\n      swap3\n      swap6\n      pop\n      swap3\n      swap6\n      swap1\n      swap4\n      pop\n      jump\t// out\n        /* \"#utility.yul\":14278:14500   */\n    tag_66:\n        /* \"#utility.yul\":14371:14375   */\n      0x00\n        /* \"#utility.yul\":14409:14411   */\n      0x20\n        /* \"#utility.yul\":14398:14407   */\n      dup3\n        /* \"#utility.yul\":14394:14412   */\n      add\n        /* \"#utility.yul\":14386:14412   */\n      swap1\n      pop\n        /* \"#utility.yul\":14422:14493   */\n      tag_535\n        /* \"#utility.yul\":14490:14491   */\n      0x00\n        /* \"#utility.yul\":14479:14488   */\n      dup4\n        /* \"#utility.yul\":14475:14492   */\n      add\n        /* \"#utility.yul\":14466:14472   */\n      dup5\n        /* \"#utility.yul\":14422:14493   */\n      tag_282\n      jump\t// in\n    tag_535:\n        /* \"#utility.yul\":14278:14500   */\n      swap3\n      swap2\n      pop\n      pop\n      jump\t// out\n        /* \"#utility.yul\":14524:14773   */\n    tag_314:\n        /* \"#utility.yul\":14595:14603   */\n      0x00\n        /* \"#utility.yul\":14626:14632   */\n      dup2\n        /* \"#utility.yul\":14614:14632   */\n      swap1\n      pop\n        /* \"#utility.yul\":14679:14682   */\n      dup3\n        /* \"#utility.yul\":14671:14675   */\n      0x20\n        /* \"#utility.yul\":14665:14669   */\n      0x02\n        /* \"#utility.yul\":14661:14676   */\n      mul\n        /* \"#utility.yul\":14651:14659   */\n      dup3\n        /* \"#utility.yul\":14647:14677   */\n      add\n        /* \"#utility.yul\":14644:14683   */\n      gt\n        /* \"#utility.yul\":14641:14767   */\n      iszero\n      tag_537\n      jumpi\n        /* \"#utility.yul\":14686:14765   */\n      tag_538\n      tag_295\n      jump\t// in\n    tag_538:\n        /* \"#utility.yul\":14641:14767   */\n    tag_537:\n        /* \"#utility.yul\":14524:14773   */\n      swap3\n      swap2\n      pop\n      pop\n      jump\t// out\n        /* \"#utility.yul\":14800:15074   */\n    tag_315:\n        /* \"#utility.yul\":14896:14904   */\n      0x00\n        /* \"#utility.yul\":14927:14933   */\n      dup2\n        /* \"#utility.yul\":14915:14933   */\n      swap1\n      pop\n        /* \"#utility.yul\":14980:14983   */\n      dup3\n        /* \"#utility.yul\":14972:14976   */\n      0x40\n        /* \"#utility.yul\":14966:14970   */\n      0x02\n        /* \"#utility.yul\":14962:14977   */\n      mul\n        /* \"#utility.yul\":14952:14960   */\n      dup3\n        /* \"#utility.yul\":14948:14978   */\n      add\n        /* \"#utility.yul\":14945:14984   */\n      gt\n        /* \"#utility.yul\":14942:15068   */\n      iszero\n      tag_540\n      jumpi\n        /* \"#utility.yul\":14987:15066   */\n      tag_541\n      tag_295\n      jump\t// in\n    tag_541:\n        /* \"#utility.yul\":14942:15068   */\n    tag_540:\n        /* \"#utility.yul\":14800:15074   */\n      swap3\n      swap2\n      pop\n      pop\n      jump\t// out\n        /* \"#utility.yul\":15080:16097   */\n    tag_74:\n        /* \"#utility.yul\":15291:15297   */\n      0x00\n        /* \"#utility.yul\":15299:15305   */\n      dup1\n        /* \"#utility.yul\":15307:15313   */\n      0x00\n        /* \"#utility.yul\":15315:15321   */\n      dup1\n        /* \"#utility.yul\":15364:15367   */\n      0x0140\n        /* \"#utility.yul\":15352:15361   */\n      dup6\n        /* \"#utility.yul\":15343:15350   */\n      dup8\n        /* \"#utility.yul\":15339:15362   */\n      sub\n        /* \"#utility.yul\":15335:15368   */\n      slt\n        /* \"#utility.yul\":15332:15452   */\n      iszero\n      tag_543\n      jumpi\n        /* \"#utility.yul\":15371:15450   */\n      tag_544\n      tag_270\n      jump\t// in\n    tag_544:\n        /* \"#utility.yul\":15332:15452   */\n    tag_543:\n        /* \"#utility.yul\":15491:15492   */\n      0x00\n        /* \"#utility.yul\":15516:15594   */\n      tag_545\n        /* \"#utility.yul\":15586:15593   */\n      dup8\n        /* \"#utility.yul\":15577:15583   */\n      dup3\n        /* \"#utility.yul\":15566:15575   */\n      dup9\n        /* \"#utility.yul\":15562:15584   */\n      add\n        /* \"#utility.yul\":15516:15594   */\n      tag_314\n      jump\t// in\n    tag_545:\n        /* \"#utility.yul\":15506:15594   */\n      swap5\n      pop\n        /* \"#utility.yul\":15462:15604   */\n      pop\n        /* \"#utility.yul\":15643:15645   */\n      0x40\n        /* \"#utility.yul\":15669:15772   */\n      tag_546\n        /* \"#utility.yul\":15764:15771   */\n      dup8\n        /* \"#utility.yul\":15755:15761   */\n      dup3\n        /* \"#utility.yul\":15744:15753   */\n      dup9\n        /* \"#utility.yul\":15740:15762   */\n      add\n        /* \"#utility.yul\":15669:15772   */\n      tag_315\n      jump\t// in\n    tag_546:\n        /* \"#utility.yul\":15659:15772   */\n      swap4\n      pop\n        /* \"#utility.yul\":15614:15782   */\n      pop\n        /* \"#utility.yul\":15821:15824   */\n      0xc0\n        /* \"#utility.yul\":15848:15926   */\n      tag_547\n        /* \"#utility.yul\":15918:15925   */\n      dup8\n        /* \"#utility.yul\":15909:15915   */\n      dup3\n        /* \"#utility.yul\":15898:15907   */\n      dup9\n        /* \"#utility.yul\":15894:15916   */\n      add\n        /* \"#utility.yul\":15848:15926   */\n      tag_314\n      jump\t// in\n    tag_547:\n        /* \"#utility.yul\":15838:15926   */\n      swap3\n      pop\n        /* \"#utility.yul\":15792:15936   */\n      pop\n        /* \"#utility.yul\":15975:15978   */\n      0x0100\n        /* \"#utility.yul\":16002:16080   */\n      tag_548\n        /* \"#utility.yul\":16072:16079   */\n      dup8\n        /* \"#utility.yul\":16063:16069   */\n      dup3\n        /* \"#utility.yul\":16052:16061   */\n      dup9\n        /* \"#utility.yul\":16048:16070   */\n      add\n        /* \"#utility.yul\":16002:16080   */\n      tag_314\n      jump\t// in\n    tag_548:\n        /* \"#utility.yul\":15992:16080   */\n      swap2\n      pop\n        /* \"#utility.yul\":15946:16090   */\n      pop\n        /* \"#utility.yul\":15080:16097   */\n      swap3\n      swap6\n      swap2\n      swap5\n      pop\n      swap3\n      pop\n      jump\t// out\n        /* \"#utility.yul\":16103:16283   */\n    tag_316:\n        /* \"#utility.yul\":16151:16228   */\n      0x4e487b7100000000000000000000000000000000000000000000000000000000\n        /* \"#utility.yul\":16148:16149   */\n      0x00\n        /* \"#utility.yul\":16141:16229   */\n      mstore\n        /* \"#utility.yul\":16248:16252   */\n      0x22\n        /* \"#utility.yul\":16245:16246   */\n      0x04\n        /* \"#utility.yul\":16238:16253   */\n      mstore\n        /* \"#utility.yul\":16272:16276   */\n      0x24\n        /* \"#utility.yul\":16269:16270   */\n      0x00\n        /* \"#utility.yul\":16262:16277   */\n      revert\n        /* \"#utility.yul\":16289:16609   */\n    tag_78:\n        /* \"#utility.yul\":16333:16339   */\n      0x00\n        /* \"#utility.yul\":16370:16371   */\n      0x02\n        /* \"#utility.yul\":16364:16368   */\n      dup3\n        /* \"#utility.yul\":16360:16372   */\n      div\n        /* \"#utility.yul\":16350:16372   */\n      swap1\n      pop\n        /* \"#utility.yul\":16417:16418   */\n      0x01\n        /* \"#utility.yul\":16411:16415   */\n      dup3\n        /* \"#utility.yul\":16407:16419   */\n      and\n        /* \"#utility.yul\":16438:16456   */\n      dup1\n        /* \"#utility.yul\":16428:16509   */\n      tag_551\n      jumpi\n        /* \"#utility.yul\":16494:16498   */\n      0x7f\n        /* \"#utility.yul\":16486:16492   */\n      dup3\n        /* \"#utility.yul\":16482:16499   */\n      and\n        /* \"#utility.yul\":16472:16499   */\n      swap2\n      pop\n        /* \"#utility.yul\":16428:16509   */\n    tag_551:\n        /* \"#utility.yul\":16556:16558   */\n      0x20\n        /* \"#utility.yul\":16548:16554   */\n      dup3\n        /* \"#utility.yul\":16545:16559   */\n      lt\n        /* \"#utility.yul\":16525:16543   */\n      dup2\n        /* \"#utility.yul\":16522:16560   */\n      sub\n        /* \"#utility.yul\":16519:16603   */\n      tag_552\n      jumpi\n        /* \"#utility.yul\":16575:16593   */\n      tag_553\n      tag_316\n      jump\t// in\n    tag_553:\n        /* \"#utility.yul\":16519:16603   */\n    tag_552:\n        /* \"#utility.yul\":16340:16609   */\n      pop\n        /* \"#utility.yul\":16289:16609   */\n      swap2\n      swap1\n      pop\n      jump\t// out\n        /* \"#utility.yul\":16615:16795   */\n    tag_317:\n        /* \"#utility.yul\":16755:16787   */\n      0x566f74696e6720706572696f64206973206e6f7420796574206f7665722e0000\n        /* \"#utility.yul\":16751:16752   */\n      0x00\n        /* \"#utility.yul\":16743:16749   */\n      dup3\n        /* \"#utility.yul\":16739:16753   */\n      add\n        /* \"#utility.yul\":16732:16788   */\n      mstore\n        /* \"#utility.yul\":16615:16795   */\n      pop\n      jump\t// out\n        /* \"#utility.yul\":16801:17167   */\n    tag_318:\n        /* \"#utility.yul\":16943:16946   */\n      0x00\n        /* \"#utility.yul\":16964:17031   */\n      tag_556\n        /* \"#utility.yul\":17028:17030   */\n      0x1e\n        /* \"#utility.yul\":17023:17026   */\n      dup4\n        /* \"#utility.yul\":16964:17031   */\n      tag_278\n      jump\t// in\n    tag_556:\n        /* \"#utility.yul\":16957:17031   */\n      swap2\n      pop\n        /* \"#utility.yul\":17040:17133   */\n      tag_557\n        /* \"#utility.yul\":17129:17132   */\n      dup3\n        /* \"#utility.yul\":17040:17133   */\n      tag_317\n      jump\t// in\n    tag_557:\n        /* \"#utility.yul\":17158:17160   */\n      0x20\n        /* \"#utility.yul\":17153:17156   */\n      dup3\n        /* \"#utility.yul\":17149:17161   */\n      add\n        /* \"#utility.yul\":17142:17161   */\n      swap1\n      pop\n        /* \"#utility.yul\":16801:17167   */\n      swap2\n      swap1\n      pop\n      jump\t// out\n        /* \"#utility.yul\":17173:17592   */\n    tag_87:\n        /* \"#utility.yul\":17339:17343   */\n      0x00\n        /* \"#utility.yul\":17377:17379   */\n      0x20\n        /* \"#utility.yul\":17366:17375   */\n      dup3\n        /* \"#utility.yul\":17362:17380   */\n      add\n        /* \"#utility.yul\":17354:17380   */\n      swap1\n      pop\n        /* \"#utility.yul\":17426:17435   */\n      dup2\n        /* \"#utility.yul\":17420:17424   */\n      dup2\n        /* \"#utility.yul\":17416:17436   */\n      sub\n        /* \"#utility.yul\":17412:17413   */\n      0x00\n        /* \"#utility.yul\":17401:17410   */\n      dup4\n        /* \"#utility.yul\":17397:17414   */\n      add\n        /* \"#utility.yul\":17390:17437   */\n      mstore\n        /* \"#utility.yul\":17454:17585   */\n      tag_559\n        /* \"#utility.yul\":17580:17584   */\n      dup2\n        /* \"#utility.yul\":17454:17585   */\n      tag_318\n      jump\t// in\n    tag_559:\n        /* \"#utility.yul\":17446:17585   */\n      swap1\n      pop\n        /* \"#utility.yul\":17173:17592   */\n      swap2\n      swap1\n      pop\n      jump\t// out\n        /* \"#utility.yul\":17598:17828   */\n    tag_319:\n        /* \"#utility.yul\":17738:17772   */\n      0x566f74696e672068617320616c726561647920656e64656420666f7220746869\n        /* \"#utility.yul\":17734:17735   */\n      0x00\n        /* \"#utility.yul\":17726:17732   */\n      dup3\n        /* \"#utility.yul\":17722:17736   */\n      add\n        /* \"#utility.yul\":17715:17773   */\n      mstore\n        /* \"#utility.yul\":17807:17820   */\n      0x732070726f706f73616c2e000000000000000000000000000000000000000000\n        /* \"#utility.yul\":17802:17804   */\n      0x20\n        /* \"#utility.yul\":17794:17800   */\n      dup3\n        /* \"#utility.yul\":17790:17805   */\n      add\n        /* \"#utility.yul\":17783:17821   */\n      mstore\n        /* \"#utility.yul\":17598:17828   */\n      pop\n      jump\t// out\n        /* \"#utility.yul\":17834:18200   */\n    tag_320:\n        /* \"#utility.yul\":17976:17979   */\n      0x00\n        /* \"#utility.yul\":17997:18064   */\n      tag_562\n        /* \"#utility.yul\":18061:18063   */\n      0x2b\n        /* \"#utility.yul\":18056:18059   */\n      dup4\n        /* \"#utility.yul\":17997:18064   */\n      tag_278\n      jump\t// in\n    tag_562:\n        /* \"#utility.yul\":17990:18064   */\n      swap2\n      pop\n        /* \"#utility.yul\":18073:18166   */\n      tag_563\n        /* \"#utility.yul\":18162:18165   */\n      dup3\n        /* \"#utility.yul\":18073:18166   */\n      tag_319\n      jump\t// in\n    tag_563:\n        /* \"#utility.yul\":18191:18193   */\n      0x40\n        /* \"#utility.yul\":18186:18189   */\n      dup3\n        /* \"#utility.yul\":18182:18194   */\n      add\n        /* \"#utility.yul\":18175:18194   */\n      swap1\n      pop\n        /* \"#utility.yul\":17834:18200   */\n      swap2\n      swap1\n      pop\n      jump\t// out\n        /* \"#utility.yul\":18206:18625   */\n    tag_90:\n        /* \"#utility.yul\":18372:18376   */\n      0x00\n        /* \"#utility.yul\":18410:18412   */\n      0x20\n        /* \"#utility.yul\":18399:18408   */\n      dup3\n        /* \"#utility.yul\":18395:18413   */\n      add\n        /* \"#utility.yul\":18387:18413   */\n      swap1\n      pop\n        /* \"#utility.yul\":18459:18468   */\n      dup2\n        /* \"#utility.yul\":18453:18457   */\n      dup2\n        /* \"#utility.yul\":18449:18469   */\n      sub\n        /* \"#utility.yul\":18445:18446   */\n      0x00\n        /* \"#utility.yul\":18434:18443   */\n      dup4\n        /* \"#utility.yul\":18430:18447   */\n      add\n        /* \"#utility.yul\":18423:18470   */\n      mstore\n        /* \"#utility.yul\":18487:18618   */\n      tag_565\n        /* \"#utility.yul\":18613:18617   */\n      dup2\n        /* \"#utility.yul\":18487:18618   */\n      tag_320\n      jump\t// in\n    tag_565:\n        /* \"#utility.yul\":18479:18618   */\n      swap1\n      pop\n        /* \"#utility.yul\":18206:18625   */\n      swap2\n      swap1\n      pop\n      jump\t// out\n        /* \"#utility.yul\":18631:18811   */\n    tag_321:\n        /* \"#utility.yul\":18679:18756   */\n      0x4e487b7100000000000000000000000000000000000000000000000000000000\n        /* \"#utility.yul\":18676:18677   */\n      0x00\n        /* \"#utility.yul\":18669:18757   */\n      mstore\n        /* \"#utility.yul\":18776:18780   */\n      0x11\n        /* \"#utility.yul\":18773:18774   */\n      0x04\n        /* \"#utility.yul\":18766:18781   */\n      mstore\n        /* \"#utility.yul\":18800:18804   */\n      0x24\n        /* \"#utility.yul\":18797:18798   */\n      0x00\n        /* \"#utility.yul\":18790:18805   */\n      revert\n        /* \"#utility.yul\":18817:19008   */\n    tag_92:\n        /* \"#utility.yul\":18857:18860   */\n      0x00\n        /* \"#utility.yul\":18876:18896   */\n      tag_568\n        /* \"#utility.yul\":18894:18895   */\n      dup3\n        /* \"#utility.yul\":18876:18896   */\n      tag_272\n      jump\t// in\n    tag_568:\n        /* \"#utility.yul\":18871:18896   */\n      swap2\n      pop\n        /* \"#utility.yul\":18910:18930   */\n      tag_569\n        /* \"#utility.yul\":18928:18929   */\n      dup4\n        /* \"#utility.yul\":18910:18930   */\n      tag_272\n      jump\t// in\n    tag_569:\n        /* \"#utility.yul\":18905:18930   */\n      swap3\n      pop\n        /* \"#utility.yul\":18953:18954   */\n      dup3\n        /* \"#utility.yul\":18950:18951   */\n      dup3\n        /* \"#utility.yul\":18946:18955   */\n      add\n        /* \"#utility.yul\":18939:18955   */\n      swap1\n      pop\n        /* \"#utility.yul\":18974:18977   */\n      dup1\n        /* \"#utility.yul\":18971:18972   */\n      dup3\n        /* \"#utility.yul\":18968:18978   */\n      gt\n        /* \"#utility.yul\":18965:19001   */\n      iszero\n      tag_570\n      jumpi\n        /* \"#utility.yul\":18981:18999   */\n      tag_571\n      tag_321\n      jump\t// in\n    tag_571:\n        /* \"#utility.yul\":18965:19001   */\n    tag_570:\n        /* \"#utility.yul\":18817:19008   */\n      swap3\n      swap2\n      pop\n      pop\n      jump\t// out\n        /* \"#utility.yul\":19014:19424   */\n    tag_97:\n        /* \"#utility.yul\":19054:19061   */\n      0x00\n        /* \"#utility.yul\":19077:19097   */\n      tag_573\n        /* \"#utility.yul\":19095:19096   */\n      dup3\n        /* \"#utility.yul\":19077:19097   */\n      tag_272\n      jump\t// in\n    tag_573:\n        /* \"#utility.yul\":19072:19097   */\n      swap2\n      pop\n        /* \"#utility.yul\":19111:19131   */\n      tag_574\n        /* \"#utility.yul\":19129:19130   */\n      dup4\n        /* \"#utility.yul\":19111:19131   */\n      tag_272\n      jump\t// in\n    tag_574:\n        /* \"#utility.yul\":19106:19131   */\n      swap3\n      pop\n        /* \"#utility.yul\":19166:19167   */\n      dup3\n        /* \"#utility.yul\":19163:19164   */\n      dup3\n        /* \"#utility.yul\":19159:19168   */\n      mul\n        /* \"#utility.yul\":19188:19218   */\n      tag_575\n        /* \"#utility.yul\":19206:19217   */\n      dup2\n        /* \"#utility.yul\":19188:19218   */\n      tag_272\n      jump\t// in\n    tag_575:\n        /* \"#utility.yul\":19177:19218   */\n      swap2\n      pop\n        /* \"#utility.yul\":19367:19368   */\n      dup3\n        /* \"#utility.yul\":19358:19365   */\n      dup3\n        /* \"#utility.yul\":19354:19369   */\n      div\n        /* \"#utility.yul\":19351:19352   */\n      dup5\n        /* \"#utility.yul\":19348:19370   */\n      eq\n        /* \"#utility.yul\":19328:19329   */\n      dup4\n        /* \"#utility.yul\":19321:19330   */\n      iszero\n        /* \"#utility.yul\":19301:19384   */\n      or\n        /* \"#utility.yul\":19278:19417   */\n      tag_576\n      jumpi\n        /* \"#utility.yul\":19397:19415   */\n      tag_577\n      tag_321\n      jump\t// in\n    tag_577:\n        /* \"#utility.yul\":19278:19417   */\n    tag_576:\n        /* \"#utility.yul\":19062:19424   */\n      pop\n        /* \"#utility.yul\":19014:19424   */\n      swap3\n      swap2\n      pop\n      pop\n      jump\t// out\n        /* \"#utility.yul\":19430:19610   */\n    tag_322:\n        /* \"#utility.yul\":19478:19555   */\n      0x4e487b7100000000000000000000000000000000000000000000000000000000\n        /* \"#utility.yul\":19475:19476   */\n      0x00\n        /* \"#utility.yul\":19468:19556   */\n      mstore\n        /* \"#utility.yul\":19575:19579   */\n      0x12\n        /* \"#utility.yul\":19572:19573   */\n      0x04\n        /* \"#utility.yul\":19565:19580   */\n      mstore\n        /* \"#utility.yul\":19599:19603   */\n      0x24\n        /* \"#utility.yul\":19596:19597   */\n      0x00\n        /* \"#utility.yul\":19589:19604   */\n      revert\n        /* \"#utility.yul\":19616:19801   */\n    tag_99:\n        /* \"#utility.yul\":19656:19657   */\n      0x00\n        /* \"#utility.yul\":19673:19693   */\n      tag_580\n        /* \"#utility.yul\":19691:19692   */\n      dup3\n        /* \"#utility.yul\":19673:19693   */\n      tag_272\n      jump\t// in\n    tag_580:\n        /* \"#utility.yul\":19668:19693   */\n      swap2\n      pop\n        /* \"#utility.yul\":19707:19727   */\n      tag_581\n        /* \"#utility.yul\":19725:19726   */\n      dup4\n        /* \"#utility.yul\":19707:19727   */\n      tag_272\n      jump\t// in\n    tag_581:\n        /* \"#utility.yul\":19702:19727   */\n      swap3\n      pop\n        /* \"#utility.yul\":19746:19747   */\n      dup3\n        /* \"#utility.yul\":19736:19771   */\n      tag_582\n      jumpi\n        /* \"#utility.yul\":19751:19769   */\n      tag_583\n      tag_322\n      jump\t// in\n    tag_583:\n        /* \"#utility.yul\":19736:19771   */\n    tag_582:\n        /* \"#utility.yul\":19793:19794   */\n      dup3\n        /* \"#utility.yul\":19790:19791   */\n      dup3\n        /* \"#utility.yul\":19786:19795   */\n      div\n        /* \"#utility.yul\":19781:19795   */\n      swap1\n      pop\n        /* \"#utility.yul\":19616:19801   */\n      swap3\n      swap2\n      pop\n      pop\n      jump\t// out\n        /* \"#utility.yul\":19807:20225   */\n    tag_101:\n        /* \"#utility.yul\":19944:19948   */\n      0x00\n        /* \"#utility.yul\":19982:19984   */\n      0x60\n        /* \"#utility.yul\":19971:19980   */\n      dup3\n        /* \"#utility.yul\":19967:19985   */\n      add\n        /* \"#utility.yul\":19959:19985   */\n      swap1\n      pop\n        /* \"#utility.yul\":19995:20066   */\n      tag_585\n        /* \"#utility.yul\":20063:20064   */\n      0x00\n        /* \"#utility.yul\":20052:20061   */\n      dup4\n        /* \"#utility.yul\":20048:20065   */\n      add\n        /* \"#utility.yul\":20039:20045   */\n      dup7\n        /* \"#utility.yul\":19995:20066   */\n      tag_282\n      jump\t// in\n    tag_585:\n        /* \"#utility.yul\":20076:20142   */\n      tag_586\n        /* \"#utility.yul\":20138:20140   */\n      0x20\n        /* \"#utility.yul\":20127:20136   */\n      dup4\n        /* \"#utility.yul\":20123:20141   */\n      add\n        /* \"#utility.yul\":20114:20120   */\n      dup6\n        /* \"#utility.yul\":20076:20142   */\n      tag_284\n      jump\t// in\n    tag_586:\n        /* \"#utility.yul\":20152:20218   */\n      tag_587\n        /* \"#utility.yul\":20214:20216   */\n      0x40\n        /* \"#utility.yul\":20203:20212   */\n      dup4\n        /* \"#utility.yul\":20199:20217   */\n      add\n        /* \"#utility.yul\":20190:20196   */\n      dup5\n        /* \"#utility.yul\":20152:20218   */\n      tag_284\n      jump\t// in\n    tag_587:\n        /* \"#utility.yul\":19807:20225   */\n      swap5\n      swap4\n      pop\n      pop\n      pop\n      pop\n      jump\t// out\n        /* \"#utility.yul\":20231:20398   */\n    tag_323:\n        /* \"#utility.yul\":20371:20390   */\n      0x496e76616c69642070726f706f73616c2e000000000000000000000000000000\n        /* \"#utility.yul\":20367:20368   */\n      0x00\n        /* \"#utility.yul\":20359:20365   */\n      dup3\n        /* \"#utility.yul\":20355:20369   */\n      add\n        /* \"#utility.yul\":20348:20391   */\n      mstore\n        /* \"#utility.yul\":20231:20398   */\n      pop\n      jump\t// out\n        /* \"#utility.yul\":20404:20770   */\n    tag_324:\n        /* \"#utility.yul\":20546:20549   */\n      0x00\n        /* \"#utility.yul\":20567:20634   */\n      tag_590\n        /* \"#utility.yul\":20631:20633   */\n      0x11\n        /* \"#utility.yul\":20626:20629   */\n      dup4\n        /* \"#utility.yul\":20567:20634   */\n      tag_278\n      jump\t// in\n    tag_590:\n        /* \"#utility.yul\":20560:20634   */\n      swap2\n      pop\n        /* \"#utility.yul\":20643:20736   */\n      tag_591\n        /* \"#utility.yul\":20732:20735   */\n      dup3\n        /* \"#utility.yul\":20643:20736   */\n      tag_323\n      jump\t// in\n    tag_591:\n        /* \"#utility.yul\":20761:20763   */\n      0x20\n        /* \"#utility.yul\":20756:20759   */\n      dup3\n        /* \"#utility.yul\":20752:20764   */\n      add\n        /* \"#utility.yul\":20745:20764   */\n      swap1\n      pop\n        /* \"#utility.yul\":20404:20770   */\n      swap2\n      swap1\n      pop\n      jump\t// out\n        /* \"#utility.yul\":20776:21195   */\n    tag_119:\n        /* \"#utility.yul\":20942:20946   */\n      0x00\n        /* \"#utility.yul\":20980:20982   */\n      0x20\n        /* \"#utility.yul\":20969:20978   */\n      dup3\n        /* \"#utility.yul\":20965:20983   */\n      add\n        /* \"#utility.yul\":20957:20983   */\n      swap1\n      pop\n        /* \"#utility.yul\":21029:21038   */\n      dup2\n        /* \"#utility.yul\":21023:21027   */\n      dup2\n        /* \"#utility.yul\":21019:21039   */\n      sub\n        /* \"#utility.yul\":21015:21016   */\n      0x00\n        /* \"#utility.yul\":21004:21013   */\n      dup4\n        /* \"#utility.yul\":21000:21017   */\n      add\n        /* \"#utility.yul\":20993:21040   */\n      mstore\n        /* \"#utility.yul\":21057:21188   */\n      tag_593\n        /* \"#utility.yul\":21183:21187   */\n      dup2\n        /* \"#utility.yul\":21057:21188   */\n      tag_324\n      jump\t// in\n    tag_593:\n        /* \"#utility.yul\":21049:21188   */\n      swap1\n      pop\n        /* \"#utility.yul\":20776:21195   */\n      swap2\n      swap1\n      pop\n      jump\t// out\n        /* \"#utility.yul\":21201:21423   */\n    tag_325:\n        /* \"#utility.yul\":21341:21375   */\n      0x566f74696e672068617320656e64656420666f7220746869732070726f706f73\n        /* \"#utility.yul\":21337:21338   */\n      0x00\n        /* \"#utility.yul\":21329:21335   */\n      dup3\n        /* \"#utility.yul\":21325:21339   */\n      add\n        /* \"#utility.yul\":21318:21376   */\n      mstore\n        /* \"#utility.yul\":21410:21415   */\n      0x616c2e0000000000000000000000000000000000000000000000000000000000\n        /* \"#utility.yul\":21405:21407   */\n      0x20\n        /* \"#utility.yul\":21397:21403   */\n      dup3\n        /* \"#utility.yul\":21393:21408   */\n      add\n        /* \"#utility.yul\":21386:21416   */\n      mstore\n        /* \"#utility.yul\":21201:21423   */\n      pop\n      jump\t// out\n        /* \"#utility.yul\":21429:21795   */\n    tag_326:\n        /* \"#utility.yul\":21571:21574   */\n      0x00\n        /* \"#utility.yul\":21592:21659   */\n      tag_596\n        /* \"#utility.yul\":21656:21658   */\n      0x23\n        /* \"#utility.yul\":21651:21654   */\n      dup4\n        /* \"#utility.yul\":21592:21659   */\n      tag_278\n      jump\t// in\n    tag_596:\n        /* \"#utility.yul\":21585:21659   */\n      swap2\n      pop\n        /* \"#utility.yul\":21668:21761   */\n      tag_597\n        /* \"#utility.yul\":21757:21760   */\n      dup3\n        /* \"#utility.yul\":21668:21761   */\n      tag_325\n      jump\t// in\n    tag_597:\n        /* \"#utility.yul\":21786:21788   */\n      0x40\n        /* \"#utility.yul\":21781:21784   */\n      dup3\n        /* \"#utility.yul\":21777:21789   */\n      add\n        /* \"#utility.yul\":21770:21789   */\n      swap1\n      pop\n        /* \"#utility.yul\":21429:21795   */\n      swap2\n      swap1\n      pop\n      jump\t// out\n        /* \"#utility.yul\":21801:22220   */\n    tag_122:\n        /* \"#utility.yul\":21967:21971   */\n      0x00\n        /* \"#utility.yul\":22005:22007   */\n      0x20\n        /* \"#utility.yul\":21994:22003   */\n      dup3\n        /* \"#utility.yul\":21990:22008   */\n      add\n        /* \"#utility.yul\":21982:22008   */\n      swap1\n      pop\n        /* \"#utility.yul\":22054:22063   */\n      dup2\n        /* \"#utility.yul\":22048:22052   */\n      dup2\n        /* \"#utility.yul\":22044:22064   */\n      sub\n        /* \"#utility.yul\":22040:22041   */\n      0x00\n        /* \"#utility.yul\":22029:22038   */\n      dup4\n        /* \"#utility.yul\":22025:22042   */\n      add\n        /* \"#utility.yul\":22018:22065   */\n      mstore\n        /* \"#utility.yul\":22082:22213   */\n      tag_599\n        /* \"#utility.yul\":22208:22212   */\n      dup2\n        /* \"#utility.yul\":22082:22213   */\n      tag_326\n      jump\t// in\n    tag_599:\n        /* \"#utility.yul\":22074:22213   */\n      swap1\n      pop\n        /* \"#utility.yul\":21801:22220   */\n      swap2\n      swap1\n      pop\n      jump\t// out\n        /* \"#utility.yul\":22226:22399   */\n    tag_327:\n        /* \"#utility.yul\":22366:22391   */\n      0x566f74696e67206e6f742079657420737461727465642e000000000000000000\n        /* \"#utility.yul\":22362:22363   */\n      0x00\n        /* \"#utility.yul\":22354:22360   */\n      dup3\n        /* \"#utility.yul\":22350:22364   */\n      add\n        /* \"#utility.yul\":22343:22392   */\n      mstore\n        /* \"#utility.yul\":22226:22399   */\n      pop\n      jump\t// out\n        /* \"#utility.yul\":22405:22771   */\n    tag_328:\n        /* \"#utility.yul\":22547:22550   */\n      0x00\n        /* \"#utility.yul\":22568:22635   */\n      tag_602\n        /* \"#utility.yul\":22632:22634   */\n      0x17\n        /* \"#utility.yul\":22627:22630   */\n      dup4\n        /* \"#utility.yul\":22568:22635   */\n      tag_278\n      jump\t// in\n    tag_602:\n        /* \"#utility.yul\":22561:22635   */\n      swap2\n      pop\n        /* \"#utility.yul\":22644:22737   */\n      tag_603\n        /* \"#utility.yul\":22733:22736   */\n      dup3\n        /* \"#utility.yul\":22644:22737   */\n      tag_327\n      jump\t// in\n    tag_603:\n        /* \"#utility.yul\":22762:22764   */\n      0x20\n        /* \"#utility.yul\":22757:22760   */\n      dup3\n        /* \"#utility.yul\":22753:22765   */\n      add\n        /* \"#utility.yul\":22746:22765   */\n      swap1\n      pop\n        /* \"#utility.yul\":22405:22771   */\n      swap2\n      swap1\n      pop\n      jump\t// out\n        /* \"#utility.yul\":22777:23196   */\n    tag_125:\n        /* \"#utility.yul\":22943:22947   */\n      0x00\n        /* \"#utility.yul\":22981:22983   */\n      0x20\n        /* \"#utility.yul\":22970:22979   */\n      dup3\n        /* \"#utility.yul\":22966:22984   */\n      add\n        /* \"#utility.yul\":22958:22984   */\n      swap1\n      pop\n        /* \"#utility.yul\":23030:23039   */\n      dup2\n        /* \"#utility.yul\":23024:23028   */\n      dup2\n        /* \"#utility.yul\":23020:23040   */\n      sub\n        /* \"#utility.yul\":23016:23017   */\n      0x00\n        /* \"#utility.yul\":23005:23014   */\n      dup4\n        /* \"#utility.yul\":23001:23018   */\n      add\n        /* \"#utility.yul\":22994:23041   */\n      mstore\n        /* \"#utility.yul\":23058:23189   */\n      tag_605\n        /* \"#utility.yul\":23184:23188   */\n      dup2\n        /* \"#utility.yul\":23058:23189   */\n      tag_328\n      jump\t// in\n    tag_605:\n        /* \"#utility.yul\":23050:23189   */\n      swap1\n      pop\n        /* \"#utility.yul\":22777:23196   */\n      swap2\n      swap1\n      pop\n      jump\t// out\n        /* \"#utility.yul\":23202:23374   */\n    tag_329:\n        /* \"#utility.yul\":23342:23366   */\n      0x566f74696e672074696d652068617320656e6465642e00000000000000000000\n        /* \"#utility.yul\":23338:23339   */\n      0x00\n        /* \"#utility.yul\":23330:23336   */\n      dup3\n        /* \"#utility.yul\":23326:23340   */\n      add\n        /* \"#utility.yul\":23319:23367   */\n      mstore\n        /* \"#utility.yul\":23202:23374   */\n      pop\n      jump\t// out\n        /* \"#utility.yul\":23380:23746   */\n    tag_330:\n        /* \"#utility.yul\":23522:23525   */\n      0x00\n        /* \"#utility.yul\":23543:23610   */\n      tag_608\n        /* \"#utility.yul\":23607:23609   */\n      0x16\n        /* \"#utility.yul\":23602:23605   */\n      dup4\n        /* \"#utility.yul\":23543:23610   */\n      tag_278\n      jump\t// in\n    tag_608:\n        /* \"#utility.yul\":23536:23610   */\n      swap2\n      pop\n        /* \"#utility.yul\":23619:23712   */\n      tag_609\n        /* \"#utility.yul\":23708:23711   */\n      dup3\n        /* \"#utility.yul\":23619:23712   */\n      tag_329\n      jump\t// in\n    tag_609:\n        /* \"#utility.yul\":23737:23739   */\n      0x20\n        /* \"#utility.yul\":23732:23735   */\n      dup3\n        /* \"#utility.yul\":23728:23740   */\n      add\n        /* \"#utility.yul\":23721:23740   */\n      swap1\n      pop\n        /* \"#utility.yul\":23380:23746   */\n      swap2\n      swap1\n      pop\n      jump\t// out\n        /* \"#utility.yul\":23752:24171   */\n    tag_128:\n        /* \"#utility.yul\":23918:23922   */\n      0x00\n        /* \"#utility.yul\":23956:23958   */\n      0x20\n        /* \"#utility.yul\":23945:23954   */\n      dup3\n        /* \"#utility.yul\":23941:23959   */\n      add\n        /* \"#utility.yul\":23933:23959   */\n      swap1\n      pop\n        /* \"#utility.yul\":24005:24014   */\n      dup2\n        /* \"#utility.yul\":23999:24003   */\n      dup2\n        /* \"#utility.yul\":23995:24015   */\n      sub\n        /* \"#utility.yul\":23991:23992   */\n      0x00\n        /* \"#utility.yul\":23980:23989   */\n      dup4\n        /* \"#utility.yul\":23976:23993   */\n      add\n        /* \"#utility.yul\":23969:24016   */\n      mstore\n        /* \"#utility.yul\":24033:24164   */\n      tag_611\n        /* \"#utility.yul\":24159:24163   */\n      dup2\n        /* \"#utility.yul\":24033:24164   */\n      tag_330\n      jump\t// in\n    tag_611:\n        /* \"#utility.yul\":24025:24164   */\n      swap1\n      pop\n        /* \"#utility.yul\":23752:24171   */\n      swap2\n      swap1\n      pop\n      jump\t// out\n        /* \"#utility.yul\":24177:24341   */\n    tag_331:\n        /* \"#utility.yul\":24317:24333   */\n      0x416c726561647920766f7465642e000000000000000000000000000000000000\n        /* \"#utility.yul\":24313:24314   */\n      0x00\n        /* \"#utility.yul\":24305:24311   */\n      dup3\n        /* \"#utility.yul\":24301:24315   */\n      add\n        /* \"#utility.yul\":24294:24334   */\n      mstore\n        /* \"#utility.yul\":24177:24341   */\n      pop\n      jump\t// out\n        /* \"#utility.yul\":24347:24713   */\n    tag_332:\n        /* \"#utility.yul\":24489:24492   */\n      0x00\n        /* \"#utility.yul\":24510:24577   */\n      tag_614\n        /* \"#utility.yul\":24574:24576   */\n      0x0e\n        /* \"#utility.yul\":24569:24572   */\n      dup4\n        /* \"#utility.yul\":24510:24577   */\n      tag_278\n      jump\t// in\n    tag_614:\n        /* \"#utility.yul\":24503:24577   */\n      swap2\n      pop\n        /* \"#utility.yul\":24586:24679   */\n      tag_615\n        /* \"#utility.yul\":24675:24678   */\n      dup3\n        /* \"#utility.yul\":24586:24679   */\n      tag_331\n      jump\t// in\n    tag_615:\n        /* \"#utility.yul\":24704:24706   */\n      0x20\n        /* \"#utility.yul\":24699:24702   */\n      dup3\n        /* \"#utility.yul\":24695:24707   */\n      add\n        /* \"#utility.yul\":24688:24707   */\n      swap1\n      pop\n        /* \"#utility.yul\":24347:24713   */\n      swap2\n      swap1\n      pop\n      jump\t// out\n        /* \"#utility.yul\":24719:25138   */\n    tag_131:\n        /* \"#utility.yul\":24885:24889   */\n      0x00\n        /* \"#utility.yul\":24923:24925   */\n      0x20\n        /* \"#utility.yul\":24912:24921   */\n      dup3\n        /* \"#utility.yul\":24908:24926   */\n      add\n        /* \"#utility.yul\":24900:24926   */\n      swap1\n      pop\n        /* \"#utility.yul\":24972:24981   */\n      dup2\n        /* \"#utility.yul\":24966:24970   */\n      dup2\n        /* \"#utility.yul\":24962:24982   */\n      sub\n        /* \"#utility.yul\":24958:24959   */\n      0x00\n        /* \"#utility.yul\":24947:24956   */\n      dup4\n        /* \"#utility.yul\":24943:24960   */\n      add\n        /* \"#utility.yul\":24936:24983   */\n      mstore\n        /* \"#utility.yul\":25000:25131   */\n      tag_617\n        /* \"#utility.yul\":25126:25130   */\n      dup2\n        /* \"#utility.yul\":25000:25131   */\n      tag_332\n      jump\t// in\n    tag_617:\n        /* \"#utility.yul\":24992:25131   */\n      swap1\n      pop\n        /* \"#utility.yul\":24719:25138   */\n      swap2\n      swap1\n      pop\n      jump\t// out\n        /* \"#utility.yul\":25144:25307   */\n    tag_333:\n        /* \"#utility.yul\":25284:25299   */\n      0x496e76616c69642070726f6f6600000000000000000000000000000000000000\n        /* \"#utility.yul\":25280:25281   */\n      0x00\n        /* \"#utility.yul\":25272:25278   */\n      dup3\n        /* \"#utility.yul\":25268:25282   */\n      add\n        /* \"#utility.yul\":25261:25300   */\n      mstore\n        /* \"#utility.yul\":25144:25307   */\n      pop\n      jump\t// out\n        /* \"#utility.yul\":25313:25679   */\n    tag_334:\n        /* \"#utility.yul\":25455:25458   */\n      0x00\n        /* \"#utility.yul\":25476:25543   */\n      tag_620\n        /* \"#utility.yul\":25540:25542   */\n      0x0d\n        /* \"#utility.yul\":25535:25538   */\n      dup4\n        /* \"#utility.yul\":25476:25543   */\n      tag_278\n      jump\t// in\n    tag_620:\n        /* \"#utility.yul\":25469:25543   */\n      swap2\n      pop\n        /* \"#utility.yul\":25552:25645   */\n      tag_621\n        /* \"#utility.yul\":25641:25644   */\n      dup3\n        /* \"#utility.yul\":25552:25645   */\n      tag_333\n      jump\t// in\n    tag_621:\n        /* \"#utility.yul\":25670:25672   */\n      0x20\n        /* \"#utility.yul\":25665:25668   */\n      dup3\n        /* \"#utility.yul\":25661:25673   */\n      add\n        /* \"#utility.yul\":25654:25673   */\n      swap1\n      pop\n        /* \"#utility.yul\":25313:25679   */\n      swap2\n      swap1\n      pop\n      jump\t// out\n        /* \"#utility.yul\":25685:26104   */\n    tag_137:\n        /* \"#utility.yul\":25851:25855   */\n      0x00\n        /* \"#utility.yul\":25889:25891   */\n      0x20\n        /* \"#utility.yul\":25878:25887   */\n      dup3\n        /* \"#utility.yul\":25874:25892   */\n      add\n        /* \"#utility.yul\":25866:25892   */\n      swap1\n      pop\n        /* \"#utility.yul\":25938:25947   */\n      dup2\n        /* \"#utility.yul\":25932:25936   */\n      dup2\n        /* \"#utility.yul\":25928:25948   */\n      sub\n        /* \"#utility.yul\":25924:25925   */\n      0x00\n        /* \"#utility.yul\":25913:25922   */\n      dup4\n        /* \"#utility.yul\":25909:25926   */\n      add\n        /* \"#utility.yul\":25902:25949   */\n      mstore\n        /* \"#utility.yul\":25966:26097   */\n      tag_623\n        /* \"#utility.yul\":26092:26096   */\n      dup2\n        /* \"#utility.yul\":25966:26097   */\n      tag_334\n      jump\t// in\n    tag_623:\n        /* \"#utility.yul\":25958:26097   */\n      swap1\n      pop\n        /* \"#utility.yul\":25685:26104   */\n      swap2\n      swap1\n      pop\n      jump\t// out\n        /* \"#utility.yul\":26110:26290   */\n    tag_140:\n        /* \"#utility.yul\":26158:26235   */\n      0x4e487b7100000000000000000000000000000000000000000000000000000000\n        /* \"#utility.yul\":26155:26156   */\n      0x00\n        /* \"#utility.yul\":26148:26236   */\n      mstore\n        /* \"#utility.yul\":26255:26259   */\n      0x32\n        /* \"#utility.yul\":26252:26253   */\n      0x04\n        /* \"#utility.yul\":26245:26260   */\n      mstore\n        /* \"#utility.yul\":26279:26283   */\n      0x24\n        /* \"#utility.yul\":26276:26277   */\n      0x00\n        /* \"#utility.yul\":26269:26284   */\n      revert\n        /* \"#utility.yul\":26296:26400   */\n    tag_335:\n        /* \"#utility.yul\":26361:26367   */\n      0x00\n        /* \"#utility.yul\":26389:26393   */\n      0x02\n        /* \"#utility.yul\":26379:26393   */\n      swap1\n      pop\n        /* \"#utility.yul\":26296:26400   */\n      swap2\n      swap1\n      pop\n      jump\t// out\n        /* \"#utility.yul\":26406:26549   */\n    tag_336:\n        /* \"#utility.yul\":26503:26514   */\n      0x00\n        /* \"#utility.yul\":26540:26543   */\n      dup2\n        /* \"#utility.yul\":26525:26543   */\n      swap1\n      pop\n        /* \"#utility.yul\":26406:26549   */\n      swap3\n      swap2\n      pop\n      pop\n      jump\t// out\n        /* \"#utility.yul\":26555:26653   */\n    tag_337:\n        /* \"#utility.yul\":26620:26624   */\n      0x00\n        /* \"#utility.yul\":26643:26646   */\n      dup2\n        /* \"#utility.yul\":26635:26646   */\n      swap1\n      pop\n        /* \"#utility.yul\":26555:26653   */\n      swap2\n      swap1\n      pop\n      jump\t// out\n        /* \"#utility.yul\":26659:26767   */\n    tag_338:\n        /* \"#utility.yul\":26736:26760   */\n      tag_629\n        /* \"#utility.yul\":26754:26759   */\n      dup2\n        /* \"#utility.yul\":26736:26760   */\n      tag_272\n      jump\t// in\n    tag_629:\n        /* \"#utility.yul\":26731:26734   */\n      dup3\n        /* \"#utility.yul\":26724:26761   */\n      mstore\n        /* \"#utility.yul\":26659:26767   */\n      pop\n      pop\n      jump\t// out\n        /* \"#utility.yul\":26773:26952   */\n    tag_339:\n        /* \"#utility.yul\":26842:26852   */\n      0x00\n        /* \"#utility.yul\":26863:26909   */\n      tag_631\n        /* \"#utility.yul\":26905:26908   */\n      dup4\n        /* \"#utility.yul\":26897:26903   */\n      dup4\n        /* \"#utility.yul\":26863:26909   */\n      tag_338\n      jump\t// in\n    tag_631:\n        /* \"#utility.yul\":26941:26945   */\n      0x20\n        /* \"#utility.yul\":26936:26939   */\n      dup4\n        /* \"#utility.yul\":26932:26946   */\n      add\n        /* \"#utility.yul\":26918:26946   */\n      swap1\n      pop\n        /* \"#utility.yul\":26773:26952   */\n      swap3\n      swap2\n      pop\n      pop\n      jump\t// out\n        /* \"#utility.yul\":26958:27069   */\n    tag_340:\n        /* \"#utility.yul\":27026:27030   */\n      0x00\n        /* \"#utility.yul\":27058:27062   */\n      0x20\n        /* \"#utility.yul\":27053:27056   */\n      dup3\n        /* \"#utility.yul\":27049:27063   */\n      add\n        /* \"#utility.yul\":27041:27063   */\n      swap1\n      pop\n        /* \"#utility.yul\":26958:27069   */\n      swap2\n      swap1\n      pop\n      jump\t// out\n        /* \"#utility.yul\":27107:27801   */\n    tag_341:\n        /* \"#utility.yul\":27243:27295   */\n      tag_634\n        /* \"#utility.yul\":27289:27294   */\n      dup2\n        /* \"#utility.yul\":27243:27295   */\n      tag_335\n      jump\t// in\n    tag_634:\n        /* \"#utility.yul\":27311:27395   */\n      tag_635\n        /* \"#utility.yul\":27388:27394   */\n      dup2\n        /* \"#utility.yul\":27383:27386   */\n      dup5\n        /* \"#utility.yul\":27311:27395   */\n      tag_336\n      jump\t// in\n    tag_635:\n        /* \"#utility.yul\":27304:27395   */\n      swap3\n      pop\n        /* \"#utility.yul\":27419:27473   */\n      tag_636\n        /* \"#utility.yul\":27467:27472   */\n      dup3\n        /* \"#utility.yul\":27419:27473   */\n      tag_337\n      jump\t// in\n    tag_636:\n        /* \"#utility.yul\":27496:27503   */\n      dup1\n        /* \"#utility.yul\":27527:27528   */\n      0x00\n        /* \"#utility.yul\":27512:27794   */\n    tag_637:\n        /* \"#utility.yul\":27537:27543   */\n      dup4\n        /* \"#utility.yul\":27534:27535   */\n      dup2\n        /* \"#utility.yul\":27531:27544   */\n      lt\n        /* \"#utility.yul\":27512:27794   */\n      iszero\n      tag_639\n      jumpi\n        /* \"#utility.yul\":27613:27619   */\n      dup2\n        /* \"#utility.yul\":27607:27620   */\n      mload\n        /* \"#utility.yul\":27640:27703   */\n      tag_640\n        /* \"#utility.yul\":27699:27702   */\n      dup8\n        /* \"#utility.yul\":27684:27697   */\n      dup3\n        /* \"#utility.yul\":27640:27703   */\n      tag_339\n      jump\t// in\n    tag_640:\n        /* \"#utility.yul\":27633:27703   */\n      swap7\n      pop\n        /* \"#utility.yul\":27726:27784   */\n      tag_641\n        /* \"#utility.yul\":27777:27783   */\n      dup4\n        /* \"#utility.yul\":27726:27784   */\n      tag_340\n      jump\t// in\n    tag_641:\n        /* \"#utility.yul\":27716:27784   */\n      swap3\n      pop\n        /* \"#utility.yul\":27572:27794   */\n      pop\n        /* \"#utility.yul\":27559:27560   */\n      0x01\n        /* \"#utility.yul\":27556:27557   */\n      dup2\n        /* \"#utility.yul\":27552:27561   */\n      add\n        /* \"#utility.yul\":27547:27561   */\n      swap1\n      pop\n        /* \"#utility.yul\":27512:27794   */\n      jump(tag_637)\n    tag_639:\n        /* \"#utility.yul\":27516:27530   */\n      pop\n        /* \"#utility.yul\":27219:27801   */\n      pop\n      pop\n      pop\n        /* \"#utility.yul\":27107:27801   */\n      pop\n      pop\n      jump\t// out\n        /* \"#utility.yul\":27807:27934   */\n    tag_342:\n        /* \"#utility.yul\":27895:27901   */\n      0x00\n        /* \"#utility.yul\":27923:27927   */\n      0x02\n        /* \"#utility.yul\":27913:27927   */\n      swap1\n      pop\n        /* \"#utility.yul\":27807:27934   */\n      swap2\n      swap1\n      pop\n      jump\t// out\n        /* \"#utility.yul\":27940:28106   */\n    tag_343:\n        /* \"#utility.yul\":28060:28071   */\n      0x00\n        /* \"#utility.yul\":28097:28100   */\n      dup2\n        /* \"#utility.yul\":28082:28100   */\n      swap1\n      pop\n        /* \"#utility.yul\":27940:28106   */\n      swap3\n      swap2\n      pop\n      pop\n      jump\t// out\n        /* \"#utility.yul\":28112:28233   */\n    tag_344:\n        /* \"#utility.yul\":28200:28204   */\n      0x00\n        /* \"#utility.yul\":28223:28226   */\n      dup2\n        /* \"#utility.yul\":28215:28226   */\n      swap1\n      pop\n        /* \"#utility.yul\":28112:28233   */\n      swap2\n      swap1\n      pop\n      jump\t// out\n        /* \"#utility.yul\":28239:28372   */\n    tag_345:\n        /* \"#utility.yul\":28326:28337   */\n      0x00\n        /* \"#utility.yul\":28363:28366   */\n      dup2\n        /* \"#utility.yul\":28348:28366   */\n      swap1\n      pop\n        /* \"#utility.yul\":28239:28372   */\n      swap3\n      swap2\n      pop\n      pop\n      jump\t// out\n        /* \"#utility.yul\":28410:29084   */\n    tag_346:\n        /* \"#utility.yul\":28536:28588   */\n      tag_647\n        /* \"#utility.yul\":28582:28587   */\n      dup2\n        /* \"#utility.yul\":28536:28588   */\n      tag_335\n      jump\t// in\n    tag_647:\n        /* \"#utility.yul\":28604:28678   */\n      tag_648\n        /* \"#utility.yul\":28671:28677   */\n      dup2\n        /* \"#utility.yul\":28666:28669   */\n      dup5\n        /* \"#utility.yul\":28604:28678   */\n      tag_345\n      jump\t// in\n    tag_648:\n        /* \"#utility.yul\":28597:28678   */\n      swap3\n      pop\n        /* \"#utility.yul\":28702:28756   */\n      tag_649\n        /* \"#utility.yul\":28750:28755   */\n      dup3\n        /* \"#utility.yul\":28702:28756   */\n      tag_337\n      jump\t// in\n    tag_649:\n        /* \"#utility.yul\":28779:28786   */\n      dup1\n        /* \"#utility.yul\":28810:28811   */\n      0x00\n        /* \"#utility.yul\":28795:29077   */\n    tag_650:\n        /* \"#utility.yul\":28820:28826   */\n      dup4\n        /* \"#utility.yul\":28817:28818   */\n      dup2\n        /* \"#utility.yul\":28814:28827   */\n      lt\n        /* \"#utility.yul\":28795:29077   */\n      iszero\n      tag_652\n      jumpi\n        /* \"#utility.yul\":28896:28902   */\n      dup2\n        /* \"#utility.yul\":28890:28903   */\n      mload\n        /* \"#utility.yul\":28923:28986   */\n      tag_653\n        /* \"#utility.yul\":28982:28985   */\n      dup8\n        /* \"#utility.yul\":28967:28980   */\n      dup3\n        /* \"#utility.yul\":28923:28986   */\n      tag_339\n      jump\t// in\n    tag_653:\n        /* \"#utility.yul\":28916:28986   */\n      swap7\n      pop\n        /* \"#utility.yul\":29009:29067   */\n      tag_654\n        /* \"#utility.yul\":29060:29066   */\n      dup4\n        /* \"#utility.yul\":29009:29067   */\n      tag_340\n      jump\t// in\n    tag_654:\n        /* \"#utility.yul\":28999:29067   */\n      swap3\n      pop\n        /* \"#utility.yul\":28855:29077   */\n      pop\n        /* \"#utility.yul\":28842:28843   */\n      0x01\n        /* \"#utility.yul\":28839:28840   */\n      dup2\n        /* \"#utility.yul\":28835:28844   */\n      add\n        /* \"#utility.yul\":28830:28844   */\n      swap1\n      pop\n        /* \"#utility.yul\":28795:29077   */\n      jump(tag_650)\n    tag_652:\n        /* \"#utility.yul\":28799:28813   */\n      pop\n        /* \"#utility.yul\":28512:29084   */\n      pop\n      pop\n      pop\n        /* \"#utility.yul\":28410:29084   */\n      pop\n      pop\n      jump\t// out\n        /* \"#utility.yul\":29090:29361   */\n    tag_347:\n        /* \"#utility.yul\":29205:29215   */\n      0x00\n        /* \"#utility.yul\":29226:29318   */\n      tag_656\n        /* \"#utility.yul\":29314:29317   */\n      dup4\n        /* \"#utility.yul\":29306:29312   */\n      dup4\n        /* \"#utility.yul\":29226:29318   */\n      tag_346\n      jump\t// in\n    tag_656:\n        /* \"#utility.yul\":29350:29354   */\n      0x40\n        /* \"#utility.yul\":29345:29348   */\n      dup4\n        /* \"#utility.yul\":29341:29355   */\n      add\n        /* \"#utility.yul\":29327:29355   */\n      swap1\n      pop\n        /* \"#utility.yul\":29090:29361   */\n      swap3\n      swap2\n      pop\n      pop\n      jump\t// out\n        /* \"#utility.yul\":29367:29501   */\n    tag_348:\n        /* \"#utility.yul\":29458:29462   */\n      0x00\n        /* \"#utility.yul\":29490:29494   */\n      0x20\n        /* \"#utility.yul\":29485:29488   */\n      dup3\n        /* \"#utility.yul\":29481:29495   */\n      add\n        /* \"#utility.yul\":29473:29495   */\n      swap1\n      pop\n        /* \"#utility.yul\":29367:29501   */\n      swap2\n      swap1\n      pop\n      jump\t// out\n        /* \"#utility.yul\":29545:30423   */\n    tag_349:\n        /* \"#utility.yul\":29727:29802   */\n      tag_659\n        /* \"#utility.yul\":29796:29801   */\n      dup2\n        /* \"#utility.yul\":29727:29802   */\n      tag_342\n      jump\t// in\n    tag_659:\n        /* \"#utility.yul\":29818:29925   */\n      tag_660\n        /* \"#utility.yul\":29918:29924   */\n      dup2\n        /* \"#utility.yul\":29913:29916   */\n      dup5\n        /* \"#utility.yul\":29818:29925   */\n      tag_343\n      jump\t// in\n    tag_660:\n        /* \"#utility.yul\":29811:29925   */\n      swap3\n      pop\n        /* \"#utility.yul\":29949:30026   */\n      tag_661\n        /* \"#utility.yul\":30020:30025   */\n      dup3\n        /* \"#utility.yul\":29949:30026   */\n      tag_344\n      jump\t// in\n    tag_661:\n        /* \"#utility.yul\":30049:30056   */\n      dup1\n        /* \"#utility.yul\":30080:30081   */\n      0x00\n        /* \"#utility.yul\":30065:30416   */\n    tag_662:\n        /* \"#utility.yul\":30090:30096   */\n      dup4\n        /* \"#utility.yul\":30087:30088   */\n      dup2\n        /* \"#utility.yul\":30084:30097   */\n      lt\n        /* \"#utility.yul\":30065:30416   */\n      iszero\n      tag_664\n      jumpi\n        /* \"#utility.yul\":30166:30172   */\n      dup2\n        /* \"#utility.yul\":30160:30173   */\n      mload\n        /* \"#utility.yul\":30193:30302   */\n      tag_665\n        /* \"#utility.yul\":30298:30301   */\n      dup8\n        /* \"#utility.yul\":30283:30296   */\n      dup3\n        /* \"#utility.yul\":30193:30302   */\n      tag_347\n      jump\t// in\n    tag_665:\n        /* \"#utility.yul\":30186:30302   */\n      swap7\n      pop\n        /* \"#utility.yul\":30325:30406   */\n      tag_666\n        /* \"#utility.yul\":30399:30405   */\n      dup4\n        /* \"#utility.yul\":30325:30406   */\n      tag_348\n      jump\t// in\n    tag_666:\n        /* \"#utility.yul\":30315:30406   */\n      swap3\n      pop\n        /* \"#utility.yul\":30125:30416   */\n      pop\n        /* \"#utility.yul\":30112:30113   */\n      0x01\n        /* \"#utility.yul\":30109:30110   */\n      dup2\n        /* \"#utility.yul\":30105:30114   */\n      add\n        /* \"#utility.yul\":30100:30114   */\n      swap1\n      pop\n        /* \"#utility.yul\":30065:30416   */\n      jump(tag_662)\n    tag_664:\n        /* \"#utility.yul\":30069:30083   */\n      pop\n        /* \"#utility.yul\":29703:30423   */\n      pop\n      pop\n      pop\n        /* \"#utility.yul\":29545:30423   */\n      pop\n      pop\n      jump\t// out\n        /* \"#utility.yul\":30429:31444   */\n    tag_156:\n        /* \"#utility.yul\":30836:30840   */\n      0x00\n        /* \"#utility.yul\":30874:30877   */\n      0x0140\n        /* \"#utility.yul\":30863:30872   */\n      dup3\n        /* \"#utility.yul\":30859:30878   */\n      add\n        /* \"#utility.yul\":30851:30878   */\n      swap1\n      pop\n        /* \"#utility.yul\":30888:31005   */\n      tag_668\n        /* \"#utility.yul\":31002:31003   */\n      0x00\n        /* \"#utility.yul\":30991:31000   */\n      dup4\n        /* \"#utility.yul\":30987:31004   */\n      add\n        /* \"#utility.yul\":30978:30984   */\n      dup8\n        /* \"#utility.yul\":30888:31005   */\n      tag_341\n      jump\t// in\n    tag_668:\n        /* \"#utility.yul\":31015:31179   */\n      tag_669\n        /* \"#utility.yul\":31175:31177   */\n      0x40\n        /* \"#utility.yul\":31164:31173   */\n      dup4\n        /* \"#utility.yul\":31160:31178   */\n      add\n        /* \"#utility.yul\":31151:31157   */\n      dup7\n        /* \"#utility.yul\":31015:31179   */\n      tag_349\n      jump\t// in\n    tag_669:\n        /* \"#utility.yul\":31189:31308   */\n      tag_670\n        /* \"#utility.yul\":31303:31306   */\n      0xc0\n        /* \"#utility.yul\":31292:31301   */\n      dup4\n        /* \"#utility.yul\":31288:31307   */\n      add\n        /* \"#utility.yul\":31279:31285   */\n      dup6\n        /* \"#utility.yul\":31189:31308   */\n      tag_341\n      jump\t// in\n    tag_670:\n        /* \"#utility.yul\":31318:31437   */\n      tag_671\n        /* \"#utility.yul\":31432:31435   */\n      0x0100\n        /* \"#utility.yul\":31421:31430   */\n      dup4\n        /* \"#utility.yul\":31417:31436   */\n      add\n        /* \"#utility.yul\":31408:31414   */\n      dup5\n        /* \"#utility.yul\":31318:31437   */\n      tag_341\n      jump\t// in\n    tag_671:\n        /* \"#utility.yul\":30429:31444   */\n      swap6\n      swap5\n      pop\n      pop\n      pop\n      pop\n      pop\n      jump\t// out\n        /* \"#utility.yul\":31450:31587   */\n    tag_350:\n        /* \"#utility.yul\":31504:31509   */\n      0x00\n        /* \"#utility.yul\":31535:31541   */\n      dup2\n        /* \"#utility.yul\":31529:31542   */\n      mload\n        /* \"#utility.yul\":31520:31542   */\n      swap1\n      pop\n        /* \"#utility.yul\":31551:31581   */\n      tag_673\n        /* \"#utility.yul\":31575:31580   */\n      dup2\n        /* \"#utility.yul\":31551:31581   */\n      tag_291\n      jump\t// in\n    tag_673:\n        /* \"#utility.yul\":31450:31587   */\n      swap3\n      swap2\n      pop\n      pop\n      jump\t// out\n        /* \"#utility.yul\":31593:31938   */\n    tag_160:\n        /* \"#utility.yul\":31660:31666   */\n      0x00\n        /* \"#utility.yul\":31709:31711   */\n      0x20\n        /* \"#utility.yul\":31697:31706   */\n      dup3\n        /* \"#utility.yul\":31688:31695   */\n      dup5\n        /* \"#utility.yul\":31684:31707   */\n      sub\n        /* \"#utility.yul\":31680:31712   */\n      slt\n        /* \"#utility.yul\":31677:31796   */\n      iszero\n      tag_675\n      jumpi\n        /* \"#utility.yul\":31715:31794   */\n      tag_676\n      tag_270\n      jump\t// in\n    tag_676:\n        /* \"#utility.yul\":31677:31796   */\n    tag_675:\n        /* \"#utility.yul\":31835:31836   */\n      0x00\n        /* \"#utility.yul\":31860:31921   */\n      tag_677\n        /* \"#utility.yul\":31913:31920   */\n      dup5\n        /* \"#utility.yul\":31904:31910   */\n      dup3\n        /* \"#utility.yul\":31893:31902   */\n      dup6\n        /* \"#utility.yul\":31889:31911   */\n      add\n        /* \"#utility.yul\":31860:31921   */\n      tag_350\n      jump\t// in\n    tag_677:\n        /* \"#utility.yul\":31850:31921   */\n      swap2\n      pop\n        /* \"#utility.yul\":31806:31931   */\n      pop\n        /* \"#utility.yul\":31593:31938   */\n      swap3\n      swap2\n      pop\n      pop\n      jump\t// out\n        /* \"#utility.yul\":31944:32113   */\n    tag_351:\n        /* \"#utility.yul\":32084:32105   */\n      0x4661696c6564207665726966792070726f6f6600000000000000000000000000\n        /* \"#utility.yul\":32080:32081   */\n      0x00\n        /* \"#utility.yul\":32072:32078   */\n      dup3\n        /* \"#utility.yul\":32068:32082   */\n      add\n        /* \"#utility.yul\":32061:32106   */\n      mstore\n        /* \"#utility.yul\":31944:32113   */\n      pop\n      jump\t// out\n        /* \"#utility.yul\":32119:32485   */\n    tag_352:\n        /* \"#utility.yul\":32261:32264   */\n      0x00\n        /* \"#utility.yul\":32282:32349   */\n      tag_680\n        /* \"#utility.yul\":32346:32348   */\n      0x13\n        /* \"#utility.yul\":32341:32344   */\n      dup4\n        /* \"#utility.yul\":32282:32349   */\n      tag_278\n      jump\t// in\n    tag_680:\n        /* \"#utility.yul\":32275:32349   */\n      swap2\n      pop\n        /* \"#utility.yul\":32358:32451   */\n      tag_681\n        /* \"#utility.yul\":32447:32450   */\n      dup3\n        /* \"#utility.yul\":32358:32451   */\n      tag_351\n      jump\t// in\n    tag_681:\n        /* \"#utility.yul\":32476:32478   */\n      0x20\n        /* \"#utility.yul\":32471:32474   */\n      dup3\n        /* \"#utility.yul\":32467:32479   */\n      add\n        /* \"#utility.yul\":32460:32479   */\n      swap1\n      pop\n        /* \"#utility.yul\":32119:32485   */\n      swap2\n      swap1\n      pop\n      jump\t// out\n        /* \"#utility.yul\":32491:32910   */\n    tag_163:\n        /* \"#utility.yul\":32657:32661   */\n      0x00\n        /* \"#utility.yul\":32695:32697   */\n      0x20\n        /* \"#utility.yul\":32684:32693   */\n      dup3\n        /* \"#utility.yul\":32680:32698   */\n      add\n        /* \"#utility.yul\":32672:32698   */\n      swap1\n      pop\n        /* \"#utility.yul\":32744:32753   */\n      dup2\n        /* \"#utility.yul\":32738:32742   */\n      dup2\n        /* \"#utility.yul\":32734:32754   */\n      sub\n        /* \"#utility.yul\":32730:32731   */\n      0x00\n        /* \"#utility.yul\":32719:32728   */\n      dup4\n        /* \"#utility.yul\":32715:32732   */\n      add\n        /* \"#utility.yul\":32708:32755   */\n      mstore\n        /* \"#utility.yul\":32772:32903   */\n      tag_683\n        /* \"#utility.yul\":32898:32902   */\n      dup2\n        /* \"#utility.yul\":32772:32903   */\n      tag_352\n      jump\t// in\n    tag_683:\n        /* \"#utility.yul\":32764:32903   */\n      swap1\n      pop\n        /* \"#utility.yul\":32491:32910   */\n      swap2\n      swap1\n      pop\n      jump\t// out\n        /* \"#utility.yul\":32916:33236   */\n    tag_166:\n        /* \"#utility.yul\":33031:33035   */\n      0x00\n        /* \"#utility.yul\":33069:33071   */\n      0x40\n        /* \"#utility.yul\":33058:33067   */\n      dup3\n        /* \"#utility.yul\":33054:33072   */\n      add\n        /* \"#utility.yul\":33046:33072   */\n      swap1\n      pop\n        /* \"#utility.yul\":33082:33153   */\n      tag_685\n        /* \"#utility.yul\":33150:33151   */\n      0x00\n        /* \"#utility.yul\":33139:33148   */\n      dup4\n        /* \"#utility.yul\":33135:33152   */\n      add\n        /* \"#utility.yul\":33126:33132   */\n      dup6\n        /* \"#utility.yul\":33082:33153   */\n      tag_282\n      jump\t// in\n    tag_685:\n        /* \"#utility.yul\":33163:33229   */\n      tag_686\n        /* \"#utility.yul\":33225:33227   */\n      0x20\n        /* \"#utility.yul\":33214:33223   */\n      dup4\n        /* \"#utility.yul\":33210:33228   */\n      add\n        /* \"#utility.yul\":33201:33207   */\n      dup5\n        /* \"#utility.yul\":33163:33229   */\n      tag_284\n      jump\t// in\n    tag_686:\n        /* \"#utility.yul\":32916:33236   */\n      swap4\n      swap3\n      pop\n      pop\n      pop\n      jump\t// out\n        /* \"#utility.yul\":33242:33465   */\n    tag_353:\n        /* \"#utility.yul\":33382:33416   */\n      0x4475726174696f6e2073686f756c642062652067726561746572207468616e20\n        /* \"#utility.yul\":33378:33379   */\n      0x00\n        /* \"#utility.yul\":33370:33376   */\n      dup3\n        /* \"#utility.yul\":33366:33380   */\n      add\n        /* \"#utility.yul\":33359:33417   */\n      mstore\n        /* \"#utility.yul\":33451:33457   */\n      0x7a65726f00000000000000000000000000000000000000000000000000000000\n        /* \"#utility.yul\":33446:33448   */\n      0x20\n        /* \"#utility.yul\":33438:33444   */\n      dup3\n        /* \"#utility.yul\":33434:33449   */\n      add\n        /* \"#utility.yul\":33427:33458   */\n      mstore\n        /* \"#utility.yul\":33242:33465   */\n      pop\n      jump\t// out\n        /* \"#utility.yul\":33471:33837   */\n    tag_354:\n        /* \"#utility.yul\":33613:33616   */\n      0x00\n        /* \"#utility.yul\":33634:33701   */\n      tag_689\n        /* \"#utility.yul\":33698:33700   */\n      0x24\n        /* \"#utility.yul\":33693:33696   */\n      dup4\n        /* \"#utility.yul\":33634:33701   */\n      tag_278\n      jump\t// in\n    tag_689:\n        /* \"#utility.yul\":33627:33701   */\n      swap2\n      pop\n        /* \"#utility.yul\":33710:33803   */\n      tag_690\n        /* \"#utility.yul\":33799:33802   */\n      dup3\n        /* \"#utility.yul\":33710:33803   */\n      tag_353\n      jump\t// in\n    tag_690:\n        /* \"#utility.yul\":33828:33830   */\n      0x40\n        /* \"#utility.yul\":33823:33826   */\n      dup3\n        /* \"#utility.yul\":33819:33831   */\n      add\n        /* \"#utility.yul\":33812:33831   */\n      swap1\n      pop\n        /* \"#utility.yul\":33471:33837   */\n      swap2\n      swap1\n      pop\n      jump\t// out\n        /* \"#utility.yul\":33843:34262   */\n    tag_183:\n        /* \"#utility.yul\":34009:34013   */\n      0x00\n        /* \"#utility.yul\":34047:34049   */\n      0x20\n        /* \"#utility.yul\":34036:34045   */\n      dup3\n        /* \"#utility.yul\":34032:34050   */\n      add\n        /* \"#utility.yul\":34024:34050   */\n      swap1\n      pop\n        /* \"#utility.yul\":34096:34105   */\n      dup2\n        /* \"#utility.yul\":34090:34094   */\n      dup2\n        /* \"#utility.yul\":34086:34106   */\n      sub\n        /* \"#utility.yul\":34082:34083   */\n      0x00\n        /* \"#utility.yul\":34071:34080   */\n      dup4\n        /* \"#utility.yul\":34067:34084   */\n      add\n        /* \"#utility.yul\":34060:34107   */\n      mstore\n        /* \"#utility.yul\":34124:34255   */\n      tag_692\n        /* \"#utility.yul\":34250:34254   */\n      dup2\n        /* \"#utility.yul\":34124:34255   */\n      tag_354\n      jump\t// in\n    tag_692:\n        /* \"#utility.yul\":34116:34255   */\n      swap1\n      pop\n        /* \"#utility.yul\":33843:34262   */\n      swap2\n      swap1\n      pop\n      jump\t// out\n        /* \"#utility.yul\":34268:34489   */\n    tag_355:\n        /* \"#utility.yul\":34408:34442   */\n      0x51756f72756d2073686f756c64206265206265747765656e203020616e642031\n        /* \"#utility.yul\":34404:34405   */\n      0x00\n        /* \"#utility.yul\":34396:34402   */\n      dup3\n        /* \"#utility.yul\":34392:34406   */\n      add\n        /* \"#utility.yul\":34385:34443   */\n      mstore\n        /* \"#utility.yul\":34477:34481   */\n      0x3030000000000000000000000000000000000000000000000000000000000000\n        /* \"#utility.yul\":34472:34474   */\n      0x20\n        /* \"#utility.yul\":34464:34470   */\n      dup3\n        /* \"#utility.yul\":34460:34475   */\n      add\n        /* \"#utility.yul\":34453:34482   */\n      mstore\n        /* \"#utility.yul\":34268:34489   */\n      pop\n      jump\t// out\n        /* \"#utility.yul\":34495:34861   */\n    tag_356:\n        /* \"#utility.yul\":34637:34640   */\n      0x00\n        /* \"#utility.yul\":34658:34725   */\n      tag_695\n        /* \"#utility.yul\":34722:34724   */\n      0x22\n        /* \"#utility.yul\":34717:34720   */\n      dup4\n        /* \"#utility.yul\":34658:34725   */\n      tag_278\n      jump\t// in\n    tag_695:\n        /* \"#utility.yul\":34651:34725   */\n      swap2\n      pop\n        /* \"#utility.yul\":34734:34827   */\n      tag_696\n        /* \"#utility.yul\":34823:34826   */\n      dup3\n        /* \"#utility.yul\":34734:34827   */\n      tag_355\n      jump\t// in\n    tag_696:\n        /* \"#utility.yul\":34852:34854   */\n      0x40\n        /* \"#utility.yul\":34847:34850   */\n      dup3\n        /* \"#utility.yul\":34843:34855   */\n      add\n        /* \"#utility.yul\":34836:34855   */\n      swap1\n      pop\n        /* \"#utility.yul\":34495:34861   */\n      swap2\n      swap1\n      pop\n      jump\t// out\n        /* \"#utility.yul\":34867:35286   */\n    tag_187:\n        /* \"#utility.yul\":35033:35037   */\n      0x00\n        /* \"#utility.yul\":35071:35073   */\n      0x20\n        /* \"#utility.yul\":35060:35069   */\n      dup3\n        /* \"#utility.yul\":35056:35074   */\n      add\n        /* \"#utility.yul\":35048:35074   */\n      swap1\n      pop\n        /* \"#utility.yul\":35120:35129   */\n      dup2\n        /* \"#utility.yul\":35114:35118   */\n      dup2\n        /* \"#utility.yul\":35110:35130   */\n      sub\n        /* \"#utility.yul\":35106:35107   */\n      0x00\n        /* \"#utility.yul\":35095:35104   */\n      dup4\n        /* \"#utility.yul\":35091:35108   */\n      add\n        /* \"#utility.yul\":35084:35131   */\n      mstore\n        /* \"#utility.yul\":35148:35279   */\n      tag_698\n        /* \"#utility.yul\":35274:35278   */\n      dup2\n        /* \"#utility.yul\":35148:35279   */\n      tag_356\n      jump\t// in\n    tag_698:\n        /* \"#utility.yul\":35140:35279   */\n      swap1\n      pop\n        /* \"#utility.yul\":34867:35286   */\n      swap2\n      swap1\n      pop\n      jump\t// out\n        /* \"#utility.yul\":35292:35433   */\n    tag_357:\n        /* \"#utility.yul\":35341:35345   */\n      0x00\n        /* \"#utility.yul\":35364:35367   */\n      dup2\n        /* \"#utility.yul\":35356:35367   */\n      swap1\n      pop\n        /* \"#utility.yul\":35387:35390   */\n      dup2\n        /* \"#utility.yul\":35384:35385   */\n      0x00\n        /* \"#utility.yul\":35377:35391   */\n      mstore\n        /* \"#utility.yul\":35421:35425   */\n      0x20\n        /* \"#utility.yul\":35418:35419   */\n      0x00\n        /* \"#utility.yul\":35408:35426   */\n      keccak256\n        /* \"#utility.yul\":35400:35426   */\n      swap1\n      pop\n        /* \"#utility.yul\":35292:35433   */\n      swap2\n      swap1\n      pop\n      jump\t// out\n        /* \"#utility.yul\":35439:35532   */\n    tag_358:\n        /* \"#utility.yul\":35476:35482   */\n      0x00\n        /* \"#utility.yul\":35523:35525   */\n      0x20\n        /* \"#utility.yul\":35518:35520   */\n      0x1f\n        /* \"#utility.yul\":35511:35516   */\n      dup4\n        /* \"#utility.yul\":35507:35521   */\n      add\n        /* \"#utility.yul\":35503:35526   */\n      div\n        /* \"#utility.yul\":35493:35526   */\n      swap1\n      pop\n        /* \"#utility.yul\":35439:35532   */\n      swap2\n      swap1\n      pop\n      jump\t// out\n        /* \"#utility.yul\":35538:35645   */\n    tag_359:\n        /* \"#utility.yul\":35582:35590   */\n      0x00\n        /* \"#utility.yul\":35632:35637   */\n      dup3\n        /* \"#utility.yul\":35626:35630   */\n      dup3\n        /* \"#utility.yul\":35622:35638   */\n      shl\n        /* \"#utility.yul\":35601:35638   */\n      swap1\n      pop\n        /* \"#utility.yul\":35538:35645   */\n      swap3\n      swap2\n      pop\n      pop\n      jump\t// out\n        /* \"#utility.yul\":35651:36044   */\n    tag_360:\n        /* \"#utility.yul\":35720:35726   */\n      0x00\n        /* \"#utility.yul\":35770:35771   */\n      0x08\n        /* \"#utility.yul\":35758:35768   */\n      dup4\n        /* \"#utility.yul\":35754:35772   */\n      mul\n        /* \"#utility.yul\":35793:35890   */\n      tag_703\n        /* \"#utility.yul\":35823:35889   */\n      0xffffffffffffffffffffffffffffffffffffffffffffffffffffffffffffffff\n        /* \"#utility.yul\":35812:35821   */\n      dup3\n        /* \"#utility.yul\":35793:35890   */\n      tag_359\n      jump\t// in\n    tag_703:\n        /* \"#utility.yul\":35911:35950   */\n      tag_704\n        /* \"#utility.yul\":35941:35949   */\n      dup7\n        /* \"#utility.yul\":35930:35939   */\n      dup4\n        /* \"#utility.yul\":35911:35950   */\n      tag_359\n      jump\t// in\n    tag_704:\n        /* \"#utility.yul\":35899:35950   */\n      swap6\n      pop\n        /* \"#utility.yul\":35983:35987   */\n      dup1\n        /* \"#utility.yul\":35979:35988   */\n      not\n        /* \"#utility.yul\":35972:35977   */\n      dup5\n        /* \"#utility.yul\":35968:35989   */\n      and\n        /* \"#utility.yul\":35959:35989   */\n      swap4\n      pop\n        /* \"#utility.yul\":36032:36036   */\n      dup1\n        /* \"#utility.yul\":36022:36030   */\n      dup7\n        /* \"#utility.yul\":36018:36037   */\n      and\n        /* \"#utility.yul\":36011:36016   */\n      dup5\n        /* \"#utility.yul\":36008:36038   */\n      or\n        /* \"#utility.yul\":35998:36038   */\n      swap3\n      pop\n        /* \"#utility.yul\":35727:36044   */\n      pop\n      pop\n        /* \"#utility.yul\":35651:36044   */\n      swap4\n      swap3\n      pop\n      pop\n      pop\n      jump\t// out\n        /* \"#utility.yul\":36050:36192   */\n    tag_361:\n        /* \"#utility.yul\":36100:36109   */\n      0x00\n        /* \"#utility.yul\":36133:36186   */\n      tag_706\n        /* \"#utility.yul\":36151:36185   */\n      tag_707\n        /* \"#utility.yul\":36160:36184   */\n      tag_708\n        /* \"#utility.yul\":36178:36183   */\n      dup5\n        /* \"#utility.yul\":36160:36184   */\n      tag_272\n      jump\t// in\n    tag_708:\n        /* \"#utility.yul\":36151:36185   */\n      tag_286\n      jump\t// in\n    tag_707:\n        /* \"#utility.yul\":36133:36186   */\n      tag_272\n      jump\t// in\n    tag_706:\n        /* \"#utility.yul\":36120:36186   */\n      swap1\n      pop\n        /* \"#utility.yul\":36050:36192   */\n      swap2\n      swap1\n      pop\n      jump\t// out\n        /* \"#utility.yul\":36198:36273   */\n    tag_362:\n        /* \"#utility.yul\":36241:36244   */\n      0x00\n        /* \"#utility.yul\":36262:36267   */\n      dup2\n        /* \"#utility.yul\":36255:36267   */\n      swap1\n      pop\n        /* \"#utility.yul\":36198:36273   */\n      swap2\n      swap1\n      pop\n      jump\t// out\n        /* \"#utility.yul\":36279:36548   */\n    tag_363:\n        /* \"#utility.yul\":36389:36428   */\n      tag_711\n        /* \"#utility.yul\":36420:36427   */\n      dup4\n        /* \"#utility.yul\":36389:36428   */\n      tag_361\n      jump\t// in\n    tag_711:\n        /* \"#utility.yul\":36450:36541   */\n      tag_712\n        /* \"#utility.yul\":36499:36540   */\n      tag_713\n        /* \"#utility.yul\":36523:36539   */\n      dup3\n        /* \"#utility.yul\":36499:36540   */\n      tag_362\n      jump\t// in\n    tag_713:\n        /* \"#utility.yul\":36491:36497   */\n      dup5\n        /* \"#utility.yul\":36484:36488   */\n      dup5\n        /* \"#utility.yul\":36478:36489   */\n      sload\n        /* \"#utility.yul\":36450:36541   */\n      tag_360\n      jump\t// in\n    tag_712:\n        /* \"#utility.yul\":36444:36448   */\n      dup3\n        /* \"#utility.yul\":36437:36542   */\n      sstore\n        /* \"#utility.yul\":36355:36548   */\n      pop\n        /* \"#utility.yul\":36279:36548   */\n      pop\n      pop\n      pop\n      jump\t// out\n        /* \"#utility.yul\":36554:36627   */\n    tag_364:\n        /* \"#utility.yul\":36599:36602   */\n      0x00\n        /* \"#utility.yul\":36554:36627   */\n      swap1\n      jump\t// out\n        /* \"#utility.yul\":36633:36822   */\n    tag_365:\n        /* \"#utility.yul\":36710:36742   */\n      tag_716\n      tag_364\n      jump\t// in\n    tag_716:\n        /* \"#utility.yul\":36751:36816   */\n      tag_717\n        /* \"#utility.yul\":36809:36815   */\n      dup2\n        /* \"#utility.yul\":36801:36807   */\n      dup5\n        /* \"#utility.yul\":36795:36799   */\n      dup5\n        /* \"#utility.yul\":36751:36816   */\n      tag_363\n      jump\t// in\n    tag_717:\n        /* \"#utility.yul\":36686:36822   */\n      pop\n        /* \"#utility.yul\":36633:36822   */\n      pop\n      pop\n      jump\t// out\n        /* \"#utility.yul\":36828:37014   */\n    tag_366:\n        /* \"#utility.yul\":36888:37008   */\n    tag_719:\n        /* \"#utility.yul\":36905:36908   */\n      dup2\n        /* \"#utility.yul\":36898:36903   */\n      dup2\n        /* \"#utility.yul\":36895:36909   */\n      lt\n        /* \"#utility.yul\":36888:37008   */\n      iszero\n      tag_721\n      jumpi\n        /* \"#utility.yul\":36959:36998   */\n      tag_722\n        /* \"#utility.yul\":36996:36997   */\n      0x00\n        /* \"#utility.yul\":36989:36994   */\n      dup3\n        /* \"#utility.yul\":36959:36998   */\n      tag_365\n      jump\t// in\n    tag_722:\n        /* \"#utility.yul\":36932:36933   */\n      0x01\n        /* \"#utility.yul\":36925:36930   */\n      dup2\n        /* \"#utility.yul\":36921:36934   */\n      add\n        /* \"#utility.yul\":36912:36934   */\n      swap1\n      pop\n        /* \"#utility.yul\":36888:37008   */\n      jump(tag_719)\n    tag_721:\n        /* \"#utility.yul\":36828:37014   */\n      pop\n      pop\n      jump\t// out\n        /* \"#utility.yul\":37020:37563   */\n    tag_367:\n        /* \"#utility.yul\":37121:37123   */\n      0x1f\n        /* \"#utility.yul\":37116:37119   */\n      dup3\n        /* \"#utility.yul\":37113:37124   */\n      gt\n        /* \"#utility.yul\":37110:37556   */\n      iszero\n      tag_724\n      jumpi\n        /* \"#utility.yul\":37155:37193   */\n      tag_725\n        /* \"#utility.yul\":37187:37192   */\n      dup2\n        /* \"#utility.yul\":37155:37193   */\n      tag_357\n      jump\t// in\n    tag_725:\n        /* \"#utility.yul\":37239:37268   */\n      tag_726\n        /* \"#utility.yul\":37257:37267   */\n      dup5\n        /* \"#utility.yul\":37239:37268   */\n      tag_358\n      jump\t// in\n    tag_726:\n        /* \"#utility.yul\":37229:37237   */\n      dup2\n        /* \"#utility.yul\":37225:37269   */\n      add\n        /* \"#utility.yul\":37422:37424   */\n      0x20\n        /* \"#utility.yul\":37410:37420   */\n      dup6\n        /* \"#utility.yul\":37407:37425   */\n      lt\n        /* \"#utility.yul\":37404:37453   */\n      iszero\n      tag_727\n      jumpi\n        /* \"#utility.yul\":37443:37451   */\n      dup2\n        /* \"#utility.yul\":37428:37451   */\n      swap1\n      pop\n        /* \"#utility.yul\":37404:37453   */\n    tag_727:\n        /* \"#utility.yul\":37466:37546   */\n      tag_728\n        /* \"#utility.yul\":37522:37544   */\n      tag_729\n        /* \"#utility.yul\":37540:37543   */\n      dup6\n        /* \"#utility.yul\":37522:37544   */\n      tag_358\n      jump\t// in\n    tag_729:\n        /* \"#utility.yul\":37512:37520   */\n      dup4\n        /* \"#utility.yul\":37508:37545   */\n      add\n        /* \"#utility.yul\":37495:37506   */\n      dup3\n        /* \"#utility.yul\":37466:37546   */\n      tag_366\n      jump\t// in\n    tag_728:\n        /* \"#utility.yul\":37125:37556   */\n      pop\n      pop\n        /* \"#utility.yul\":37110:37556   */\n    tag_724:\n        /* \"#utility.yul\":37020:37563   */\n      pop\n      pop\n      pop\n      jump\t// out\n        /* \"#utility.yul\":37569:37686   */\n    tag_368:\n        /* \"#utility.yul\":37623:37631   */\n      0x00\n        /* \"#utility.yul\":37673:37678   */\n      dup3\n        /* \"#utility.yul\":37667:37671   */\n      dup3\n        /* \"#utility.yul\":37663:37679   */\n      shr\n        /* \"#utility.yul\":37642:37679   */\n      swap1\n      pop\n        /* \"#utility.yul\":37569:37686   */\n      swap3\n      swap2\n      pop\n      pop\n      jump\t// out\n        /* \"#utility.yul\":37692:37861   */\n    tag_369:\n        /* \"#utility.yul\":37736:37742   */\n      0x00\n        /* \"#utility.yul\":37769:37820   */\n      tag_732\n        /* \"#utility.yul\":37817:37818   */\n      0x00\n        /* \"#utility.yul\":37813:37819   */\n      not\n        /* \"#utility.yul\":37805:37810   */\n      dup5\n        /* \"#utility.yul\":37802:37803   */\n      0x08\n        /* \"#utility.yul\":37798:37811   */\n      mul\n        /* \"#utility.yul\":37769:37820   */\n      tag_368\n      jump\t// in\n    tag_732:\n        /* \"#utility.yul\":37765:37821   */\n      not\n        /* \"#utility.yul\":37850:37854   */\n      dup1\n        /* \"#utility.yul\":37844:37848   */\n      dup4\n        /* \"#utility.yul\":37840:37855   */\n      and\n        /* \"#utility.yul\":37830:37855   */\n      swap2\n      pop\n        /* \"#utility.yul\":37743:37861   */\n      pop\n        /* \"#utility.yul\":37692:37861   */\n      swap3\n      swap2\n      pop\n      pop\n      jump\t// out\n        /* \"#utility.yul\":37866:38161   */\n    tag_370:\n        /* \"#utility.yul\":37942:37946   */\n      0x00\n        /* \"#utility.yul\":38088:38117   */\n      tag_734\n        /* \"#utility.yul\":38113:38116   */\n      dup4\n        /* \"#utility.yul\":38107:38111   */\n      dup4\n        /* \"#utility.yul\":38088:38117   */\n      tag_369\n      jump\t// in\n    tag_734:\n        /* \"#utility.yul\":38080:38117   */\n      swap2\n      pop\n        /* \"#utility.yul\":38150:38153   */\n      dup3\n        /* \"#utility.yul\":38147:38148   */\n      0x02\n        /* \"#utility.yul\":38143:38154   */\n      mul\n        /* \"#utility.yul\":38137:38141   */\n      dup3\n        /* \"#utility.yul\":38134:38155   */\n      or\n        /* \"#utility.yul\":38126:38155   */\n      swap1\n      pop\n        /* \"#utility.yul\":37866:38161   */\n      swap3\n      swap2\n      pop\n      pop\n      jump\t// out\n        /* \"#utility.yul\":38166:39561   */\n    tag_190:\n        /* \"#utility.yul\":38283:38320   */\n      tag_736\n        /* \"#utility.yul\":38316:38319   */\n      dup3\n        /* \"#utility.yul\":38283:38320   */\n      tag_277\n      jump\t// in\n    tag_736:\n        /* \"#utility.yul\":38385:38403   */\n      0xffffffffffffffff\n        /* \"#utility.yul\":38377:38383   */\n      dup2\n        /* \"#utility.yul\":38374:38404   */\n      gt\n        /* \"#utility.yul\":38371:38427   */\n      iszero\n      tag_737\n      jumpi\n        /* \"#utility.yul\":38407:38425   */\n      tag_738\n      tag_299\n      jump\t// in\n    tag_738:\n        /* \"#utility.yul\":38371:38427   */\n    tag_737:\n        /* \"#utility.yul\":38451:38489   */\n      tag_739\n        /* \"#utility.yul\":38483:38487   */\n      dup3\n        /* \"#utility.yul\":38477:38488   */\n      sload\n        /* \"#utility.yul\":38451:38489   */\n      tag_78\n      jump\t// in\n    tag_739:\n        /* \"#utility.yul\":38536:38603   */\n      tag_740\n        /* \"#utility.yul\":38596:38602   */\n      dup3\n        /* \"#utility.yul\":38588:38594   */\n      dup3\n        /* \"#utility.yul\":38582:38586   */\n      dup6\n        /* \"#utility.yul\":38536:38603   */\n      tag_367\n      jump\t// in\n    tag_740:\n        /* \"#utility.yul\":38630:38631   */\n      0x00\n        /* \"#utility.yul\":38654:38658   */\n      0x20\n        /* \"#utility.yul\":38641:38658   */\n      swap1\n      pop\n        /* \"#utility.yul\":38686:38688   */\n      0x1f\n        /* \"#utility.yul\":38678:38684   */\n      dup4\n        /* \"#utility.yul\":38675:38689   */\n      gt\n        /* \"#utility.yul\":38703:38704   */\n      0x01\n        /* \"#utility.yul\":38698:39316   */\n      dup2\n      eq\n      tag_742\n      jumpi\n        /* \"#utility.yul\":39360:39361   */\n      0x00\n        /* \"#utility.yul\":39377:39383   */\n      dup5\n        /* \"#utility.yul\":39374:39451   */\n      iszero\n      tag_743\n      jumpi\n        /* \"#utility.yul\":39426:39435   */\n      dup3\n        /* \"#utility.yul\":39421:39424   */\n      dup8\n        /* \"#utility.yul\":39417:39436   */\n      add\n        /* \"#utility.yul\":39411:39437   */\n      mload\n        /* \"#utility.yul\":39402:39437   */\n      swap1\n      pop\n        /* \"#utility.yul\":39374:39451   */\n    tag_743:\n        /* \"#utility.yul\":39477:39544   */\n      tag_744\n        /* \"#utility.yul\":39537:39543   */\n      dup6\n        /* \"#utility.yul\":39530:39535   */\n      dup3\n        /* \"#utility.yul\":39477:39544   */\n      tag_370\n      jump\t// in\n    tag_744:\n        /* \"#utility.yul\":39471:39475   */\n      dup7\n        /* \"#utility.yul\":39464:39545   */\n      sstore\n        /* \"#utility.yul\":39333:39555   */\n      pop\n        /* \"#utility.yul\":38668:39555   */\n      jump(tag_741)\n        /* \"#utility.yul\":38698:39316   */\n    tag_742:\n        /* \"#utility.yul\":38750:38754   */\n      0x1f\n        /* \"#utility.yul\":38746:38755   */\n      not\n        /* \"#utility.yul\":38738:38744   */\n      dup5\n        /* \"#utility.yul\":38734:38756   */\n      and\n        /* \"#utility.yul\":38784:38821   */\n      tag_745\n        /* \"#utility.yul\":38816:38820   */\n      dup7\n        /* \"#utility.yul\":38784:38821   */\n      tag_357\n      jump\t// in\n    tag_745:\n        /* \"#utility.yul\":38843:38844   */\n      0x00\n        /* \"#utility.yul\":38857:39065   */\n    tag_746:\n        /* \"#utility.yul\":38871:38878   */\n      dup3\n        /* \"#utility.yul\":38868:38869   */\n      dup2\n        /* \"#utility.yul\":38865:38879   */\n      lt\n        /* \"#utility.yul\":38857:39065   */\n      iszero\n      tag_748\n      jumpi\n        /* \"#utility.yul\":38950:38959   */\n      dup5\n        /* \"#utility.yul\":38945:38948   */\n      dup10\n        /* \"#utility.yul\":38941:38960   */\n      add\n        /* \"#utility.yul\":38935:38961   */\n      mload\n        /* \"#utility.yul\":38927:38933   */\n      dup3\n        /* \"#utility.yul\":38920:38962   */\n      sstore\n        /* \"#utility.yul\":39001:39002   */\n      0x01\n        /* \"#utility.yul\":38993:38999   */\n      dup3\n        /* \"#utility.yul\":38989:39003   */\n      add\n        /* \"#utility.yul\":38979:39003   */\n      swap2\n      pop\n        /* \"#utility.yul\":39048:39050   */\n      0x20\n        /* \"#utility.yul\":39037:39046   */\n      dup6\n        /* \"#utility.yul\":39033:39051   */\n      add\n        /* \"#utility.yul\":39020:39051   */\n      swap5\n      pop\n        /* \"#utility.yul\":38894:38898   */\n      0x20\n        /* \"#utility.yul\":38891:38892   */\n      dup2\n        /* \"#utility.yul\":38887:38899   */\n      add\n        /* \"#utility.yul\":38882:38899   */\n      swap1\n      pop\n        /* \"#utility.yul\":38857:39065   */\n      jump(tag_746)\n    tag_748:\n        /* \"#utility.yul\":39093:39099   */\n      dup7\n        /* \"#utility.yul\":39084:39091   */\n      dup4\n        /* \"#utility.yul\":39081:39100   */\n      lt\n        /* \"#utility.yul\":39078:39257   */\n      iszero\n      tag_749\n      jumpi\n        /* \"#utility.yul\":39151:39160   */\n      dup5\n        /* \"#utility.yul\":39146:39149   */\n      dup10\n        /* \"#utility.yul\":39142:39161   */\n      add\n        /* \"#utility.yul\":39136:39162   */\n      mload\n        /* \"#utility.yul\":39194:39242   */\n      tag_750\n        /* \"#utility.yul\":39236:39240   */\n      0x1f\n        /* \"#utility.yul\":39228:39234   */\n      dup10\n        /* \"#utility.yul\":39224:39241   */\n      and\n        /* \"#utility.yul\":39213:39222   */\n      dup3\n        /* \"#utility.yul\":39194:39242   */\n      tag_369\n      jump\t// in\n    tag_750:\n        /* \"#utility.yul\":39186:39192   */\n      dup4\n        /* \"#utility.yul\":39179:39243   */\n      sstore\n        /* \"#utility.yul\":39101:39257   */\n      pop\n        /* \"#utility.yul\":39078:39257   */\n    tag_749:\n        /* \"#utility.yul\":39303:39304   */\n      0x01\n        /* \"#utility.yul\":39299:39300   */\n      0x02\n        /* \"#utility.yul\":39291:39297   */\n      dup9\n        /* \"#utility.yul\":39287:39301   */\n      mul\n        /* \"#utility.yul\":39283:39305   */\n      add\n        /* \"#utility.yul\":39277:39281   */\n      dup9\n        /* \"#utility.yul\":39270:39306   */\n      sstore\n        /* \"#utility.yul\":38705:39316   */\n      pop\n      pop\n      pop\n        /* \"#utility.yul\":38668:39555   */\n    tag_741:\n      pop\n        /* \"#utility.yul\":38258:39561   */\n      pop\n      pop\n      pop\n        /* \"#utility.yul\":38166:39561   */\n      pop\n      pop\n      jump\t// out\n        /* \"#utility.yul\":39567:39990   */\n    tag_193:\n        /* \"#utility.yul\":39708:39712   */\n      0x00\n        /* \"#utility.yul\":39746:39748   */\n      0x40\n        /* \"#utility.yul\":39735:39744   */\n      dup3\n        /* \"#utility.yul\":39731:39749   */\n      add\n        /* \"#utility.yul\":39723:39749   */\n      swap1\n      pop\n        /* \"#utility.yul\":39759:39830   */\n      tag_752\n        /* \"#utility.yul\":39827:39828   */\n      0x00\n        /* \"#utility.yul\":39816:39825   */\n      dup4\n        /* \"#utility.yul\":39812:39829   */\n      add\n        /* \"#utility.yul\":39803:39809   */\n      dup6\n        /* \"#utility.yul\":39759:39830   */\n      tag_282\n      jump\t// in\n    tag_752:\n        /* \"#utility.yul\":39877:39886   */\n      dup2\n        /* \"#utility.yul\":39871:39875   */\n      dup2\n        /* \"#utility.yul\":39867:39887   */\n      sub\n        /* \"#utility.yul\":39862:39864   */\n      0x20\n        /* \"#utility.yul\":39851:39860   */\n      dup4\n        /* \"#utility.yul\":39847:39865   */\n      add\n        /* \"#utility.yul\":39840:39888   */\n      mstore\n        /* \"#utility.yul\":39905:39983   */\n      tag_753\n        /* \"#utility.yul\":39978:39982   */\n      dup2\n        /* \"#utility.yul\":39969:39975   */\n      dup5\n        /* \"#utility.yul\":39905:39983   */\n      tag_281\n      jump\t// in\n    tag_753:\n        /* \"#utility.yul\":39897:39983   */\n      swap1\n      pop\n        /* \"#utility.yul\":39567:39990   */\n      swap4\n      swap3\n      pop\n      pop\n      pop\n      jump\t// out\n\n    auxdata: 0xa26469706673582212200a435704388df5b293906fbe415e20444daaf360dffedec028390a198c61403c64736f6c63430008160033\n}\n",
				"bytecode": {
					"linkReferences": {},
					"object": "608060405234801562000010575f80fd5b5060405162002ce338038062002ce3833981810160405281019062000036919062000202565b805f73ffffffffffffffffffffffffffffffffffffffff168173ffffffffffffffffffffffffffffffffffffffff1603620000aa575f6040517f1e4fbdf7000000000000000000000000000000000000000000000000000000008152600401620000a1919062000243565b60405180910390fd5b620000bb81620000dc60201b60201c565b505f8060146101000a81548160ff021916908315150217905550506200025e565b5f805f9054906101000a900473ffffffffffffffffffffffffffffffffffffffff169050815f806101000a81548173ffffffffffffffffffffffffffffffffffffffff021916908373ffffffffffffffffffffffffffffffffffffffff1602179055508173ffffffffffffffffffffffffffffffffffffffff168173ffffffffffffffffffffffffffffffffffffffff167f8be0079c531659141344cd1fd0a4f28419497f9722a3daafe3b4186f6b6457e060405160405180910390a35050565b5f80fd5b5f73ffffffffffffffffffffffffffffffffffffffff82169050919050565b5f620001cc82620001a1565b9050919050565b620001de81620001c0565b8114620001e9575f80fd5b50565b5f81519050620001fc81620001d3565b92915050565b5f602082840312156200021a57620002196200019d565b5b5f6200022984828501620001ec565b91505092915050565b6200023d81620001c0565b82525050565b5f602082019050620002585f83018462000232565b92915050565b612a77806200026c5f395ff3fe608060405234801561000f575f80fd5b50600436106100f3575f3560e01c80638da5cb5b11610095578063da35c66411610064578063da35c66414610241578063f2fde38b1461025f578063f3cdcd1e1461027b578063f5c9d69e14610285576100f3565b80638da5cb5b146101b5578063a843c51f146101d3578063c7f758a8146101ef578063d7e82e2e14610225576100f3565b8063649f89a5116100d1578063649f89a514610169578063715018a6146101855780637afdf93e1461018f5780638c7d69e414610199576100f3565b8063013cf08b146100f75780632b7ac3f31461012d5780635c975abb1461014b575b5f80fd5b610111600480360381019061010c91906116e2565b6102b5565b60405161012497969594939291906117d8565b60405180910390f35b610135610385565b60405161014291906118c6565b60405180910390f35b6101536103aa565b60405161016091906118df565b60405180910390f35b610183600480360381019061017e91906116e2565b6103bf565b005b61018d6105ab565b005b6101976105be565b005b6101b360048036038101906101ae9190611ae5565b6105d0565b005b6101bd610b2d565b6040516101ca9190611bb7565b60405180910390f35b6101ed60048036038101906101e89190611bfa565b610b54565b005b610209600480360381019061020491906116e2565b610b68565b60405161021c9796959493929190611c25565b60405180910390f35b61023f600480360381019061023a9190611d49565b610c55565b005b610249610dff565b6040516102569190611ddc565b60405180910390f35b61027960048036038101906102749190611bfa565b610e05565b005b610283610e89565b005b61029f600480360381019061029a9190611e37565b610e9b565b6040516102ac91906118df565b60405180910390f35b6002602052805f5260405f205f91509050805f0154908060010180546102da90611eca565b80601f016020809104026020016040519081016040528092919081815260200182805461030690611eca565b80156103515780601f1061032857610100808354040283529160200191610351565b820191905f5260205f20905b81548152906001019060200180831161033457829003601f168201915b505050505090806004015490806005015490806006015490806007015f9054906101000a900460ff16908060080154905087565b60015f9054906101000a900473ffffffffffffffffffffffffffffffffffffffff1681565b5f8060149054906101000a900460ff16905090565b5f60025f8381526020019081526020015f20905080600501544211610419576040517f08c379a000000000000000000000000000000000000000000000000000000000815260040161041090611f44565b60405180910390fd5b806007015f9054906101000a900460ff161561046a576040517f08c379a000000000000000000000000000000000000000000000000000000000815260040161046190611fd2565b60405180910390fd5b6001816007015f6101000a81548160ff0219169083151502179055505f816002015f801515151581526020019081526020015f2054826002015f60011515151581526020019081526020015f20546104c2919061201d565b90505f8082111561053457826006015482846002015f801515151581526020019081526020015f2054856002015f60011515151581526020019081526020015f205461050e919061201d565b610518919061201d565b6064846105259190612050565b61052f91906120be565b101590505b5f836002015f801515151581526020019081526020015f2054846002015f60011515151581526020019081526020015f20541190507f367048e102ba4927ccde851f5a4b4a5c93996244e9535a4eaa35b93994f2c5b685838360405161059c939291906120ee565b60405180910390a15050505050565b6105b3611351565b6105bc5f6113d8565b565b6105c6611351565b6105ce611499565b565b6105d86114fa565b5f60025f8881526020019081526020015f2090505f801b815f015403610633576040517f08c379a000000000000000000000000000000000000000000000000000000000815260040161062a9061216d565b60405180910390fd5b806007015f9054906101000a900460ff1615610684576040517f08c379a000000000000000000000000000000000000000000000000000000000815260040161067b906121fb565b60405180910390fd5b80600401544210156106cb576040517f08c379a00000000000000000000000000000000000000000000000000000000081526004016106c290612263565b60405180910390fd5b8060050154421115610712576040517f08c379a0000000000000000000000000000000000000000000000000000000008152600401610709906122cb565b60405180910390fd5b806003015f8481526020019081526020015f205f9054906101000a900460ff1615610772576040517f08c379a000000000000000000000000000000000000000000000000000000000815260040161076990612333565b60405180910390fd5b6107bd818686808060200260200160405190810160405280939291908181526020018383602002808284375f81840152601f19601f820116905080830192505050505050508561153b565b6107f3576040517fb05e92fa00000000000000000000000000000000000000000000000000000000815260040160405180910390fd5b6008825114610837576040517f08c379a000000000000000000000000000000000000000000000000000000000815260040161082e9061239b565b60405180910390fd5b5f6040518060400160405280845f81518110610856576108556123b9565b5b6020026020010151815260200184600181518110610877576108766123b9565b5b602002602001015181525090505f60405180604001604052806040518060400160405280876002815181106108af576108ae6123b9565b5b60200260200101518152602001876003815181106108d0576108cf6123b9565b5b602002602001015181525081526020016040518060400160405280876004815181106108ff576108fe6123b9565b5b60200260200101518152602001876005815181106109205761091f6123b9565b5b602002602001015181525081525090505f6040518060400160405280866006815181106109505761094f6123b9565b5b6020026020010151815260200186600781518110610971576109706123b9565b5b602002602001015181525090505f6040518060400160405280866008015481526020013373ffffffffffffffffffffffffffffffffffffffff16815250905060015f9054906101000a900473ffffffffffffffffffffffffffffffffffffffff1673ffffffffffffffffffffffffffffffffffffffff1663f5c9d69e858585856040518563ffffffff1660e01b8152600401610a109493929190612581565b602060405180830381865afa158015610a2b573d5f803e3d5ffd5b505050506040513d601f19601f82011682018060405250810190610a4f91906125da565b610a8e576040517f08c379a0000000000000000000000000000000000000000000000000000000008152600401610a859061264f565b60405180910390fd5b6001856002015f8c1515151581526020019081526020015f205f828254610ab5919061201d565b925050819055506001856003015f8981526020019081526020015f205f6101000a81548160ff0219169083151502179055507f25375b46ce887ef9d462ae9772ab4270f5c3eb503d1194f5af15c0c7ccae0dc08b8b604051610b1892919061266d565b60405180910390a15050505050505050505050565b5f805f9054906101000a900473ffffffffffffffffffffffffffffffffffffffff16905090565b610b5c611351565b610b6581610e05565b50565b5f60605f805f805f8060025f8a81526020019081526020015f209050805f0154816001018260040154836005015484600601548560080154866007015f9054906101000a900460ff16858054610bbd90611eca565b80601f0160208091040260200160405190810160405280929190818152602001828054610be990611eca565b8015610c345780601f10610c0b57610100808354040283529160200191610c34565b820191905f5260205f20905b815481529060010190602001808311610c1757829003601f168201915b50505050509550975097509750975097509750975050919395979092949650565b610c5d611351565b5f8311610c9f576040517f08c379a0000000000000000000000000000000000000000000000000000000008152600401610c9690612704565b60405180910390fd5b5f8210158015610cb0575060648211155b610cef576040517f08c379a0000000000000000000000000000000000000000000000000000000008152600401610ce690612792565b60405180910390fd5b600160035f828254610d01919061201d565b925050819055508360025f60035481526020019081526020015f205f01819055508460025f60035481526020019081526020015f206001019081610d459190612944565b504260025f60035481526020019081526020015f20600401819055508242610d6d919061201d565b60025f60035481526020019081526020015f20600501819055508160025f60035481526020019081526020015f20600601819055508060025f60035481526020019081526020015f20600801819055507ff970aa486598017b8116c2beb18c50d4584ecbc3c688817f59b26796725f31bf60035486604051610df0929190612a13565b60405180910390a15050505050565b60035481565b610e0d611351565b5f73ffffffffffffffffffffffffffffffffffffffff168173ffffffffffffffffffffffffffffffffffffffff1603610e7d575f6040517f1e4fbdf7000000000000000000000000000000000000000000000000000000008152600401610e749190611bb7565b60405180910390fd5b610e86816113d8565b50565b610e91611351565b610e99611553565b565b5f61130b565b7f30644e72e131a029b85045b68181585d97816a916871ca8d3c208c16d87cfd478110610ed0575f805260205ff35b50565b5f60405183815284602082015285604082015260408160608360076107d05a03fa915081610f03575f805260205ff35b825160408201526020830151606082015260408360808360066107d05a03fa915081610f31575f805260205ff35b505050505050565b5f608086015f87017f1304bf22ef56518f9cc5c488b6c5ae975a5d589ad9db095a096404587de1516981527f28cd6f657b6579272838bc93984217616aa75478216d20ec00bf1337ff825f1c6020820152610fd95f8801357f2a6af62e9bc14c42a4997cee7968eafa94c4407805b8cb276ad1009e64da69457f2621b3ff65f7221a3f86d007638cf6dd69d6f50ea4b70ee0a35fefe56045097c84610ed3565b61102960208801357f2951e735e80a08a1502af7304af36e7b00b71740133b83401cffb2bb3b2a84b67f0e935bd715d989ceb7939e82111a2ce8d69c6e5d6c2a6ff8bd6f13973031755e84610ed3565b833582527f30644e72e131a029b85045b68181585d97816a916871ca8d3c208c16d87cfd4760208501357f30644e72e131a029b85045b68181585d97816a916871ca8d3c208c16d87cfd4703066020830152843560408301526020850135606083015260408501356080830152606085013560a08301527f23441971e1e09b7ae39945bd8b8fd751de1b3caa93d920c7214c39c6b178b43d60c08301527f1f44d4c10c85881e4d99891a828d432d8066ae53a68c982ce2491416341174b060e08301527f02009be0262b5949ad674fbe43cc4eb6f64ef02e1c89fc3dc507e84087e4e4546101008301527f0ad54a1eba17eab817d3eedf367f834b95814960fcbbb4ffac7e1cafda748afb6101208301527f2afe4315d7d4bc43443ff2f9781b31ecbd94a85c15f38d5e49ecba8fabe118466101408301527f1fde6c738f466e0d30797d5e68066264f1429c9a1a507cb3a6254bde4efb5f096101608301525f88015161018083015260205f018801516101a08301527f198e9393920d483a7260bfb731fb5d25f1aa493335a9e71297e485b7aef312c26101c08301527f1800deef121f1e76426a00665e5c4479674322d4f75edadd46debd5cd992f6ed6101e08301527f090689d0585ff075ec9e99ad690c3395bc4b313370b38ef355acdadcd122975b6102008301527f12c85ea5db8c6deb4aab71808dcb408fe3d1e7690c43d37b4ce6cc0166fa7daa610220830152853561024083015260208601356102608301527f0e9c1d942717c6cb9136075c57dae34d309e93e6c5419c52db2e06f8b6faebf96102808301527f09da7c3fdf3cb5b1373af4312efc360f95971044f95d9934ebd057c8517c5e126102a08301527f0a45d3d38b9f90bbf51b9dd1031b049e46fbd4456714fb4a518dd9a42d279d606102c08301527f25473e2f0ef48559fb0457c572fbe5357c723740ee2f1e9483c87a2a2c6558016102e08301526020826103008460086107d05a03fa82518116935050505095945050505050565b60405161038081016040526113225f840135610ea1565b61132f6020840135610ea1565b61133c6040840135610ea1565b611349818486888a610f39565b805f5260205ff35b6113596115b5565b73ffffffffffffffffffffffffffffffffffffffff16611377610b2d565b73ffffffffffffffffffffffffffffffffffffffff16146113d65761139a6115b5565b6040517f118cdaa70000000000000000000000000000000000000000000000000000000081526004016113cd9190611bb7565b60405180910390fd5b565b5f805f9054906101000a900473ffffffffffffffffffffffffffffffffffffffff169050815f806101000a81548173ffffffffffffffffffffffffffffffffffffffff021916908373ffffffffffffffffffffffffffffffffffffffff1602179055508173ffffffffffffffffffffffffffffffffffffffff168173ffffffffffffffffffffffffffffffffffffffff167f8be0079c531659141344cd1fd0a4f28419497f9722a3daafe3b4186f6b6457e060405160405180910390a35050565b6114a16115bc565b5f8060146101000a81548160ff0219169083151502179055507f5db9ee0a495bf2e6ff9c91a7834c1ba4fdd244a5e8aa4e537bd38aeae4b073aa6114e36115b5565b6040516114f09190611bb7565b60405180910390a1565b6115026103aa565b15611539576040517fd93c066500000000000000000000000000000000000000000000000000000000815260040160405180910390fd5b565b5f61154a83855f0154846115fc565b90509392505050565b61155b6114fa565b60015f60146101000a81548160ff0219169083151502179055507f62e78cea01bee320cd4e420270b5ea74000d11b0c9f74754ebdbfc544b05a25861159e6115b5565b6040516115ab9190611bb7565b60405180910390a1565b5f33905090565b6115c46103aa565b6115fa576040517f8dfc202b00000000000000000000000000000000000000000000000000000000815260040160405180910390fd5b565b5f826116088584611612565b1490509392505050565b5f808290505f5b84518110156116555761164682868381518110611639576116386123b9565b5b6020026020010151611660565b91508080600101915050611619565b508091505092915050565b5f81831061167757611672828461168a565b611682565b611681838361168a565b5b905092915050565b5f825f528160205260405f20905092915050565b5f604051905090565b5f80fd5b5f80fd5b5f819050919050565b6116c1816116af565b81146116cb575f80fd5b50565b5f813590506116dc816116b8565b92915050565b5f602082840312156116f7576116f66116a7565b5b5f611704848285016116ce565b91505092915050565b5f819050919050565b61171f8161170d565b82525050565b5f81519050919050565b5f82825260208201905092915050565b5f5b8381101561175c578082015181840152602081019050611741565b5f8484015250505050565b5f601f19601f8301169050919050565b5f61178182611725565b61178b818561172f565b935061179b81856020860161173f565b6117a481611767565b840191505092915050565b6117b8816116af565b82525050565b5f8115159050919050565b6117d2816117be565b82525050565b5f60e0820190506117eb5f83018a611716565b81810360208301526117fd8189611777565b905061180c60408301886117af565b61181960608301876117af565b61182660808301866117af565b61183360a08301856117c9565b61184060c08301846117af565b98975050505050505050565b5f73ffffffffffffffffffffffffffffffffffffffff82169050919050565b5f819050919050565b5f61188e6118896118848461184c565b61186b565b61184c565b9050919050565b5f61189f82611874565b9050919050565b5f6118b082611895565b9050919050565b6118c0816118a6565b82525050565b5f6020820190506118d95f8301846118b7565b92915050565b5f6020820190506118f25f8301846117c9565b92915050565b611901816117be565b811461190b575f80fd5b50565b5f8135905061191c816118f8565b92915050565b5f80fd5b5f80fd5b5f80fd5b5f8083601f84011261194357611942611922565b5b8235905067ffffffffffffffff8111156119605761195f611926565b5b60208301915083602082028301111561197c5761197b61192a565b5b9250929050565b61198c8161170d565b8114611996575f80fd5b50565b5f813590506119a781611983565b92915050565b7f4e487b71000000000000000000000000000000000000000000000000000000005f52604160045260245ffd5b6119e382611767565b810181811067ffffffffffffffff82111715611a0257611a016119ad565b5b80604052505050565b5f611a1461169e565b9050611a2082826119da565b919050565b5f67ffffffffffffffff821115611a3f57611a3e6119ad565b5b602082029050602081019050919050565b5f611a62611a5d84611a25565b611a0b565b90508083825260208201905060208402830185811115611a8557611a8461192a565b5b835b81811015611aae5780611a9a88826116ce565b845260208401935050602081019050611a87565b5050509392505050565b5f82601f830112611acc57611acb611922565b5b8135611adc848260208601611a50565b91505092915050565b5f805f805f8060a08789031215611aff57611afe6116a7565b5b5f611b0c89828a016116ce565b9650506020611b1d89828a0161190e565b955050604087013567ffffffffffffffff811115611b3e57611b3d6116ab565b5b611b4a89828a0161192e565b94509450506060611b5d89828a01611999565b925050608087013567ffffffffffffffff811115611b7e57611b7d6116ab565b5b611b8a89828a01611ab8565b9150509295509295509295565b5f611ba18261184c565b9050919050565b611bb181611b97565b82525050565b5f602082019050611bca5f830184611ba8565b92915050565b611bd981611b97565b8114611be3575f80fd5b50565b5f81359050611bf481611bd0565b92915050565b5f60208284031215611c0f57611c0e6116a7565b5b5f611c1c84828501611be6565b91505092915050565b5f60e082019050611c385f83018a611716565b8181036020830152611c4a8189611777565b9050611c5960408301886117af565b611c6660608301876117af565b611c7360808301866117af565b611c8060a08301856117af565b611c8d60c08301846117c9565b98975050505050505050565b5f80fd5b5f67ffffffffffffffff821115611cb757611cb66119ad565b5b611cc082611767565b9050602081019050919050565b828183375f83830152505050565b5f611ced611ce884611c9d565b611a0b565b905082815260208101848484011115611d0957611d08611c99565b5b611d14848285611ccd565b509392505050565b5f82601f830112611d3057611d2f611922565b5b8135611d40848260208601611cdb565b91505092915050565b5f805f805f60a08688031215611d6257611d616116a7565b5b5f86013567ffffffffffffffff811115611d7f57611d7e6116ab565b5b611d8b88828901611d1c565b9550506020611d9c88828901611999565b9450506040611dad888289016116ce565b9350506060611dbe888289016116ce565b9250506080611dcf888289016116ce565b9150509295509295909350565b5f602082019050611def5f8301846117af565b92915050565b5f81905082602060020282011115611e1057611e0f61192a565b5b92915050565b5f81905082604060020282011115611e3157611e3061192a565b5b92915050565b5f805f806101408587031215611e5057611e4f6116a7565b5b5f611e5d87828801611df5565b9450506040611e6e87828801611e16565b93505060c0611e7f87828801611df5565b925050610100611e9187828801611df5565b91505092959194509250565b7f4e487b71000000000000000000000000000000000000000000000000000000005f52602260045260245ffd5b5f6002820490506001821680611ee157607f821691505b602082108103611ef457611ef3611e9d565b5b50919050565b7f566f74696e6720706572696f64206973206e6f7420796574206f7665722e00005f82015250565b5f611f2e601e8361172f565b9150611f3982611efa565b602082019050919050565b5f6020820190508181035f830152611f5b81611f22565b9050919050565b7f566f74696e672068617320616c726561647920656e64656420666f72207468695f8201527f732070726f706f73616c2e000000000000000000000000000000000000000000602082015250565b5f611fbc602b8361172f565b9150611fc782611f62565b604082019050919050565b5f6020820190508181035f830152611fe981611fb0565b9050919050565b7f4e487b71000000000000000000000000000000000000000000000000000000005f52601160045260245ffd5b5f612027826116af565b9150612032836116af565b925082820190508082111561204a57612049611ff0565b5b92915050565b5f61205a826116af565b9150612065836116af565b9250828202612073816116af565b9150828204841483151761208a57612089611ff0565b5b5092915050565b7f4e487b71000000000000000000000000000000000000000000000000000000005f52601260045260245ffd5b5f6120c8826116af565b91506120d3836116af565b9250826120e3576120e2612091565b5b828204905092915050565b5f6060820190506121015f8301866117af565b61210e60208301856117c9565b61211b60408301846117c9565b949350505050565b7f496e76616c69642070726f706f73616c2e0000000000000000000000000000005f82015250565b5f61215760118361172f565b915061216282612123565b602082019050919050565b5f6020820190508181035f8301526121848161214b565b9050919050565b7f566f74696e672068617320656e64656420666f7220746869732070726f706f735f8201527f616c2e0000000000000000000000000000000000000000000000000000000000602082015250565b5f6121e560238361172f565b91506121f08261218b565b604082019050919050565b5f6020820190508181035f830152612212816121d9565b9050919050565b7f566f74696e67206e6f742079657420737461727465642e0000000000000000005f82015250565b5f61224d60178361172f565b915061225882612219565b602082019050919050565b5f6020820190508181035f83015261227a81612241565b9050919050565b7f566f74696e672074696d652068617320656e6465642e000000000000000000005f82015250565b5f6122b560168361172f565b91506122c082612281565b602082019050919050565b5f6020820190508181035f8301526122e2816122a9565b9050919050565b7f416c726561647920766f7465642e0000000000000000000000000000000000005f82015250565b5f61231d600e8361172f565b9150612328826122e9565b602082019050919050565b5f6020820190508181035f83015261234a81612311565b9050919050565b7f496e76616c69642070726f6f66000000000000000000000000000000000000005f82015250565b5f612385600d8361172f565b915061239082612351565b602082019050919050565b5f6020820190508181035f8301526123b281612379565b9050919050565b7f4e487b71000000000000000000000000000000000000000000000000000000005f52603260045260245ffd5b5f60029050919050565b5f81905092915050565b5f819050919050565b61240c816116af565b82525050565b5f61241d8383612403565b60208301905092915050565b5f602082019050919050565b61243e816123e6565b61244881846123f0565b9250612453826123fa565b805f5b8381101561248357815161246a8782612412565b965061247583612429565b925050600181019050612456565b505050505050565b5f60029050919050565b5f81905092915050565b5f819050919050565b5f81905092915050565b6124bb816123e6565b6124c581846124a8565b92506124d0826123fa565b805f5b838110156125005781516124e78782612412565b96506124f283612429565b9250506001810190506124d3565b505050505050565b5f61251383836124b2565b60408301905092915050565b5f602082019050919050565b6125348161248b565b61253e8184612495565b92506125498261249f565b805f5b838110156125795781516125608782612508565b965061256b8361251f565b92505060018101905061254c565b505050505050565b5f610140820190506125955f830187612435565b6125a2604083018661252b565b6125af60c0830185612435565b6125bd610100830184612435565b95945050505050565b5f815190506125d4816118f8565b92915050565b5f602082840312156125ef576125ee6116a7565b5b5f6125fc848285016125c6565b91505092915050565b7f4661696c6564207665726966792070726f6f66000000000000000000000000005f82015250565b5f61263960138361172f565b915061264482612605565b602082019050919050565b5f6020820190508181035f8301526126668161262d565b9050919050565b5f6040820190506126805f8301856117af565b61268d60208301846117c9565b9392505050565b7f4475726174696f6e2073686f756c642062652067726561746572207468616e205f8201527f7a65726f00000000000000000000000000000000000000000000000000000000602082015250565b5f6126ee60248361172f565b91506126f982612694565b604082019050919050565b5f6020820190508181035f83015261271b816126e2565b9050919050565b7f51756f72756d2073686f756c64206265206265747765656e203020616e6420315f8201527f3030000000000000000000000000000000000000000000000000000000000000602082015250565b5f61277c60228361172f565b915061278782612722565b604082019050919050565b5f6020820190508181035f8301526127a981612770565b9050919050565b5f819050815f5260205f209050919050565b5f6020601f8301049050919050565b5f82821b905092915050565b5f6008830261280c7fffffffffffffffffffffffffffffffffffffffffffffffffffffffffffffffff826127d1565b61281686836127d1565b95508019841693508086168417925050509392505050565b5f61284861284361283e846116af565b61186b565b6116af565b9050919050565b5f819050919050565b6128618361282e565b61287561286d8261284f565b8484546127dd565b825550505050565b5f90565b61288961287d565b612894818484612858565b505050565b5b818110156128b7576128ac5f82612881565b60018101905061289a565b5050565b601f8211156128fc576128cd816127b0565b6128d6846127c2565b810160208510156128e5578190505b6128f96128f1856127c2565b830182612899565b50505b505050565b5f82821c905092915050565b5f61291c5f1984600802612901565b1980831691505092915050565b5f612934838361290d565b9150826002028217905092915050565b61294d82611725565b67ffffffffffffffff811115612966576129656119ad565b5b6129708254611eca565b61297b8282856128bb565b5f60209050601f8311600181146129ac575f841561299a578287015190505b6129a48582612929565b865550612a0b565b601f1984166129ba866127b0565b5f5b828110156129e1578489015182556001820191506020850194506020810190506129bc565b868310156129fe57848901516129fa601f89168261290d565b8355505b6001600288020188555050505b505050505050565b5f604082019050612a265f8301856117af565b8181036020830152612a388184611777565b9050939250505056fea26469706673582212200a435704388df5b293906fbe415e20444daaf360dffedec028390a198c61403c64736f6c63430008160033",
					"opcodes": "PUSH1 0x80 PUSH1 0x40 MSTORE CALLVALUE DUP1 ISZERO PUSH3 0x10 JUMPI PUSH0 DUP1 REVERT JUMPDEST POP PUSH1 0x40 MLOAD PUSH3 0x2CE3 CODESIZE SUB DUP1 PUSH3 0x2CE3 DUP4 CODECOPY DUP2 DUP2 ADD PUSH1 0x40 MSTORE DUP2 ADD SWAP1 PUSH3 0x36 SWAP2 SWAP1 PUSH3 0x202 JUMP JUMPDEST DUP1 PUSH0 PUSH20 0xFFFFFFFFFFFFFFFFFFFFFFFFFFFFFFFFFFFFFFFF AND DUP2 PUSH20 0xFFFFFFFFFFFFFFFFFFFFFFFFFFFFFFFFFFFFFFFF AND SUB PUSH3 0xAA JUMPI PUSH0 PUSH1 0x40 MLOAD PUSH32 0x1E4FBDF700000000000000000000000000000000000000000000000000000000 DUP2 MSTORE PUSH1 0x4 ADD PUSH3 0xA1 SWAP2 SWAP1 PUSH3 0x243 JUMP JUMPDEST PUSH1 0x40 MLOAD DUP1 SWAP2 SUB SWAP1 REVERT JUMPDEST PUSH3 0xBB DUP2 PUSH3 0xDC PUSH1 0x20 SHL PUSH1 0x20 SHR JUMP JUMPDEST POP PUSH0 DUP1 PUSH1 0x14 PUSH2 0x100 EXP DUP2 SLOAD DUP2 PUSH1 0xFF MUL NOT AND SWAP1 DUP4 ISZERO ISZERO MUL OR SWAP1 SSTORE POP POP PUSH3 0x25E JUMP JUMPDEST PUSH0 DUP1 PUSH0 SWAP1 SLOAD SWAP1 PUSH2 0x100 EXP SWAP1 DIV PUSH20 0xFFFFFFFFFFFFFFFFFFFFFFFFFFFFFFFFFFFFFFFF AND SWAP1 POP DUP2 PUSH0 DUP1 PUSH2 0x100 EXP DUP2 SLOAD DUP2 PUSH20 0xFFFFFFFFFFFFFFFFFFFFFFFFFFFFFFFFFFFFFFFF MUL NOT AND SWAP1 DUP4 PUSH20 0xFFFFFFFFFFFFFFFFFFFFFFFFFFFFFFFFFFFFFFFF AND MUL OR SWAP1 SSTORE POP DUP2 PUSH20 0xFFFFFFFFFFFFFFFFFFFFFFFFFFFFFFFFFFFFFFFF AND DUP2 PUSH20 0xFFFFFFFFFFFFFFFFFFFFFFFFFFFFFFFFFFFFFFFF AND PUSH32 0x8BE0079C531659141344CD1FD0A4F28419497F9722A3DAAFE3B4186F6B6457E0 PUSH1 0x40 MLOAD PUSH1 0x40 MLOAD DUP1 SWAP2 SUB SWAP1 LOG3 POP POP JUMP JUMPDEST PUSH0 DUP1 REVERT JUMPDEST PUSH0 PUSH20 0xFFFFFFFFFFFFFFFFFFFFFFFFFFFFFFFFFFFFFFFF DUP3 AND SWAP1 POP SWAP2 SWAP1 POP JUMP JUMPDEST PUSH0 PUSH3 0x1CC DUP3 PUSH3 0x1A1 JUMP JUMPDEST SWAP1 POP SWAP2 SWAP1 POP JUMP JUMPDEST PUSH3 0x1DE DUP2 PUSH3 0x1C0 JUMP JUMPDEST DUP2 EQ PUSH3 0x1E9 JUMPI PUSH0 DUP1 REVERT JUMPDEST POP JUMP JUMPDEST PUSH0 DUP2 MLOAD SWAP1 POP PUSH3 0x1FC DUP2 PUSH3 0x1D3 JUMP JUMPDEST SWAP3 SWAP2 POP POP JUMP JUMPDEST PUSH0 PUSH1 0x20 DUP3 DUP5 SUB SLT ISZERO PUSH3 0x21A JUMPI PUSH3 0x219 PUSH3 0x19D JUMP JUMPDEST JUMPDEST PUSH0 PUSH3 0x229 DUP5 DUP3 DUP6 ADD PUSH3 0x1EC JUMP JUMPDEST SWAP2 POP POP SWAP3 SWAP2 POP POP JUMP JUMPDEST PUSH3 0x23D DUP2 PUSH3 0x1C0 JUMP JUMPDEST DUP3 MSTORE POP POP JUMP JUMPDEST PUSH0 PUSH1 0x20 DUP3 ADD SWAP1 POP PUSH3 0x258 PUSH0 DUP4 ADD DUP5 PUSH3 0x232 JUMP JUMPDEST SWAP3 SWAP2 POP POP JUMP JUMPDEST PUSH2 0x2A77 DUP1 PUSH3 0x26C PUSH0 CODECOPY PUSH0 RETURN INVALID PUSH1 0x80 PUSH1 0x40 MSTORE CALLVALUE DUP1 ISZERO PUSH2 0xF JUMPI PUSH0 DUP1 REVERT JUMPDEST POP PUSH1 0x4 CALLDATASIZE LT PUSH2 0xF3 JUMPI PUSH0 CALLDATALOAD PUSH1 0xE0 SHR DUP1 PUSH4 0x8DA5CB5B GT PUSH2 0x95 JUMPI DUP1 PUSH4 0xDA35C664 GT PUSH2 0x64 JUMPI DUP1 PUSH4 0xDA35C664 EQ PUSH2 0x241 JUMPI DUP1 PUSH4 0xF2FDE38B EQ PUSH2 0x25F JUMPI DUP1 PUSH4 0xF3CDCD1E EQ PUSH2 0x27B JUMPI DUP1 PUSH4 0xF5C9D69E EQ PUSH2 0x285 JUMPI PUSH2 0xF3 JUMP JUMPDEST DUP1 PUSH4 0x8DA5CB5B EQ PUSH2 0x1B5 JUMPI DUP1 PUSH4 0xA843C51F EQ PUSH2 0x1D3 JUMPI DUP1 PUSH4 0xC7F758A8 EQ PUSH2 0x1EF JUMPI DUP1 PUSH4 0xD7E82E2E EQ PUSH2 0x225 JUMPI PUSH2 0xF3 JUMP JUMPDEST DUP1 PUSH4 0x649F89A5 GT PUSH2 0xD1 JUMPI DUP1 PUSH4 0x649F89A5 EQ PUSH2 0x169 JUMPI DUP1 PUSH4 0x715018A6 EQ PUSH2 0x185 JUMPI DUP1 PUSH4 0x7AFDF93E EQ PUSH2 0x18F JUMPI DUP1 PUSH4 0x8C7D69E4 EQ PUSH2 0x199 JUMPI PUSH2 0xF3 JUMP JUMPDEST DUP1 PUSH4 0x13CF08B EQ PUSH2 0xF7 JUMPI DUP1 PUSH4 0x2B7AC3F3 EQ PUSH2 0x12D JUMPI DUP1 PUSH4 0x5C975ABB EQ PUSH2 0x14B JUMPI JUMPDEST PUSH0 DUP1 REVERT JUMPDEST PUSH2 0x111 PUSH1 0x4 DUP1 CALLDATASIZE SUB DUP2 ADD SWAP1 PUSH2 0x10C SWAP2 SWAP1 PUSH2 0x16E2 JUMP JUMPDEST PUSH2 0x2B5 JUMP JUMPDEST PUSH1 0x40 MLOAD PUSH2 0x124 SWAP8 SWAP7 SWAP6 SWAP5 SWAP4 SWAP3 SWAP2 SWAP1 PUSH2 0x17D8 JUMP JUMPDEST PUSH1 0x40 MLOAD DUP1 SWAP2 SUB SWAP1 RETURN JUMPDEST PUSH2 0x135 PUSH2 0x385 JUMP JUMPDEST PUSH1 0x40 MLOAD PUSH2 0x142 SWAP2 SWAP1 PUSH2 0x18C6 JUMP JUMPDEST PUSH1 0x40 MLOAD DUP1 SWAP2 SUB SWAP1 RETURN JUMPDEST PUSH2 0x153 PUSH2 0x3AA JUMP JUMPDEST PUSH1 0x40 MLOAD PUSH2 0x160 SWAP2 SWAP1 PUSH2 0x18DF JUMP JUMPDEST PUSH1 0x40 MLOAD DUP1 SWAP2 SUB SWAP1 RETURN JUMPDEST PUSH2 0x183 PUSH1 0x4 DUP1 CALLDATASIZE SUB DUP2 ADD SWAP1 PUSH2 0x17E SWAP2 SWAP1 PUSH2 0x16E2 JUMP JUMPDEST PUSH2 0x3BF JUMP JUMPDEST STOP JUMPDEST PUSH2 0x18D PUSH2 0x5AB JUMP JUMPDEST STOP JUMPDEST PUSH2 0x197 PUSH2 0x5BE JUMP JUMPDEST STOP JUMPDEST PUSH2 0x1B3 PUSH1 0x4 DUP1 CALLDATASIZE SUB DUP2 ADD SWAP1 PUSH2 0x1AE SWAP2 SWAP1 PUSH2 0x1AE5 JUMP JUMPDEST PUSH2 0x5D0 JUMP JUMPDEST STOP JUMPDEST PUSH2 0x1BD PUSH2 0xB2D JUMP JUMPDEST PUSH1 0x40 MLOAD PUSH2 0x1CA SWAP2 SWAP1 PUSH2 0x1BB7 JUMP JUMPDEST PUSH1 0x40 MLOAD DUP1 SWAP2 SUB SWAP1 RETURN JUMPDEST PUSH2 0x1ED PUSH1 0x4 DUP1 CALLDATASIZE SUB DUP2 ADD SWAP1 PUSH2 0x1E8 SWAP2 SWAP1 PUSH2 0x1BFA JUMP JUMPDEST PUSH2 0xB54 JUMP JUMPDEST STOP JUMPDEST PUSH2 0x209 PUSH1 0x4 DUP1 CALLDATASIZE SUB DUP2 ADD SWAP1 PUSH2 0x204 SWAP2 SWAP1 PUSH2 0x16E2 JUMP JUMPDEST PUSH2 0xB68 JUMP JUMPDEST PUSH1 0x40 MLOAD PUSH2 0x21C SWAP8 SWAP7 SWAP6 SWAP5 SWAP4 SWAP3 SWAP2 SWAP1 PUSH2 0x1C25 JUMP JUMPDEST PUSH1 0x40 MLOAD DUP1 SWAP2 SUB SWAP1 RETURN JUMPDEST PUSH2 0x23F PUSH1 0x4 DUP1 CALLDATASIZE SUB DUP2 ADD SWAP1 PUSH2 0x23A SWAP2 SWAP1 PUSH2 0x1D49 JUMP JUMPDEST PUSH2 0xC55 JUMP JUMPDEST STOP JUMPDEST PUSH2 0x249 PUSH2 0xDFF JUMP JUMPDEST PUSH1 0x40 MLOAD PUSH2 0x256 SWAP2 SWAP1 PUSH2 0x1DDC JUMP JUMPDEST PUSH1 0x40 MLOAD DUP1 SWAP2 SUB SWAP1 RETURN JUMPDEST PUSH2 0x279 PUSH1 0x4 DUP1 CALLDATASIZE SUB DUP2 ADD SWAP1 PUSH2 0x274 SWAP2 SWAP1 PUSH2 0x1BFA JUMP JUMPDEST PUSH2 0xE05 JUMP JUMPDEST STOP JUMPDEST PUSH2 0x283 PUSH2 0xE89 JUMP JUMPDEST STOP JUMPDEST PUSH2 0x29F PUSH1 0x4 DUP1 CALLDATASIZE SUB DUP2 ADD SWAP1 PUSH2 0x29A SWAP2 SWAP1 PUSH2 0x1E37 JUMP JUMPDEST PUSH2 0xE9B JUMP JUMPDEST PUSH1 0x40 MLOAD PUSH2 0x2AC SWAP2 SWAP1 PUSH2 0x18DF JUMP JUMPDEST PUSH1 0x40 MLOAD DUP1 SWAP2 SUB SWAP1 RETURN JUMPDEST PUSH1 0x2 PUSH1 0x20 MSTORE DUP1 PUSH0 MSTORE PUSH1 0x40 PUSH0 KECCAK256 PUSH0 SWAP2 POP SWAP1 POP DUP1 PUSH0 ADD SLOAD SWAP1 DUP1 PUSH1 0x1 ADD DUP1 SLOAD PUSH2 0x2DA SWAP1 PUSH2 0x1ECA JUMP JUMPDEST DUP1 PUSH1 0x1F ADD PUSH1 0x20 DUP1 SWAP2 DIV MUL PUSH1 0x20 ADD PUSH1 0x40 MLOAD SWAP1 DUP2 ADD PUSH1 0x40 MSTORE DUP1 SWAP3 SWAP2 SWAP1 DUP2 DUP2 MSTORE PUSH1 0x20 ADD DUP3 DUP1 SLOAD PUSH2 0x306 SWAP1 PUSH2 0x1ECA JUMP JUMPDEST DUP1 ISZERO PUSH2 0x351 JUMPI DUP1 PUSH1 0x1F LT PUSH2 0x328 JUMPI PUSH2 0x100 DUP1 DUP4 SLOAD DIV MUL DUP4 MSTORE SWAP2 PUSH1 0x20 ADD SWAP2 PUSH2 0x351 JUMP JUMPDEST DUP3 ADD SWAP2 SWAP1 PUSH0 MSTORE PUSH1 0x20 PUSH0 KECCAK256 SWAP1 JUMPDEST DUP2 SLOAD DUP2 MSTORE SWAP1 PUSH1 0x1 ADD SWAP1 PUSH1 0x20 ADD DUP1 DUP4 GT PUSH2 0x334 JUMPI DUP3 SWAP1 SUB PUSH1 0x1F AND DUP3 ADD SWAP2 JUMPDEST POP POP POP POP POP SWAP1 DUP1 PUSH1 0x4 ADD SLOAD SWAP1 DUP1 PUSH1 0x5 ADD SLOAD SWAP1 DUP1 PUSH1 0x6 ADD SLOAD SWAP1 DUP1 PUSH1 0x7 ADD PUSH0 SWAP1 SLOAD SWAP1 PUSH2 0x100 EXP SWAP1 DIV PUSH1 0xFF AND SWAP1 DUP1 PUSH1 0x8 ADD SLOAD SWAP1 POP DUP8 JUMP JUMPDEST PUSH1 0x1 PUSH0 SWAP1 SLOAD SWAP1 PUSH2 0x100 EXP SWAP1 DIV PUSH20 0xFFFFFFFFFFFFFFFFFFFFFFFFFFFFFFFFFFFFFFFF AND DUP2 JUMP JUMPDEST PUSH0 DUP1 PUSH1 0x14 SWAP1 SLOAD SWAP1 PUSH2 0x100 EXP SWAP1 DIV PUSH1 0xFF AND SWAP1 POP SWAP1 JUMP JUMPDEST PUSH0 PUSH1 0x2 PUSH0 DUP4 DUP2 MSTORE PUSH1 0x20 ADD SWAP1 DUP2 MSTORE PUSH1 0x20 ADD PUSH0 KECCAK256 SWAP1 POP DUP1 PUSH1 0x5 ADD SLOAD TIMESTAMP GT PUSH2 0x419 JUMPI PUSH1 0x40 MLOAD PUSH32 0x8C379A000000000000000000000000000000000000000000000000000000000 DUP2 MSTORE PUSH1 0x4 ADD PUSH2 0x410 SWAP1 PUSH2 0x1F44 JUMP JUMPDEST PUSH1 0x40 MLOAD DUP1 SWAP2 SUB SWAP1 REVERT JUMPDEST DUP1 PUSH1 0x7 ADD PUSH0 SWAP1 SLOAD SWAP1 PUSH2 0x100 EXP SWAP1 DIV PUSH1 0xFF AND ISZERO PUSH2 0x46A JUMPI PUSH1 0x40 MLOAD PUSH32 0x8C379A000000000000000000000000000000000000000000000000000000000 DUP2 MSTORE PUSH1 0x4 ADD PUSH2 0x461 SWAP1 PUSH2 0x1FD2 JUMP JUMPDEST PUSH1 0x40 MLOAD DUP1 SWAP2 SUB SWAP1 REVERT JUMPDEST PUSH1 0x1 DUP2 PUSH1 0x7 ADD PUSH0 PUSH2 0x100 EXP DUP2 SLOAD DUP2 PUSH1 0xFF MUL NOT AND SWAP1 DUP4 ISZERO ISZERO MUL OR SWAP1 SSTORE POP PUSH0 DUP2 PUSH1 0x2 ADD PUSH0 DUP1 ISZERO ISZERO ISZERO ISZERO DUP2 MSTORE PUSH1 0x20 ADD SWAP1 DUP2 MSTORE PUSH1 0x20 ADD PUSH0 KECCAK256 SLOAD DUP3 PUSH1 0x2 ADD PUSH0 PUSH1 0x1 ISZERO ISZERO ISZERO ISZERO DUP2 MSTORE PUSH1 0x20 ADD SWAP1 DUP2 MSTORE PUSH1 0x20 ADD PUSH0 KECCAK256 SLOAD PUSH2 0x4C2 SWAP2 SWAP1 PUSH2 0x201D JUMP JUMPDEST SWAP1 POP PUSH0 DUP1 DUP3 GT ISZERO PUSH2 0x534 JUMPI DUP3 PUSH1 0x6 ADD SLOAD DUP3 DUP5 PUSH1 0x2 ADD PUSH0 DUP1 ISZERO ISZERO ISZERO ISZERO DUP2 MSTORE PUSH1 0x20 ADD SWAP1 DUP2 MSTORE PUSH1 0x20 ADD PUSH0 KECCAK256 SLOAD DUP6 PUSH1 0x2 ADD PUSH0 PUSH1 0x1 ISZERO ISZERO ISZERO ISZERO DUP2 MSTORE PUSH1 0x20 ADD SWAP1 DUP2 MSTORE PUSH1 0x20 ADD PUSH0 KECCAK256 SLOAD PUSH2 0x50E SWAP2 SWAP1 PUSH2 0x201D JUMP JUMPDEST PUSH2 0x518 SWAP2 SWAP1 PUSH2 0x201D JUMP JUMPDEST PUSH1 0x64 DUP5 PUSH2 0x525 SWAP2 SWAP1 PUSH2 0x2050 JUMP JUMPDEST PUSH2 0x52F SWAP2 SWAP1 PUSH2 0x20BE JUMP JUMPDEST LT ISZERO SWAP1 POP JUMPDEST PUSH0 DUP4 PUSH1 0x2 ADD PUSH0 DUP1 ISZERO ISZERO ISZERO ISZERO DUP2 MSTORE PUSH1 0x20 ADD SWAP1 DUP2 MSTORE PUSH1 0x20 ADD PUSH0 KECCAK256 SLOAD DUP5 PUSH1 0x2 ADD PUSH0 PUSH1 0x1 ISZERO ISZERO ISZERO ISZERO DUP2 MSTORE PUSH1 0x20 ADD SWAP1 DUP2 MSTORE PUSH1 0x20 ADD PUSH0 KECCAK256 SLOAD GT SWAP1 POP PUSH32 0x367048E102BA4927CCDE851F5A4B4A5C93996244E9535A4EAA35B93994F2C5B6 DUP6 DUP4 DUP4 PUSH1 0x40 MLOAD PUSH2 0x59C SWAP4 SWAP3 SWAP2 SWAP1 PUSH2 0x20EE JUMP JUMPDEST PUSH1 0x40 MLOAD DUP1 SWAP2 SUB SWAP1 LOG1 POP POP POP POP POP JUMP JUMPDEST PUSH2 0x5B3 PUSH2 0x1351 JUMP JUMPDEST PUSH2 0x5BC PUSH0 PUSH2 0x13D8 JUMP JUMPDEST JUMP JUMPDEST PUSH2 0x5C6 PUSH2 0x1351 JUMP JUMPDEST PUSH2 0x5CE PUSH2 0x1499 JUMP JUMPDEST JUMP JUMPDEST PUSH2 0x5D8 PUSH2 0x14FA JUMP JUMPDEST PUSH0 PUSH1 0x2 PUSH0 DUP9 DUP2 MSTORE PUSH1 0x20 ADD SWAP1 DUP2 MSTORE PUSH1 0x20 ADD PUSH0 KECCAK256 SWAP1 POP PUSH0 DUP1 SHL DUP2 PUSH0 ADD SLOAD SUB PUSH2 0x633 JUMPI PUSH1 0x40 MLOAD PUSH32 0x8C379A000000000000000000000000000000000000000000000000000000000 DUP2 MSTORE PUSH1 0x4 ADD PUSH2 0x62A SWAP1 PUSH2 0x216D JUMP JUMPDEST PUSH1 0x40 MLOAD DUP1 SWAP2 SUB SWAP1 REVERT JUMPDEST DUP1 PUSH1 0x7 ADD PUSH0 SWAP1 SLOAD SWAP1 PUSH2 0x100 EXP SWAP1 DIV PUSH1 0xFF AND ISZERO PUSH2 0x684 JUMPI PUSH1 0x40 MLOAD PUSH32 0x8C379A000000000000000000000000000000000000000000000000000000000 DUP2 MSTORE PUSH1 0x4 ADD PUSH2 0x67B SWAP1 PUSH2 0x21FB JUMP JUMPDEST PUSH1 0x40 MLOAD DUP1 SWAP2 SUB SWAP1 REVERT JUMPDEST DUP1 PUSH1 0x4 ADD SLOAD TIMESTAMP LT ISZERO PUSH2 0x6CB JUMPI PUSH1 0x40 MLOAD PUSH32 0x8C379A000000000000000000000000000000000000000000000000000000000 DUP2 MSTORE PUSH1 0x4 ADD PUSH2 0x6C2 SWAP1 PUSH2 0x2263 JUMP JUMPDEST PUSH1 0x40 MLOAD DUP1 SWAP2 SUB SWAP1 REVERT JUMPDEST DUP1 PUSH1 0x5 ADD SLOAD TIMESTAMP GT ISZERO PUSH2 0x712 JUMPI PUSH1 0x40 MLOAD PUSH32 0x8C379A000000000000000000000000000000000000000000000000000000000 DUP2 MSTORE PUSH1 0x4 ADD PUSH2 0x709 SWAP1 PUSH2 0x22CB JUMP JUMPDEST PUSH1 0x40 MLOAD DUP1 SWAP2 SUB SWAP1 REVERT JUMPDEST DUP1 PUSH1 0x3 ADD PUSH0 DUP5 DUP2 MSTORE PUSH1 0x20 ADD SWAP1 DUP2 MSTORE PUSH1 0x20 ADD PUSH0 KECCAK256 PUSH0 SWAP1 SLOAD SWAP1 PUSH2 0x100 EXP SWAP1 DIV PUSH1 0xFF AND ISZERO PUSH2 0x772 JUMPI PUSH1 0x40 MLOAD PUSH32 0x8C379A000000000000000000000000000000000000000000000000000000000 DUP2 MSTORE PUSH1 0x4 ADD PUSH2 0x769 SWAP1 PUSH2 0x2333 JUMP JUMPDEST PUSH1 0x40 MLOAD DUP1 SWAP2 SUB SWAP1 REVERT JUMPDEST PUSH2 0x7BD DUP2 DUP7 DUP7 DUP1 DUP1 PUSH1 0x20 MUL PUSH1 0x20 ADD PUSH1 0x40 MLOAD SWAP1 DUP2 ADD PUSH1 0x40 MSTORE DUP1 SWAP4 SWAP3 SWAP2 SWAP1 DUP2 DUP2 MSTORE PUSH1 0x20 ADD DUP4 DUP4 PUSH1 0x20 MUL DUP1 DUP3 DUP5 CALLDATACOPY PUSH0 DUP2 DUP5 ADD MSTORE PUSH1 0x1F NOT PUSH1 0x1F DUP3 ADD AND SWAP1 POP DUP1 DUP4 ADD SWAP3 POP POP POP POP POP POP POP DUP6 PUSH2 0x153B JUMP JUMPDEST PUSH2 0x7F3 JUMPI PUSH1 0x40 MLOAD PUSH32 0xB05E92FA00000000000000000000000000000000000000000000000000000000 DUP2 MSTORE PUSH1 0x4 ADD PUSH1 0x40 MLOAD DUP1 SWAP2 SUB SWAP1 REVERT JUMPDEST PUSH1 0x8 DUP3 MLOAD EQ PUSH2 0x837 JUMPI PUSH1 0x40 MLOAD PUSH32 0x8C379A000000000000000000000000000000000000000000000000000000000 DUP2 MSTORE PUSH1 0x4 ADD PUSH2 0x82E SWAP1 PUSH2 0x239B JUMP JUMPDEST PUSH1 0x40 MLOAD DUP1 SWAP2 SUB SWAP1 REVERT JUMPDEST PUSH0 PUSH1 0x40 MLOAD DUP1 PUSH1 0x40 ADD PUSH1 0x40 MSTORE DUP1 DUP5 PUSH0 DUP2 MLOAD DUP2 LT PUSH2 0x856 JUMPI PUSH2 0x855 PUSH2 0x23B9 JUMP JUMPDEST JUMPDEST PUSH1 0x20 MUL PUSH1 0x20 ADD ADD MLOAD DUP2 MSTORE PUSH1 0x20 ADD DUP5 PUSH1 0x1 DUP2 MLOAD DUP2 LT PUSH2 0x877 JUMPI PUSH2 0x876 PUSH2 0x23B9 JUMP JUMPDEST JUMPDEST PUSH1 0x20 MUL PUSH1 0x20 ADD ADD MLOAD DUP2 MSTORE POP SWAP1 POP PUSH0 PUSH1 0x40 MLOAD DUP1 PUSH1 0x40 ADD PUSH1 0x40 MSTORE DUP1 PUSH1 0x40 MLOAD DUP1 PUSH1 0x40 ADD PUSH1 0x40 MSTORE DUP1 DUP8 PUSH1 0x2 DUP2 MLOAD DUP2 LT PUSH2 0x8AF JUMPI PUSH2 0x8AE PUSH2 0x23B9 JUMP JUMPDEST JUMPDEST PUSH1 0x20 MUL PUSH1 0x20 ADD ADD MLOAD DUP2 MSTORE PUSH1 0x20 ADD DUP8 PUSH1 0x3 DUP2 MLOAD DUP2 LT PUSH2 0x8D0 JUMPI PUSH2 0x8CF PUSH2 0x23B9 JUMP JUMPDEST JUMPDEST PUSH1 0x20 MUL PUSH1 0x20 ADD ADD MLOAD DUP2 MSTORE POP DUP2 MSTORE PUSH1 0x20 ADD PUSH1 0x40 MLOAD DUP1 PUSH1 0x40 ADD PUSH1 0x40 MSTORE DUP1 DUP8 PUSH1 0x4 DUP2 MLOAD DUP2 LT PUSH2 0x8FF JUMPI PUSH2 0x8FE PUSH2 0x23B9 JUMP JUMPDEST JUMPDEST PUSH1 0x20 MUL PUSH1 0x20 ADD ADD MLOAD DUP2 MSTORE PUSH1 0x20 ADD DUP8 PUSH1 0x5 DUP2 MLOAD DUP2 LT PUSH2 0x920 JUMPI PUSH2 0x91F PUSH2 0x23B9 JUMP JUMPDEST JUMPDEST PUSH1 0x20 MUL PUSH1 0x20 ADD ADD MLOAD DUP2 MSTORE POP DUP2 MSTORE POP SWAP1 POP PUSH0 PUSH1 0x40 MLOAD DUP1 PUSH1 0x40 ADD PUSH1 0x40 MSTORE DUP1 DUP7 PUSH1 0x6 DUP2 MLOAD DUP2 LT PUSH2 0x950 JUMPI PUSH2 0x94F PUSH2 0x23B9 JUMP JUMPDEST JUMPDEST PUSH1 0x20 MUL PUSH1 0x20 ADD ADD MLOAD DUP2 MSTORE PUSH1 0x20 ADD DUP7 PUSH1 0x7 DUP2 MLOAD DUP2 LT PUSH2 0x971 JUMPI PUSH2 0x970 PUSH2 0x23B9 JUMP JUMPDEST JUMPDEST PUSH1 0x20 MUL PUSH1 0x20 ADD ADD MLOAD DUP2 MSTORE POP SWAP1 POP PUSH0 PUSH1 0x40 MLOAD DUP1 PUSH1 0x40 ADD PUSH1 0x40 MSTORE DUP1 DUP7 PUSH1 0x8 ADD SLOAD DUP2 MSTORE PUSH1 0x20 ADD CALLER PUSH20 0xFFFFFFFFFFFFFFFFFFFFFFFFFFFFFFFFFFFFFFFF AND DUP2 MSTORE POP SWAP1 POP PUSH1 0x1 PUSH0 SWAP1 SLOAD SWAP1 PUSH2 0x100 EXP SWAP1 DIV PUSH20 0xFFFFFFFFFFFFFFFFFFFFFFFFFFFFFFFFFFFFFFFF AND PUSH20 0xFFFFFFFFFFFFFFFFFFFFFFFFFFFFFFFFFFFFFFFF AND PUSH4 0xF5C9D69E DUP6 DUP6 DUP6 DUP6 PUSH1 0x40 MLOAD DUP6 PUSH4 0xFFFFFFFF AND PUSH1 0xE0 SHL DUP2 MSTORE PUSH1 0x4 ADD PUSH2 0xA10 SWAP5 SWAP4 SWAP3 SWAP2 SWAP1 PUSH2 0x2581 JUMP JUMPDEST PUSH1 0x20 PUSH1 0x40 MLOAD DUP1 DUP4 SUB DUP2 DUP7 GAS STATICCALL ISZERO DUP1 ISZERO PUSH2 0xA2B JUMPI RETURNDATASIZE PUSH0 DUP1 RETURNDATACOPY RETURNDATASIZE PUSH0 REVERT JUMPDEST POP POP POP POP PUSH1 0x40 MLOAD RETURNDATASIZE PUSH1 0x1F NOT PUSH1 0x1F DUP3 ADD AND DUP3 ADD DUP1 PUSH1 0x40 MSTORE POP DUP2 ADD SWAP1 PUSH2 0xA4F SWAP2 SWAP1 PUSH2 0x25DA JUMP JUMPDEST PUSH2 0xA8E JUMPI PUSH1 0x40 MLOAD PUSH32 0x8C379A000000000000000000000000000000000000000000000000000000000 DUP2 MSTORE PUSH1 0x4 ADD PUSH2 0xA85 SWAP1 PUSH2 0x264F JUMP JUMPDEST PUSH1 0x40 MLOAD DUP1 SWAP2 SUB SWAP1 REVERT JUMPDEST PUSH1 0x1 DUP6 PUSH1 0x2 ADD PUSH0 DUP13 ISZERO ISZERO ISZERO ISZERO DUP2 MSTORE PUSH1 0x20 ADD SWAP1 DUP2 MSTORE PUSH1 0x20 ADD PUSH0 KECCAK256 PUSH0 DUP3 DUP3 SLOAD PUSH2 0xAB5 SWAP2 SWAP1 PUSH2 0x201D JUMP JUMPDEST SWAP3 POP POP DUP2 SWAP1 SSTORE POP PUSH1 0x1 DUP6 PUSH1 0x3 ADD PUSH0 DUP10 DUP2 MSTORE PUSH1 0x20 ADD SWAP1 DUP2 MSTORE PUSH1 0x20 ADD PUSH0 KECCAK256 PUSH0 PUSH2 0x100 EXP DUP2 SLOAD DUP2 PUSH1 0xFF MUL NOT AND SWAP1 DUP4 ISZERO ISZERO MUL OR SWAP1 SSTORE POP PUSH32 0x25375B46CE887EF9D462AE9772AB4270F5C3EB503D1194F5AF15C0C7CCAE0DC0 DUP12 DUP12 PUSH1 0x40 MLOAD PUSH2 0xB18 SWAP3 SWAP2 SWAP1 PUSH2 0x266D JUMP JUMPDEST PUSH1 0x40 MLOAD DUP1 SWAP2 SUB SWAP1 LOG1 POP POP POP POP POP POP POP POP POP POP POP JUMP JUMPDEST PUSH0 DUP1 PUSH0 SWAP1 SLOAD SWAP1 PUSH2 0x100 EXP SWAP1 DIV PUSH20 0xFFFFFFFFFFFFFFFFFFFFFFFFFFFFFFFFFFFFFFFF AND SWAP1 POP SWAP1 JUMP JUMPDEST PUSH2 0xB5C PUSH2 0x1351 JUMP JUMPDEST PUSH2 0xB65 DUP2 PUSH2 0xE05 JUMP JUMPDEST POP JUMP JUMPDEST PUSH0 PUSH1 0x60 PUSH0 DUP1 PUSH0 DUP1 PUSH0 DUP1 PUSH1 0x2 PUSH0 DUP11 DUP2 MSTORE PUSH1 0x20 ADD SWAP1 DUP2 MSTORE PUSH1 0x20 ADD PUSH0 KECCAK256 SWAP1 POP DUP1 PUSH0 ADD SLOAD DUP2 PUSH1 0x1 ADD DUP3 PUSH1 0x4 ADD SLOAD DUP4 PUSH1 0x5 ADD SLOAD DUP5 PUSH1 0x6 ADD SLOAD DUP6 PUSH1 0x8 ADD SLOAD DUP7 PUSH1 0x7 ADD PUSH0 SWAP1 SLOAD SWAP1 PUSH2 0x100 EXP SWAP1 DIV PUSH1 0xFF AND DUP6 DUP1 SLOAD PUSH2 0xBBD SWAP1 PUSH2 0x1ECA JUMP JUMPDEST DUP1 PUSH1 0x1F ADD PUSH1 0x20 DUP1 SWAP2 DIV MUL PUSH1 0x20 ADD PUSH1 0x40 MLOAD SWAP1 DUP2 ADD PUSH1 0x40 MSTORE DUP1 SWAP3 SWAP2 SWAP1 DUP2 DUP2 MSTORE PUSH1 0x20 ADD DUP3 DUP1 SLOAD PUSH2 0xBE9 SWAP1 PUSH2 0x1ECA JUMP JUMPDEST DUP1 ISZERO PUSH2 0xC34 JUMPI DUP1 PUSH1 0x1F LT PUSH2 0xC0B JUMPI PUSH2 0x100 DUP1 DUP4 SLOAD DIV MUL DUP4 MSTORE SWAP2 PUSH1 0x20 ADD SWAP2 PUSH2 0xC34 JUMP JUMPDEST DUP3 ADD SWAP2 SWAP1 PUSH0 MSTORE PUSH1 0x20 PUSH0 KECCAK256 SWAP1 JUMPDEST DUP2 SLOAD DUP2 MSTORE SWAP1 PUSH1 0x1 ADD SWAP1 PUSH1 0x20 ADD DUP1 DUP4 GT PUSH2 0xC17 JUMPI DUP3 SWAP1 SUB PUSH1 0x1F AND DUP3 ADD SWAP2 JUMPDEST POP POP POP POP POP SWAP6 POP SWAP8 POP SWAP8 POP SWAP8 POP SWAP8 POP SWAP8 POP SWAP8 POP SWAP8 POP POP SWAP2 SWAP4 SWAP6 SWAP8 SWAP1 SWAP3 SWAP5 SWAP7 POP JUMP JUMPDEST PUSH2 0xC5D PUSH2 0x1351 JUMP JUMPDEST PUSH0 DUP4 GT PUSH2 0xC9F JUMPI PUSH1 0x40 MLOAD PUSH32 0x8C379A000000000000000000000000000000000000000000000000000000000 DUP2 MSTORE PUSH1 0x4 ADD PUSH2 0xC96 SWAP1 PUSH2 0x2704 JUMP JUMPDEST PUSH1 0x40 MLOAD DUP1 SWAP2 SUB SWAP1 REVERT JUMPDEST PUSH0 DUP3 LT ISZERO DUP1 ISZERO PUSH2 0xCB0 JUMPI POP PUSH1 0x64 DUP3 GT ISZERO JUMPDEST PUSH2 0xCEF JUMPI PUSH1 0x40 MLOAD PUSH32 0x8C379A000000000000000000000000000000000000000000000000000000000 DUP2 MSTORE PUSH1 0x4 ADD PUSH2 0xCE6 SWAP1 PUSH2 0x2792 JUMP JUMPDEST PUSH1 0x40 MLOAD DUP1 SWAP2 SUB SWAP1 REVERT JUMPDEST PUSH1 0x1 PUSH1 0x3 PUSH0 DUP3 DUP3 SLOAD PUSH2 0xD01 SWAP2 SWAP1 PUSH2 0x201D JUMP JUMPDEST SWAP3 POP POP DUP2 SWAP1 SSTORE POP DUP4 PUSH1 0x2 PUSH0 PUSH1 0x3 SLOAD DUP2 MSTORE PUSH1 0x20 ADD SWAP1 DUP2 MSTORE PUSH1 0x20 ADD PUSH0 KECCAK256 PUSH0 ADD DUP2 SWAP1 SSTORE POP DUP5 PUSH1 0x2 PUSH0 PUSH1 0x3 SLOAD DUP2 MSTORE PUSH1 0x20 ADD SWAP1 DUP2 MSTORE PUSH1 0x20 ADD PUSH0 KECCAK256 PUSH1 0x1 ADD SWAP1 DUP2 PUSH2 0xD45 SWAP2 SWAP1 PUSH2 0x2944 JUMP JUMPDEST POP TIMESTAMP PUSH1 0x2 PUSH0 PUSH1 0x3 SLOAD DUP2 MSTORE PUSH1 0x20 ADD SWAP1 DUP2 MSTORE PUSH1 0x20 ADD PUSH0 KECCAK256 PUSH1 0x4 ADD DUP2 SWAP1 SSTORE POP DUP3 TIMESTAMP PUSH2 0xD6D SWAP2 SWAP1 PUSH2 0x201D JUMP JUMPDEST PUSH1 0x2 PUSH0 PUSH1 0x3 SLOAD DUP2 MSTORE PUSH1 0x20 ADD SWAP1 DUP2 MSTORE PUSH1 0x20 ADD PUSH0 KECCAK256 PUSH1 0x5 ADD DUP2 SWAP1 SSTORE POP DUP2 PUSH1 0x2 PUSH0 PUSH1 0x3 SLOAD DUP2 MSTORE PUSH1 0x20 ADD SWAP1 DUP2 MSTORE PUSH1 0x20 ADD PUSH0 KECCAK256 PUSH1 0x6 ADD DUP2 SWAP1 SSTORE POP DUP1 PUSH1 0x2 PUSH0 PUSH1 0x3 SLOAD DUP2 MSTORE PUSH1 0x20 ADD SWAP1 DUP2 MSTORE PUSH1 0x20 ADD PUSH0 KECCAK256 PUSH1 0x8 ADD DUP2 SWAP1 SSTORE POP PUSH32 0xF970AA486598017B8116C2BEB18C50D4584ECBC3C688817F59B26796725F31BF PUSH1 0x3 SLOAD DUP7 PUSH1 0x40 MLOAD PUSH2 0xDF0 SWAP3 SWAP2 SWAP1 PUSH2 0x2A13 JUMP JUMPDEST PUSH1 0x40 MLOAD DUP1 SWAP2 SUB SWAP1 LOG1 POP POP POP POP POP JUMP JUMPDEST PUSH1 0x3 SLOAD DUP2 JUMP JUMPDEST PUSH2 0xE0D PUSH2 0x1351 JUMP JUMPDEST PUSH0 PUSH20 0xFFFFFFFFFFFFFFFFFFFFFFFFFFFFFFFFFFFFFFFF AND DUP2 PUSH20 0xFFFFFFFFFFFFFFFFFFFFFFFFFFFFFFFFFFFFFFFF AND SUB PUSH2 0xE7D JUMPI PUSH0 PUSH1 0x40 MLOAD PUSH32 0x1E4FBDF700000000000000000000000000000000000000000000000000000000 DUP2 MSTORE PUSH1 0x4 ADD PUSH2 0xE74 SWAP2 SWAP1 PUSH2 0x1BB7 JUMP JUMPDEST PUSH1 0x40 MLOAD DUP1 SWAP2 SUB SWAP1 REVERT JUMPDEST PUSH2 0xE86 DUP2 PUSH2 0x13D8 JUMP JUMPDEST POP JUMP JUMPDEST PUSH2 0xE91 PUSH2 0x1351 JUMP JUMPDEST PUSH2 0xE99 PUSH2 0x1553 JUMP JUMPDEST JUMP JUMPDEST PUSH0 PUSH2 0x130B JUMP JUMPDEST PUSH32 0x30644E72E131A029B85045B68181585D97816A916871CA8D3C208C16D87CFD47 DUP2 LT PUSH2 0xED0 JUMPI PUSH0 DUP1 MSTORE PUSH1 0x20 PUSH0 RETURN JUMPDEST POP JUMP JUMPDEST PUSH0 PUSH1 0x40 MLOAD DUP4 DUP2 MSTORE DUP5 PUSH1 0x20 DUP3 ADD MSTORE DUP6 PUSH1 0x40 DUP3 ADD MSTORE PUSH1 0x40 DUP2 PUSH1 0x60 DUP4 PUSH1 0x7 PUSH2 0x7D0 GAS SUB STATICCALL SWAP2 POP DUP2 PUSH2 0xF03 JUMPI PUSH0 DUP1 MSTORE PUSH1 0x20 PUSH0 RETURN JUMPDEST DUP3 MLOAD PUSH1 0x40 DUP3 ADD MSTORE PUSH1 0x20 DUP4 ADD MLOAD PUSH1 0x60 DUP3 ADD MSTORE PUSH1 0x40 DUP4 PUSH1 0x80 DUP4 PUSH1 0x6 PUSH2 0x7D0 GAS SUB STATICCALL SWAP2 POP DUP2 PUSH2 0xF31 JUMPI PUSH0 DUP1 MSTORE PUSH1 0x20 PUSH0 RETURN JUMPDEST POP POP POP POP POP POP JUMP JUMPDEST PUSH0 PUSH1 0x80 DUP7 ADD PUSH0 DUP8 ADD PUSH32 0x1304BF22EF56518F9CC5C488B6C5AE975A5D589AD9DB095A096404587DE15169 DUP2 MSTORE PUSH32 0x28CD6F657B6579272838BC93984217616AA75478216D20EC00BF1337FF825F1C PUSH1 0x20 DUP3 ADD MSTORE PUSH2 0xFD9 PUSH0 DUP9 ADD CALLDATALOAD PUSH32 0x2A6AF62E9BC14C42A4997CEE7968EAFA94C4407805B8CB276AD1009E64DA6945 PUSH32 0x2621B3FF65F7221A3F86D007638CF6DD69D6F50EA4B70EE0A35FEFE56045097C DUP5 PUSH2 0xED3 JUMP JUMPDEST PUSH2 0x1029 PUSH1 0x20 DUP9 ADD CALLDATALOAD PUSH32 0x2951E735E80A08A1502AF7304AF36E7B00B71740133B83401CFFB2BB3B2A84B6 PUSH32 0xE935BD715D989CEB7939E82111A2CE8D69C6E5D6C2A6FF8BD6F13973031755E DUP5 PUSH2 0xED3 JUMP JUMPDEST DUP4 CALLDATALOAD DUP3 MSTORE PUSH32 0x30644E72E131A029B85045B68181585D97816A916871CA8D3C208C16D87CFD47 PUSH1 0x20 DUP6 ADD CALLDATALOAD PUSH32 0x30644E72E131A029B85045B68181585D97816A916871CA8D3C208C16D87CFD47 SUB MOD PUSH1 0x20 DUP4 ADD MSTORE DUP5 CALLDATALOAD PUSH1 0x40 DUP4 ADD MSTORE PUSH1 0x20 DUP6 ADD CALLDATALOAD PUSH1 0x60 DUP4 ADD MSTORE PUSH1 0x40 DUP6 ADD CALLDATALOAD PUSH1 0x80 DUP4 ADD MSTORE PUSH1 0x60 DUP6 ADD CALLDATALOAD PUSH1 0xA0 DUP4 ADD MSTORE PUSH32 0x23441971E1E09B7AE39945BD8B8FD751DE1B3CAA93D920C7214C39C6B178B43D PUSH1 0xC0 DUP4 ADD MSTORE PUSH32 0x1F44D4C10C85881E4D99891A828D432D8066AE53A68C982CE2491416341174B0 PUSH1 0xE0 DUP4 ADD MSTORE PUSH32 0x2009BE0262B5949AD674FBE43CC4EB6F64EF02E1C89FC3DC507E84087E4E454 PUSH2 0x100 DUP4 ADD MSTORE PUSH32 0xAD54A1EBA17EAB817D3EEDF367F834B95814960FCBBB4FFAC7E1CAFDA748AFB PUSH2 0x120 DUP4 ADD MSTORE PUSH32 0x2AFE4315D7D4BC43443FF2F9781B31ECBD94A85C15F38D5E49ECBA8FABE11846 PUSH2 0x140 DUP4 ADD MSTORE PUSH32 0x1FDE6C738F466E0D30797D5E68066264F1429C9A1A507CB3A6254BDE4EFB5F09 PUSH2 0x160 DUP4 ADD MSTORE PUSH0 DUP9 ADD MLOAD PUSH2 0x180 DUP4 ADD MSTORE PUSH1 0x20 PUSH0 ADD DUP9 ADD MLOAD PUSH2 0x1A0 DUP4 ADD MSTORE PUSH32 0x198E9393920D483A7260BFB731FB5D25F1AA493335A9E71297E485B7AEF312C2 PUSH2 0x1C0 DUP4 ADD MSTORE PUSH32 0x1800DEEF121F1E76426A00665E5C4479674322D4F75EDADD46DEBD5CD992F6ED PUSH2 0x1E0 DUP4 ADD MSTORE PUSH32 0x90689D0585FF075EC9E99AD690C3395BC4B313370B38EF355ACDADCD122975B PUSH2 0x200 DUP4 ADD MSTORE PUSH32 0x12C85EA5DB8C6DEB4AAB71808DCB408FE3D1E7690C43D37B4CE6CC0166FA7DAA PUSH2 0x220 DUP4 ADD MSTORE DUP6 CALLDATALOAD PUSH2 0x240 DUP4 ADD MSTORE PUSH1 0x20 DUP7 ADD CALLDATALOAD PUSH2 0x260 DUP4 ADD MSTORE PUSH32 0xE9C1D942717C6CB9136075C57DAE34D309E93E6C5419C52DB2E06F8B6FAEBF9 PUSH2 0x280 DUP4 ADD MSTORE PUSH32 0x9DA7C3FDF3CB5B1373AF4312EFC360F95971044F95D9934EBD057C8517C5E12 PUSH2 0x2A0 DUP4 ADD MSTORE PUSH32 0xA45D3D38B9F90BBF51B9DD1031B049E46FBD4456714FB4A518DD9A42D279D60 PUSH2 0x2C0 DUP4 ADD MSTORE PUSH32 0x25473E2F0EF48559FB0457C572FBE5357C723740EE2F1E9483C87A2A2C655801 PUSH2 0x2E0 DUP4 ADD MSTORE PUSH1 0x20 DUP3 PUSH2 0x300 DUP5 PUSH1 0x8 PUSH2 0x7D0 GAS SUB STATICCALL DUP3 MLOAD DUP2 AND SWAP4 POP POP POP POP SWAP6 SWAP5 POP POP POP POP POP JUMP JUMPDEST PUSH1 0x40 MLOAD PUSH2 0x380 DUP2 ADD PUSH1 0x40 MSTORE PUSH2 0x1322 PUSH0 DUP5 ADD CALLDATALOAD PUSH2 0xEA1 JUMP JUMPDEST PUSH2 0x132F PUSH1 0x20 DUP5 ADD CALLDATALOAD PUSH2 0xEA1 JUMP JUMPDEST PUSH2 0x133C PUSH1 0x40 DUP5 ADD CALLDATALOAD PUSH2 0xEA1 JUMP JUMPDEST PUSH2 0x1349 DUP2 DUP5 DUP7 DUP9 DUP11 PUSH2 0xF39 JUMP JUMPDEST DUP1 PUSH0 MSTORE PUSH1 0x20 PUSH0 RETURN JUMPDEST PUSH2 0x1359 PUSH2 0x15B5 JUMP JUMPDEST PUSH20 0xFFFFFFFFFFFFFFFFFFFFFFFFFFFFFFFFFFFFFFFF AND PUSH2 0x1377 PUSH2 0xB2D JUMP JUMPDEST PUSH20 0xFFFFFFFFFFFFFFFFFFFFFFFFFFFFFFFFFFFFFFFF AND EQ PUSH2 0x13D6 JUMPI PUSH2 0x139A PUSH2 0x15B5 JUMP JUMPDEST PUSH1 0x40 MLOAD PUSH32 0x118CDAA700000000000000000000000000000000000000000000000000000000 DUP2 MSTORE PUSH1 0x4 ADD PUSH2 0x13CD SWAP2 SWAP1 PUSH2 0x1BB7 JUMP JUMPDEST PUSH1 0x40 MLOAD DUP1 SWAP2 SUB SWAP1 REVERT JUMPDEST JUMP JUMPDEST PUSH0 DUP1 PUSH0 SWAP1 SLOAD SWAP1 PUSH2 0x100 EXP SWAP1 DIV PUSH20 0xFFFFFFFFFFFFFFFFFFFFFFFFFFFFFFFFFFFFFFFF AND SWAP1 POP DUP2 PUSH0 DUP1 PUSH2 0x100 EXP DUP2 SLOAD DUP2 PUSH20 0xFFFFFFFFFFFFFFFFFFFFFFFFFFFFFFFFFFFFFFFF MUL NOT AND SWAP1 DUP4 PUSH20 0xFFFFFFFFFFFFFFFFFFFFFFFFFFFFFFFFFFFFFFFF AND MUL OR SWAP1 SSTORE POP DUP2 PUSH20 0xFFFFFFFFFFFFFFFFFFFFFFFFFFFFFFFFFFFFFFFF AND DUP2 PUSH20 0xFFFFFFFFFFFFFFFFFFFFFFFFFFFFFFFFFFFFFFFF AND PUSH32 0x8BE0079C531659141344CD1FD0A4F28419497F9722A3DAAFE3B4186F6B6457E0 PUSH1 0x40 MLOAD PUSH1 0x40 MLOAD DUP1 SWAP2 SUB SWAP1 LOG3 POP POP JUMP JUMPDEST PUSH2 0x14A1 PUSH2 0x15BC JUMP JUMPDEST PUSH0 DUP1 PUSH1 0x14 PUSH2 0x100 EXP DUP2 SLOAD DUP2 PUSH1 0xFF MUL NOT AND SWAP1 DUP4 ISZERO ISZERO MUL OR SWAP1 SSTORE POP PUSH32 0x5DB9EE0A495BF2E6FF9C91A7834C1BA4FDD244A5E8AA4E537BD38AEAE4B073AA PUSH2 0x14E3 PUSH2 0x15B5 JUMP JUMPDEST PUSH1 0x40 MLOAD PUSH2 0x14F0 SWAP2 SWAP1 PUSH2 0x1BB7 JUMP JUMPDEST PUSH1 0x40 MLOAD DUP1 SWAP2 SUB SWAP1 LOG1 JUMP JUMPDEST PUSH2 0x1502 PUSH2 0x3AA JUMP JUMPDEST ISZERO PUSH2 0x1539 JUMPI PUSH1 0x40 MLOAD PUSH32 0xD93C066500000000000000000000000000000000000000000000000000000000 DUP2 MSTORE PUSH1 0x4 ADD PUSH1 0x40 MLOAD DUP1 SWAP2 SUB SWAP1 REVERT JUMPDEST JUMP JUMPDEST PUSH0 PUSH2 0x154A DUP4 DUP6 PUSH0 ADD SLOAD DUP5 PUSH2 0x15FC JUMP JUMPDEST SWAP1 POP SWAP4 SWAP3 POP POP POP JUMP JUMPDEST PUSH2 0x155B PUSH2 0x14FA JUMP JUMPDEST PUSH1 0x1 PUSH0 PUSH1 0x14 PUSH2 0x100 EXP DUP2 SLOAD DUP2 PUSH1 0xFF MUL NOT AND SWAP1 DUP4 ISZERO ISZERO MUL OR SWAP1 SSTORE POP PUSH32 0x62E78CEA01BEE320CD4E420270B5EA74000D11B0C9F74754EBDBFC544B05A258 PUSH2 0x159E PUSH2 0x15B5 JUMP JUMPDEST PUSH1 0x40 MLOAD PUSH2 0x15AB SWAP2 SWAP1 PUSH2 0x1BB7 JUMP JUMPDEST PUSH1 0x40 MLOAD DUP1 SWAP2 SUB SWAP1 LOG1 JUMP JUMPDEST PUSH0 CALLER SWAP1 POP SWAP1 JUMP JUMPDEST PUSH2 0x15C4 PUSH2 0x3AA JUMP JUMPDEST PUSH2 0x15FA JUMPI PUSH1 0x40 MLOAD PUSH32 0x8DFC202B00000000000000000000000000000000000000000000000000000000 DUP2 MSTORE PUSH1 0x4 ADD PUSH1 0x40 MLOAD DUP1 SWAP2 SUB SWAP1 REVERT JUMPDEST JUMP JUMPDEST PUSH0 DUP3 PUSH2 0x1608 DUP6 DUP5 PUSH2 0x1612 JUMP JUMPDEST EQ SWAP1 POP SWAP4 SWAP3 POP POP POP JUMP JUMPDEST PUSH0 DUP1 DUP3 SWAP1 POP PUSH0 JUMPDEST DUP5 MLOAD DUP2 LT ISZERO PUSH2 0x1655 JUMPI PUSH2 0x1646 DUP3 DUP7 DUP4 DUP2 MLOAD DUP2 LT PUSH2 0x1639 JUMPI PUSH2 0x1638 PUSH2 0x23B9 JUMP JUMPDEST JUMPDEST PUSH1 0x20 MUL PUSH1 0x20 ADD ADD MLOAD PUSH2 0x1660 JUMP JUMPDEST SWAP2 POP DUP1 DUP1 PUSH1 0x1 ADD SWAP2 POP POP PUSH2 0x1619 JUMP JUMPDEST POP DUP1 SWAP2 POP POP SWAP3 SWAP2 POP POP JUMP JUMPDEST PUSH0 DUP2 DUP4 LT PUSH2 0x1677 JUMPI PUSH2 0x1672 DUP3 DUP5 PUSH2 0x168A JUMP JUMPDEST PUSH2 0x1682 JUMP JUMPDEST PUSH2 0x1681 DUP4 DUP4 PUSH2 0x168A JUMP JUMPDEST JUMPDEST SWAP1 POP SWAP3 SWAP2 POP POP JUMP JUMPDEST PUSH0 DUP3 PUSH0 MSTORE DUP2 PUSH1 0x20 MSTORE PUSH1 0x40 PUSH0 KECCAK256 SWAP1 POP SWAP3 SWAP2 POP POP JUMP JUMPDEST PUSH0 PUSH1 0x40 MLOAD SWAP1 POP SWAP1 JUMP JUMPDEST PUSH0 DUP1 REVERT JUMPDEST PUSH0 DUP1 REVERT JUMPDEST PUSH0 DUP2 SWAP1 POP SWAP2 SWAP1 POP JUMP JUMPDEST PUSH2 0x16C1 DUP2 PUSH2 0x16AF JUMP JUMPDEST DUP2 EQ PUSH2 0x16CB JUMPI PUSH0 DUP1 REVERT JUMPDEST POP JUMP JUMPDEST PUSH0 DUP2 CALLDATALOAD SWAP1 POP PUSH2 0x16DC DUP2 PUSH2 0x16B8 JUMP JUMPDEST SWAP3 SWAP2 POP POP JUMP JUMPDEST PUSH0 PUSH1 0x20 DUP3 DUP5 SUB SLT ISZERO PUSH2 0x16F7 JUMPI PUSH2 0x16F6 PUSH2 0x16A7 JUMP JUMPDEST JUMPDEST PUSH0 PUSH2 0x1704 DUP5 DUP3 DUP6 ADD PUSH2 0x16CE JUMP JUMPDEST SWAP2 POP POP SWAP3 SWAP2 POP POP JUMP JUMPDEST PUSH0 DUP2 SWAP1 POP SWAP2 SWAP1 POP JUMP JUMPDEST PUSH2 0x171F DUP2 PUSH2 0x170D JUMP JUMPDEST DUP3 MSTORE POP POP JUMP JUMPDEST PUSH0 DUP2 MLOAD SWAP1 POP SWAP2 SWAP1 POP JUMP JUMPDEST PUSH0 DUP3 DUP3 MSTORE PUSH1 0x20 DUP3 ADD SWAP1 POP SWAP3 SWAP2 POP POP JUMP JUMPDEST PUSH0 JUMPDEST DUP4 DUP2 LT ISZERO PUSH2 0x175C JUMPI DUP1 DUP3 ADD MLOAD DUP2 DUP5 ADD MSTORE PUSH1 0x20 DUP2 ADD SWAP1 POP PUSH2 0x1741 JUMP JUMPDEST PUSH0 DUP5 DUP5 ADD MSTORE POP POP POP POP JUMP JUMPDEST PUSH0 PUSH1 0x1F NOT PUSH1 0x1F DUP4 ADD AND SWAP1 POP SWAP2 SWAP1 POP JUMP JUMPDEST PUSH0 PUSH2 0x1781 DUP3 PUSH2 0x1725 JUMP JUMPDEST PUSH2 0x178B DUP2 DUP6 PUSH2 0x172F JUMP JUMPDEST SWAP4 POP PUSH2 0x179B DUP2 DUP6 PUSH1 0x20 DUP7 ADD PUSH2 0x173F JUMP JUMPDEST PUSH2 0x17A4 DUP2 PUSH2 0x1767 JUMP JUMPDEST DUP5 ADD SWAP2 POP POP SWAP3 SWAP2 POP POP JUMP JUMPDEST PUSH2 0x17B8 DUP2 PUSH2 0x16AF JUMP JUMPDEST DUP3 MSTORE POP POP JUMP JUMPDEST PUSH0 DUP2 ISZERO ISZERO SWAP1 POP SWAP2 SWAP1 POP JUMP JUMPDEST PUSH2 0x17D2 DUP2 PUSH2 0x17BE JUMP JUMPDEST DUP3 MSTORE POP POP JUMP JUMPDEST PUSH0 PUSH1 0xE0 DUP3 ADD SWAP1 POP PUSH2 0x17EB PUSH0 DUP4 ADD DUP11 PUSH2 0x1716 JUMP JUMPDEST DUP2 DUP2 SUB PUSH1 0x20 DUP4 ADD MSTORE PUSH2 0x17FD DUP2 DUP10 PUSH2 0x1777 JUMP JUMPDEST SWAP1 POP PUSH2 0x180C PUSH1 0x40 DUP4 ADD DUP9 PUSH2 0x17AF JUMP JUMPDEST PUSH2 0x1819 PUSH1 0x60 DUP4 ADD DUP8 PUSH2 0x17AF JUMP JUMPDEST PUSH2 0x1826 PUSH1 0x80 DUP4 ADD DUP7 PUSH2 0x17AF JUMP JUMPDEST PUSH2 0x1833 PUSH1 0xA0 DUP4 ADD DUP6 PUSH2 0x17C9 JUMP JUMPDEST PUSH2 0x1840 PUSH1 0xC0 DUP4 ADD DUP5 PUSH2 0x17AF JUMP JUMPDEST SWAP9 SWAP8 POP POP POP POP POP POP POP POP JUMP JUMPDEST PUSH0 PUSH20 0xFFFFFFFFFFFFFFFFFFFFFFFFFFFFFFFFFFFFFFFF DUP3 AND SWAP1 POP SWAP2 SWAP1 POP JUMP JUMPDEST PUSH0 DUP2 SWAP1 POP SWAP2 SWAP1 POP JUMP JUMPDEST PUSH0 PUSH2 0x188E PUSH2 0x1889 PUSH2 0x1884 DUP5 PUSH2 0x184C JUMP JUMPDEST PUSH2 0x186B JUMP JUMPDEST PUSH2 0x184C JUMP JUMPDEST SWAP1 POP SWAP2 SWAP1 POP JUMP JUMPDEST PUSH0 PUSH2 0x189F DUP3 PUSH2 0x1874 JUMP JUMPDEST SWAP1 POP SWAP2 SWAP1 POP JUMP JUMPDEST PUSH0 PUSH2 0x18B0 DUP3 PUSH2 0x1895 JUMP JUMPDEST SWAP1 POP SWAP2 SWAP1 POP JUMP JUMPDEST PUSH2 0x18C0 DUP2 PUSH2 0x18A6 JUMP JUMPDEST DUP3 MSTORE POP POP JUMP JUMPDEST PUSH0 PUSH1 0x20 DUP3 ADD SWAP1 POP PUSH2 0x18D9 PUSH0 DUP4 ADD DUP5 PUSH2 0x18B7 JUMP JUMPDEST SWAP3 SWAP2 POP POP JUMP JUMPDEST PUSH0 PUSH1 0x20 DUP3 ADD SWAP1 POP PUSH2 0x18F2 PUSH0 DUP4 ADD DUP5 PUSH2 0x17C9 JUMP JUMPDEST SWAP3 SWAP2 POP POP JUMP JUMPDEST PUSH2 0x1901 DUP2 PUSH2 0x17BE JUMP JUMPDEST DUP2 EQ PUSH2 0x190B JUMPI PUSH0 DUP1 REVERT JUMPDEST POP JUMP JUMPDEST PUSH0 DUP2 CALLDATALOAD SWAP1 POP PUSH2 0x191C DUP2 PUSH2 0x18F8 JUMP JUMPDEST SWAP3 SWAP2 POP POP JUMP JUMPDEST PUSH0 DUP1 REVERT JUMPDEST PUSH0 DUP1 REVERT JUMPDEST PUSH0 DUP1 REVERT JUMPDEST PUSH0 DUP1 DUP4 PUSH1 0x1F DUP5 ADD SLT PUSH2 0x1943 JUMPI PUSH2 0x1942 PUSH2 0x1922 JUMP JUMPDEST JUMPDEST DUP3 CALLDATALOAD SWAP1 POP PUSH8 0xFFFFFFFFFFFFFFFF DUP2 GT ISZERO PUSH2 0x1960 JUMPI PUSH2 0x195F PUSH2 0x1926 JUMP JUMPDEST JUMPDEST PUSH1 0x20 DUP4 ADD SWAP2 POP DUP4 PUSH1 0x20 DUP3 MUL DUP4 ADD GT ISZERO PUSH2 0x197C JUMPI PUSH2 0x197B PUSH2 0x192A JUMP JUMPDEST JUMPDEST SWAP3 POP SWAP3 SWAP1 POP JUMP JUMPDEST PUSH2 0x198C DUP2 PUSH2 0x170D JUMP JUMPDEST DUP2 EQ PUSH2 0x1996 JUMPI PUSH0 DUP1 REVERT JUMPDEST POP JUMP JUMPDEST PUSH0 DUP2 CALLDATALOAD SWAP1 POP PUSH2 0x19A7 DUP2 PUSH2 0x1983 JUMP JUMPDEST SWAP3 SWAP2 POP POP JUMP JUMPDEST PUSH32 0x4E487B7100000000000000000000000000000000000000000000000000000000 PUSH0 MSTORE PUSH1 0x41 PUSH1 0x4 MSTORE PUSH1 0x24 PUSH0 REVERT JUMPDEST PUSH2 0x19E3 DUP3 PUSH2 0x1767 JUMP JUMPDEST DUP2 ADD DUP2 DUP2 LT PUSH8 0xFFFFFFFFFFFFFFFF DUP3 GT OR ISZERO PUSH2 0x1A02 JUMPI PUSH2 0x1A01 PUSH2 0x19AD JUMP JUMPDEST JUMPDEST DUP1 PUSH1 0x40 MSTORE POP POP POP JUMP JUMPDEST PUSH0 PUSH2 0x1A14 PUSH2 0x169E JUMP JUMPDEST SWAP1 POP PUSH2 0x1A20 DUP3 DUP3 PUSH2 0x19DA JUMP JUMPDEST SWAP2 SWAP1 POP JUMP JUMPDEST PUSH0 PUSH8 0xFFFFFFFFFFFFFFFF DUP3 GT ISZERO PUSH2 0x1A3F JUMPI PUSH2 0x1A3E PUSH2 0x19AD JUMP JUMPDEST JUMPDEST PUSH1 0x20 DUP3 MUL SWAP1 POP PUSH1 0x20 DUP2 ADD SWAP1 POP SWAP2 SWAP1 POP JUMP JUMPDEST PUSH0 PUSH2 0x1A62 PUSH2 0x1A5D DUP5 PUSH2 0x1A25 JUMP JUMPDEST PUSH2 0x1A0B JUMP JUMPDEST SWAP1 POP DUP1 DUP4 DUP3 MSTORE PUSH1 0x20 DUP3 ADD SWAP1 POP PUSH1 0x20 DUP5 MUL DUP4 ADD DUP6 DUP2 GT ISZERO PUSH2 0x1A85 JUMPI PUSH2 0x1A84 PUSH2 0x192A JUMP JUMPDEST JUMPDEST DUP4 JUMPDEST DUP2 DUP2 LT ISZERO PUSH2 0x1AAE JUMPI DUP1 PUSH2 0x1A9A DUP9 DUP3 PUSH2 0x16CE JUMP JUMPDEST DUP5 MSTORE PUSH1 0x20 DUP5 ADD SWAP4 POP POP PUSH1 0x20 DUP2 ADD SWAP1 POP PUSH2 0x1A87 JUMP JUMPDEST POP POP POP SWAP4 SWAP3 POP POP POP JUMP JUMPDEST PUSH0 DUP3 PUSH1 0x1F DUP4 ADD SLT PUSH2 0x1ACC JUMPI PUSH2 0x1ACB PUSH2 0x1922 JUMP JUMPDEST JUMPDEST DUP2 CALLDATALOAD PUSH2 0x1ADC DUP5 DUP3 PUSH1 0x20 DUP7 ADD PUSH2 0x1A50 JUMP JUMPDEST SWAP2 POP POP SWAP3 SWAP2 POP POP JUMP JUMPDEST PUSH0 DUP1 PUSH0 DUP1 PUSH0 DUP1 PUSH1 0xA0 DUP8 DUP10 SUB SLT ISZERO PUSH2 0x1AFF JUMPI PUSH2 0x1AFE PUSH2 0x16A7 JUMP JUMPDEST JUMPDEST PUSH0 PUSH2 0x1B0C DUP10 DUP3 DUP11 ADD PUSH2 0x16CE JUMP JUMPDEST SWAP7 POP POP PUSH1 0x20 PUSH2 0x1B1D DUP10 DUP3 DUP11 ADD PUSH2 0x190E JUMP JUMPDEST SWAP6 POP POP PUSH1 0x40 DUP8 ADD CALLDATALOAD PUSH8 0xFFFFFFFFFFFFFFFF DUP2 GT ISZERO PUSH2 0x1B3E JUMPI PUSH2 0x1B3D PUSH2 0x16AB JUMP JUMPDEST JUMPDEST PUSH2 0x1B4A DUP10 DUP3 DUP11 ADD PUSH2 0x192E JUMP JUMPDEST SWAP5 POP SWAP5 POP POP PUSH1 0x60 PUSH2 0x1B5D DUP10 DUP3 DUP11 ADD PUSH2 0x1999 JUMP JUMPDEST SWAP3 POP POP PUSH1 0x80 DUP8 ADD CALLDATALOAD PUSH8 0xFFFFFFFFFFFFFFFF DUP2 GT ISZERO PUSH2 0x1B7E JUMPI PUSH2 0x1B7D PUSH2 0x16AB JUMP JUMPDEST JUMPDEST PUSH2 0x1B8A DUP10 DUP3 DUP11 ADD PUSH2 0x1AB8 JUMP JUMPDEST SWAP2 POP POP SWAP3 SWAP6 POP SWAP3 SWAP6 POP SWAP3 SWAP6 JUMP JUMPDEST PUSH0 PUSH2 0x1BA1 DUP3 PUSH2 0x184C JUMP JUMPDEST SWAP1 POP SWAP2 SWAP1 POP JUMP JUMPDEST PUSH2 0x1BB1 DUP2 PUSH2 0x1B97 JUMP JUMPDEST DUP3 MSTORE POP POP JUMP JUMPDEST PUSH0 PUSH1 0x20 DUP3 ADD SWAP1 POP PUSH2 0x1BCA PUSH0 DUP4 ADD DUP5 PUSH2 0x1BA8 JUMP JUMPDEST SWAP3 SWAP2 POP POP JUMP JUMPDEST PUSH2 0x1BD9 DUP2 PUSH2 0x1B97 JUMP JUMPDEST DUP2 EQ PUSH2 0x1BE3 JUMPI PUSH0 DUP1 REVERT JUMPDEST POP JUMP JUMPDEST PUSH0 DUP2 CALLDATALOAD SWAP1 POP PUSH2 0x1BF4 DUP2 PUSH2 0x1BD0 JUMP JUMPDEST SWAP3 SWAP2 POP POP JUMP JUMPDEST PUSH0 PUSH1 0x20 DUP3 DUP5 SUB SLT ISZERO PUSH2 0x1C0F JUMPI PUSH2 0x1C0E PUSH2 0x16A7 JUMP JUMPDEST JUMPDEST PUSH0 PUSH2 0x1C1C DUP5 DUP3 DUP6 ADD PUSH2 0x1BE6 JUMP JUMPDEST SWAP2 POP POP SWAP3 SWAP2 POP POP JUMP JUMPDEST PUSH0 PUSH1 0xE0 DUP3 ADD SWAP1 POP PUSH2 0x1C38 PUSH0 DUP4 ADD DUP11 PUSH2 0x1716 JUMP JUMPDEST DUP2 DUP2 SUB PUSH1 0x20 DUP4 ADD MSTORE PUSH2 0x1C4A DUP2 DUP10 PUSH2 0x1777 JUMP JUMPDEST SWAP1 POP PUSH2 0x1C59 PUSH1 0x40 DUP4 ADD DUP9 PUSH2 0x17AF JUMP JUMPDEST PUSH2 0x1C66 PUSH1 0x60 DUP4 ADD DUP8 PUSH2 0x17AF JUMP JUMPDEST PUSH2 0x1C73 PUSH1 0x80 DUP4 ADD DUP7 PUSH2 0x17AF JUMP JUMPDEST PUSH2 0x1C80 PUSH1 0xA0 DUP4 ADD DUP6 PUSH2 0x17AF JUMP JUMPDEST PUSH2 0x1C8D PUSH1 0xC0 DUP4 ADD DUP5 PUSH2 0x17C9 JUMP JUMPDEST SWAP9 SWAP8 POP POP POP POP POP POP POP POP JUMP JUMPDEST PUSH0 DUP1 REVERT JUMPDEST PUSH0 PUSH8 0xFFFFFFFFFFFFFFFF DUP3 GT ISZERO PUSH2 0x1CB7 JUMPI PUSH2 0x1CB6 PUSH2 0x19AD JUMP JUMPDEST JUMPDEST PUSH2 0x1CC0 DUP3 PUSH2 0x1767 JUMP JUMPDEST SWAP1 POP PUSH1 0x20 DUP2 ADD SWAP1 POP SWAP2 SWAP1 POP JUMP JUMPDEST DUP3 DUP2 DUP4 CALLDATACOPY PUSH0 DUP4 DUP4 ADD MSTORE POP POP POP JUMP JUMPDEST PUSH0 PUSH2 0x1CED PUSH2 0x1CE8 DUP5 PUSH2 0x1C9D JUMP JUMPDEST PUSH2 0x1A0B JUMP JUMPDEST SWAP1 POP DUP3 DUP2 MSTORE PUSH1 0x20 DUP2 ADD DUP5 DUP5 DUP5 ADD GT ISZERO PUSH2 0x1D09 JUMPI PUSH2 0x1D08 PUSH2 0x1C99 JUMP JUMPDEST JUMPDEST PUSH2 0x1D14 DUP5 DUP3 DUP6 PUSH2 0x1CCD JUMP JUMPDEST POP SWAP4 SWAP3 POP POP POP JUMP JUMPDEST PUSH0 DUP3 PUSH1 0x1F DUP4 ADD SLT PUSH2 0x1D30 JUMPI PUSH2 0x1D2F PUSH2 0x1922 JUMP JUMPDEST JUMPDEST DUP2 CALLDATALOAD PUSH2 0x1D40 DUP5 DUP3 PUSH1 0x20 DUP7 ADD PUSH2 0x1CDB JUMP JUMPDEST SWAP2 POP POP SWAP3 SWAP2 POP POP JUMP JUMPDEST PUSH0 DUP1 PUSH0 DUP1 PUSH0 PUSH1 0xA0 DUP7 DUP9 SUB SLT ISZERO PUSH2 0x1D62 JUMPI PUSH2 0x1D61 PUSH2 0x16A7 JUMP JUMPDEST JUMPDEST PUSH0 DUP7 ADD CALLDATALOAD PUSH8 0xFFFFFFFFFFFFFFFF DUP2 GT ISZERO PUSH2 0x1D7F JUMPI PUSH2 0x1D7E PUSH2 0x16AB JUMP JUMPDEST JUMPDEST PUSH2 0x1D8B DUP9 DUP3 DUP10 ADD PUSH2 0x1D1C JUMP JUMPDEST SWAP6 POP POP PUSH1 0x20 PUSH2 0x1D9C DUP9 DUP3 DUP10 ADD PUSH2 0x1999 JUMP JUMPDEST SWAP5 POP POP PUSH1 0x40 PUSH2 0x1DAD DUP9 DUP3 DUP10 ADD PUSH2 0x16CE JUMP JUMPDEST SWAP4 POP POP PUSH1 0x60 PUSH2 0x1DBE DUP9 DUP3 DUP10 ADD PUSH2 0x16CE JUMP JUMPDEST SWAP3 POP POP PUSH1 0x80 PUSH2 0x1DCF DUP9 DUP3 DUP10 ADD PUSH2 0x16CE JUMP JUMPDEST SWAP2 POP POP SWAP3 SWAP6 POP SWAP3 SWAP6 SWAP1 SWAP4 POP JUMP JUMPDEST PUSH0 PUSH1 0x20 DUP3 ADD SWAP1 POP PUSH2 0x1DEF PUSH0 DUP4 ADD DUP5 PUSH2 0x17AF JUMP JUMPDEST SWAP3 SWAP2 POP POP JUMP JUMPDEST PUSH0 DUP2 SWAP1 POP DUP3 PUSH1 0x20 PUSH1 0x2 MUL DUP3 ADD GT ISZERO PUSH2 0x1E10 JUMPI PUSH2 0x1E0F PUSH2 0x192A JUMP JUMPDEST JUMPDEST SWAP3 SWAP2 POP POP JUMP JUMPDEST PUSH0 DUP2 SWAP1 POP DUP3 PUSH1 0x40 PUSH1 0x2 MUL DUP3 ADD GT ISZERO PUSH2 0x1E31 JUMPI PUSH2 0x1E30 PUSH2 0x192A JUMP JUMPDEST JUMPDEST SWAP3 SWAP2 POP POP JUMP JUMPDEST PUSH0 DUP1 PUSH0 DUP1 PUSH2 0x140 DUP6 DUP8 SUB SLT ISZERO PUSH2 0x1E50 JUMPI PUSH2 0x1E4F PUSH2 0x16A7 JUMP JUMPDEST JUMPDEST PUSH0 PUSH2 0x1E5D DUP8 DUP3 DUP9 ADD PUSH2 0x1DF5 JUMP JUMPDEST SWAP5 POP POP PUSH1 0x40 PUSH2 0x1E6E DUP8 DUP3 DUP9 ADD PUSH2 0x1E16 JUMP JUMPDEST SWAP4 POP POP PUSH1 0xC0 PUSH2 0x1E7F DUP8 DUP3 DUP9 ADD PUSH2 0x1DF5 JUMP JUMPDEST SWAP3 POP POP PUSH2 0x100 PUSH2 0x1E91 DUP8 DUP3 DUP9 ADD PUSH2 0x1DF5 JUMP JUMPDEST SWAP2 POP POP SWAP3 SWAP6 SWAP2 SWAP5 POP SWAP3 POP JUMP JUMPDEST PUSH32 0x4E487B7100000000000000000000000000000000000000000000000000000000 PUSH0 MSTORE PUSH1 0x22 PUSH1 0x4 MSTORE PUSH1 0x24 PUSH0 REVERT JUMPDEST PUSH0 PUSH1 0x2 DUP3 DIV SWAP1 POP PUSH1 0x1 DUP3 AND DUP1 PUSH2 0x1EE1 JUMPI PUSH1 0x7F DUP3 AND SWAP2 POP JUMPDEST PUSH1 0x20 DUP3 LT DUP2 SUB PUSH2 0x1EF4 JUMPI PUSH2 0x1EF3 PUSH2 0x1E9D JUMP JUMPDEST JUMPDEST POP SWAP2 SWAP1 POP JUMP JUMPDEST PUSH32 0x566F74696E6720706572696F64206973206E6F7420796574206F7665722E0000 PUSH0 DUP3 ADD MSTORE POP JUMP JUMPDEST PUSH0 PUSH2 0x1F2E PUSH1 0x1E DUP4 PUSH2 0x172F JUMP JUMPDEST SWAP2 POP PUSH2 0x1F39 DUP3 PUSH2 0x1EFA JUMP JUMPDEST PUSH1 0x20 DUP3 ADD SWAP1 POP SWAP2 SWAP1 POP JUMP JUMPDEST PUSH0 PUSH1 0x20 DUP3 ADD SWAP1 POP DUP2 DUP2 SUB PUSH0 DUP4 ADD MSTORE PUSH2 0x1F5B DUP2 PUSH2 0x1F22 JUMP JUMPDEST SWAP1 POP SWAP2 SWAP1 POP JUMP JUMPDEST PUSH32 0x566F74696E672068617320616C726561647920656E64656420666F7220746869 PUSH0 DUP3 ADD MSTORE PUSH32 0x732070726F706F73616C2E000000000000000000000000000000000000000000 PUSH1 0x20 DUP3 ADD MSTORE POP JUMP JUMPDEST PUSH0 PUSH2 0x1FBC PUSH1 0x2B DUP4 PUSH2 0x172F JUMP JUMPDEST SWAP2 POP PUSH2 0x1FC7 DUP3 PUSH2 0x1F62 JUMP JUMPDEST PUSH1 0x40 DUP3 ADD SWAP1 POP SWAP2 SWAP1 POP JUMP JUMPDEST PUSH0 PUSH1 0x20 DUP3 ADD SWAP1 POP DUP2 DUP2 SUB PUSH0 DUP4 ADD MSTORE PUSH2 0x1FE9 DUP2 PUSH2 0x1FB0 JUMP JUMPDEST SWAP1 POP SWAP2 SWAP1 POP JUMP JUMPDEST PUSH32 0x4E487B7100000000000000000000000000000000000000000000000000000000 PUSH0 MSTORE PUSH1 0x11 PUSH1 0x4 MSTORE PUSH1 0x24 PUSH0 REVERT JUMPDEST PUSH0 PUSH2 0x2027 DUP3 PUSH2 0x16AF JUMP JUMPDEST SWAP2 POP PUSH2 0x2032 DUP4 PUSH2 0x16AF JUMP JUMPDEST SWAP3 POP DUP3 DUP3 ADD SWAP1 POP DUP1 DUP3 GT ISZERO PUSH2 0x204A JUMPI PUSH2 0x2049 PUSH2 0x1FF0 JUMP JUMPDEST JUMPDEST SWAP3 SWAP2 POP POP JUMP JUMPDEST PUSH0 PUSH2 0x205A DUP3 PUSH2 0x16AF JUMP JUMPDEST SWAP2 POP PUSH2 0x2065 DUP4 PUSH2 0x16AF JUMP JUMPDEST SWAP3 POP DUP3 DUP3 MUL PUSH2 0x2073 DUP2 PUSH2 0x16AF JUMP JUMPDEST SWAP2 POP DUP3 DUP3 DIV DUP5 EQ DUP4 ISZERO OR PUSH2 0x208A JUMPI PUSH2 0x2089 PUSH2 0x1FF0 JUMP JUMPDEST JUMPDEST POP SWAP3 SWAP2 POP POP JUMP JUMPDEST PUSH32 0x4E487B7100000000000000000000000000000000000000000000000000000000 PUSH0 MSTORE PUSH1 0x12 PUSH1 0x4 MSTORE PUSH1 0x24 PUSH0 REVERT JUMPDEST PUSH0 PUSH2 0x20C8 DUP3 PUSH2 0x16AF JUMP JUMPDEST SWAP2 POP PUSH2 0x20D3 DUP4 PUSH2 0x16AF JUMP JUMPDEST SWAP3 POP DUP3 PUSH2 0x20E3 JUMPI PUSH2 0x20E2 PUSH2 0x2091 JUMP JUMPDEST JUMPDEST DUP3 DUP3 DIV SWAP1 POP SWAP3 SWAP2 POP POP JUMP JUMPDEST PUSH0 PUSH1 0x60 DUP3 ADD SWAP1 POP PUSH2 0x2101 PUSH0 DUP4 ADD DUP7 PUSH2 0x17AF JUMP JUMPDEST PUSH2 0x210E PUSH1 0x20 DUP4 ADD DUP6 PUSH2 0x17C9 JUMP JUMPDEST PUSH2 0x211B PUSH1 0x40 DUP4 ADD DUP5 PUSH2 0x17C9 JUMP JUMPDEST SWAP5 SWAP4 POP POP POP POP JUMP JUMPDEST PUSH32 0x496E76616C69642070726F706F73616C2E000000000000000000000000000000 PUSH0 DUP3 ADD MSTORE POP JUMP JUMPDEST PUSH0 PUSH2 0x2157 PUSH1 0x11 DUP4 PUSH2 0x172F JUMP JUMPDEST SWAP2 POP PUSH2 0x2162 DUP3 PUSH2 0x2123 JUMP JUMPDEST PUSH1 0x20 DUP3 ADD SWAP1 POP SWAP2 SWAP1 POP JUMP JUMPDEST PUSH0 PUSH1 0x20 DUP3 ADD SWAP1 POP DUP2 DUP2 SUB PUSH0 DUP4 ADD MSTORE PUSH2 0x2184 DUP2 PUSH2 0x214B JUMP JUMPDEST SWAP1 POP SWAP2 SWAP1 POP JUMP JUMPDEST PUSH32 0x566F74696E672068617320656E64656420666F7220746869732070726F706F73 PUSH0 DUP3 ADD MSTORE PUSH32 0x616C2E0000000000000000000000000000000000000000000000000000000000 PUSH1 0x20 DUP3 ADD MSTORE POP JUMP JUMPDEST PUSH0 PUSH2 0x21E5 PUSH1 0x23 DUP4 PUSH2 0x172F JUMP JUMPDEST SWAP2 POP PUSH2 0x21F0 DUP3 PUSH2 0x218B JUMP JUMPDEST PUSH1 0x40 DUP3 ADD SWAP1 POP SWAP2 SWAP1 POP JUMP JUMPDEST PUSH0 PUSH1 0x20 DUP3 ADD SWAP1 POP DUP2 DUP2 SUB PUSH0 DUP4 ADD MSTORE PUSH2 0x2212 DUP2 PUSH2 0x21D9 JUMP JUMPDEST SWAP1 POP SWAP2 SWAP1 POP JUMP JUMPDEST PUSH32 0x566F74696E67206E6F742079657420737461727465642E000000000000000000 PUSH0 DUP3 ADD MSTORE POP JUMP JUMPDEST PUSH0 PUSH2 0x224D PUSH1 0x17 DUP4 PUSH2 0x172F JUMP JUMPDEST SWAP2 POP PUSH2 0x2258 DUP3 PUSH2 0x2219 JUMP JUMPDEST PUSH1 0x20 DUP3 ADD SWAP1 POP SWAP2 SWAP1 POP JUMP JUMPDEST PUSH0 PUSH1 0x20 DUP3 ADD SWAP1 POP DUP2 DUP2 SUB PUSH0 DUP4 ADD MSTORE PUSH2 0x227A DUP2 PUSH2 0x2241 JUMP JUMPDEST SWAP1 POP SWAP2 SWAP1 POP JUMP JUMPDEST PUSH32 0x566F74696E672074696D652068617320656E6465642E00000000000000000000 PUSH0 DUP3 ADD MSTORE POP JUMP JUMPDEST PUSH0 PUSH2 0x22B5 PUSH1 0x16 DUP4 PUSH2 0x172F JUMP JUMPDEST SWAP2 POP PUSH2 0x22C0 DUP3 PUSH2 0x2281 JUMP JUMPDEST PUSH1 0x20 DUP3 ADD SWAP1 POP SWAP2 SWAP1 POP JUMP JUMPDEST PUSH0 PUSH1 0x20 DUP3 ADD SWAP1 POP DUP2 DUP2 SUB PUSH0 DUP4 ADD MSTORE PUSH2 0x22E2 DUP2 PUSH2 0x22A9 JUMP JUMPDEST SWAP1 POP SWAP2 SWAP1 POP JUMP JUMPDEST PUSH32 0x416C726561647920766F7465642E000000000000000000000000000000000000 PUSH0 DUP3 ADD MSTORE POP JUMP JUMPDEST PUSH0 PUSH2 0x231D PUSH1 0xE DUP4 PUSH2 0x172F JUMP JUMPDEST SWAP2 POP PUSH2 0x2328 DUP3 PUSH2 0x22E9 JUMP JUMPDEST PUSH1 0x20 DUP3 ADD SWAP1 POP SWAP2 SWAP1 POP JUMP JUMPDEST PUSH0 PUSH1 0x20 DUP3 ADD SWAP1 POP DUP2 DUP2 SUB PUSH0 DUP4 ADD MSTORE PUSH2 0x234A DUP2 PUSH2 0x2311 JUMP JUMPDEST SWAP1 POP SWAP2 SWAP1 POP JUMP JUMPDEST PUSH32 0x496E76616C69642070726F6F6600000000000000000000000000000000000000 PUSH0 DUP3 ADD MSTORE POP JUMP JUMPDEST PUSH0 PUSH2 0x2385 PUSH1 0xD DUP4 PUSH2 0x172F JUMP JUMPDEST SWAP2 POP PUSH2 0x2390 DUP3 PUSH2 0x2351 JUMP JUMPDEST PUSH1 0x20 DUP3 ADD SWAP1 POP SWAP2 SWAP1 POP JUMP JUMPDEST PUSH0 PUSH1 0x20 DUP3 ADD SWAP1 POP DUP2 DUP2 SUB PUSH0 DUP4 ADD MSTORE PUSH2 0x23B2 DUP2 PUSH2 0x2379 JUMP JUMPDEST SWAP1 POP SWAP2 SWAP1 POP JUMP JUMPDEST PUSH32 0x4E487B7100000000000000000000000000000000000000000000000000000000 PUSH0 MSTORE PUSH1 0x32 PUSH1 0x4 MSTORE PUSH1 0x24 PUSH0 REVERT JUMPDEST PUSH0 PUSH1 0x2 SWAP1 POP SWAP2 SWAP1 POP JUMP JUMPDEST PUSH0 DUP2 SWAP1 POP SWAP3 SWAP2 POP POP JUMP JUMPDEST PUSH0 DUP2 SWAP1 POP SWAP2 SWAP1 POP JUMP JUMPDEST PUSH2 0x240C DUP2 PUSH2 0x16AF JUMP JUMPDEST DUP3 MSTORE POP POP JUMP JUMPDEST PUSH0 PUSH2 0x241D DUP4 DUP4 PUSH2 0x2403 JUMP JUMPDEST PUSH1 0x20 DUP4 ADD SWAP1 POP SWAP3 SWAP2 POP POP JUMP JUMPDEST PUSH0 PUSH1 0x20 DUP3 ADD SWAP1 POP SWAP2 SWAP1 POP JUMP JUMPDEST PUSH2 0x243E DUP2 PUSH2 0x23E6 JUMP JUMPDEST PUSH2 0x2448 DUP2 DUP5 PUSH2 0x23F0 JUMP JUMPDEST SWAP3 POP PUSH2 0x2453 DUP3 PUSH2 0x23FA JUMP JUMPDEST DUP1 PUSH0 JUMPDEST DUP4 DUP2 LT ISZERO PUSH2 0x2483 JUMPI DUP2 MLOAD PUSH2 0x246A DUP8 DUP3 PUSH2 0x2412 JUMP JUMPDEST SWAP7 POP PUSH2 0x2475 DUP4 PUSH2 0x2429 JUMP JUMPDEST SWAP3 POP POP PUSH1 0x1 DUP2 ADD SWAP1 POP PUSH2 0x2456 JUMP JUMPDEST POP POP POP POP POP POP JUMP JUMPDEST PUSH0 PUSH1 0x2 SWAP1 POP SWAP2 SWAP1 POP JUMP JUMPDEST PUSH0 DUP2 SWAP1 POP SWAP3 SWAP2 POP POP JUMP JUMPDEST PUSH0 DUP2 SWAP1 POP SWAP2 SWAP1 POP JUMP JUMPDEST PUSH0 DUP2 SWAP1 POP SWAP3 SWAP2 POP POP JUMP JUMPDEST PUSH2 0x24BB DUP2 PUSH2 0x23E6 JUMP JUMPDEST PUSH2 0x24C5 DUP2 DUP5 PUSH2 0x24A8 JUMP JUMPDEST SWAP3 POP PUSH2 0x24D0 DUP3 PUSH2 0x23FA JUMP JUMPDEST DUP1 PUSH0 JUMPDEST DUP4 DUP2 LT ISZERO PUSH2 0x2500 JUMPI DUP2 MLOAD PUSH2 0x24E7 DUP8 DUP3 PUSH2 0x2412 JUMP JUMPDEST SWAP7 POP PUSH2 0x24F2 DUP4 PUSH2 0x2429 JUMP JUMPDEST SWAP3 POP POP PUSH1 0x1 DUP2 ADD SWAP1 POP PUSH2 0x24D3 JUMP JUMPDEST POP POP POP POP POP POP JUMP JUMPDEST PUSH0 PUSH2 0x2513 DUP4 DUP4 PUSH2 0x24B2 JUMP JUMPDEST PUSH1 0x40 DUP4 ADD SWAP1 POP SWAP3 SWAP2 POP POP JUMP JUMPDEST PUSH0 PUSH1 0x20 DUP3 ADD SWAP1 POP SWAP2 SWAP1 POP JUMP JUMPDEST PUSH2 0x2534 DUP2 PUSH2 0x248B JUMP JUMPDEST PUSH2 0x253E DUP2 DUP5 PUSH2 0x2495 JUMP JUMPDEST SWAP3 POP PUSH2 0x2549 DUP3 PUSH2 0x249F JUMP JUMPDEST DUP1 PUSH0 JUMPDEST DUP4 DUP2 LT ISZERO PUSH2 0x2579 JUMPI DUP2 MLOAD PUSH2 0x2560 DUP8 DUP3 PUSH2 0x2508 JUMP JUMPDEST SWAP7 POP PUSH2 0x256B DUP4 PUSH2 0x251F JUMP JUMPDEST SWAP3 POP POP PUSH1 0x1 DUP2 ADD SWAP1 POP PUSH2 0x254C JUMP JUMPDEST POP POP POP POP POP POP JUMP JUMPDEST PUSH0 PUSH2 0x140 DUP3 ADD SWAP1 POP PUSH2 0x2595 PUSH0 DUP4 ADD DUP8 PUSH2 0x2435 JUMP JUMPDEST PUSH2 0x25A2 PUSH1 0x40 DUP4 ADD DUP7 PUSH2 0x252B JUMP JUMPDEST PUSH2 0x25AF PUSH1 0xC0 DUP4 ADD DUP6 PUSH2 0x2435 JUMP JUMPDEST PUSH2 0x25BD PUSH2 0x100 DUP4 ADD DUP5 PUSH2 0x2435 JUMP JUMPDEST SWAP6 SWAP5 POP POP POP POP POP JUMP JUMPDEST PUSH0 DUP2 MLOAD SWAP1 POP PUSH2 0x25D4 DUP2 PUSH2 0x18F8 JUMP JUMPDEST SWAP3 SWAP2 POP POP JUMP JUMPDEST PUSH0 PUSH1 0x20 DUP3 DUP5 SUB SLT ISZERO PUSH2 0x25EF JUMPI PUSH2 0x25EE PUSH2 0x16A7 JUMP JUMPDEST JUMPDEST PUSH0 PUSH2 0x25FC DUP5 DUP3 DUP6 ADD PUSH2 0x25C6 JUMP JUMPDEST SWAP2 POP POP SWAP3 SWAP2 POP POP JUMP JUMPDEST PUSH32 0x4661696C6564207665726966792070726F6F6600000000000000000000000000 PUSH0 DUP3 ADD MSTORE POP JUMP JUMPDEST PUSH0 PUSH2 0x2639 PUSH1 0x13 DUP4 PUSH2 0x172F JUMP JUMPDEST SWAP2 POP PUSH2 0x2644 DUP3 PUSH2 0x2605 JUMP JUMPDEST PUSH1 0x20 DUP3 ADD SWAP1 POP SWAP2 SWAP1 POP JUMP JUMPDEST PUSH0 PUSH1 0x20 DUP3 ADD SWAP1 POP DUP2 DUP2 SUB PUSH0 DUP4 ADD MSTORE PUSH2 0x2666 DUP2 PUSH2 0x262D JUMP JUMPDEST SWAP1 POP SWAP2 SWAP1 POP JUMP JUMPDEST PUSH0 PUSH1 0x40 DUP3 ADD SWAP1 POP PUSH2 0x2680 PUSH0 DUP4 ADD DUP6 PUSH2 0x17AF JUMP JUMPDEST PUSH2 0x268D PUSH1 0x20 DUP4 ADD DUP5 PUSH2 0x17C9 JUMP JUMPDEST SWAP4 SWAP3 POP POP POP JUMP JUMPDEST PUSH32 0x4475726174696F6E2073686F756C642062652067726561746572207468616E20 PUSH0 DUP3 ADD MSTORE PUSH32 0x7A65726F00000000000000000000000000000000000000000000000000000000 PUSH1 0x20 DUP3 ADD MSTORE POP JUMP JUMPDEST PUSH0 PUSH2 0x26EE PUSH1 0x24 DUP4 PUSH2 0x172F JUMP JUMPDEST SWAP2 POP PUSH2 0x26F9 DUP3 PUSH2 0x2694 JUMP JUMPDEST PUSH1 0x40 DUP3 ADD SWAP1 POP SWAP2 SWAP1 POP JUMP JUMPDEST PUSH0 PUSH1 0x20 DUP3 ADD SWAP1 POP DUP2 DUP2 SUB PUSH0 DUP4 ADD MSTORE PUSH2 0x271B DUP2 PUSH2 0x26E2 JUMP JUMPDEST SWAP1 POP SWAP2 SWAP1 POP JUMP JUMPDEST PUSH32 0x51756F72756D2073686F756C64206265206265747765656E203020616E642031 PUSH0 DUP3 ADD MSTORE PUSH32 0x3030000000000000000000000000000000000000000000000000000000000000 PUSH1 0x20 DUP3 ADD MSTORE POP JUMP JUMPDEST PUSH0 PUSH2 0x277C PUSH1 0x22 DUP4 PUSH2 0x172F JUMP JUMPDEST SWAP2 POP PUSH2 0x2787 DUP3 PUSH2 0x2722 JUMP JUMPDEST PUSH1 0x40 DUP3 ADD SWAP1 POP SWAP2 SWAP1 POP JUMP JUMPDEST PUSH0 PUSH1 0x20 DUP3 ADD SWAP1 POP DUP2 DUP2 SUB PUSH0 DUP4 ADD MSTORE PUSH2 0x27A9 DUP2 PUSH2 0x2770 JUMP JUMPDEST SWAP1 POP SWAP2 SWAP1 POP JUMP JUMPDEST PUSH0 DUP2 SWAP1 POP DUP2 PUSH0 MSTORE PUSH1 0x20 PUSH0 KECCAK256 SWAP1 POP SWAP2 SWAP1 POP JUMP JUMPDEST PUSH0 PUSH1 0x20 PUSH1 0x1F DUP4 ADD DIV SWAP1 POP SWAP2 SWAP1 POP JUMP JUMPDEST PUSH0 DUP3 DUP3 SHL SWAP1 POP SWAP3 SWAP2 POP POP JUMP JUMPDEST PUSH0 PUSH1 0x8 DUP4 MUL PUSH2 0x280C PUSH32 0xFFFFFFFFFFFFFFFFFFFFFFFFFFFFFFFFFFFFFFFFFFFFFFFFFFFFFFFFFFFFFFFF DUP3 PUSH2 0x27D1 JUMP JUMPDEST PUSH2 0x2816 DUP7 DUP4 PUSH2 0x27D1 JUMP JUMPDEST SWAP6 POP DUP1 NOT DUP5 AND SWAP4 POP DUP1 DUP7 AND DUP5 OR SWAP3 POP POP POP SWAP4 SWAP3 POP POP POP JUMP JUMPDEST PUSH0 PUSH2 0x2848 PUSH2 0x2843 PUSH2 0x283E DUP5 PUSH2 0x16AF JUMP JUMPDEST PUSH2 0x186B JUMP JUMPDEST PUSH2 0x16AF JUMP JUMPDEST SWAP1 POP SWAP2 SWAP1 POP JUMP JUMPDEST PUSH0 DUP2 SWAP1 POP SWAP2 SWAP1 POP JUMP JUMPDEST PUSH2 0x2861 DUP4 PUSH2 0x282E JUMP JUMPDEST PUSH2 0x2875 PUSH2 0x286D DUP3 PUSH2 0x284F JUMP JUMPDEST DUP5 DUP5 SLOAD PUSH2 0x27DD JUMP JUMPDEST DUP3 SSTORE POP POP POP POP JUMP JUMPDEST PUSH0 SWAP1 JUMP JUMPDEST PUSH2 0x2889 PUSH2 0x287D JUMP JUMPDEST PUSH2 0x2894 DUP2 DUP5 DUP5 PUSH2 0x2858 JUMP JUMPDEST POP POP POP JUMP JUMPDEST JUMPDEST DUP2 DUP2 LT ISZERO PUSH2 0x28B7 JUMPI PUSH2 0x28AC PUSH0 DUP3 PUSH2 0x2881 JUMP JUMPDEST PUSH1 0x1 DUP2 ADD SWAP1 POP PUSH2 0x289A JUMP JUMPDEST POP POP JUMP JUMPDEST PUSH1 0x1F DUP3 GT ISZERO PUSH2 0x28FC JUMPI PUSH2 0x28CD DUP2 PUSH2 0x27B0 JUMP JUMPDEST PUSH2 0x28D6 DUP5 PUSH2 0x27C2 JUMP JUMPDEST DUP2 ADD PUSH1 0x20 DUP6 LT ISZERO PUSH2 0x28E5 JUMPI DUP2 SWAP1 POP JUMPDEST PUSH2 0x28F9 PUSH2 0x28F1 DUP6 PUSH2 0x27C2 JUMP JUMPDEST DUP4 ADD DUP3 PUSH2 0x2899 JUMP JUMPDEST POP POP JUMPDEST POP POP POP JUMP JUMPDEST PUSH0 DUP3 DUP3 SHR SWAP1 POP SWAP3 SWAP2 POP POP JUMP JUMPDEST PUSH0 PUSH2 0x291C PUSH0 NOT DUP5 PUSH1 0x8 MUL PUSH2 0x2901 JUMP JUMPDEST NOT DUP1 DUP4 AND SWAP2 POP POP SWAP3 SWAP2 POP POP JUMP JUMPDEST PUSH0 PUSH2 0x2934 DUP4 DUP4 PUSH2 0x290D JUMP JUMPDEST SWAP2 POP DUP3 PUSH1 0x2 MUL DUP3 OR SWAP1 POP SWAP3 SWAP2 POP POP JUMP JUMPDEST PUSH2 0x294D DUP3 PUSH2 0x1725 JUMP JUMPDEST PUSH8 0xFFFFFFFFFFFFFFFF DUP2 GT ISZERO PUSH2 0x2966 JUMPI PUSH2 0x2965 PUSH2 0x19AD JUMP JUMPDEST JUMPDEST PUSH2 0x2970 DUP3 SLOAD PUSH2 0x1ECA JUMP JUMPDEST PUSH2 0x297B DUP3 DUP3 DUP6 PUSH2 0x28BB JUMP JUMPDEST PUSH0 PUSH1 0x20 SWAP1 POP PUSH1 0x1F DUP4 GT PUSH1 0x1 DUP2 EQ PUSH2 0x29AC JUMPI PUSH0 DUP5 ISZERO PUSH2 0x299A JUMPI DUP3 DUP8 ADD MLOAD SWAP1 POP JUMPDEST PUSH2 0x29A4 DUP6 DUP3 PUSH2 0x2929 JUMP JUMPDEST DUP7 SSTORE POP PUSH2 0x2A0B JUMP JUMPDEST PUSH1 0x1F NOT DUP5 AND PUSH2 0x29BA DUP7 PUSH2 0x27B0 JUMP JUMPDEST PUSH0 JUMPDEST DUP3 DUP2 LT ISZERO PUSH2 0x29E1 JUMPI DUP5 DUP10 ADD MLOAD DUP3 SSTORE PUSH1 0x1 DUP3 ADD SWAP2 POP PUSH1 0x20 DUP6 ADD SWAP5 POP PUSH1 0x20 DUP2 ADD SWAP1 POP PUSH2 0x29BC JUMP JUMPDEST DUP7 DUP4 LT ISZERO PUSH2 0x29FE JUMPI DUP5 DUP10 ADD MLOAD PUSH2 0x29FA PUSH1 0x1F DUP10 AND DUP3 PUSH2 0x290D JUMP JUMPDEST DUP4 SSTORE POP JUMPDEST PUSH1 0x1 PUSH1 0x2 DUP9 MUL ADD DUP9 SSTORE POP POP POP JUMPDEST POP POP POP POP POP POP JUMP JUMPDEST PUSH0 PUSH1 0x40 DUP3 ADD SWAP1 POP PUSH2 0x2A26 PUSH0 DUP4 ADD DUP6 PUSH2 0x17AF JUMP JUMPDEST DUP2 DUP2 SUB PUSH1 0x20 DUP4 ADD MSTORE PUSH2 0x2A38 DUP2 DUP5 PUSH2 0x1777 JUMP JUMPDEST SWAP1 POP SWAP4 SWAP3 POP POP POP JUMP INVALID LOG2 PUSH5 0x6970667358 0x22 SLT KECCAK256 EXP NUMBER JUMPI DIV CODESIZE DUP14 CREATE2 0xB2 SWAP4 SWAP1 PUSH16 0xBE415E20444DAAF360DFFEDEC028390A NOT DUP13 PUSH2 0x403C PUSH5 0x736F6C6343 STOP ADDMOD AND STOP CALLER "
				},
				"gasEstimates": {
					"creation": {
						"codeDepositCost": "2174200",
						"executionCost": "infinite",
						"totalCost": "infinite"
					},
					"external": {
						"addProposal(string,bytes32,uint256,uint256,uint256)": "infinite",
						"endVoting(uint256)": "infinite",
						"getProposal(uint256)": "infinite",
						"owner()": "2538",
						"pauseVoting()": "infinite",
						"paused()": "2592",
						"proposalCount()": "2447",
						"proposals(uint256)": "infinite",
						"renounceOwnership()": "infinite",
						"resumeVoting()": "infinite",
						"transferContractOwnership(address)": "infinite",
						"transferOwnership(address)": "infinite",
						"verifier()": "infinite",
						"verifyProof(uint256[2],uint256[2][2],uint256[2],uint256[2])": "infinite",
						"voteForProposal(uint256,bool,bytes32[],bytes32,uint256[])": "infinite"
					},
					"internal": {
						"verifyMerkleProof(struct ArtemisDAOVoting.Proposal storage pointer,bytes32[] memory,bytes32)": "infinite"
					}
				},
				"methodIdentifiers": {
					"addProposal(string,bytes32,uint256,uint256,uint256)": "d7e82e2e",
					"endVoting(uint256)": "649f89a5",
					"getProposal(uint256)": "c7f758a8",
					"owner()": "8da5cb5b",
					"pauseVoting()": "f3cdcd1e",
					"paused()": "5c975abb",
					"proposalCount()": "da35c664",
					"proposals(uint256)": "013cf08b",
					"renounceOwnership()": "715018a6",
					"resumeVoting()": "7afdf93e",
					"transferContractOwnership(address)": "a843c51f",
					"transferOwnership(address)": "f2fde38b",
					"verifier()": "2b7ac3f3",
					"verifyProof(uint256[2],uint256[2][2],uint256[2],uint256[2])": "f5c9d69e",
					"voteForProposal(uint256,bool,bytes32[],bytes32,uint256[])": "8c7d69e4"
				}
			},
			"storageLayout": {
				"storage": [
					{
						"astId": 8,
						"contract": "contracts/ArtemisZkVoting.sol:ArtemisDAOVoting",
						"label": "_owner",
						"offset": 0,
						"slot": "0",
						"type": "t_address"
					},
					{
						"astId": 178,
						"contract": "contracts/ArtemisZkVoting.sol:ArtemisDAOVoting",
						"label": "_paused",
						"offset": 20,
						"slot": "0",
						"type": "t_bool"
					},
					{
						"astId": 838,
						"contract": "contracts/ArtemisZkVoting.sol:ArtemisDAOVoting",
						"label": "verifier",
						"offset": 0,
						"slot": "1",
						"type": "t_contract(Groth16Verifier)1484"
					},
					{
						"astId": 866,
						"contract": "contracts/ArtemisZkVoting.sol:ArtemisDAOVoting",
						"label": "proposals",
						"offset": 0,
						"slot": "2",
						"type": "t_mapping(t_uint256,t_struct(Proposal)861_storage)"
					},
					{
						"astId": 868,
						"contract": "contracts/ArtemisZkVoting.sol:ArtemisDAOVoting",
						"label": "proposalCount",
						"offset": 0,
						"slot": "3",
						"type": "t_uint256"
					}
				],
				"types": {
					"t_address": {
						"encoding": "inplace",
						"label": "address",
						"numberOfBytes": "20"
					},
					"t_bool": {
						"encoding": "inplace",
						"label": "bool",
						"numberOfBytes": "1"
					},
					"t_bytes32": {
						"encoding": "inplace",
						"label": "bytes32",
						"numberOfBytes": "32"
					},
					"t_contract(Groth16Verifier)1484": {
						"encoding": "inplace",
						"label": "contract Groth16Verifier",
						"numberOfBytes": "20"
					},
					"t_mapping(t_bool,t_uint256)": {
						"encoding": "mapping",
						"key": "t_bool",
						"label": "mapping(bool => uint256)",
						"numberOfBytes": "32",
						"value": "t_uint256"
					},
					"t_mapping(t_bytes32,t_bool)": {
						"encoding": "mapping",
						"key": "t_bytes32",
						"label": "mapping(bytes32 => bool)",
						"numberOfBytes": "32",
						"value": "t_bool"
					},
					"t_mapping(t_uint256,t_struct(Proposal)861_storage)": {
						"encoding": "mapping",
						"key": "t_uint256",
						"label": "mapping(uint256 => struct ArtemisDAOVoting.Proposal)",
						"numberOfBytes": "32",
						"value": "t_struct(Proposal)861_storage"
					},
					"t_string_storage": {
						"encoding": "bytes",
						"label": "string",
						"numberOfBytes": "32"
					},
					"t_struct(Proposal)861_storage": {
						"encoding": "inplace",
						"label": "struct ArtemisDAOVoting.Proposal",
						"members": [
							{
								"astId": 840,
								"contract": "contracts/ArtemisZkVoting.sol:ArtemisDAOVoting",
								"label": "merkleRoot",
								"offset": 0,
								"slot": "0",
								"type": "t_bytes32"
							},
							{
								"astId": 842,
								"contract": "contracts/ArtemisZkVoting.sol:ArtemisDAOVoting",
								"label": "proposalDescription",
								"offset": 0,
								"slot": "1",
								"type": "t_string_storage"
							},
							{
								"astId": 846,
								"contract": "contracts/ArtemisZkVoting.sol:ArtemisDAOVoting",
								"label": "votes",
								"offset": 0,
								"slot": "2",
								"type": "t_mapping(t_bool,t_uint256)"
							},
							{
								"astId": 850,
								"contract": "contracts/ArtemisZkVoting.sol:ArtemisDAOVoting",
								"label": "voted",
								"offset": 0,
								"slot": "3",
								"type": "t_mapping(t_bytes32,t_bool)"
							},
							{
								"astId": 852,
								"contract": "contracts/ArtemisZkVoting.sol:ArtemisDAOVoting",
								"label": "startTime",
								"offset": 0,
								"slot": "4",
								"type": "t_uint256"
							},
							{
								"astId": 854,
								"contract": "contracts/ArtemisZkVoting.sol:ArtemisDAOVoting",
								"label": "endTime",
								"offset": 0,
								"slot": "5",
								"type": "t_uint256"
							},
							{
								"astId": 856,
								"contract": "contracts/ArtemisZkVoting.sol:ArtemisDAOVoting",
								"label": "quorum",
								"offset": 0,
								"slot": "6",
								"type": "t_uint256"
							},
							{
								"astId": 858,
								"contract": "contracts/ArtemisZkVoting.sol:ArtemisDAOVoting",
								"label": "hasEnded",
								"offset": 0,
								"slot": "7",
								"type": "t_bool"
							},
							{
								"astId": 860,
								"contract": "contracts/ArtemisZkVoting.sol:ArtemisDAOVoting",
								"label": "passcodeHash",
								"offset": 0,
								"slot": "8",
								"type": "t_uint256"
							}
						],
						"numberOfBytes": "288"
					},
					"t_uint256": {
						"encoding": "inplace",
						"label": "uint256",
						"numberOfBytes": "32"
					}
				}
			},
			"userdoc": {
				"kind": "user",
				"methods": {},
				"version": 1
			}
		}
	}
}