{
	"data": {
		"bytecode": {
			"linkReferences": {},
			"object": "608060405234801562000010575f80fd5b5060405162002ce338038062002ce3833981810160405281019062000036919062000202565b805f73ffffffffffffffffffffffffffffffffffffffff168173ffffffffffffffffffffffffffffffffffffffff1603620000aa575f6040517f1e4fbdf7000000000000000000000000000000000000000000000000000000008152600401620000a1919062000243565b60405180910390fd5b620000bb81620000dc60201b60201c565b505f8060146101000a81548160ff021916908315150217905550506200025e565b5f805f9054906101000a900473ffffffffffffffffffffffffffffffffffffffff169050815f806101000a81548173ffffffffffffffffffffffffffffffffffffffff021916908373ffffffffffffffffffffffffffffffffffffffff1602179055508173ffffffffffffffffffffffffffffffffffffffff168173ffffffffffffffffffffffffffffffffffffffff167f8be0079c531659141344cd1fd0a4f28419497f9722a3daafe3b4186f6b6457e060405160405180910390a35050565b5f80fd5b5f73ffffffffffffffffffffffffffffffffffffffff82169050919050565b5f620001cc82620001a1565b9050919050565b620001de81620001c0565b8114620001e9575f80fd5b50565b5f81519050620001fc81620001d3565b92915050565b5f602082840312156200021a57620002196200019d565b5b5f6200022984828501620001ec565b91505092915050565b6200023d81620001c0565b82525050565b5f602082019050620002585f83018462000232565b92915050565b612a77806200026c5f395ff3fe608060405234801561000f575f80fd5b50600436106100f3575f3560e01c80638da5cb5b11610095578063da35c66411610064578063da35c66414610241578063f2fde38b1461025f578063f3cdcd1e1461027b578063f5c9d69e14610285576100f3565b80638da5cb5b146101b5578063a843c51f146101d3578063c7f758a8146101ef578063d7e82e2e14610225576100f3565b8063649f89a5116100d1578063649f89a514610169578063715018a6146101855780637afdf93e1461018f5780638c7d69e414610199576100f3565b8063013cf08b146100f75780632b7ac3f31461012d5780635c975abb1461014b575b5f80fd5b610111600480360381019061010c91906116e2565b6102b5565b60405161012497969594939291906117d8565b60405180910390f35b610135610385565b60405161014291906118c6565b60405180910390f35b6101536103aa565b60405161016091906118df565b60405180910390f35b610183600480360381019061017e91906116e2565b6103bf565b005b61018d6105ab565b005b6101976105be565b005b6101b360048036038101906101ae9190611ae5565b6105d0565b005b6101bd610b2d565b6040516101ca9190611bb7565b60405180910390f35b6101ed60048036038101906101e89190611bfa565b610b54565b005b610209600480360381019061020491906116e2565b610b68565b60405161021c9796959493929190611c25565b60405180910390f35b61023f600480360381019061023a9190611d49565b610c55565b005b610249610dff565b6040516102569190611ddc565b60405180910390f35b61027960048036038101906102749190611bfa565b610e05565b005b610283610e89565b005b61029f600480360381019061029a9190611e37565b610e9b565b6040516102ac91906118df565b60405180910390f35b6002602052805f5260405f205f91509050805f0154908060010180546102da90611eca565b80601f016020809104026020016040519081016040528092919081815260200182805461030690611eca565b80156103515780601f1061032857610100808354040283529160200191610351565b820191905f5260205f20905b81548152906001019060200180831161033457829003601f168201915b505050505090806004015490806005015490806006015490806007015f9054906101000a900460ff16908060080154905087565b60015f9054906101000a900473ffffffffffffffffffffffffffffffffffffffff1681565b5f8060149054906101000a900460ff16905090565b5f60025f8381526020019081526020015f20905080600501544211610419576040517f08c379a000000000000000000000000000000000000000000000000000000000815260040161041090611f44565b60405180910390fd5b806007015f9054906101000a900460ff161561046a576040517f08c379a000000000000000000000000000000000000000000000000000000000815260040161046190611fd2565b60405180910390fd5b6001816007015f6101000a81548160ff0219169083151502179055505f816002015f801515151581526020019081526020015f2054826002015f60011515151581526020019081526020015f20546104c2919061201d565b90505f8082111561053457826006015482846002015f801515151581526020019081526020015f2054856002015f60011515151581526020019081526020015f205461050e919061201d565b610518919061201d565b6064846105259190612050565b61052f91906120be565b101590505b5f836002015f801515151581526020019081526020015f2054846002015f60011515151581526020019081526020015f20541190507f367048e102ba4927ccde851f5a4b4a5c93996244e9535a4eaa35b93994f2c5b685838360405161059c939291906120ee565b60405180910390a15050505050565b6105b3611351565b6105bc5f6113d8565b565b6105c6611351565b6105ce611499565b565b6105d86114fa565b5f60025f8881526020019081526020015f2090505f801b815f015403610633576040517f08c379a000000000000000000000000000000000000000000000000000000000815260040161062a9061216d565b60405180910390fd5b806007015f9054906101000a900460ff1615610684576040517f08c379a000000000000000000000000000000000000000000000000000000000815260040161067b906121fb565b60405180910390fd5b80600401544210156106cb576040517f08c379a00000000000000000000000000000000000000000000000000000000081526004016106c290612263565b60405180910390fd5b8060050154421115610712576040517f08c379a0000000000000000000000000000000000000000000000000000000008152600401610709906122cb565b60405180910390fd5b806003015f8481526020019081526020015f205f9054906101000a900460ff1615610772576040517f08c379a000000000000000000000000000000000000000000000000000000000815260040161076990612333565b60405180910390fd5b6107bd818686808060200260200160405190810160405280939291908181526020018383602002808284375f81840152601f19601f820116905080830192505050505050508561153b565b6107f3576040517fb05e92fa00000000000000000000000000000000000000000000000000000000815260040160405180910390fd5b6008825114610837576040517f08c379a000000000000000000000000000000000000000000000000000000000815260040161082e9061239b565b60405180910390fd5b5f6040518060400160405280845f81518110610856576108556123b9565b5b6020026020010151815260200184600181518110610877576108766123b9565b5b602002602001015181525090505f60405180604001604052806040518060400160405280876002815181106108af576108ae6123b9565b5b60200260200101518152602001876003815181106108d0576108cf6123b9565b5b602002602001015181525081526020016040518060400160405280876004815181106108ff576108fe6123b9565b5b60200260200101518152602001876005815181106109205761091f6123b9565b5b602002602001015181525081525090505f6040518060400160405280866006815181106109505761094f6123b9565b5b6020026020010151815260200186600781518110610971576109706123b9565b5b602002602001015181525090505f6040518060400160405280866008015481526020013373ffffffffffffffffffffffffffffffffffffffff16815250905060015f9054906101000a900473ffffffffffffffffffffffffffffffffffffffff1673ffffffffffffffffffffffffffffffffffffffff1663f5c9d69e858585856040518563ffffffff1660e01b8152600401610a109493929190612581565b602060405180830381865afa158015610a2b573d5f803e3d5ffd5b505050506040513d601f19601f82011682018060405250810190610a4f91906125da565b610a8e576040517f08c379a0000000000000000000000000000000000000000000000000000000008152600401610a859061264f565b60405180910390fd5b6001856002015f8c1515151581526020019081526020015f205f828254610ab5919061201d565b925050819055506001856003015f8981526020019081526020015f205f6101000a81548160ff0219169083151502179055507f25375b46ce887ef9d462ae9772ab4270f5c3eb503d1194f5af15c0c7ccae0dc08b8b604051610b1892919061266d565b60405180910390a15050505050505050505050565b5f805f9054906101000a900473ffffffffffffffffffffffffffffffffffffffff16905090565b610b5c611351565b610b6581610e05565b50565b5f60605f805f805f8060025f8a81526020019081526020015f209050805f0154816001018260040154836005015484600601548560080154866007015f9054906101000a900460ff16858054610bbd90611eca565b80601f0160208091040260200160405190810160405280929190818152602001828054610be990611eca565b8015610c345780601f10610c0b57610100808354040283529160200191610c34565b820191905f5260205f20905b815481529060010190602001808311610c1757829003601f168201915b50505050509550975097509750975097509750975050919395979092949650565b610c5d611351565b5f8311610c9f576040517f08c379a0000000000000000000000000000000000000000000000000000000008152600401610c9690612704565b60405180910390fd5b5f8210158015610cb0575060648211155b610cef576040517f08c379a0000000000000000000000000000000000000000000000000000000008152600401610ce690612792565b60405180910390fd5b600160035f828254610d01919061201d565b925050819055508360025f60035481526020019081526020015f205f01819055508460025f60035481526020019081526020015f206001019081610d459190612944565b504260025f60035481526020019081526020015f20600401819055508242610d6d919061201d565b60025f60035481526020019081526020015f20600501819055508160025f60035481526020019081526020015f20600601819055508060025f60035481526020019081526020015f20600801819055507ff970aa486598017b8116c2beb18c50d4584ecbc3c688817f59b26796725f31bf60035486604051610df0929190612a13565b60405180910390a15050505050565b60035481565b610e0d611351565b5f73ffffffffffffffffffffffffffffffffffffffff168173ffffffffffffffffffffffffffffffffffffffff1603610e7d575f6040517f1e4fbdf7000000000000000000000000000000000000000000000000000000008152600401610e749190611bb7565b60405180910390fd5b610e86816113d8565b50565b610e91611351565b610e99611553565b565b5f61130b565b7f30644e72e131a029b85045b68181585d97816a916871ca8d3c208c16d87cfd478110610ed0575f805260205ff35b50565b5f60405183815284602082015285604082015260408160608360076107d05a03fa915081610f03575f805260205ff35b825160408201526020830151606082015260408360808360066107d05a03fa915081610f31575f805260205ff35b505050505050565b5f608086015f87017f1304bf22ef56518f9cc5c488b6c5ae975a5d589ad9db095a096404587de1516981527f28cd6f657b6579272838bc93984217616aa75478216d20ec00bf1337ff825f1c6020820152610fd95f8801357f2a6af62e9bc14c42a4997cee7968eafa94c4407805b8cb276ad1009e64da69457f2621b3ff65f7221a3f86d007638cf6dd69d6f50ea4b70ee0a35fefe56045097c84610ed3565b61102960208801357f2951e735e80a08a1502af7304af36e7b00b71740133b83401cffb2bb3b2a84b67f0e935bd715d989ceb7939e82111a2ce8d69c6e5d6c2a6ff8bd6f13973031755e84610ed3565b833582527f30644e72e131a029b85045b68181585d97816a916871ca8d3c208c16d87cfd4760208501357f30644e72e131a029b85045b68181585d97816a916871ca8d3c208c16d87cfd4703066020830152843560408301526020850135606083015260408501356080830152606085013560a08301527f23441971e1e09b7ae39945bd8b8fd751de1b3caa93d920c7214c39c6b178b43d60c08301527f1f44d4c10c85881e4d99891a828d432d8066ae53a68c982ce2491416341174b060e08301527f02009be0262b5949ad674fbe43cc4eb6f64ef02e1c89fc3dc507e84087e4e4546101008301527f0ad54a1eba17eab817d3eedf367f834b95814960fcbbb4ffac7e1cafda748afb6101208301527f2afe4315d7d4bc43443ff2f9781b31ecbd94a85c15f38d5e49ecba8fabe118466101408301527f1fde6c738f466e0d30797d5e68066264f1429c9a1a507cb3a6254bde4efb5f096101608301525f88015161018083015260205f018801516101a08301527f198e9393920d483a7260bfb731fb5d25f1aa493335a9e71297e485b7aef312c26101c08301527f1800deef121f1e76426a00665e5c4479674322d4f75edadd46debd5cd992f6ed6101e08301527f090689d0585ff075ec9e99ad690c3395bc4b313370b38ef355acdadcd122975b6102008301527f12c85ea5db8c6deb4aab71808dcb408fe3d1e7690c43d37b4ce6cc0166fa7daa610220830152853561024083015260208601356102608301527f0e9c1d942717c6cb9136075c57dae34d309e93e6c5419c52db2e06f8b6faebf96102808301527f09da7c3fdf3cb5b1373af4312efc360f95971044f95d9934ebd057c8517c5e126102a08301527f0a45d3d38b9f90bbf51b9dd1031b049e46fbd4456714fb4a518dd9a42d279d606102c08301527f25473e2f0ef48559fb0457c572fbe5357c723740ee2f1e9483c87a2a2c6558016102e08301526020826103008460086107d05a03fa82518116935050505095945050505050565b60405161038081016040526113225f840135610ea1565b61132f6020840135610ea1565b61133c6040840135610ea1565b611349818486888a610f39565b805f5260205ff35b6113596115b5565b73ffffffffffffffffffffffffffffffffffffffff16611377610b2d565b73ffffffffffffffffffffffffffffffffffffffff16146113d65761139a6115b5565b6040517f118cdaa70000000000000000000000000000000000000000000000000000000081526004016113cd9190611bb7565b60405180910390fd5b565b5f805f9054906101000a900473ffffffffffffffffffffffffffffffffffffffff169050815f806101000a81548173ffffffffffffffffffffffffffffffffffffffff021916908373ffffffffffffffffffffffffffffffffffffffff1602179055508173ffffffffffffffffffffffffffffffffffffffff168173ffffffffffffffffffffffffffffffffffffffff167f8be0079c531659141344cd1fd0a4f28419497f9722a3daafe3b4186f6b6457e060405160405180910390a35050565b6114a16115bc565b5f8060146101000a81548160ff0219169083151502179055507f5db9ee0a495bf2e6ff9c91a7834c1ba4fdd244a5e8aa4e537bd38aeae4b073aa6114e36115b5565b6040516114f09190611bb7565b60405180910390a1565b6115026103aa565b15611539576040517fd93c066500000000000000000000000000000000000000000000000000000000815260040160405180910390fd5b565b5f61154a83855f0154846115fc565b90509392505050565b61155b6114fa565b60015f60146101000a81548160ff0219169083151502179055507f62e78cea01bee320cd4e420270b5ea74000d11b0c9f74754ebdbfc544b05a25861159e6115b5565b6040516115ab9190611bb7565b60405180910390a1565b5f33905090565b6115c46103aa565b6115fa576040517f8dfc202b00000000000000000000000000000000000000000000000000000000815260040160405180910390fd5b565b5f826116088584611612565b1490509392505050565b5f808290505f5b84518110156116555761164682868381518110611639576116386123b9565b5b6020026020010151611660565b91508080600101915050611619565b508091505092915050565b5f81831061167757611672828461168a565b611682565b611681838361168a565b5b905092915050565b5f825f528160205260405f20905092915050565b5f604051905090565b5f80fd5b5f80fd5b5f819050919050565b6116c1816116af565b81146116cb575f80fd5b50565b5f813590506116dc816116b8565b92915050565b5f602082840312156116f7576116f66116a7565b5b5f611704848285016116ce565b91505092915050565b5f819050919050565b61171f8161170d565b82525050565b5f81519050919050565b5f82825260208201905092915050565b5f5b8381101561175c578082015181840152602081019050611741565b5f8484015250505050565b5f601f19601f8301169050919050565b5f61178182611725565b61178b818561172f565b935061179b81856020860161173f565b6117a481611767565b840191505092915050565b6117b8816116af565b82525050565b5f8115159050919050565b6117d2816117be565b82525050565b5f60e0820190506117eb5f83018a611716565b81810360208301526117fd8189611777565b905061180c60408301886117af565b61181960608301876117af565b61182660808301866117af565b61183360a08301856117c9565b61184060c08301846117af565b98975050505050505050565b5f73ffffffffffffffffffffffffffffffffffffffff82169050919050565b5f819050919050565b5f61188e6118896118848461184c565b61186b565b61184c565b9050919050565b5f61189f82611874565b9050919050565b5f6118b082611895565b9050919050565b6118c0816118a6565b82525050565b5f6020820190506118d95f8301846118b7565b92915050565b5f6020820190506118f25f8301846117c9565b92915050565b611901816117be565b811461190b575f80fd5b50565b5f8135905061191c816118f8565b92915050565b5f80fd5b5f80fd5b5f80fd5b5f8083601f84011261194357611942611922565b5b8235905067ffffffffffffffff8111156119605761195f611926565b5b60208301915083602082028301111561197c5761197b61192a565b5b9250929050565b61198c8161170d565b8114611996575f80fd5b50565b5f813590506119a781611983565b92915050565b7f4e487b71000000000000000000000000000000000000000000000000000000005f52604160045260245ffd5b6119e382611767565b810181811067ffffffffffffffff82111715611a0257611a016119ad565b5b80604052505050565b5f611a1461169e565b9050611a2082826119da565b919050565b5f67ffffffffffffffff821115611a3f57611a3e6119ad565b5b602082029050602081019050919050565b5f611a62611a5d84611a25565b611a0b565b90508083825260208201905060208402830185811115611a8557611a8461192a565b5b835b81811015611aae5780611a9a88826116ce565b845260208401935050602081019050611a87565b5050509392505050565b5f82601f830112611acc57611acb611922565b5b8135611adc848260208601611a50565b91505092915050565b5f805f805f8060a08789031215611aff57611afe6116a7565b5b5f611b0c89828a016116ce565b9650506020611b1d89828a0161190e565b955050604087013567ffffffffffffffff811115611b3e57611b3d6116ab565b5b611b4a89828a0161192e565b94509450506060611b5d89828a01611999565b925050608087013567ffffffffffffffff811115611b7e57611b7d6116ab565b5b611b8a89828a01611ab8565b9150509295509295509295565b5f611ba18261184c565b9050919050565b611bb181611b97565b82525050565b5f602082019050611bca5f830184611ba8565b92915050565b611bd981611b97565b8114611be3575f80fd5b50565b5f81359050611bf481611bd0565b92915050565b5f60208284031215611c0f57611c0e6116a7565b5b5f611c1c84828501611be6565b91505092915050565b5f60e082019050611c385f83018a611716565b8181036020830152611c4a8189611777565b9050611c5960408301886117af565b611c6660608301876117af565b611c7360808301866117af565b611c8060a08301856117af565b611c8d60c08301846117c9565b98975050505050505050565b5f80fd5b5f67ffffffffffffffff821115611cb757611cb66119ad565b5b611cc082611767565b9050602081019050919050565b828183375f83830152505050565b5f611ced611ce884611c9d565b611a0b565b905082815260208101848484011115611d0957611d08611c99565b5b611d14848285611ccd565b509392505050565b5f82601f830112611d3057611d2f611922565b5b8135611d40848260208601611cdb565b91505092915050565b5f805f805f60a08688031215611d6257611d616116a7565b5b5f86013567ffffffffffffffff811115611d7f57611d7e6116ab565b5b611d8b88828901611d1c565b9550506020611d9c88828901611999565b9450506040611dad888289016116ce565b9350506060611dbe888289016116ce565b9250506080611dcf888289016116ce565b9150509295509295909350565b5f602082019050611def5f8301846117af565b92915050565b5f81905082602060020282011115611e1057611e0f61192a565b5b92915050565b5f81905082604060020282011115611e3157611e3061192a565b5b92915050565b5f805f806101408587031215611e5057611e4f6116a7565b5b5f611e5d87828801611df5565b9450506040611e6e87828801611e16565b93505060c0611e7f87828801611df5565b925050610100611e9187828801611df5565b91505092959194509250565b7f4e487b71000000000000000000000000000000000000000000000000000000005f52602260045260245ffd5b5f6002820490506001821680611ee157607f821691505b602082108103611ef457611ef3611e9d565b5b50919050565b7f566f74696e6720706572696f64206973206e6f7420796574206f7665722e00005f82015250565b5f611f2e601e8361172f565b9150611f3982611efa565b602082019050919050565b5f6020820190508181035f830152611f5b81611f22565b9050919050565b7f566f74696e672068617320616c726561647920656e64656420666f72207468695f8201527f732070726f706f73616c2e000000000000000000000000000000000000000000602082015250565b5f611fbc602b8361172f565b9150611fc782611f62565b604082019050919050565b5f6020820190508181035f830152611fe981611fb0565b9050919050565b7f4e487b71000000000000000000000000000000000000000000000000000000005f52601160045260245ffd5b5f612027826116af565b9150612032836116af565b925082820190508082111561204a57612049611ff0565b5b92915050565b5f61205a826116af565b9150612065836116af565b9250828202612073816116af565b9150828204841483151761208a57612089611ff0565b5b5092915050565b7f4e487b71000000000000000000000000000000000000000000000000000000005f52601260045260245ffd5b5f6120c8826116af565b91506120d3836116af565b9250826120e3576120e2612091565b5b828204905092915050565b5f6060820190506121015f8301866117af565b61210e60208301856117c9565b61211b60408301846117c9565b949350505050565b7f496e76616c69642070726f706f73616c2e0000000000000000000000000000005f82015250565b5f61215760118361172f565b915061216282612123565b602082019050919050565b5f6020820190508181035f8301526121848161214b565b9050919050565b7f566f74696e672068617320656e64656420666f7220746869732070726f706f735f8201527f616c2e0000000000000000000000000000000000000000000000000000000000602082015250565b5f6121e560238361172f565b91506121f08261218b565b604082019050919050565b5f6020820190508181035f830152612212816121d9565b9050919050565b7f566f74696e67206e6f742079657420737461727465642e0000000000000000005f82015250565b5f61224d60178361172f565b915061225882612219565b602082019050919050565b5f6020820190508181035f83015261227a81612241565b9050919050565b7f566f74696e672074696d652068617320656e6465642e000000000000000000005f82015250565b5f6122b560168361172f565b91506122c082612281565b602082019050919050565b5f6020820190508181035f8301526122e2816122a9565b9050919050565b7f416c726561647920766f7465642e0000000000000000000000000000000000005f82015250565b5f61231d600e8361172f565b9150612328826122e9565b602082019050919050565b5f6020820190508181035f83015261234a81612311565b9050919050565b7f496e76616c69642070726f6f66000000000000000000000000000000000000005f82015250565b5f612385600d8361172f565b915061239082612351565b602082019050919050565b5f6020820190508181035f8301526123b281612379565b9050919050565b7f4e487b71000000000000000000000000000000000000000000000000000000005f52603260045260245ffd5b5f60029050919050565b5f81905092915050565b5f819050919050565b61240c816116af565b82525050565b5f61241d8383612403565b60208301905092915050565b5f602082019050919050565b61243e816123e6565b61244881846123f0565b9250612453826123fa565b805f5b8381101561248357815161246a8782612412565b965061247583612429565b925050600181019050612456565b505050505050565b5f60029050919050565b5f81905092915050565b5f819050919050565b5f81905092915050565b6124bb816123e6565b6124c581846124a8565b92506124d0826123fa565b805f5b838110156125005781516124e78782612412565b96506124f283612429565b9250506001810190506124d3565b505050505050565b5f61251383836124b2565b60408301905092915050565b5f602082019050919050565b6125348161248b565b61253e8184612495565b92506125498261249f565b805f5b838110156125795781516125608782612508565b965061256b8361251f565b92505060018101905061254c565b505050505050565b5f610140820190506125955f830187612435565b6125a2604083018661252b565b6125af60c0830185612435565b6125bd610100830184612435565b95945050505050565b5f815190506125d4816118f8565b92915050565b5f602082840312156125ef576125ee6116a7565b5b5f6125fc848285016125c6565b91505092915050565b7f4661696c6564207665726966792070726f6f66000000000000000000000000005f82015250565b5f61263960138361172f565b915061264482612605565b602082019050919050565b5f6020820190508181035f8301526126668161262d565b9050919050565b5f6040820190506126805f8301856117af565b61268d60208301846117c9565b9392505050565b7f4475726174696f6e2073686f756c642062652067726561746572207468616e205f8201527f7a65726f00000000000000000000000000000000000000000000000000000000602082015250565b5f6126ee60248361172f565b91506126f982612694565b604082019050919050565b5f6020820190508181035f83015261271b816126e2565b9050919050565b7f51756f72756d2073686f756c64206265206265747765656e203020616e6420315f8201527f3030000000000000000000000000000000000000000000000000000000000000602082015250565b5f61277c60228361172f565b915061278782612722565b604082019050919050565b5f6020820190508181035f8301526127a981612770565b9050919050565b5f819050815f5260205f209050919050565b5f6020601f8301049050919050565b5f82821b905092915050565b5f6008830261280c7fffffffffffffffffffffffffffffffffffffffffffffffffffffffffffffffff826127d1565b61281686836127d1565b95508019841693508086168417925050509392505050565b5f61284861284361283e846116af565b61186b565b6116af565b9050919050565b5f819050919050565b6128618361282e565b61287561286d8261284f565b8484546127dd565b825550505050565b5f90565b61288961287d565b612894818484612858565b505050565b5b818110156128b7576128ac5f82612881565b60018101905061289a565b5050565b601f8211156128fc576128cd816127b0565b6128d6846127c2565b810160208510156128e5578190505b6128f96128f1856127c2565b830182612899565b50505b505050565b5f82821c905092915050565b5f61291c5f1984600802612901565b1980831691505092915050565b5f612934838361290d565b9150826002028217905092915050565b61294d82611725565b67ffffffffffffffff811115612966576129656119ad565b5b6129708254611eca565b61297b8282856128bb565b5f60209050601f8311600181146129ac575f841561299a578287015190505b6129a48582612929565b865550612a0b565b601f1984166129ba866127b0565b5f5b828110156129e1578489015182556001820191506020850194506020810190506129bc565b868310156129fe57848901516129fa601f89168261290d565b8355505b6001600288020188555050505b505050505050565b5f604082019050612a265f8301856117af565b8181036020830152612a388184611777565b9050939250505056fea26469706673582212200a435704388df5b293906fbe415e20444daaf360dffedec028390a198c61403c64736f6c63430008160033",
			"opcodes": "PUSH1 0x80 PUSH1 0x40 MSTORE CALLVALUE DUP1 ISZERO PUSH3 0x10 JUMPI PUSH0 DUP1 REVERT JUMPDEST POP PUSH1 0x40 MLOAD PUSH3 0x2CE3 CODESIZE SUB DUP1 PUSH3 0x2CE3 DUP4 CODECOPY DUP2 DUP2 ADD PUSH1 0x40 MSTORE DUP2 ADD SWAP1 PUSH3 0x36 SWAP2 SWAP1 PUSH3 0x202 JUMP JUMPDEST DUP1 PUSH0 PUSH20 0xFFFFFFFFFFFFFFFFFFFFFFFFFFFFFFFFFFFFFFFF AND DUP2 PUSH20 0xFFFFFFFFFFFFFFFFFFFFFFFFFFFFFFFFFFFFFFFF AND SUB PUSH3 0xAA JUMPI PUSH0 PUSH1 0x40 MLOAD PUSH32 0x1E4FBDF700000000000000000000000000000000000000000000000000000000 DUP2 MSTORE PUSH1 0x4 ADD PUSH3 0xA1 SWAP2 SWAP1 PUSH3 0x243 JUMP JUMPDEST PUSH1 0x40 MLOAD DUP1 SWAP2 SUB SWAP1 REVERT JUMPDEST PUSH3 0xBB DUP2 PUSH3 0xDC PUSH1 0x20 SHL PUSH1 0x20 SHR JUMP JUMPDEST POP PUSH0 DUP1 PUSH1 0x14 PUSH2 0x100 EXP DUP2 SLOAD DUP2 PUSH1 0xFF MUL NOT AND SWAP1 DUP4 ISZERO ISZERO MUL OR SWAP1 SSTORE POP POP PUSH3 0x25E JUMP JUMPDEST PUSH0 DUP1 PUSH0 SWAP1 SLOAD SWAP1 PUSH2 0x100 EXP SWAP1 DIV PUSH20 0xFFFFFFFFFFFFFFFFFFFFFFFFFFFFFFFFFFFFFFFF AND SWAP1 POP DUP2 PUSH0 DUP1 PUSH2 0x100 EXP DUP2 SLOAD DUP2 PUSH20 0xFFFFFFFFFFFFFFFFFFFFFFFFFFFFFFFFFFFFFFFF MUL NOT AND SWAP1 DUP4 PUSH20 0xFFFFFFFFFFFFFFFFFFFFFFFFFFFFFFFFFFFFFFFF AND MUL OR SWAP1 SSTORE POP DUP2 PUSH20 0xFFFFFFFFFFFFFFFFFFFFFFFFFFFFFFFFFFFFFFFF AND DUP2 PUSH20 0xFFFFFFFFFFFFFFFFFFFFFFFFFFFFFFFFFFFFFFFF AND PUSH32 0x8BE0079C531659141344CD1FD0A4F28419497F9722A3DAAFE3B4186F6B6457E0 PUSH1 0x40 MLOAD PUSH1 0x40 MLOAD DUP1 SWAP2 SUB SWAP1 LOG3 POP POP JUMP JUMPDEST PUSH0 DUP1 REVERT JUMPDEST PUSH0 PUSH20 0xFFFFFFFFFFFFFFFFFFFFFFFFFFFFFFFFFFFFFFFF DUP3 AND SWAP1 POP SWAP2 SWAP1 POP JUMP JUMPDEST PUSH0 PUSH3 0x1CC DUP3 PUSH3 0x1A1 JUMP JUMPDEST SWAP1 POP SWAP2 SWAP1 POP JUMP JUMPDEST PUSH3 0x1DE DUP2 PUSH3 0x1C0 JUMP JUMPDEST DUP2 EQ PUSH3 0x1E9 JUMPI PUSH0 DUP1 REVERT JUMPDEST POP JUMP JUMPDEST PUSH0 DUP2 MLOAD SWAP1 POP PUSH3 0x1FC DUP2 PUSH3 0x1D3 JUMP JUMPDEST SWAP3 SWAP2 POP POP JUMP JUMPDEST PUSH0 PUSH1 0x20 DUP3 DUP5 SUB SLT ISZERO PUSH3 0x21A JUMPI PUSH3 0x219 PUSH3 0x19D JUMP JUMPDEST JUMPDEST PUSH0 PUSH3 0x229 DUP5 DUP3 DUP6 ADD PUSH3 0x1EC JUMP JUMPDEST SWAP2 POP POP SWAP3 SWAP2 POP POP JUMP JUMPDEST PUSH3 0x23D DUP2 PUSH3 0x1C0 JUMP JUMPDEST DUP3 MSTORE POP POP JUMP JUMPDEST PUSH0 PUSH1 0x20 DUP3 ADD SWAP1 POP PUSH3 0x258 PUSH0 DUP4 ADD DUP5 PUSH3 0x232 JUMP JUMPDEST SWAP3 SWAP2 POP POP JUMP JUMPDEST PUSH2 0x2A77 DUP1 PUSH3 0x26C PUSH0 CODECOPY PUSH0 RETURN INVALID PUSH1 0x80 PUSH1 0x40 MSTORE CALLVALUE DUP1 ISZERO PUSH2 0xF JUMPI PUSH0 DUP1 REVERT JUMPDEST POP PUSH1 0x4 CALLDATASIZE LT PUSH2 0xF3 JUMPI PUSH0 CALLDATALOAD PUSH1 0xE0 SHR DUP1 PUSH4 0x8DA5CB5B GT PUSH2 0x95 JUMPI DUP1 PUSH4 0xDA35C664 GT PUSH2 0x64 JUMPI DUP1 PUSH4 0xDA35C664 EQ PUSH2 0x241 JUMPI DUP1 PUSH4 0xF2FDE38B EQ PUSH2 0x25F JUMPI DUP1 PUSH4 0xF3CDCD1E EQ PUSH2 0x27B JUMPI DUP1 PUSH4 0xF5C9D69E EQ PUSH2 0x285 JUMPI PUSH2 0xF3 JUMP JUMPDEST DUP1 PUSH4 0x8DA5CB5B EQ PUSH2 0x1B5 JUMPI DUP1 PUSH4 0xA843C51F EQ PUSH2 0x1D3 JUMPI DUP1 PUSH4 0xC7F758A8 EQ PUSH2 0x1EF JUMPI DUP1 PUSH4 0xD7E82E2E EQ PUSH2 0x225 JUMPI PUSH2 0xF3 JUMP JUMPDEST DUP1 PUSH4 0x649F89A5 GT PUSH2 0xD1 JUMPI DUP1 PUSH4 0x649F89A5 EQ PUSH2 0x169 JUMPI DUP1 PUSH4 0x715018A6 EQ PUSH2 0x185 JUMPI DUP1 PUSH4 0x7AFDF93E EQ PUSH2 0x18F JUMPI DUP1 PUSH4 0x8C7D69E4 EQ PUSH2 0x199 JUMPI PUSH2 0xF3 JUMP JUMPDEST DUP1 PUSH4 0x13CF08B EQ PUSH2 0xF7 JUMPI DUP1 PUSH4 0x2B7AC3F3 EQ PUSH2 0x12D JUMPI DUP1 PUSH4 0x5C975ABB EQ PUSH2 0x14B JUMPI JUMPDEST PUSH0 DUP1 REVERT JUMPDEST PUSH2 0x111 PUSH1 0x4 DUP1 CALLDATASIZE SUB DUP2 ADD SWAP1 PUSH2 0x10C SWAP2 SWAP1 PUSH2 0x16E2 JUMP JUMPDEST PUSH2 0x2B5 JUMP JUMPDEST PUSH1 0x40 MLOAD PUSH2 0x124 SWAP8 SWAP7 SWAP6 SWAP5 SWAP4 SWAP3 SWAP2 SWAP1 PUSH2 0x17D8 JUMP JUMPDEST PUSH1 0x40 MLOAD DUP1 SWAP2 SUB SWAP1 RETURN JUMPDEST PUSH2 0x135 PUSH2 0x385 JUMP JUMPDEST PUSH1 0x40 MLOAD PUSH2 0x142 SWAP2 SWAP1 PUSH2 0x18C6 JUMP JUMPDEST PUSH1 0x40 MLOAD DUP1 SWAP2 SUB SWAP1 RETURN JUMPDEST PUSH2 0x153 PUSH2 0x3AA JUMP JUMPDEST PUSH1 0x40 MLOAD PUSH2 0x160 SWAP2 SWAP1 PUSH2 0x18DF JUMP JUMPDEST PUSH1 0x40 MLOAD DUP1 SWAP2 SUB SWAP1 RETURN JUMPDEST PUSH2 0x183 PUSH1 0x4 DUP1 CALLDATASIZE SUB DUP2 ADD SWAP1 PUSH2 0x17E SWAP2 SWAP1 PUSH2 0x16E2 JUMP JUMPDEST PUSH2 0x3BF JUMP JUMPDEST STOP JUMPDEST PUSH2 0x18D PUSH2 0x5AB JUMP JUMPDEST STOP JUMPDEST PUSH2 0x197 PUSH2 0x5BE JUMP JUMPDEST STOP JUMPDEST PUSH2 0x1B3 PUSH1 0x4 DUP1 CALLDATASIZE SUB DUP2 ADD SWAP1 PUSH2 0x1AE SWAP2 SWAP1 PUSH2 0x1AE5 JUMP JUMPDEST PUSH2 0x5D0 JUMP JUMPDEST STOP JUMPDEST PUSH2 0x1BD PUSH2 0xB2D JUMP JUMPDEST PUSH1 0x40 MLOAD PUSH2 0x1CA SWAP2 SWAP1 PUSH2 0x1BB7 JUMP JUMPDEST PUSH1 0x40 MLOAD DUP1 SWAP2 SUB SWAP1 RETURN JUMPDEST PUSH2 0x1ED PUSH1 0x4 DUP1 CALLDATASIZE SUB DUP2 ADD SWAP1 PUSH2 0x1E8 SWAP2 SWAP1 PUSH2 0x1BFA JUMP JUMPDEST PUSH2 0xB54 JUMP JUMPDEST STOP JUMPDEST PUSH2 0x209 PUSH1 0x4 DUP1 CALLDATASIZE SUB DUP2 ADD SWAP1 PUSH2 0x204 SWAP2 SWAP1 PUSH2 0x16E2 JUMP JUMPDEST PUSH2 0xB68 JUMP JUMPDEST PUSH1 0x40 MLOAD PUSH2 0x21C SWAP8 SWAP7 SWAP6 SWAP5 SWAP4 SWAP3 SWAP2 SWAP1 PUSH2 0x1C25 JUMP JUMPDEST PUSH1 0x40 MLOAD DUP1 SWAP2 SUB SWAP1 RETURN JUMPDEST PUSH2 0x23F PUSH1 0x4 DUP1 CALLDATASIZE SUB DUP2 ADD SWAP1 PUSH2 0x23A SWAP2 SWAP1 PUSH2 0x1D49 JUMP JUMPDEST PUSH2 0xC55 JUMP JUMPDEST STOP JUMPDEST PUSH2 0x249 PUSH2 0xDFF JUMP JUMPDEST PUSH1 0x40 MLOAD PUSH2 0x256 SWAP2 SWAP1 PUSH2 0x1DDC JUMP JUMPDEST PUSH1 0x40 MLOAD DUP1 SWAP2 SUB SWAP1 RETURN JUMPDEST PUSH2 0x279 PUSH1 0x4 DUP1 CALLDATASIZE SUB DUP2 ADD SWAP1 PUSH2 0x274 SWAP2 SWAP1 PUSH2 0x1BFA JUMP JUMPDEST PUSH2 0xE05 JUMP JUMPDEST STOP JUMPDEST PUSH2 0x283 PUSH2 0xE89 JUMP JUMPDEST STOP JUMPDEST PUSH2 0x29F PUSH1 0x4 DUP1 CALLDATASIZE SUB DUP2 ADD SWAP1 PUSH2 0x29A SWAP2 SWAP1 PUSH2 0x1E37 JUMP JUMPDEST PUSH2 0xE9B JUMP JUMPDEST PUSH1 0x40 MLOAD PUSH2 0x2AC SWAP2 SWAP1 PUSH2 0x18DF JUMP JUMPDEST PUSH1 0x40 MLOAD DUP1 SWAP2 SUB SWAP1 RETURN JUMPDEST PUSH1 0x2 PUSH1 0x20 MSTORE DUP1 PUSH0 MSTORE PUSH1 0x40 PUSH0 KECCAK256 PUSH0 SWAP2 POP SWAP1 POP DUP1 PUSH0 ADD SLOAD SWAP1 DUP1 PUSH1 0x1 ADD DUP1 SLOAD PUSH2 0x2DA SWAP1 PUSH2 0x1ECA JUMP JUMPDEST DUP1 PUSH1 0x1F ADD PUSH1 0x20 DUP1 SWAP2 DIV MUL PUSH1 0x20 ADD PUSH1 0x40 MLOAD SWAP1 DUP2 ADD PUSH1 0x40 MSTORE DUP1 SWAP3 SWAP2 SWAP1 DUP2 DUP2 MSTORE PUSH1 0x20 ADD DUP3 DUP1 SLOAD PUSH2 0x306 SWAP1 PUSH2 0x1ECA JUMP JUMPDEST DUP1 ISZERO PUSH2 0x351 JUMPI DUP1 PUSH1 0x1F LT PUSH2 0x328 JUMPI PUSH2 0x100 DUP1 DUP4 SLOAD DIV MUL DUP4 MSTORE SWAP2 PUSH1 0x20 ADD SWAP2 PUSH2 0x351 JUMP JUMPDEST DUP3 ADD SWAP2 SWAP1 PUSH0 MSTORE PUSH1 0x20 PUSH0 KECCAK256 SWAP1 JUMPDEST DUP2 SLOAD DUP2 MSTORE SWAP1 PUSH1 0x1 ADD SWAP1 PUSH1 0x20 ADD DUP1 DUP4 GT PUSH2 0x334 JUMPI DUP3 SWAP1 SUB PUSH1 0x1F AND DUP3 ADD SWAP2 JUMPDEST POP POP POP POP POP SWAP1 DUP1 PUSH1 0x4 ADD SLOAD SWAP1 DUP1 PUSH1 0x5 ADD SLOAD SWAP1 DUP1 PUSH1 0x6 ADD SLOAD SWAP1 DUP1 PUSH1 0x7 ADD PUSH0 SWAP1 SLOAD SWAP1 PUSH2 0x100 EXP SWAP1 DIV PUSH1 0xFF AND SWAP1 DUP1 PUSH1 0x8 ADD SLOAD SWAP1 POP DUP8 JUMP JUMPDEST PUSH1 0x1 PUSH0 SWAP1 SLOAD SWAP1 PUSH2 0x100 EXP SWAP1 DIV PUSH20 0xFFFFFFFFFFFFFFFFFFFFFFFFFFFFFFFFFFFFFFFF AND DUP2 JUMP JUMPDEST PUSH0 DUP1 PUSH1 0x14 SWAP1 SLOAD SWAP1 PUSH2 0x100 EXP SWAP1 DIV PUSH1 0xFF AND SWAP1 POP SWAP1 JUMP JUMPDEST PUSH0 PUSH1 0x2 PUSH0 DUP4 DUP2 MSTORE PUSH1 0x20 ADD SWAP1 DUP2 MSTORE PUSH1 0x20 ADD PUSH0 KECCAK256 SWAP1 POP DUP1 PUSH1 0x5 ADD SLOAD TIMESTAMP GT PUSH2 0x419 JUMPI PUSH1 0x40 MLOAD PUSH32 0x8C379A000000000000000000000000000000000000000000000000000000000 DUP2 MSTORE PUSH1 0x4 ADD PUSH2 0x410 SWAP1 PUSH2 0x1F44 JUMP JUMPDEST PUSH1 0x40 MLOAD DUP1 SWAP2 SUB SWAP1 REVERT JUMPDEST DUP1 PUSH1 0x7 ADD PUSH0 SWAP1 SLOAD SWAP1 PUSH2 0x100 EXP SWAP1 DIV PUSH1 0xFF AND ISZERO PUSH2 0x46A JUMPI PUSH1 0x40 MLOAD PUSH32 0x8C379A000000000000000000000000000000000000000000000000000000000 DUP2 MSTORE PUSH1 0x4 ADD PUSH2 0x461 SWAP1 PUSH2 0x1FD2 JUMP JUMPDEST PUSH1 0x40 MLOAD DUP1 SWAP2 SUB SWAP1 REVERT JUMPDEST PUSH1 0x1 DUP2 PUSH1 0x7 ADD PUSH0 PUSH2 0x100 EXP DUP2 SLOAD DUP2 PUSH1 0xFF MUL NOT AND SWAP1 DUP4 ISZERO ISZERO MUL OR SWAP1 SSTORE POP PUSH0 DUP2 PUSH1 0x2 ADD PUSH0 DUP1 ISZERO ISZERO ISZERO ISZERO DUP2 MSTORE PUSH1 0x20 ADD SWAP1 DUP2 MSTORE PUSH1 0x20 ADD PUSH0 KECCAK256 SLOAD DUP3 PUSH1 0x2 ADD PUSH0 PUSH1 0x1 ISZERO ISZERO ISZERO ISZERO DUP2 MSTORE PUSH1 0x20 ADD SWAP1 DUP2 MSTORE PUSH1 0x20 ADD PUSH0 KECCAK256 SLOAD PUSH2 0x4C2 SWAP2 SWAP1 PUSH2 0x201D JUMP JUMPDEST SWAP1 POP PUSH0 DUP1 DUP3 GT ISZERO PUSH2 0x534 JUMPI DUP3 PUSH1 0x6 ADD SLOAD DUP3 DUP5 PUSH1 0x2 ADD PUSH0 DUP1 ISZERO ISZERO ISZERO ISZERO DUP2 MSTORE PUSH1 0x20 ADD SWAP1 DUP2 MSTORE PUSH1 0x20 ADD PUSH0 KECCAK256 SLOAD DUP6 PUSH1 0x2 ADD PUSH0 PUSH1 0x1 ISZERO ISZERO ISZERO ISZERO DUP2 MSTORE PUSH1 0x20 ADD SWAP1 DUP2 MSTORE PUSH1 0x20 ADD PUSH0 KECCAK256 SLOAD PUSH2 0x50E SWAP2 SWAP1 PUSH2 0x201D JUMP JUMPDEST PUSH2 0x518 SWAP2 SWAP1 PUSH2 0x201D JUMP JUMPDEST PUSH1 0x64 DUP5 PUSH2 0x525 SWAP2 SWAP1 PUSH2 0x2050 JUMP JUMPDEST PUSH2 0x52F SWAP2 SWAP1 PUSH2 0x20BE JUMP JUMPDEST LT ISZERO SWAP1 POP JUMPDEST PUSH0 DUP4 PUSH1 0x2 ADD PUSH0 DUP1 ISZERO ISZERO ISZERO ISZERO DUP2 MSTORE PUSH1 0x20 ADD SWAP1 DUP2 MSTORE PUSH1 0x20 ADD PUSH0 KECCAK256 SLOAD DUP5 PUSH1 0x2 ADD PUSH0 PUSH1 0x1 ISZERO ISZERO ISZERO ISZERO DUP2 MSTORE PUSH1 0x20 ADD SWAP1 DUP2 MSTORE PUSH1 0x20 ADD PUSH0 KECCAK256 SLOAD GT SWAP1 POP PUSH32 0x367048E102BA4927CCDE851F5A4B4A5C93996244E9535A4EAA35B93994F2C5B6 DUP6 DUP4 DUP4 PUSH1 0x40 MLOAD PUSH2 0x59C SWAP4 SWAP3 SWAP2 SWAP1 PUSH2 0x20EE JUMP JUMPDEST PUSH1 0x40 MLOAD DUP1 SWAP2 SUB SWAP1 LOG1 POP POP POP POP POP JUMP JUMPDEST PUSH2 0x5B3 PUSH2 0x1351 JUMP JUMPDEST PUSH2 0x5BC PUSH0 PUSH2 0x13D8 JUMP JUMPDEST JUMP JUMPDEST PUSH2 0x5C6 PUSH2 0x1351 JUMP JUMPDEST PUSH2 0x5CE PUSH2 0x1499 JUMP JUMPDEST JUMP JUMPDEST PUSH2 0x5D8 PUSH2 0x14FA JUMP JUMPDEST PUSH0 PUSH1 0x2 PUSH0 DUP9 DUP2 MSTORE PUSH1 0x20 ADD SWAP1 DUP2 MSTORE PUSH1 0x20 ADD PUSH0 KECCAK256 SWAP1 POP PUSH0 DUP1 SHL DUP2 PUSH0 ADD SLOAD SUB PUSH2 0x633 JUMPI PUSH1 0x40 MLOAD PUSH32 0x8C379A000000000000000000000000000000000000000000000000000000000 DUP2 MSTORE PUSH1 0x4 ADD PUSH2 0x62A SWAP1 PUSH2 0x216D JUMP JUMPDEST PUSH1 0x40 MLOAD DUP1 SWAP2 SUB SWAP1 REVERT JUMPDEST DUP1 PUSH1 0x7 ADD PUSH0 SWAP1 SLOAD SWAP1 PUSH2 0x100 EXP SWAP1 DIV PUSH1 0xFF AND ISZERO PUSH2 0x684 JUMPI PUSH1 0x40 MLOAD PUSH32 0x8C379A000000000000000000000000000000000000000000000000000000000 DUP2 MSTORE PUSH1 0x4 ADD PUSH2 0x67B SWAP1 PUSH2 0x21FB JUMP JUMPDEST PUSH1 0x40 MLOAD DUP1 SWAP2 SUB SWAP1 REVERT JUMPDEST DUP1 PUSH1 0x4 ADD SLOAD TIMESTAMP LT ISZERO PUSH2 0x6CB JUMPI PUSH1 0x40 MLOAD PUSH32 0x8C379A000000000000000000000000000000000000000000000000000000000 DUP2 MSTORE PUSH1 0x4 ADD PUSH2 0x6C2 SWAP1 PUSH2 0x2263 JUMP JUMPDEST PUSH1 0x40 MLOAD DUP1 SWAP2 SUB SWAP1 REVERT JUMPDEST DUP1 PUSH1 0x5 ADD SLOAD TIMESTAMP GT ISZERO PUSH2 0x712 JUMPI PUSH1 0x40 MLOAD PUSH32 0x8C379A000000000000000000000000000000000000000000000000000000000 DUP2 MSTORE PUSH1 0x4 ADD PUSH2 0x709 SWAP1 PUSH2 0x22CB JUMP JUMPDEST PUSH1 0x40 MLOAD DUP1 SWAP2 SUB SWAP1 REVERT JUMPDEST DUP1 PUSH1 0x3 ADD PUSH0 DUP5 DUP2 MSTORE PUSH1 0x20 ADD SWAP1 DUP2 MSTORE PUSH1 0x20 ADD PUSH0 KECCAK256 PUSH0 SWAP1 SLOAD SWAP1 PUSH2 0x100 EXP SWAP1 DIV PUSH1 0xFF AND ISZERO PUSH2 0x772 JUMPI PUSH1 0x40 MLOAD PUSH32 0x8C379A000000000000000000000000000000000000000000000000000000000 DUP2 MSTORE PUSH1 0x4 ADD PUSH2 0x769 SWAP1 PUSH2 0x2333 JUMP JUMPDEST PUSH1 0x40 MLOAD DUP1 SWAP2 SUB SWAP1 REVERT JUMPDEST PUSH2 0x7BD DUP2 DUP7 DUP7 DUP1 DUP1 PUSH1 0x20 MUL PUSH1 0x20 ADD PUSH1 0x40 MLOAD SWAP1 DUP2 ADD PUSH1 0x40 MSTORE DUP1 SWAP4 SWAP3 SWAP2 SWAP1 DUP2 DUP2 MSTORE PUSH1 0x20 ADD DUP4 DUP4 PUSH1 0x20 MUL DUP1 DUP3 DUP5 CALLDATACOPY PUSH0 DUP2 DUP5 ADD MSTORE PUSH1 0x1F NOT PUSH1 0x1F DUP3 ADD AND SWAP1 POP DUP1 DUP4 ADD SWAP3 POP POP POP POP POP POP POP DUP6 PUSH2 0x153B JUMP JUMPDEST PUSH2 0x7F3 JUMPI PUSH1 0x40 MLOAD PUSH32 0xB05E92FA00000000000000000000000000000000000000000000000000000000 DUP2 MSTORE PUSH1 0x4 ADD PUSH1 0x40 MLOAD DUP1 SWAP2 SUB SWAP1 REVERT JUMPDEST PUSH1 0x8 DUP3 MLOAD EQ PUSH2 0x837 JUMPI PUSH1 0x40 MLOAD PUSH32 0x8C379A000000000000000000000000000000000000000000000000000000000 DUP2 MSTORE PUSH1 0x4 ADD PUSH2 0x82E SWAP1 PUSH2 0x239B JUMP JUMPDEST PUSH1 0x40 MLOAD DUP1 SWAP2 SUB SWAP1 REVERT JUMPDEST PUSH0 PUSH1 0x40 MLOAD DUP1 PUSH1 0x40 ADD PUSH1 0x40 MSTORE DUP1 DUP5 PUSH0 DUP2 MLOAD DUP2 LT PUSH2 0x856 JUMPI PUSH2 0x855 PUSH2 0x23B9 JUMP JUMPDEST JUMPDEST PUSH1 0x20 MUL PUSH1 0x20 ADD ADD MLOAD DUP2 MSTORE PUSH1 0x20 ADD DUP5 PUSH1 0x1 DUP2 MLOAD DUP2 LT PUSH2 0x877 JUMPI PUSH2 0x876 PUSH2 0x23B9 JUMP JUMPDEST JUMPDEST PUSH1 0x20 MUL PUSH1 0x20 ADD ADD MLOAD DUP2 MSTORE POP SWAP1 POP PUSH0 PUSH1 0x40 MLOAD DUP1 PUSH1 0x40 ADD PUSH1 0x40 MSTORE DUP1 PUSH1 0x40 MLOAD DUP1 PUSH1 0x40 ADD PUSH1 0x40 MSTORE DUP1 DUP8 PUSH1 0x2 DUP2 MLOAD DUP2 LT PUSH2 0x8AF JUMPI PUSH2 0x8AE PUSH2 0x23B9 JUMP JUMPDEST JUMPDEST PUSH1 0x20 MUL PUSH1 0x20 ADD ADD MLOAD DUP2 MSTORE PUSH1 0x20 ADD DUP8 PUSH1 0x3 DUP2 MLOAD DUP2 LT PUSH2 0x8D0 JUMPI PUSH2 0x8CF PUSH2 0x23B9 JUMP JUMPDEST JUMPDEST PUSH1 0x20 MUL PUSH1 0x20 ADD ADD MLOAD DUP2 MSTORE POP DUP2 MSTORE PUSH1 0x20 ADD PUSH1 0x40 MLOAD DUP1 PUSH1 0x40 ADD PUSH1 0x40 MSTORE DUP1 DUP8 PUSH1 0x4 DUP2 MLOAD DUP2 LT PUSH2 0x8FF JUMPI PUSH2 0x8FE PUSH2 0x23B9 JUMP JUMPDEST JUMPDEST PUSH1 0x20 MUL PUSH1 0x20 ADD ADD MLOAD DUP2 MSTORE PUSH1 0x20 ADD DUP8 PUSH1 0x5 DUP2 MLOAD DUP2 LT PUSH2 0x920 JUMPI PUSH2 0x91F PUSH2 0x23B9 JUMP JUMPDEST JUMPDEST PUSH1 0x20 MUL PUSH1 0x20 ADD ADD MLOAD DUP2 MSTORE POP DUP2 MSTORE POP SWAP1 POP PUSH0 PUSH1 0x40 MLOAD DUP1 PUSH1 0x40 ADD PUSH1 0x40 MSTORE DUP1 DUP7 PUSH1 0x6 DUP2 MLOAD DUP2 LT PUSH2 0x950 JUMPI PUSH2 0x94F PUSH2 0x23B9 JUMP JUMPDEST JUMPDEST PUSH1 0x20 MUL PUSH1 0x20 ADD ADD MLOAD DUP2 MSTORE PUSH1 0x20 ADD DUP7 PUSH1 0x7 DUP2 MLOAD DUP2 LT PUSH2 0x971 JUMPI PUSH2 0x970 PUSH2 0x23B9 JUMP JUMPDEST JUMPDEST PUSH1 0x20 MUL PUSH1 0x20 ADD ADD MLOAD DUP2 MSTORE POP SWAP1 POP PUSH0 PUSH1 0x40 MLOAD DUP1 PUSH1 0x40 ADD PUSH1 0x40 MSTORE DUP1 DUP7 PUSH1 0x8 ADD SLOAD DUP2 MSTORE PUSH1 0x20 ADD CALLER PUSH20 0xFFFFFFFFFFFFFFFFFFFFFFFFFFFFFFFFFFFFFFFF AND DUP2 MSTORE POP SWAP1 POP PUSH1 0x1 PUSH0 SWAP1 SLOAD SWAP1 PUSH2 0x100 EXP SWAP1 DIV PUSH20 0xFFFFFFFFFFFFFFFFFFFFFFFFFFFFFFFFFFFFFFFF AND PUSH20 0xFFFFFFFFFFFFFFFFFFFFFFFFFFFFFFFFFFFFFFFF AND PUSH4 0xF5C9D69E DUP6 DUP6 DUP6 DUP6 PUSH1 0x40 MLOAD DUP6 PUSH4 0xFFFFFFFF AND PUSH1 0xE0 SHL DUP2 MSTORE PUSH1 0x4 ADD PUSH2 0xA10 SWAP5 SWAP4 SWAP3 SWAP2 SWAP1 PUSH2 0x2581 JUMP JUMPDEST PUSH1 0x20 PUSH1 0x40 MLOAD DUP1 DUP4 SUB DUP2 DUP7 GAS STATICCALL ISZERO DUP1 ISZERO PUSH2 0xA2B JUMPI RETURNDATASIZE PUSH0 DUP1 RETURNDATACOPY RETURNDATASIZE PUSH0 REVERT JUMPDEST POP POP POP POP PUSH1 0x40 MLOAD RETURNDATASIZE PUSH1 0x1F NOT PUSH1 0x1F DUP3 ADD AND DUP3 ADD DUP1 PUSH1 0x40 MSTORE POP DUP2 ADD SWAP1 PUSH2 0xA4F SWAP2 SWAP1 PUSH2 0x25DA JUMP JUMPDEST PUSH2 0xA8E JUMPI PUSH1 0x40 MLOAD PUSH32 0x8C379A000000000000000000000000000000000000000000000000000000000 DUP2 MSTORE PUSH1 0x4 ADD PUSH2 0xA85 SWAP1 PUSH2 0x264F JUMP JUMPDEST PUSH1 0x40 MLOAD DUP1 SWAP2 SUB SWAP1 REVERT JUMPDEST PUSH1 0x1 DUP6 PUSH1 0x2 ADD PUSH0 DUP13 ISZERO ISZERO ISZERO ISZERO DUP2 MSTORE PUSH1 0x20 ADD SWAP1 DUP2 MSTORE PUSH1 0x20 ADD PUSH0 KECCAK256 PUSH0 DUP3 DUP3 SLOAD PUSH2 0xAB5 SWAP2 SWAP1 PUSH2 0x201D JUMP JUMPDEST SWAP3 POP POP DUP2 SWAP1 SSTORE POP PUSH1 0x1 DUP6 PUSH1 0x3 ADD PUSH0 DUP10 DUP2 MSTORE PUSH1 0x20 ADD SWAP1 DUP2 MSTORE PUSH1 0x20 ADD PUSH0 KECCAK256 PUSH0 PUSH2 0x100 EXP DUP2 SLOAD DUP2 PUSH1 0xFF MUL NOT AND SWAP1 DUP4 ISZERO ISZERO MUL OR SWAP1 SSTORE POP PUSH32 0x25375B46CE887EF9D462AE9772AB4270F5C3EB503D1194F5AF15C0C7CCAE0DC0 DUP12 DUP12 PUSH1 0x40 MLOAD PUSH2 0xB18 SWAP3 SWAP2 SWAP1 PUSH2 0x266D JUMP JUMPDEST PUSH1 0x40 MLOAD DUP1 SWAP2 SUB SWAP1 LOG1 POP POP POP POP POP POP POP POP POP POP POP JUMP JUMPDEST PUSH0 DUP1 PUSH0 SWAP1 SLOAD SWAP1 PUSH2 0x100 EXP SWAP1 DIV PUSH20 0xFFFFFFFFFFFFFFFFFFFFFFFFFFFFFFFFFFFFFFFF AND SWAP1 POP SWAP1 JUMP JUMPDEST PUSH2 0xB5C PUSH2 0x1351 JUMP JUMPDEST PUSH2 0xB65 DUP2 PUSH2 0xE05 JUMP JUMPDEST POP JUMP JUMPDEST PUSH0 PUSH1 0x60 PUSH0 DUP1 PUSH0 DUP1 PUSH0 DUP1 PUSH1 0x2 PUSH0 DUP11 DUP2 MSTORE PUSH1 0x20 ADD SWAP1 DUP2 MSTORE PUSH1 0x20 ADD PUSH0 KECCAK256 SWAP1 POP DUP1 PUSH0 ADD SLOAD DUP2 PUSH1 0x1 ADD DUP3 PUSH1 0x4 ADD SLOAD DUP4 PUSH1 0x5 ADD SLOAD DUP5 PUSH1 0x6 ADD SLOAD DUP6 PUSH1 0x8 ADD SLOAD DUP7 PUSH1 0x7 ADD PUSH0 SWAP1 SLOAD SWAP1 PUSH2 0x100 EXP SWAP1 DIV PUSH1 0xFF AND DUP6 DUP1 SLOAD PUSH2 0xBBD SWAP1 PUSH2 0x1ECA JUMP JUMPDEST DUP1 PUSH1 0x1F ADD PUSH1 0x20 DUP1 SWAP2 DIV MUL PUSH1 0x20 ADD PUSH1 0x40 MLOAD SWAP1 DUP2 ADD PUSH1 0x40 MSTORE DUP1 SWAP3 SWAP2 SWAP1 DUP2 DUP2 MSTORE PUSH1 0x20 ADD DUP3 DUP1 SLOAD PUSH2 0xBE9 SWAP1 PUSH2 0x1ECA JUMP JUMPDEST DUP1 ISZERO PUSH2 0xC34 JUMPI DUP1 PUSH1 0x1F LT PUSH2 0xC0B JUMPI PUSH2 0x100 DUP1 DUP4 SLOAD DIV MUL DUP4 MSTORE SWAP2 PUSH1 0x20 ADD SWAP2 PUSH2 0xC34 JUMP JUMPDEST DUP3 ADD SWAP2 SWAP1 PUSH0 MSTORE PUSH1 0x20 PUSH0 KECCAK256 SWAP1 JUMPDEST DUP2 SLOAD DUP2 MSTORE SWAP1 PUSH1 0x1 ADD SWAP1 PUSH1 0x20 ADD DUP1 DUP4 GT PUSH2 0xC17 JUMPI DUP3 SWAP1 SUB PUSH1 0x1F AND DUP3 ADD SWAP2 JUMPDEST POP POP POP POP POP SWAP6 POP SWAP8 POP SWAP8 POP SWAP8 POP SWAP8 POP SWAP8 POP SWAP8 POP SWAP8 POP POP SWAP2 SWAP4 SWAP6 SWAP8 SWAP1 SWAP3 SWAP5 SWAP7 POP JUMP JUMPDEST PUSH2 0xC5D PUSH2 0x1351 JUMP JUMPDEST PUSH0 DUP4 GT PUSH2 0xC9F JUMPI PUSH1 0x40 MLOAD PUSH32 0x8C379A000000000000000000000000000000000000000000000000000000000 DUP2 MSTORE PUSH1 0x4 ADD PUSH2 0xC96 SWAP1 PUSH2 0x2704 JUMP JUMPDEST PUSH1 0x40 MLOAD DUP1 SWAP2 SUB SWAP1 REVERT JUMPDEST PUSH0 DUP3 LT ISZERO DUP1 ISZERO PUSH2 0xCB0 JUMPI POP PUSH1 0x64 DUP3 GT ISZERO JUMPDEST PUSH2 0xCEF JUMPI PUSH1 0x40 MLOAD PUSH32 0x8C379A000000000000000000000000000000000000000000000000000000000 DUP2 MSTORE PUSH1 0x4 ADD PUSH2 0xCE6 SWAP1 PUSH2 0x2792 JUMP JUMPDEST PUSH1 0x40 MLOAD DUP1 SWAP2 SUB SWAP1 REVERT JUMPDEST PUSH1 0x1 PUSH1 0x3 PUSH0 DUP3 DUP3 SLOAD PUSH2 0xD01 SWAP2 SWAP1 PUSH2 0x201D JUMP JUMPDEST SWAP3 POP POP DUP2 SWAP1 SSTORE POP DUP4 PUSH1 0x2 PUSH0 PUSH1 0x3 SLOAD DUP2 MSTORE PUSH1 0x20 ADD SWAP1 DUP2 MSTORE PUSH1 0x20 ADD PUSH0 KECCAK256 PUSH0 ADD DUP2 SWAP1 SSTORE POP DUP5 PUSH1 0x2 PUSH0 PUSH1 0x3 SLOAD DUP2 MSTORE PUSH1 0x20 ADD SWAP1 DUP2 MSTORE PUSH1 0x20 ADD PUSH0 KECCAK256 PUSH1 0x1 ADD SWAP1 DUP2 PUSH2 0xD45 SWAP2 SWAP1 PUSH2 0x2944 JUMP JUMPDEST POP TIMESTAMP PUSH1 0x2 PUSH0 PUSH1 0x3 SLOAD DUP2 MSTORE PUSH1 0x20 ADD SWAP1 DUP2 MSTORE PUSH1 0x20 ADD PUSH0 KECCAK256 PUSH1 0x4 ADD DUP2 SWAP1 SSTORE POP DUP3 TIMESTAMP PUSH2 0xD6D SWAP2 SWAP1 PUSH2 0x201D JUMP JUMPDEST PUSH1 0x2 PUSH0 PUSH1 0x3 SLOAD DUP2 MSTORE PUSH1 0x20 ADD SWAP1 DUP2 MSTORE PUSH1 0x20 ADD PUSH0 KECCAK256 PUSH1 0x5 ADD DUP2 SWAP1 SSTORE POP DUP2 PUSH1 0x2 PUSH0 PUSH1 0x3 SLOAD DUP2 MSTORE PUSH1 0x20 ADD SWAP1 DUP2 MSTORE PUSH1 0x20 ADD PUSH0 KECCAK256 PUSH1 0x6 ADD DUP2 SWAP1 SSTORE POP DUP1 PUSH1 0x2 PUSH0 PUSH1 0x3 SLOAD DUP2 MSTORE PUSH1 0x20 ADD SWAP1 DUP2 MSTORE PUSH1 0x20 ADD PUSH0 KECCAK256 PUSH1 0x8 ADD DUP2 SWAP1 SSTORE POP PUSH32 0xF970AA486598017B8116C2BEB18C50D4584ECBC3C688817F59B26796725F31BF PUSH1 0x3 SLOAD DUP7 PUSH1 0x40 MLOAD PUSH2 0xDF0 SWAP3 SWAP2 SWAP1 PUSH2 0x2A13 JUMP JUMPDEST PUSH1 0x40 MLOAD DUP1 SWAP2 SUB SWAP1 LOG1 POP POP POP POP POP JUMP JUMPDEST PUSH1 0x3 SLOAD DUP2 JUMP JUMPDEST PUSH2 0xE0D PUSH2 0x1351 JUMP JUMPDEST PUSH0 PUSH20 0xFFFFFFFFFFFFFFFFFFFFFFFFFFFFFFFFFFFFFFFF AND DUP2 PUSH20 0xFFFFFFFFFFFFFFFFFFFFFFFFFFFFFFFFFFFFFFFF AND SUB PUSH2 0xE7D JUMPI PUSH0 PUSH1 0x40 MLOAD PUSH32 0x1E4FBDF700000000000000000000000000000000000000000000000000000000 DUP2 MSTORE PUSH1 0x4 ADD PUSH2 0xE74 SWAP2 SWAP1 PUSH2 0x1BB7 JUMP JUMPDEST PUSH1 0x40 MLOAD DUP1 SWAP2 SUB SWAP1 REVERT JUMPDEST PUSH2 0xE86 DUP2 PUSH2 0x13D8 JUMP JUMPDEST POP JUMP JUMPDEST PUSH2 0xE91 PUSH2 0x1351 JUMP JUMPDEST PUSH2 0xE99 PUSH2 0x1553 JUMP JUMPDEST JUMP JUMPDEST PUSH0 PUSH2 0x130B JUMP JUMPDEST PUSH32 0x30644E72E131A029B85045B68181585D97816A916871CA8D3C208C16D87CFD47 DUP2 LT PUSH2 0xED0 JUMPI PUSH0 DUP1 MSTORE PUSH1 0x20 PUSH0 RETURN JUMPDEST POP JUMP JUMPDEST PUSH0 PUSH1 0x40 MLOAD DUP4 DUP2 MSTORE DUP5 PUSH1 0x20 DUP3 ADD MSTORE DUP6 PUSH1 0x40 DUP3 ADD MSTORE PUSH1 0x40 DUP2 PUSH1 0x60 DUP4 PUSH1 0x7 PUSH2 0x7D0 GAS SUB STATICCALL SWAP2 POP DUP2 PUSH2 0xF03 JUMPI PUSH0 DUP1 MSTORE PUSH1 0x20 PUSH0 RETURN JUMPDEST DUP3 MLOAD PUSH1 0x40 DUP3 ADD MSTORE PUSH1 0x20 DUP4 ADD MLOAD PUSH1 0x60 DUP3 ADD MSTORE PUSH1 0x40 DUP4 PUSH1 0x80 DUP4 PUSH1 0x6 PUSH2 0x7D0 GAS SUB STATICCALL SWAP2 POP DUP2 PUSH2 0xF31 JUMPI PUSH0 DUP1 MSTORE PUSH1 0x20 PUSH0 RETURN JUMPDEST POP POP POP POP POP POP JUMP JUMPDEST PUSH0 PUSH1 0x80 DUP7 ADD PUSH0 DUP8 ADD PUSH32 0x1304BF22EF56518F9CC5C488B6C5AE975A5D589AD9DB095A096404587DE15169 DUP2 MSTORE PUSH32 0x28CD6F657B6579272838BC93984217616AA75478216D20EC00BF1337FF825F1C PUSH1 0x20 DUP3 ADD MSTORE PUSH2 0xFD9 PUSH0 DUP9 ADD CALLDATALOAD PUSH32 0x2A6AF62E9BC14C42A4997CEE7968EAFA94C4407805B8CB276AD1009E64DA6945 PUSH32 0x2621B3FF65F7221A3F86D007638CF6DD69D6F50EA4B70EE0A35FEFE56045097C DUP5 PUSH2 0xED3 JUMP JUMPDEST PUSH2 0x1029 PUSH1 0x20 DUP9 ADD CALLDATALOAD PUSH32 0x2951E735E80A08A1502AF7304AF36E7B00B71740133B83401CFFB2BB3B2A84B6 PUSH32 0xE935BD715D989CEB7939E82111A2CE8D69C6E5D6C2A6FF8BD6F13973031755E DUP5 PUSH2 0xED3 JUMP JUMPDEST DUP4 CALLDATALOAD DUP3 MSTORE PUSH32 0x30644E72E131A029B85045B68181585D97816A916871CA8D3C208C16D87CFD47 PUSH1 0x20 DUP6 ADD CALLDATALOAD PUSH32 0x30644E72E131A029B85045B68181585D97816A916871CA8D3C208C16D87CFD47 SUB MOD PUSH1 0x20 DUP4 ADD MSTORE DUP5 CALLDATALOAD PUSH1 0x40 DUP4 ADD MSTORE PUSH1 0x20 DUP6 ADD CALLDATALOAD PUSH1 0x60 DUP4 ADD MSTORE PUSH1 0x40 DUP6 ADD CALLDATALOAD PUSH1 0x80 DUP4 ADD MSTORE PUSH1 0x60 DUP6 ADD CALLDATALOAD PUSH1 0xA0 DUP4 ADD MSTORE PUSH32 0x23441971E1E09B7AE39945BD8B8FD751DE1B3CAA93D920C7214C39C6B178B43D PUSH1 0xC0 DUP4 ADD MSTORE PUSH32 0x1F44D4C10C85881E4D99891A828D432D8066AE53A68C982CE2491416341174B0 PUSH1 0xE0 DUP4 ADD MSTORE PUSH32 0x2009BE0262B5949AD674FBE43CC4EB6F64EF02E1C89FC3DC507E84087E4E454 PUSH2 0x100 DUP4 ADD MSTORE PUSH32 0xAD54A1EBA17EAB817D3EEDF367F834B95814960FCBBB4FFAC7E1CAFDA748AFB PUSH2 0x120 DUP4 ADD MSTORE PUSH32 0x2AFE4315D7D4BC43443FF2F9781B31ECBD94A85C15F38D5E49ECBA8FABE11846 PUSH2 0x140 DUP4 ADD MSTORE PUSH32 0x1FDE6C738F466E0D30797D5E68066264F1429C9A1A507CB3A6254BDE4EFB5F09 PUSH2 0x160 DUP4 ADD MSTORE PUSH0 DUP9 ADD MLOAD PUSH2 0x180 DUP4 ADD MSTORE PUSH1 0x20 PUSH0 ADD DUP9 ADD MLOAD PUSH2 0x1A0 DUP4 ADD MSTORE PUSH32 0x198E9393920D483A7260BFB731FB5D25F1AA493335A9E71297E485B7AEF312C2 PUSH2 0x1C0 DUP4 ADD MSTORE PUSH32 0x1800DEEF121F1E76426A00665E5C4479674322D4F75EDADD46DEBD5CD992F6ED PUSH2 0x1E0 DUP4 ADD MSTORE PUSH32 0x90689D0585FF075EC9E99AD690C3395BC4B313370B38EF355ACDADCD122975B PUSH2 0x200 DUP4 ADD MSTORE PUSH32 0x12C85EA5DB8C6DEB4AAB71808DCB408FE3D1E7690C43D37B4CE6CC0166FA7DAA PUSH2 0x220 DUP4 ADD MSTORE DUP6 CALLDATALOAD PUSH2 0x240 DUP4 ADD MSTORE PUSH1 0x20 DUP7 ADD CALLDATALOAD PUSH2 0x260 DUP4 ADD MSTORE PUSH32 0xE9C1D942717C6CB9136075C57DAE34D309E93E6C5419C52DB2E06F8B6FAEBF9 PUSH2 0x280 DUP4 ADD MSTORE PUSH32 0x9DA7C3FDF3CB5B1373AF4312EFC360F95971044F95D9934EBD057C8517C5E12 PUSH2 0x2A0 DUP4 ADD MSTORE PUSH32 0xA45D3D38B9F90BBF51B9DD1031B049E46FBD4456714FB4A518DD9A42D279D60 PUSH2 0x2C0 DUP4 ADD MSTORE PUSH32 0x25473E2F0EF48559FB0457C572FBE5357C723740EE2F1E9483C87A2A2C655801 PUSH2 0x2E0 DUP4 ADD MSTORE PUSH1 0x20 DUP3 PUSH2 0x300 DUP5 PUSH1 0x8 PUSH2 0x7D0 GAS SUB STATICCALL DUP3 MLOAD DUP2 AND SWAP4 POP POP POP POP SWAP6 SWAP5 POP POP POP POP POP JUMP JUMPDEST PUSH1 0x40 MLOAD PUSH2 0x380 DUP2 ADD PUSH1 0x40 MSTORE PUSH2 0x1322 PUSH0 DUP5 ADD CALLDATALOAD PUSH2 0xEA1 JUMP JUMPDEST PUSH2 0x132F PUSH1 0x20 DUP5 ADD CALLDATALOAD PUSH2 0xEA1 JUMP JUMPDEST PUSH2 0x133C PUSH1 0x40 DUP5 ADD CALLDATALOAD PUSH2 0xEA1 JUMP JUMPDEST PUSH2 0x1349 DUP2 DUP5 DUP7 DUP9 DUP11 PUSH2 0xF39 JUMP JUMPDEST DUP1 PUSH0 MSTORE PUSH1 0x20 PUSH0 RETURN JUMPDEST PUSH2 0x1359 PUSH2 0x15B5 JUMP JUMPDEST PUSH20 0xFFFFFFFFFFFFFFFFFFFFFFFFFFFFFFFFFFFFFFFF AND PUSH2 0x1377 PUSH2 0xB2D JUMP JUMPDEST PUSH20 0xFFFFFFFFFFFFFFFFFFFFFFFFFFFFFFFFFFFFFFFF AND EQ PUSH2 0x13D6 JUMPI PUSH2 0x139A PUSH2 0x15B5 JUMP JUMPDEST PUSH1 0x40 MLOAD PUSH32 0x118CDAA700000000000000000000000000000000000000000000000000000000 DUP2 MSTORE PUSH1 0x4 ADD PUSH2 0x13CD SWAP2 SWAP1 PUSH2 0x1BB7 JUMP JUMPDEST PUSH1 0x40 MLOAD DUP1 SWAP2 SUB SWAP1 REVERT JUMPDEST JUMP JUMPDEST PUSH0 DUP1 PUSH0 SWAP1 SLOAD SWAP1 PUSH2 0x100 EXP SWAP1 DIV PUSH20 0xFFFFFFFFFFFFFFFFFFFFFFFFFFFFFFFFFFFFFFFF AND SWAP1 POP DUP2 PUSH0 DUP1 PUSH2 0x100 EXP DUP2 SLOAD DUP2 PUSH20 0xFFFFFFFFFFFFFFFFFFFFFFFFFFFFFFFFFFFFFFFF MUL NOT AND SWAP1 DUP4 PUSH20 0xFFFFFFFFFFFFFFFFFFFFFFFFFFFFFFFFFFFFFFFF AND MUL OR SWAP1 SSTORE POP DUP2 PUSH20 0xFFFFFFFFFFFFFFFFFFFFFFFFFFFFFFFFFFFFFFFF AND DUP2 PUSH20 0xFFFFFFFFFFFFFFFFFFFFFFFFFFFFFFFFFFFFFFFF AND PUSH32 0x8BE0079C531659141344CD1FD0A4F28419497F9722A3DAAFE3B4186F6B6457E0 PUSH1 0x40 MLOAD PUSH1 0x40 MLOAD DUP1 SWAP2 SUB SWAP1 LOG3 POP POP JUMP JUMPDEST PUSH2 0x14A1 PUSH2 0x15BC JUMP JUMPDEST PUSH0 DUP1 PUSH1 0x14 PUSH2 0x100 EXP DUP2 SLOAD DUP2 PUSH1 0xFF MUL NOT AND SWAP1 DUP4 ISZERO ISZERO MUL OR SWAP1 SSTORE POP PUSH32 0x5DB9EE0A495BF2E6FF9C91A7834C1BA4FDD244A5E8AA4E537BD38AEAE4B073AA PUSH2 0x14E3 PUSH2 0x15B5 JUMP JUMPDEST PUSH1 0x40 MLOAD PUSH2 0x14F0 SWAP2 SWAP1 PUSH2 0x1BB7 JUMP JUMPDEST PUSH1 0x40 MLOAD DUP1 SWAP2 SUB SWAP1 LOG1 JUMP JUMPDEST PUSH2 0x1502 PUSH2 0x3AA JUMP JUMPDEST ISZERO PUSH2 0x1539 JUMPI PUSH1 0x40 MLOAD PUSH32 0xD93C066500000000000000000000000000000000000000000000000000000000 DUP2 MSTORE PUSH1 0x4 ADD PUSH1 0x40 MLOAD DUP1 SWAP2 SUB SWAP1 REVERT JUMPDEST JUMP JUMPDEST PUSH0 PUSH2 0x154A DUP4 DUP6 PUSH0 ADD SLOAD DUP5 PUSH2 0x15FC JUMP JUMPDEST SWAP1 POP SWAP4 SWAP3 POP POP POP JUMP JUMPDEST PUSH2 0x155B PUSH2 0x14FA JUMP JUMPDEST PUSH1 0x1 PUSH0 PUSH1 0x14 PUSH2 0x100 EXP DUP2 SLOAD DUP2 PUSH1 0xFF MUL NOT AND SWAP1 DUP4 ISZERO ISZERO MUL OR SWAP1 SSTORE POP PUSH32 0x62E78CEA01BEE320CD4E420270B5EA74000D11B0C9F74754EBDBFC544B05A258 PUSH2 0x159E PUSH2 0x15B5 JUMP JUMPDEST PUSH1 0x40 MLOAD PUSH2 0x15AB SWAP2 SWAP1 PUSH2 0x1BB7 JUMP JUMPDEST PUSH1 0x40 MLOAD DUP1 SWAP2 SUB SWAP1 LOG1 JUMP JUMPDEST PUSH0 CALLER SWAP1 POP SWAP1 JUMP JUMPDEST PUSH2 0x15C4 PUSH2 0x3AA JUMP JUMPDEST PUSH2 0x15FA JUMPI PUSH1 0x40 MLOAD PUSH32 0x8DFC202B00000000000000000000000000000000000000000000000000000000 DUP2 MSTORE PUSH1 0x4 ADD PUSH1 0x40 MLOAD DUP1 SWAP2 SUB SWAP1 REVERT JUMPDEST JUMP JUMPDEST PUSH0 DUP3 PUSH2 0x1608 DUP6 DUP5 PUSH2 0x1612 JUMP JUMPDEST EQ SWAP1 POP SWAP4 SWAP3 POP POP POP JUMP JUMPDEST PUSH0 DUP1 DUP3 SWAP1 POP PUSH0 JUMPDEST DUP5 MLOAD DUP2 LT ISZERO PUSH2 0x1655 JUMPI PUSH2 0x1646 DUP3 DUP7 DUP4 DUP2 MLOAD DUP2 LT PUSH2 0x1639 JUMPI PUSH2 0x1638 PUSH2 0x23B9 JUMP JUMPDEST JUMPDEST PUSH1 0x20 MUL PUSH1 0x20 ADD ADD MLOAD PUSH2 0x1660 JUMP JUMPDEST SWAP2 POP DUP1 DUP1 PUSH1 0x1 ADD SWAP2 POP POP PUSH2 0x1619 JUMP JUMPDEST POP DUP1 SWAP2 POP POP SWAP3 SWAP2 POP POP JUMP JUMPDEST PUSH0 DUP2 DUP4 LT PUSH2 0x1677 JUMPI PUSH2 0x1672 DUP3 DUP5 PUSH2 0x168A JUMP JUMPDEST PUSH2 0x1682 JUMP JUMPDEST PUSH2 0x1681 DUP4 DUP4 PUSH2 0x168A JUMP JUMPDEST JUMPDEST SWAP1 POP SWAP3 SWAP2 POP POP JUMP JUMPDEST PUSH0 DUP3 PUSH0 MSTORE DUP2 PUSH1 0x20 MSTORE PUSH1 0x40 PUSH0 KECCAK256 SWAP1 POP SWAP3 SWAP2 POP POP JUMP JUMPDEST PUSH0 PUSH1 0x40 MLOAD SWAP1 POP SWAP1 JUMP JUMPDEST PUSH0 DUP1 REVERT JUMPDEST PUSH0 DUP1 REVERT JUMPDEST PUSH0 DUP2 SWAP1 POP SWAP2 SWAP1 POP JUMP JUMPDEST PUSH2 0x16C1 DUP2 PUSH2 0x16AF JUMP JUMPDEST DUP2 EQ PUSH2 0x16CB JUMPI PUSH0 DUP1 REVERT JUMPDEST POP JUMP JUMPDEST PUSH0 DUP2 CALLDATALOAD SWAP1 POP PUSH2 0x16DC DUP2 PUSH2 0x16B8 JUMP JUMPDEST SWAP3 SWAP2 POP POP JUMP JUMPDEST PUSH0 PUSH1 0x20 DUP3 DUP5 SUB SLT ISZERO PUSH2 0x16F7 JUMPI PUSH2 0x16F6 PUSH2 0x16A7 JUMP JUMPDEST JUMPDEST PUSH0 PUSH2 0x1704 DUP5 DUP3 DUP6 ADD PUSH2 0x16CE JUMP JUMPDEST SWAP2 POP POP SWAP3 SWAP2 POP POP JUMP JUMPDEST PUSH0 DUP2 SWAP1 POP SWAP2 SWAP1 POP JUMP JUMPDEST PUSH2 0x171F DUP2 PUSH2 0x170D JUMP JUMPDEST DUP3 MSTORE POP POP JUMP JUMPDEST PUSH0 DUP2 MLOAD SWAP1 POP SWAP2 SWAP1 POP JUMP JUMPDEST PUSH0 DUP3 DUP3 MSTORE PUSH1 0x20 DUP3 ADD SWAP1 POP SWAP3 SWAP2 POP POP JUMP JUMPDEST PUSH0 JUMPDEST DUP4 DUP2 LT ISZERO PUSH2 0x175C JUMPI DUP1 DUP3 ADD MLOAD DUP2 DUP5 ADD MSTORE PUSH1 0x20 DUP2 ADD SWAP1 POP PUSH2 0x1741 JUMP JUMPDEST PUSH0 DUP5 DUP5 ADD MSTORE POP POP POP POP JUMP JUMPDEST PUSH0 PUSH1 0x1F NOT PUSH1 0x1F DUP4 ADD AND SWAP1 POP SWAP2 SWAP1 POP JUMP JUMPDEST PUSH0 PUSH2 0x1781 DUP3 PUSH2 0x1725 JUMP JUMPDEST PUSH2 0x178B DUP2 DUP6 PUSH2 0x172F JUMP JUMPDEST SWAP4 POP PUSH2 0x179B DUP2 DUP6 PUSH1 0x20 DUP7 ADD PUSH2 0x173F JUMP JUMPDEST PUSH2 0x17A4 DUP2 PUSH2 0x1767 JUMP JUMPDEST DUP5 ADD SWAP2 POP POP SWAP3 SWAP2 POP POP JUMP JUMPDEST PUSH2 0x17B8 DUP2 PUSH2 0x16AF JUMP JUMPDEST DUP3 MSTORE POP POP JUMP JUMPDEST PUSH0 DUP2 ISZERO ISZERO SWAP1 POP SWAP2 SWAP1 POP JUMP JUMPDEST PUSH2 0x17D2 DUP2 PUSH2 0x17BE JUMP JUMPDEST DUP3 MSTORE POP POP JUMP JUMPDEST PUSH0 PUSH1 0xE0 DUP3 ADD SWAP1 POP PUSH2 0x17EB PUSH0 DUP4 ADD DUP11 PUSH2 0x1716 JUMP JUMPDEST DUP2 DUP2 SUB PUSH1 0x20 DUP4 ADD MSTORE PUSH2 0x17FD DUP2 DUP10 PUSH2 0x1777 JUMP JUMPDEST SWAP1 POP PUSH2 0x180C PUSH1 0x40 DUP4 ADD DUP9 PUSH2 0x17AF JUMP JUMPDEST PUSH2 0x1819 PUSH1 0x60 DUP4 ADD DUP8 PUSH2 0x17AF JUMP JUMPDEST PUSH2 0x1826 PUSH1 0x80 DUP4 ADD DUP7 PUSH2 0x17AF JUMP JUMPDEST PUSH2 0x1833 PUSH1 0xA0 DUP4 ADD DUP6 PUSH2 0x17C9 JUMP JUMPDEST PUSH2 0x1840 PUSH1 0xC0 DUP4 ADD DUP5 PUSH2 0x17AF JUMP JUMPDEST SWAP9 SWAP8 POP POP POP POP POP POP POP POP JUMP JUMPDEST PUSH0 PUSH20 0xFFFFFFFFFFFFFFFFFFFFFFFFFFFFFFFFFFFFFFFF DUP3 AND SWAP1 POP SWAP2 SWAP1 POP JUMP JUMPDEST PUSH0 DUP2 SWAP1 POP SWAP2 SWAP1 POP JUMP JUMPDEST PUSH0 PUSH2 0x188E PUSH2 0x1889 PUSH2 0x1884 DUP5 PUSH2 0x184C JUMP JUMPDEST PUSH2 0x186B JUMP JUMPDEST PUSH2 0x184C JUMP JUMPDEST SWAP1 POP SWAP2 SWAP1 POP JUMP JUMPDEST PUSH0 PUSH2 0x189F DUP3 PUSH2 0x1874 JUMP JUMPDEST SWAP1 POP SWAP2 SWAP1 POP JUMP JUMPDEST PUSH0 PUSH2 0x18B0 DUP3 PUSH2 0x1895 JUMP JUMPDEST SWAP1 POP SWAP2 SWAP1 POP JUMP JUMPDEST PUSH2 0x18C0 DUP2 PUSH2 0x18A6 JUMP JUMPDEST DUP3 MSTORE POP POP JUMP JUMPDEST PUSH0 PUSH1 0x20 DUP3 ADD SWAP1 POP PUSH2 0x18D9 PUSH0 DUP4 ADD DUP5 PUSH2 0x18B7 JUMP JUMPDEST SWAP3 SWAP2 POP POP JUMP JUMPDEST PUSH0 PUSH1 0x20 DUP3 ADD SWAP1 POP PUSH2 0x18F2 PUSH0 DUP4 ADD DUP5 PUSH2 0x17C9 JUMP JUMPDEST SWAP3 SWAP2 POP POP JUMP JUMPDEST PUSH2 0x1901 DUP2 PUSH2 0x17BE JUMP JUMPDEST DUP2 EQ PUSH2 0x190B JUMPI PUSH0 DUP1 REVERT JUMPDEST POP JUMP JUMPDEST PUSH0 DUP2 CALLDATALOAD SWAP1 POP PUSH2 0x191C DUP2 PUSH2 0x18F8 JUMP JUMPDEST SWAP3 SWAP2 POP POP JUMP JUMPDEST PUSH0 DUP1 REVERT JUMPDEST PUSH0 DUP1 REVERT JUMPDEST PUSH0 DUP1 REVERT JUMPDEST PUSH0 DUP1 DUP4 PUSH1 0x1F DUP5 ADD SLT PUSH2 0x1943 JUMPI PUSH2 0x1942 PUSH2 0x1922 JUMP JUMPDEST JUMPDEST DUP3 CALLDATALOAD SWAP1 POP PUSH8 0xFFFFFFFFFFFFFFFF DUP2 GT ISZERO PUSH2 0x1960 JUMPI PUSH2 0x195F PUSH2 0x1926 JUMP JUMPDEST JUMPDEST PUSH1 0x20 DUP4 ADD SWAP2 POP DUP4 PUSH1 0x20 DUP3 MUL DUP4 ADD GT ISZERO PUSH2 0x197C JUMPI PUSH2 0x197B PUSH2 0x192A JUMP JUMPDEST JUMPDEST SWAP3 POP SWAP3 SWAP1 POP JUMP JUMPDEST PUSH2 0x198C DUP2 PUSH2 0x170D JUMP JUMPDEST DUP2 EQ PUSH2 0x1996 JUMPI PUSH0 DUP1 REVERT JUMPDEST POP JUMP JUMPDEST PUSH0 DUP2 CALLDATALOAD SWAP1 POP PUSH2 0x19A7 DUP2 PUSH2 0x1983 JUMP JUMPDEST SWAP3 SWAP2 POP POP JUMP JUMPDEST PUSH32 0x4E487B7100000000000000000000000000000000000000000000000000000000 PUSH0 MSTORE PUSH1 0x41 PUSH1 0x4 MSTORE PUSH1 0x24 PUSH0 REVERT JUMPDEST PUSH2 0x19E3 DUP3 PUSH2 0x1767 JUMP JUMPDEST DUP2 ADD DUP2 DUP2 LT PUSH8 0xFFFFFFFFFFFFFFFF DUP3 GT OR ISZERO PUSH2 0x1A02 JUMPI PUSH2 0x1A01 PUSH2 0x19AD JUMP JUMPDEST JUMPDEST DUP1 PUSH1 0x40 MSTORE POP POP POP JUMP JUMPDEST PUSH0 PUSH2 0x1A14 PUSH2 0x169E JUMP JUMPDEST SWAP1 POP PUSH2 0x1A20 DUP3 DUP3 PUSH2 0x19DA JUMP JUMPDEST SWAP2 SWAP1 POP JUMP JUMPDEST PUSH0 PUSH8 0xFFFFFFFFFFFFFFFF DUP3 GT ISZERO PUSH2 0x1A3F JUMPI PUSH2 0x1A3E PUSH2 0x19AD JUMP JUMPDEST JUMPDEST PUSH1 0x20 DUP3 MUL SWAP1 POP PUSH1 0x20 DUP2 ADD SWAP1 POP SWAP2 SWAP1 POP JUMP JUMPDEST PUSH0 PUSH2 0x1A62 PUSH2 0x1A5D DUP5 PUSH2 0x1A25 JUMP JUMPDEST PUSH2 0x1A0B JUMP JUMPDEST SWAP1 POP DUP1 DUP4 DUP3 MSTORE PUSH1 0x20 DUP3 ADD SWAP1 POP PUSH1 0x20 DUP5 MUL DUP4 ADD DUP6 DUP2 GT ISZERO PUSH2 0x1A85 JUMPI PUSH2 0x1A84 PUSH2 0x192A JUMP JUMPDEST JUMPDEST DUP4 JUMPDEST DUP2 DUP2 LT ISZERO PUSH2 0x1AAE JUMPI DUP1 PUSH2 0x1A9A DUP9 DUP3 PUSH2 0x16CE JUMP JUMPDEST DUP5 MSTORE PUSH1 0x20 DUP5 ADD SWAP4 POP POP PUSH1 0x20 DUP2 ADD SWAP1 POP PUSH2 0x1A87 JUMP JUMPDEST POP POP POP SWAP4 SWAP3 POP POP POP JUMP JUMPDEST PUSH0 DUP3 PUSH1 0x1F DUP4 ADD SLT PUSH2 0x1ACC JUMPI PUSH2 0x1ACB PUSH2 0x1922 JUMP JUMPDEST JUMPDEST DUP2 CALLDATALOAD PUSH2 0x1ADC DUP5 DUP3 PUSH1 0x20 DUP7 ADD PUSH2 0x1A50 JUMP JUMPDEST SWAP2 POP POP SWAP3 SWAP2 POP POP JUMP JUMPDEST PUSH0 DUP1 PUSH0 DUP1 PUSH0 DUP1 PUSH1 0xA0 DUP8 DUP10 SUB SLT ISZERO PUSH2 0x1AFF JUMPI PUSH2 0x1AFE PUSH2 0x16A7 JUMP JUMPDEST JUMPDEST PUSH0 PUSH2 0x1B0C DUP10 DUP3 DUP11 ADD PUSH2 0x16CE JUMP JUMPDEST SWAP7 POP POP PUSH1 0x20 PUSH2 0x1B1D DUP10 DUP3 DUP11 ADD PUSH2 0x190E JUMP JUMPDEST SWAP6 POP POP PUSH1 0x40 DUP8 ADD CALLDATALOAD PUSH8 0xFFFFFFFFFFFFFFFF DUP2 GT ISZERO PUSH2 0x1B3E JUMPI PUSH2 0x1B3D PUSH2 0x16AB JUMP JUMPDEST JUMPDEST PUSH2 0x1B4A DUP10 DUP3 DUP11 ADD PUSH2 0x192E JUMP JUMPDEST SWAP5 POP SWAP5 POP POP PUSH1 0x60 PUSH2 0x1B5D DUP10 DUP3 DUP11 ADD PUSH2 0x1999 JUMP JUMPDEST SWAP3 POP POP PUSH1 0x80 DUP8 ADD CALLDATALOAD PUSH8 0xFFFFFFFFFFFFFFFF DUP2 GT ISZERO PUSH2 0x1B7E JUMPI PUSH2 0x1B7D PUSH2 0x16AB JUMP JUMPDEST JUMPDEST PUSH2 0x1B8A DUP10 DUP3 DUP11 ADD PUSH2 0x1AB8 JUMP JUMPDEST SWAP2 POP POP SWAP3 SWAP6 POP SWAP3 SWAP6 POP SWAP3 SWAP6 JUMP JUMPDEST PUSH0 PUSH2 0x1BA1 DUP3 PUSH2 0x184C JUMP JUMPDEST SWAP1 POP SWAP2 SWAP1 POP JUMP JUMPDEST PUSH2 0x1BB1 DUP2 PUSH2 0x1B97 JUMP JUMPDEST DUP3 MSTORE POP POP JUMP JUMPDEST PUSH0 PUSH1 0x20 DUP3 ADD SWAP1 POP PUSH2 0x1BCA PUSH0 DUP4 ADD DUP5 PUSH2 0x1BA8 JUMP JUMPDEST SWAP3 SWAP2 POP POP JUMP JUMPDEST PUSH2 0x1BD9 DUP2 PUSH2 0x1B97 JUMP JUMPDEST DUP2 EQ PUSH2 0x1BE3 JUMPI PUSH0 DUP1 REVERT JUMPDEST POP JUMP JUMPDEST PUSH0 DUP2 CALLDATALOAD SWAP1 POP PUSH2 0x1BF4 DUP2 PUSH2 0x1BD0 JUMP JUMPDEST SWAP3 SWAP2 POP POP JUMP JUMPDEST PUSH0 PUSH1 0x20 DUP3 DUP5 SUB SLT ISZERO PUSH2 0x1C0F JUMPI PUSH2 0x1C0E PUSH2 0x16A7 JUMP JUMPDEST JUMPDEST PUSH0 PUSH2 0x1C1C DUP5 DUP3 DUP6 ADD PUSH2 0x1BE6 JUMP JUMPDEST SWAP2 POP POP SWAP3 SWAP2 POP POP JUMP JUMPDEST PUSH0 PUSH1 0xE0 DUP3 ADD SWAP1 POP PUSH2 0x1C38 PUSH0 DUP4 ADD DUP11 PUSH2 0x1716 JUMP JUMPDEST DUP2 DUP2 SUB PUSH1 0x20 DUP4 ADD MSTORE PUSH2 0x1C4A DUP2 DUP10 PUSH2 0x1777 JUMP JUMPDEST SWAP1 POP PUSH2 0x1C59 PUSH1 0x40 DUP4 ADD DUP9 PUSH2 0x17AF JUMP JUMPDEST PUSH2 0x1C66 PUSH1 0x60 DUP4 ADD DUP8 PUSH2 0x17AF JUMP JUMPDEST PUSH2 0x1C73 PUSH1 0x80 DUP4 ADD DUP7 PUSH2 0x17AF JUMP JUMPDEST PUSH2 0x1C80 PUSH1 0xA0 DUP4 ADD DUP6 PUSH2 0x17AF JUMP JUMPDEST PUSH2 0x1C8D PUSH1 0xC0 DUP4 ADD DUP5 PUSH2 0x17C9 JUMP JUMPDEST SWAP9 SWAP8 POP POP POP POP POP POP POP POP JUMP JUMPDEST PUSH0 DUP1 REVERT JUMPDEST PUSH0 PUSH8 0xFFFFFFFFFFFFFFFF DUP3 GT ISZERO PUSH2 0x1CB7 JUMPI PUSH2 0x1CB6 PUSH2 0x19AD JUMP JUMPDEST JUMPDEST PUSH2 0x1CC0 DUP3 PUSH2 0x1767 JUMP JUMPDEST SWAP1 POP PUSH1 0x20 DUP2 ADD SWAP1 POP SWAP2 SWAP1 POP JUMP JUMPDEST DUP3 DUP2 DUP4 CALLDATACOPY PUSH0 DUP4 DUP4 ADD MSTORE POP POP POP JUMP JUMPDEST PUSH0 PUSH2 0x1CED PUSH2 0x1CE8 DUP5 PUSH2 0x1C9D JUMP JUMPDEST PUSH2 0x1A0B JUMP JUMPDEST SWAP1 POP DUP3 DUP2 MSTORE PUSH1 0x20 DUP2 ADD DUP5 DUP5 DUP5 ADD GT ISZERO PUSH2 0x1D09 JUMPI PUSH2 0x1D08 PUSH2 0x1C99 JUMP JUMPDEST JUMPDEST PUSH2 0x1D14 DUP5 DUP3 DUP6 PUSH2 0x1CCD JUMP JUMPDEST POP SWAP4 SWAP3 POP POP POP JUMP JUMPDEST PUSH0 DUP3 PUSH1 0x1F DUP4 ADD SLT PUSH2 0x1D30 JUMPI PUSH2 0x1D2F PUSH2 0x1922 JUMP JUMPDEST JUMPDEST DUP2 CALLDATALOAD PUSH2 0x1D40 DUP5 DUP3 PUSH1 0x20 DUP7 ADD PUSH2 0x1CDB JUMP JUMPDEST SWAP2 POP POP SWAP3 SWAP2 POP POP JUMP JUMPDEST PUSH0 DUP1 PUSH0 DUP1 PUSH0 PUSH1 0xA0 DUP7 DUP9 SUB SLT ISZERO PUSH2 0x1D62 JUMPI PUSH2 0x1D61 PUSH2 0x16A7 JUMP JUMPDEST JUMPDEST PUSH0 DUP7 ADD CALLDATALOAD PUSH8 0xFFFFFFFFFFFFFFFF DUP2 GT ISZERO PUSH2 0x1D7F JUMPI PUSH2 0x1D7E PUSH2 0x16AB JUMP JUMPDEST JUMPDEST PUSH2 0x1D8B DUP9 DUP3 DUP10 ADD PUSH2 0x1D1C JUMP JUMPDEST SWAP6 POP POP PUSH1 0x20 PUSH2 0x1D9C DUP9 DUP3 DUP10 ADD PUSH2 0x1999 JUMP JUMPDEST SWAP5 POP POP PUSH1 0x40 PUSH2 0x1DAD DUP9 DUP3 DUP10 ADD PUSH2 0x16CE JUMP JUMPDEST SWAP4 POP POP PUSH1 0x60 PUSH2 0x1DBE DUP9 DUP3 DUP10 ADD PUSH2 0x16CE JUMP JUMPDEST SWAP3 POP POP PUSH1 0x80 PUSH2 0x1DCF DUP9 DUP3 DUP10 ADD PUSH2 0x16CE JUMP JUMPDEST SWAP2 POP POP SWAP3 SWAP6 POP SWAP3 SWAP6 SWAP1 SWAP4 POP JUMP JUMPDEST PUSH0 PUSH1 0x20 DUP3 ADD SWAP1 POP PUSH2 0x1DEF PUSH0 DUP4 ADD DUP5 PUSH2 0x17AF JUMP JUMPDEST SWAP3 SWAP2 POP POP JUMP JUMPDEST PUSH0 DUP2 SWAP1 POP DUP3 PUSH1 0x20 PUSH1 0x2 MUL DUP3 ADD GT ISZERO PUSH2 0x1E10 JUMPI PUSH2 0x1E0F PUSH2 0x192A JUMP JUMPDEST JUMPDEST SWAP3 SWAP2 POP POP JUMP JUMPDEST PUSH0 DUP2 SWAP1 POP DUP3 PUSH1 0x40 PUSH1 0x2 MUL DUP3 ADD GT ISZERO PUSH2 0x1E31 JUMPI PUSH2 0x1E30 PUSH2 0x192A JUMP JUMPDEST JUMPDEST SWAP3 SWAP2 POP POP JUMP JUMPDEST PUSH0 DUP1 PUSH0 DUP1 PUSH2 0x140 DUP6 DUP8 SUB SLT ISZERO PUSH2 0x1E50 JUMPI PUSH2 0x1E4F PUSH2 0x16A7 JUMP JUMPDEST JUMPDEST PUSH0 PUSH2 0x1E5D DUP8 DUP3 DUP9 ADD PUSH2 0x1DF5 JUMP JUMPDEST SWAP5 POP POP PUSH1 0x40 PUSH2 0x1E6E DUP8 DUP3 DUP9 ADD PUSH2 0x1E16 JUMP JUMPDEST SWAP4 POP POP PUSH1 0xC0 PUSH2 0x1E7F DUP8 DUP3 DUP9 ADD PUSH2 0x1DF5 JUMP JUMPDEST SWAP3 POP POP PUSH2 0x100 PUSH2 0x1E91 DUP8 DUP3 DUP9 ADD PUSH2 0x1DF5 JUMP JUMPDEST SWAP2 POP POP SWAP3 SWAP6 SWAP2 SWAP5 POP SWAP3 POP JUMP JUMPDEST PUSH32 0x4E487B7100000000000000000000000000000000000000000000000000000000 PUSH0 MSTORE PUSH1 0x22 PUSH1 0x4 MSTORE PUSH1 0x24 PUSH0 REVERT JUMPDEST PUSH0 PUSH1 0x2 DUP3 DIV SWAP1 POP PUSH1 0x1 DUP3 AND DUP1 PUSH2 0x1EE1 JUMPI PUSH1 0x7F DUP3 AND SWAP2 POP JUMPDEST PUSH1 0x20 DUP3 LT DUP2 SUB PUSH2 0x1EF4 JUMPI PUSH2 0x1EF3 PUSH2 0x1E9D JUMP JUMPDEST JUMPDEST POP SWAP2 SWAP1 POP JUMP JUMPDEST PUSH32 0x566F74696E6720706572696F64206973206E6F7420796574206F7665722E0000 PUSH0 DUP3 ADD MSTORE POP JUMP JUMPDEST PUSH0 PUSH2 0x1F2E PUSH1 0x1E DUP4 PUSH2 0x172F JUMP JUMPDEST SWAP2 POP PUSH2 0x1F39 DUP3 PUSH2 0x1EFA JUMP JUMPDEST PUSH1 0x20 DUP3 ADD SWAP1 POP SWAP2 SWAP1 POP JUMP JUMPDEST PUSH0 PUSH1 0x20 DUP3 ADD SWAP1 POP DUP2 DUP2 SUB PUSH0 DUP4 ADD MSTORE PUSH2 0x1F5B DUP2 PUSH2 0x1F22 JUMP JUMPDEST SWAP1 POP SWAP2 SWAP1 POP JUMP JUMPDEST PUSH32 0x566F74696E672068617320616C726561647920656E64656420666F7220746869 PUSH0 DUP3 ADD MSTORE PUSH32 0x732070726F706F73616C2E000000000000000000000000000000000000000000 PUSH1 0x20 DUP3 ADD MSTORE POP JUMP JUMPDEST PUSH0 PUSH2 0x1FBC PUSH1 0x2B DUP4 PUSH2 0x172F JUMP JUMPDEST SWAP2 POP PUSH2 0x1FC7 DUP3 PUSH2 0x1F62 JUMP JUMPDEST PUSH1 0x40 DUP3 ADD SWAP1 POP SWAP2 SWAP1 POP JUMP JUMPDEST PUSH0 PUSH1 0x20 DUP3 ADD SWAP1 POP DUP2 DUP2 SUB PUSH0 DUP4 ADD MSTORE PUSH2 0x1FE9 DUP2 PUSH2 0x1FB0 JUMP JUMPDEST SWAP1 POP SWAP2 SWAP1 POP JUMP JUMPDEST PUSH32 0x4E487B7100000000000000000000000000000000000000000000000000000000 PUSH0 MSTORE PUSH1 0x11 PUSH1 0x4 MSTORE PUSH1 0x24 PUSH0 REVERT JUMPDEST PUSH0 PUSH2 0x2027 DUP3 PUSH2 0x16AF JUMP JUMPDEST SWAP2 POP PUSH2 0x2032 DUP4 PUSH2 0x16AF JUMP JUMPDEST SWAP3 POP DUP3 DUP3 ADD SWAP1 POP DUP1 DUP3 GT ISZERO PUSH2 0x204A JUMPI PUSH2 0x2049 PUSH2 0x1FF0 JUMP JUMPDEST JUMPDEST SWAP3 SWAP2 POP POP JUMP JUMPDEST PUSH0 PUSH2 0x205A DUP3 PUSH2 0x16AF JUMP JUMPDEST SWAP2 POP PUSH2 0x2065 DUP4 PUSH2 0x16AF JUMP JUMPDEST SWAP3 POP DUP3 DUP3 MUL PUSH2 0x2073 DUP2 PUSH2 0x16AF JUMP JUMPDEST SWAP2 POP DUP3 DUP3 DIV DUP5 EQ DUP4 ISZERO OR PUSH2 0x208A JUMPI PUSH2 0x2089 PUSH2 0x1FF0 JUMP JUMPDEST JUMPDEST POP SWAP3 SWAP2 POP POP JUMP JUMPDEST PUSH32 0x4E487B7100000000000000000000000000000000000000000000000000000000 PUSH0 MSTORE PUSH1 0x12 PUSH1 0x4 MSTORE PUSH1 0x24 PUSH0 REVERT JUMPDEST PUSH0 PUSH2 0x20C8 DUP3 PUSH2 0x16AF JUMP JUMPDEST SWAP2 POP PUSH2 0x20D3 DUP4 PUSH2 0x16AF JUMP JUMPDEST SWAP3 POP DUP3 PUSH2 0x20E3 JUMPI PUSH2 0x20E2 PUSH2 0x2091 JUMP JUMPDEST JUMPDEST DUP3 DUP3 DIV SWAP1 POP SWAP3 SWAP2 POP POP JUMP JUMPDEST PUSH0 PUSH1 0x60 DUP3 ADD SWAP1 POP PUSH2 0x2101 PUSH0 DUP4 ADD DUP7 PUSH2 0x17AF JUMP JUMPDEST PUSH2 0x210E PUSH1 0x20 DUP4 ADD DUP6 PUSH2 0x17C9 JUMP JUMPDEST PUSH2 0x211B PUSH1 0x40 DUP4 ADD DUP5 PUSH2 0x17C9 JUMP JUMPDEST SWAP5 SWAP4 POP POP POP POP JUMP JUMPDEST PUSH32 0x496E76616C69642070726F706F73616C2E000000000000000000000000000000 PUSH0 DUP3 ADD MSTORE POP JUMP JUMPDEST PUSH0 PUSH2 0x2157 PUSH1 0x11 DUP4 PUSH2 0x172F JUMP JUMPDEST SWAP2 POP PUSH2 0x2162 DUP3 PUSH2 0x2123 JUMP JUMPDEST PUSH1 0x20 DUP3 ADD SWAP1 POP SWAP2 SWAP1 POP JUMP JUMPDEST PUSH0 PUSH1 0x20 DUP3 ADD SWAP1 POP DUP2 DUP2 SUB PUSH0 DUP4 ADD MSTORE PUSH2 0x2184 DUP2 PUSH2 0x214B JUMP JUMPDEST SWAP1 POP SWAP2 SWAP1 POP JUMP JUMPDEST PUSH32 0x566F74696E672068617320656E64656420666F7220746869732070726F706F73 PUSH0 DUP3 ADD MSTORE PUSH32 0x616C2E0000000000000000000000000000000000000000000000000000000000 PUSH1 0x20 DUP3 ADD MSTORE POP JUMP JUMPDEST PUSH0 PUSH2 0x21E5 PUSH1 0x23 DUP4 PUSH2 0x172F JUMP JUMPDEST SWAP2 POP PUSH2 0x21F0 DUP3 PUSH2 0x218B JUMP JUMPDEST PUSH1 0x40 DUP3 ADD SWAP1 POP SWAP2 SWAP1 POP JUMP JUMPDEST PUSH0 PUSH1 0x20 DUP3 ADD SWAP1 POP DUP2 DUP2 SUB PUSH0 DUP4 ADD MSTORE PUSH2 0x2212 DUP2 PUSH2 0x21D9 JUMP JUMPDEST SWAP1 POP SWAP2 SWAP1 POP JUMP JUMPDEST PUSH32 0x566F74696E67206E6F742079657420737461727465642E000000000000000000 PUSH0 DUP3 ADD MSTORE POP JUMP JUMPDEST PUSH0 PUSH2 0x224D PUSH1 0x17 DUP4 PUSH2 0x172F JUMP JUMPDEST SWAP2 POP PUSH2 0x2258 DUP3 PUSH2 0x2219 JUMP JUMPDEST PUSH1 0x20 DUP3 ADD SWAP1 POP SWAP2 SWAP1 POP JUMP JUMPDEST PUSH0 PUSH1 0x20 DUP3 ADD SWAP1 POP DUP2 DUP2 SUB PUSH0 DUP4 ADD MSTORE PUSH2 0x227A DUP2 PUSH2 0x2241 JUMP JUMPDEST SWAP1 POP SWAP2 SWAP1 POP JUMP JUMPDEST PUSH32 0x566F74696E672074696D652068617320656E6465642E00000000000000000000 PUSH0 DUP3 ADD MSTORE POP JUMP JUMPDEST PUSH0 PUSH2 0x22B5 PUSH1 0x16 DUP4 PUSH2 0x172F JUMP JUMPDEST SWAP2 POP PUSH2 0x22C0 DUP3 PUSH2 0x2281 JUMP JUMPDEST PUSH1 0x20 DUP3 ADD SWAP1 POP SWAP2 SWAP1 POP JUMP JUMPDEST PUSH0 PUSH1 0x20 DUP3 ADD SWAP1 POP DUP2 DUP2 SUB PUSH0 DUP4 ADD MSTORE PUSH2 0x22E2 DUP2 PUSH2 0x22A9 JUMP JUMPDEST SWAP1 POP SWAP2 SWAP1 POP JUMP JUMPDEST PUSH32 0x416C726561647920766F7465642E000000000000000000000000000000000000 PUSH0 DUP3 ADD MSTORE POP JUMP JUMPDEST PUSH0 PUSH2 0x231D PUSH1 0xE DUP4 PUSH2 0x172F JUMP JUMPDEST SWAP2 POP PUSH2 0x2328 DUP3 PUSH2 0x22E9 JUMP JUMPDEST PUSH1 0x20 DUP3 ADD SWAP1 POP SWAP2 SWAP1 POP JUMP JUMPDEST PUSH0 PUSH1 0x20 DUP3 ADD SWAP1 POP DUP2 DUP2 SUB PUSH0 DUP4 ADD MSTORE PUSH2 0x234A DUP2 PUSH2 0x2311 JUMP JUMPDEST SWAP1 POP SWAP2 SWAP1 POP JUMP JUMPDEST PUSH32 0x496E76616C69642070726F6F6600000000000000000000000000000000000000 PUSH0 DUP3 ADD MSTORE POP JUMP JUMPDEST PUSH0 PUSH2 0x2385 PUSH1 0xD DUP4 PUSH2 0x172F JUMP JUMPDEST SWAP2 POP PUSH2 0x2390 DUP3 PUSH2 0x2351 JUMP JUMPDEST PUSH1 0x20 DUP3 ADD SWAP1 POP SWAP2 SWAP1 POP JUMP JUMPDEST PUSH0 PUSH1 0x20 DUP3 ADD SWAP1 POP DUP2 DUP2 SUB PUSH0 DUP4 ADD MSTORE PUSH2 0x23B2 DUP2 PUSH2 0x2379 JUMP JUMPDEST SWAP1 POP SWAP2 SWAP1 POP JUMP JUMPDEST PUSH32 0x4E487B7100000000000000000000000000000000000000000000000000000000 PUSH0 MSTORE PUSH1 0x32 PUSH1 0x4 MSTORE PUSH1 0x24 PUSH0 REVERT JUMPDEST PUSH0 PUSH1 0x2 SWAP1 POP SWAP2 SWAP1 POP JUMP JUMPDEST PUSH0 DUP2 SWAP1 POP SWAP3 SWAP2 POP POP JUMP JUMPDEST PUSH0 DUP2 SWAP1 POP SWAP2 SWAP1 POP JUMP JUMPDEST PUSH2 0x240C DUP2 PUSH2 0x16AF JUMP JUMPDEST DUP3 MSTORE POP POP JUMP JUMPDEST PUSH0 PUSH2 0x241D DUP4 DUP4 PUSH2 0x2403 JUMP JUMPDEST PUSH1 0x20 DUP4 ADD SWAP1 POP SWAP3 SWAP2 POP POP JUMP JUMPDEST PUSH0 PUSH1 0x20 DUP3 ADD SWAP1 POP SWAP2 SWAP1 POP JUMP JUMPDEST PUSH2 0x243E DUP2 PUSH2 0x23E6 JUMP JUMPDEST PUSH2 0x2448 DUP2 DUP5 PUSH2 0x23F0 JUMP JUMPDEST SWAP3 POP PUSH2 0x2453 DUP3 PUSH2 0x23FA JUMP JUMPDEST DUP1 PUSH0 JUMPDEST DUP4 DUP2 LT ISZERO PUSH2 0x2483 JUMPI DUP2 MLOAD PUSH2 0x246A DUP8 DUP3 PUSH2 0x2412 JUMP JUMPDEST SWAP7 POP PUSH2 0x2475 DUP4 PUSH2 0x2429 JUMP JUMPDEST SWAP3 POP POP PUSH1 0x1 DUP2 ADD SWAP1 POP PUSH2 0x2456 JUMP JUMPDEST POP POP POP POP POP POP JUMP JUMPDEST PUSH0 PUSH1 0x2 SWAP1 POP SWAP2 SWAP1 POP JUMP JUMPDEST PUSH0 DUP2 SWAP1 POP SWAP3 SWAP2 POP POP JUMP JUMPDEST PUSH0 DUP2 SWAP1 POP SWAP2 SWAP1 POP JUMP JUMPDEST PUSH0 DUP2 SWAP1 POP SWAP3 SWAP2 POP POP JUMP JUMPDEST PUSH2 0x24BB DUP2 PUSH2 0x23E6 JUMP JUMPDEST PUSH2 0x24C5 DUP2 DUP5 PUSH2 0x24A8 JUMP JUMPDEST SWAP3 POP PUSH2 0x24D0 DUP3 PUSH2 0x23FA JUMP JUMPDEST DUP1 PUSH0 JUMPDEST DUP4 DUP2 LT ISZERO PUSH2 0x2500 JUMPI DUP2 MLOAD PUSH2 0x24E7 DUP8 DUP3 PUSH2 0x2412 JUMP JUMPDEST SWAP7 POP PUSH2 0x24F2 DUP4 PUSH2 0x2429 JUMP JUMPDEST SWAP3 POP POP PUSH1 0x1 DUP2 ADD SWAP1 POP PUSH2 0x24D3 JUMP JUMPDEST POP POP POP POP POP POP JUMP JUMPDEST PUSH0 PUSH2 0x2513 DUP4 DUP4 PUSH2 0x24B2 JUMP JUMPDEST PUSH1 0x40 DUP4 ADD SWAP1 POP SWAP3 SWAP2 POP POP JUMP JUMPDEST PUSH0 PUSH1 0x20 DUP3 ADD SWAP1 POP SWAP2 SWAP1 POP JUMP JUMPDEST PUSH2 0x2534 DUP2 PUSH2 0x248B JUMP JUMPDEST PUSH2 0x253E DUP2 DUP5 PUSH2 0x2495 JUMP JUMPDEST SWAP3 POP PUSH2 0x2549 DUP3 PUSH2 0x249F JUMP JUMPDEST DUP1 PUSH0 JUMPDEST DUP4 DUP2 LT ISZERO PUSH2 0x2579 JUMPI DUP2 MLOAD PUSH2 0x2560 DUP8 DUP3 PUSH2 0x2508 JUMP JUMPDEST SWAP7 POP PUSH2 0x256B DUP4 PUSH2 0x251F JUMP JUMPDEST SWAP3 POP POP PUSH1 0x1 DUP2 ADD SWAP1 POP PUSH2 0x254C JUMP JUMPDEST POP POP POP POP POP POP JUMP JUMPDEST PUSH0 PUSH2 0x140 DUP3 ADD SWAP1 POP PUSH2 0x2595 PUSH0 DUP4 ADD DUP8 PUSH2 0x2435 JUMP JUMPDEST PUSH2 0x25A2 PUSH1 0x40 DUP4 ADD DUP7 PUSH2 0x252B JUMP JUMPDEST PUSH2 0x25AF PUSH1 0xC0 DUP4 ADD DUP6 PUSH2 0x2435 JUMP JUMPDEST PUSH2 0x25BD PUSH2 0x100 DUP4 ADD DUP5 PUSH2 0x2435 JUMP JUMPDEST SWAP6 SWAP5 POP POP POP POP POP JUMP JUMPDEST PUSH0 DUP2 MLOAD SWAP1 POP PUSH2 0x25D4 DUP2 PUSH2 0x18F8 JUMP JUMPDEST SWAP3 SWAP2 POP POP JUMP JUMPDEST PUSH0 PUSH1 0x20 DUP3 DUP5 SUB SLT ISZERO PUSH2 0x25EF JUMPI PUSH2 0x25EE PUSH2 0x16A7 JUMP JUMPDEST JUMPDEST PUSH0 PUSH2 0x25FC DUP5 DUP3 DUP6 ADD PUSH2 0x25C6 JUMP JUMPDEST SWAP2 POP POP SWAP3 SWAP2 POP POP JUMP JUMPDEST PUSH32 0x4661696C6564207665726966792070726F6F6600000000000000000000000000 PUSH0 DUP3 ADD MSTORE POP JUMP JUMPDEST PUSH0 PUSH2 0x2639 PUSH1 0x13 DUP4 PUSH2 0x172F JUMP JUMPDEST SWAP2 POP PUSH2 0x2644 DUP3 PUSH2 0x2605 JUMP JUMPDEST PUSH1 0x20 DUP3 ADD SWAP1 POP SWAP2 SWAP1 POP JUMP JUMPDEST PUSH0 PUSH1 0x20 DUP3 ADD SWAP1 POP DUP2 DUP2 SUB PUSH0 DUP4 ADD MSTORE PUSH2 0x2666 DUP2 PUSH2 0x262D JUMP JUMPDEST SWAP1 POP SWAP2 SWAP1 POP JUMP JUMPDEST PUSH0 PUSH1 0x40 DUP3 ADD SWAP1 POP PUSH2 0x2680 PUSH0 DUP4 ADD DUP6 PUSH2 0x17AF JUMP JUMPDEST PUSH2 0x268D PUSH1 0x20 DUP4 ADD DUP5 PUSH2 0x17C9 JUMP JUMPDEST SWAP4 SWAP3 POP POP POP JUMP JUMPDEST PUSH32 0x4475726174696F6E2073686F756C642062652067726561746572207468616E20 PUSH0 DUP3 ADD MSTORE PUSH32 0x7A65726F00000000000000000000000000000000000000000000000000000000 PUSH1 0x20 DUP3 ADD MSTORE POP JUMP JUMPDEST PUSH0 PUSH2 0x26EE PUSH1 0x24 DUP4 PUSH2 0x172F JUMP JUMPDEST SWAP2 POP PUSH2 0x26F9 DUP3 PUSH2 0x2694 JUMP JUMPDEST PUSH1 0x40 DUP3 ADD SWAP1 POP SWAP2 SWAP1 POP JUMP JUMPDEST PUSH0 PUSH1 0x20 DUP3 ADD SWAP1 POP DUP2 DUP2 SUB PUSH0 DUP4 ADD MSTORE PUSH2 0x271B DUP2 PUSH2 0x26E2 JUMP JUMPDEST SWAP1 POP SWAP2 SWAP1 POP JUMP JUMPDEST PUSH32 0x51756F72756D2073686F756C64206265206265747765656E203020616E642031 PUSH0 DUP3 ADD MSTORE PUSH32 0x3030000000000000000000000000000000000000000000000000000000000000 PUSH1 0x20 DUP3 ADD MSTORE POP JUMP JUMPDEST PUSH0 PUSH2 0x277C PUSH1 0x22 DUP4 PUSH2 0x172F JUMP JUMPDEST SWAP2 POP PUSH2 0x2787 DUP3 PUSH2 0x2722 JUMP JUMPDEST PUSH1 0x40 DUP3 ADD SWAP1 POP SWAP2 SWAP1 POP JUMP JUMPDEST PUSH0 PUSH1 0x20 DUP3 ADD SWAP1 POP DUP2 DUP2 SUB PUSH0 DUP4 ADD MSTORE PUSH2 0x27A9 DUP2 PUSH2 0x2770 JUMP JUMPDEST SWAP1 POP SWAP2 SWAP1 POP JUMP JUMPDEST PUSH0 DUP2 SWAP1 POP DUP2 PUSH0 MSTORE PUSH1 0x20 PUSH0 KECCAK256 SWAP1 POP SWAP2 SWAP1 POP JUMP JUMPDEST PUSH0 PUSH1 0x20 PUSH1 0x1F DUP4 ADD DIV SWAP1 POP SWAP2 SWAP1 POP JUMP JUMPDEST PUSH0 DUP3 DUP3 SHL SWAP1 POP SWAP3 SWAP2 POP POP JUMP JUMPDEST PUSH0 PUSH1 0x8 DUP4 MUL PUSH2 0x280C PUSH32 0xFFFFFFFFFFFFFFFFFFFFFFFFFFFFFFFFFFFFFFFFFFFFFFFFFFFFFFFFFFFFFFFF DUP3 PUSH2 0x27D1 JUMP JUMPDEST PUSH2 0x2816 DUP7 DUP4 PUSH2 0x27D1 JUMP JUMPDEST SWAP6 POP DUP1 NOT DUP5 AND SWAP4 POP DUP1 DUP7 AND DUP5 OR SWAP3 POP POP POP SWAP4 SWAP3 POP POP POP JUMP JUMPDEST PUSH0 PUSH2 0x2848 PUSH2 0x2843 PUSH2 0x283E DUP5 PUSH2 0x16AF JUMP JUMPDEST PUSH2 0x186B JUMP JUMPDEST PUSH2 0x16AF JUMP JUMPDEST SWAP1 POP SWAP2 SWAP1 POP JUMP JUMPDEST PUSH0 DUP2 SWAP1 POP SWAP2 SWAP1 POP JUMP JUMPDEST PUSH2 0x2861 DUP4 PUSH2 0x282E JUMP JUMPDEST PUSH2 0x2875 PUSH2 0x286D DUP3 PUSH2 0x284F JUMP JUMPDEST DUP5 DUP5 SLOAD PUSH2 0x27DD JUMP JUMPDEST DUP3 SSTORE POP POP POP POP JUMP JUMPDEST PUSH0 SWAP1 JUMP JUMPDEST PUSH2 0x2889 PUSH2 0x287D JUMP JUMPDEST PUSH2 0x2894 DUP2 DUP5 DUP5 PUSH2 0x2858 JUMP JUMPDEST POP POP POP JUMP JUMPDEST JUMPDEST DUP2 DUP2 LT ISZERO PUSH2 0x28B7 JUMPI PUSH2 0x28AC PUSH0 DUP3 PUSH2 0x2881 JUMP JUMPDEST PUSH1 0x1 DUP2 ADD SWAP1 POP PUSH2 0x289A JUMP JUMPDEST POP POP JUMP JUMPDEST PUSH1 0x1F DUP3 GT ISZERO PUSH2 0x28FC JUMPI PUSH2 0x28CD DUP2 PUSH2 0x27B0 JUMP JUMPDEST PUSH2 0x28D6 DUP5 PUSH2 0x27C2 JUMP JUMPDEST DUP2 ADD PUSH1 0x20 DUP6 LT ISZERO PUSH2 0x28E5 JUMPI DUP2 SWAP1 POP JUMPDEST PUSH2 0x28F9 PUSH2 0x28F1 DUP6 PUSH2 0x27C2 JUMP JUMPDEST DUP4 ADD DUP3 PUSH2 0x2899 JUMP JUMPDEST POP POP JUMPDEST POP POP POP JUMP JUMPDEST PUSH0 DUP3 DUP3 SHR SWAP1 POP SWAP3 SWAP2 POP POP JUMP JUMPDEST PUSH0 PUSH2 0x291C PUSH0 NOT DUP5 PUSH1 0x8 MUL PUSH2 0x2901 JUMP JUMPDEST NOT DUP1 DUP4 AND SWAP2 POP POP SWAP3 SWAP2 POP POP JUMP JUMPDEST PUSH0 PUSH2 0x2934 DUP4 DUP4 PUSH2 0x290D JUMP JUMPDEST SWAP2 POP DUP3 PUSH1 0x2 MUL DUP3 OR SWAP1 POP SWAP3 SWAP2 POP POP JUMP JUMPDEST PUSH2 0x294D DUP3 PUSH2 0x1725 JUMP JUMPDEST PUSH8 0xFFFFFFFFFFFFFFFF DUP2 GT ISZERO PUSH2 0x2966 JUMPI PUSH2 0x2965 PUSH2 0x19AD JUMP JUMPDEST JUMPDEST PUSH2 0x2970 DUP3 SLOAD PUSH2 0x1ECA JUMP JUMPDEST PUSH2 0x297B DUP3 DUP3 DUP6 PUSH2 0x28BB JUMP JUMPDEST PUSH0 PUSH1 0x20 SWAP1 POP PUSH1 0x1F DUP4 GT PUSH1 0x1 DUP2 EQ PUSH2 0x29AC JUMPI PUSH0 DUP5 ISZERO PUSH2 0x299A JUMPI DUP3 DUP8 ADD MLOAD SWAP1 POP JUMPDEST PUSH2 0x29A4 DUP6 DUP3 PUSH2 0x2929 JUMP JUMPDEST DUP7 SSTORE POP PUSH2 0x2A0B JUMP JUMPDEST PUSH1 0x1F NOT DUP5 AND PUSH2 0x29BA DUP7 PUSH2 0x27B0 JUMP JUMPDEST PUSH0 JUMPDEST DUP3 DUP2 LT ISZERO PUSH2 0x29E1 JUMPI DUP5 DUP10 ADD MLOAD DUP3 SSTORE PUSH1 0x1 DUP3 ADD SWAP2 POP PUSH1 0x20 DUP6 ADD SWAP5 POP PUSH1 0x20 DUP2 ADD SWAP1 POP PUSH2 0x29BC JUMP JUMPDEST DUP7 DUP4 LT ISZERO PUSH2 0x29FE JUMPI DUP5 DUP10 ADD MLOAD PUSH2 0x29FA PUSH1 0x1F DUP10 AND DUP3 PUSH2 0x290D JUMP JUMPDEST DUP4 SSTORE POP JUMPDEST PUSH1 0x1 PUSH1 0x2 DUP9 MUL ADD DUP9 SSTORE POP POP POP JUMPDEST POP POP POP POP POP POP JUMP JUMPDEST PUSH0 PUSH1 0x40 DUP3 ADD SWAP1 POP PUSH2 0x2A26 PUSH0 DUP4 ADD DUP6 PUSH2 0x17AF JUMP JUMPDEST DUP2 DUP2 SUB PUSH1 0x20 DUP4 ADD MSTORE PUSH2 0x2A38 DUP2 DUP5 PUSH2 0x1777 JUMP JUMPDEST SWAP1 POP SWAP4 SWAP3 POP POP POP JUMP INVALID LOG2 PUSH5 0x6970667358 0x22 SLT KECCAK256 EXP NUMBER JUMPI DIV CODESIZE DUP14 CREATE2 0xB2 SWAP4 SWAP1 PUSH16 0xBE415E20444DAAF360DFFEDEC028390A NOT DUP13 PUSH2 0x403C PUSH5 0x736F6C6343 STOP ADDMOD AND STOP CALLER "
		},
		"gasEstimates": {
			"creation": {
				"codeDepositCost": "2174200",
				"executionCost": "infinite",
				"totalCost": "infinite"
			},
			"external": {
				"addProposal(string,bytes32,uint256,uint256,uint256)": "infinite",
				"endVoting(uint256)": "infinite",
				"getProposal(uint256)": "infinite",
				"owner()": "2538",
				"pauseVoting()": "infinite",
				"paused()": "2592",
				"proposalCount()": "2447",
				"proposals(uint256)": "infinite",
				"renounceOwnership()": "infinite",
				"resumeVoting()": "infinite",
				"transferContractOwnership(address)": "infinite",
				"transferOwnership(address)": "infinite",
				"verifier()": "infinite",
				"verifyProof(uint256[2],uint256[2][2],uint256[2],uint256[2])": "infinite",
				"voteForProposal(uint256,bool,bytes32[],bytes32,uint256[])": "infinite"
			},
			"internal": {
				"verifyMerkleProof(struct ArtemisDAOVoting.Proposal storage pointer,bytes32[] memory,bytes32)": "infinite"
			}
		},
		"methodIdentifiers": {
			"addProposal(string,bytes32,uint256,uint256,uint256)": "d7e82e2e",
			"endVoting(uint256)": "649f89a5",
			"getProposal(uint256)": "c7f758a8",
			"owner()": "8da5cb5b",
			"pauseVoting()": "f3cdcd1e",
			"paused()": "5c975abb",
			"proposalCount()": "da35c664",
			"proposals(uint256)": "013cf08b",
			"renounceOwnership()": "715018a6",
			"resumeVoting()": "7afdf93e",
			"transferContractOwnership(address)": "a843c51f",
			"transferOwnership(address)": "f2fde38b",
			"verifier()": "2b7ac3f3",
			"verifyProof(uint256[2],uint256[2][2],uint256[2],uint256[2])": "f5c9d69e",
			"voteForProposal(uint256,bool,bytes32[],bytes32,uint256[])": "8c7d69e4"
		}
	},
	"abi": [
		{
			"inputs": [
				{
					"internalType": "address",
					"name": "initialOwner",
					"type": "address"
				}
			],
			"stateMutability": "nonpayable",
			"type": "constructor"
		},
		{
			"inputs": [],
			"name": "AlreadyVoted",
			"type": "error"
		},
		{
			"inputs": [],
			"name": "EnforcedPause",
			"type": "error"
		},
		{
			"inputs": [],
			"name": "ExpectedPause",
			"type": "error"
		},
		{
			"inputs": [],
			"name": "InvalidMerkleProof",
			"type": "error"
		},
		{
			"inputs": [],
			"name": "InvalidProposal",
			"type": "error"
		},
		{
			"inputs": [],
			"name": "InvalidVote",
			"type": "error"
		},
		{
			"inputs": [],
			"name": "InvalidZkSnarkProof",
			"type": "error"
		},
		{
			"inputs": [],
			"name": "NotYetStarted",
			"type": "error"
		},
		{
			"inputs": [
				{
					"internalType": "address",
					"name": "owner",
					"type": "address"
				}
			],
			"name": "OwnableInvalidOwner",
			"type": "error"
		},
		{
			"inputs": [
				{
					"internalType": "address",
					"name": "account",
					"type": "address"
				}
			],
			"name": "OwnableUnauthorizedAccount",
			"type": "error"
		},
		{
			"inputs": [],
			"name": "VotingEnded",
			"type": "error"
		},
		{
			"anonymous": false,
			"inputs": [
				{
					"indexed": true,
					"internalType": "address",
					"name": "previousOwner",
					"type": "address"
				},
				{
					"indexed": true,
					"internalType": "address",
					"name": "newOwner",
					"type": "address"
				}
			],
			"name": "OwnershipTransferred",
			"type": "event"
		},
		{
			"anonymous": false,
			"inputs": [
				{
					"indexed": false,
					"internalType": "address",
					"name": "account",
					"type": "address"
				}
			],
			"name": "Paused",
			"type": "event"
		},
		{
			"anonymous": false,
			"inputs": [
				{
					"indexed": false,
					"internalType": "uint256",
					"name": "proposalId",
					"type": "uint256"
				},
				{
					"indexed": false,
					"internalType": "string",
					"name": "description",
					"type": "string"
				}
			],
			"name": "ProposalAdded",
			"type": "event"
		},
		{
			"anonymous": false,
			"inputs": [
				{
					"indexed": false,
					"internalType": "uint256",
					"name": "proposalId",
					"type": "uint256"
				},
				{
					"indexed": false,
					"internalType": "bool",
					"name": "achievedQuorum",
					"type": "bool"
				},
				{
					"indexed": false,
					"internalType": "bool",
					"name": "supported",
					"type": "bool"
				}
			],
			"name": "ProposalEnded",
			"type": "event"
		},
		{
			"anonymous": false,
			"inputs": [
				{
					"indexed": false,
					"internalType": "address",
					"name": "account",
					"type": "address"
				}
			],
			"name": "Unpaused",
			"type": "event"
		},
		{
			"anonymous": false,
			"inputs": [
				{
					"indexed": false,
					"internalType": "uint256",
					"name": "proposalId",
					"type": "uint256"
				},
				{
					"indexed": false,
					"internalType": "bool",
					"name": "support",
					"type": "bool"
				}
			],
			"name": "VoteReceived",
			"type": "event"
		},
		{
			"inputs": [
				{
					"internalType": "string",
					"name": "description",
					"type": "string"
				},
				{
					"internalType": "bytes32",
					"name": "_merkleRoot",
					"type": "bytes32"
				},
				{
					"internalType": "uint256",
					"name": "duration",
					"type": "uint256"
				},
				{
					"internalType": "uint256",
					"name": "_quorum",
					"type": "uint256"
				},
				{
					"internalType": "uint256",
					"name": "passcodeHash",
					"type": "uint256"
				}
			],
			"name": "addProposal",
			"outputs": [],
			"stateMutability": "nonpayable",
			"type": "function"
		},
		{
			"inputs": [
				{
					"internalType": "uint256",
					"name": "proposalId",
					"type": "uint256"
				}
			],
			"name": "endVoting",
			"outputs": [],
			"stateMutability": "nonpayable",
			"type": "function"
		},
		{
			"inputs": [
				{
					"internalType": "uint256",
					"name": "proposalId",
					"type": "uint256"
				}
			],
			"name": "getProposal",
			"outputs": [
				{
					"internalType": "bytes32",
					"name": "merkleRoot",
					"type": "bytes32"
				},
				{
					"internalType": "string",
					"name": "proposalDescription",
					"type": "string"
				},
				{
					"internalType": "uint256",
					"name": "startTime",
					"type": "uint256"
				},
				{
					"internalType": "uint256",
					"name": "endTime",
					"type": "uint256"
				},
				{
					"internalType": "uint256",
					"name": "quorum",
					"type": "uint256"
				},
				{
					"internalType": "uint256",
					"name": "passcodeHash",
					"type": "uint256"
				},
				{
					"internalType": "bool",
					"name": "hasEnded",
					"type": "bool"
				}
			],
			"stateMutability": "view",
			"type": "function"
		},
		{
			"inputs": [],
			"name": "owner",
			"outputs": [
				{
					"internalType": "address",
					"name": "",
					"type": "address"
				}
			],
			"stateMutability": "view",
			"type": "function"
		},
		{
			"inputs": [],
			"name": "pauseVoting",
			"outputs": [],
			"stateMutability": "nonpayable",
			"type": "function"
		},
		{
			"inputs": [],
			"name": "paused",
			"outputs": [
				{
					"internalType": "bool",
					"name": "",
					"type": "bool"
				}
			],
			"stateMutability": "view",
			"type": "function"
		},
		{
			"inputs": [],
			"name": "proposalCount",
			"outputs": [
				{
					"internalType": "uint256",
					"name": "",
					"type": "uint256"
				}
			],
			"stateMutability": "view",
			"type": "function"
		},
		{
			"inputs": [
				{
					"internalType": "uint256",
					"name": "",
					"type": "uint256"
				}
			],
			"name": "proposals",
			"outputs": [
				{
					"internalType": "bytes32",
					"name": "merkleRoot",
					"type": "bytes32"
				},
				{
					"internalType": "string",
					"name": "proposalDescription",
					"type": "string"
				},
				{
					"internalType": "uint256",
					"name": "startTime",
					"type": "uint256"
				},
				{
					"internalType": "uint256",
					"name": "endTime",
					"type": "uint256"
				},
				{
					"internalType": "uint256",
					"name": "quorum",
					"type": "uint256"
				},
				{
					"internalType": "bool",
					"name": "hasEnded",
					"type": "bool"
				},
				{
					"internalType": "uint256",
					"name": "passcodeHash",
					"type": "uint256"
				}
			],
			"stateMutability": "view",
			"type": "function"
		},
		{
			"inputs": [],
			"name": "renounceOwnership",
			"outputs": [],
			"stateMutability": "nonpayable",
			"type": "function"
		},
		{
			"inputs": [],
			"name": "resumeVoting",
			"outputs": [],
			"stateMutability": "nonpayable",
			"type": "function"
		},
		{
			"inputs": [
				{
					"internalType": "address",
					"name": "newOwner",
					"type": "address"
				}
			],
			"name": "transferContractOwnership",
			"outputs": [],
			"stateMutability": "nonpayable",
			"type": "function"
		},
		{
			"inputs": [
				{
					"internalType": "address",
					"name": "newOwner",
					"type": "address"
				}
			],
			"name": "transferOwnership",
			"outputs": [],
			"stateMutability": "nonpayable",
			"type": "function"
		},
		{
			"inputs": [],
			"name": "verifier",
			"outputs": [
				{
					"internalType": "contract Groth16Verifier",
					"name": "",
					"type": "address"
				}
			],
			"stateMutability": "view",
			"type": "function"
		},
		{
			"inputs": [
				{
					"internalType": "uint256[2]",
					"name": "_pA",
					"type": "uint256[2]"
				},
				{
					"internalType": "uint256[2][2]",
					"name": "_pB",
					"type": "uint256[2][2]"
				},
				{
					"internalType": "uint256[2]",
					"name": "_pC",
					"type": "uint256[2]"
				},
				{
					"internalType": "uint256[2]",
					"name": "_pubSignals",
					"type": "uint256[2]"
				}
			],
			"name": "verifyProof",
			"outputs": [
				{
					"internalType": "bool",
					"name": "",
					"type": "bool"
				}
			],
			"stateMutability": "view",
			"type": "function"
		},
		{
			"inputs": [
				{
					"internalType": "uint256",
					"name": "proposalId",
					"type": "uint256"
				},
				{
					"internalType": "bool",
					"name": "support",
					"type": "bool"
				},
				{
					"internalType": "bytes32[]",
					"name": "merkleProof",
					"type": "bytes32[]"
				},
				{
					"internalType": "bytes32",
					"name": "leaf",
					"type": "bytes32"
				},
				{
					"internalType": "uint256[]",
					"name": "proof",
					"type": "uint256[]"
				}
			],
			"name": "voteForProposal",
			"outputs": [],
			"stateMutability": "nonpayable",
			"type": "function"
		}
	]
}